{
  "_format": "hh-sol-artifact-1",
  "contractName": "KettleAssetFactory",
  "sourceName": "contracts/KettleAssetFactory.sol",
  "abi": [
    {
      "inputs": [],
      "name": "Create2EmptyBytecode",
      "type": "error"
    },
    {
      "inputs": [],
      "name": "Create2FailedDeployment",
      "type": "error"
    },
    {
      "inputs": [
        {
          "internalType": "uint256",
          "name": "balance",
          "type": "uint256"
        },
        {
          "internalType": "uint256",
          "name": "needed",
          "type": "uint256"
        }
      ],
      "name": "Create2InsufficientBalance",
      "type": "error"
    },
    {
      "inputs": [],
      "name": "InvalidInitialization",
      "type": "error"
    },
    {
      "inputs": [],
      "name": "NotInitializing",
      "type": "error"
    },
    {
      "inputs": [
        {
          "internalType": "address",
          "name": "owner",
          "type": "address"
        }
      ],
      "name": "OwnableInvalidOwner",
      "type": "error"
    },
    {
      "inputs": [
        {
          "internalType": "address",
          "name": "account",
          "type": "address"
        }
      ],
      "name": "OwnableUnauthorizedAccount",
      "type": "error"
    },
    {
      "inputs": [
        {
          "internalType": "uint256",
          "name": "value",
          "type": "uint256"
        },
        {
          "internalType": "uint256",
          "name": "length",
          "type": "uint256"
        }
      ],
      "name": "StringsInsufficientHexLength",
      "type": "error"
    },
    {
      "anonymous": false,
      "inputs": [
        {
          "indexed": true,
          "internalType": "address",
          "name": "asset",
          "type": "address"
        },
        {
          "indexed": false,
          "internalType": "bool",
          "name": "locked",
          "type": "bool"
        }
      ],
      "name": "ContractLocked",
      "type": "event"
    },
    {
      "anonymous": false,
      "inputs": [
        {
          "indexed": false,
          "internalType": "uint64",
          "name": "version",
          "type": "uint64"
        }
      ],
      "name": "Initialized",
      "type": "event"
    },
    {
      "anonymous": false,
      "inputs": [
        {
          "indexed": true,
          "internalType": "address",
          "name": "asset",
          "type": "address"
        },
        {
          "indexed": false,
          "internalType": "string",
          "name": "brand",
          "type": "string"
        },
        {
          "indexed": false,
          "internalType": "string",
          "name": "model",
          "type": "string"
        },
        {
          "indexed": false,
          "internalType": "string",
          "name": "ref",
          "type": "string"
        }
      ],
      "name": "KettleAssetDeployed",
      "type": "event"
    },
    {
      "anonymous": false,
      "inputs": [
        {
          "indexed": true,
          "internalType": "address",
          "name": "asset",
          "type": "address"
        },
        {
          "indexed": true,
          "internalType": "address",
          "name": "from",
          "type": "address"
        },
        {
          "indexed": true,
          "internalType": "address",
          "name": "to",
          "type": "address"
        },
        {
          "indexed": false,
          "internalType": "uint256",
          "name": "tokenId",
          "type": "uint256"
        }
      ],
      "name": "KettleAssetTransferred",
      "type": "event"
    },
    {
      "anonymous": false,
      "inputs": [
        {
          "indexed": true,
          "internalType": "address",
          "name": "operator",
          "type": "address"
        },
        {
          "indexed": false,
          "internalType": "bool",
          "name": "approved",
          "type": "bool"
        }
      ],
      "name": "OperatorWhitelisted",
      "type": "event"
    },
    {
      "anonymous": false,
      "inputs": [
        {
          "indexed": true,
          "internalType": "address",
          "name": "previousOwner",
          "type": "address"
        },
        {
          "indexed": true,
          "internalType": "address",
          "name": "newOwner",
          "type": "address"
        }
      ],
      "name": "OwnershipTransferred",
      "type": "event"
    },
    {
      "anonymous": false,
      "inputs": [
        {
          "indexed": true,
          "internalType": "address",
          "name": "account",
          "type": "address"
        },
        {
          "indexed": false,
          "internalType": "bytes32",
          "name": "role",
          "type": "bytes32"
        },
        {
          "indexed": false,
          "internalType": "bool",
          "name": "privilege",
          "type": "bool"
        }
      ],
      "name": "RoleGranted",
      "type": "event"
    },
    {
      "anonymous": false,
      "inputs": [
        {
          "indexed": true,
          "internalType": "address",
          "name": "asset",
          "type": "address"
        },
        {
          "indexed": false,
          "internalType": "uint256",
          "name": "tokenId",
          "type": "uint256"
        },
        {
          "indexed": false,
          "internalType": "bool",
          "name": "locked",
          "type": "bool"
        }
      ],
      "name": "TokenLocked",
      "type": "event"
    },
    {
      "anonymous": false,
      "inputs": [
        {
          "indexed": true,
          "internalType": "address",
          "name": "asset",
          "type": "address"
        },
        {
          "indexed": true,
          "internalType": "address",
          "name": "from",
          "type": "address"
        },
        {
          "indexed": true,
          "internalType": "address",
          "name": "to",
          "type": "address"
        },
        {
          "indexed": false,
          "internalType": "uint256",
          "name": "tokenId",
          "type": "uint256"
        },
        {
          "indexed": false,
          "internalType": "bool",
          "name": "approved",
          "type": "bool"
        }
      ],
      "name": "TransferApproved",
      "type": "event"
    },
    {
      "inputs": [],
      "name": "BASE_URI",
      "outputs": [
        {
          "internalType": "string",
          "name": "",
          "type": "string"
        }
      ],
      "stateMutability": "view",
      "type": "function"
    },
    {
      "inputs": [],
      "name": "MINTER_ROLE",
      "outputs": [
        {
          "internalType": "bytes32",
          "name": "",
          "type": "bytes32"
        }
      ],
      "stateMutability": "view",
      "type": "function"
    },
    {
      "inputs": [
        {
          "internalType": "address",
          "name": "",
          "type": "address"
        },
        {
          "internalType": "address",
          "name": "",
          "type": "address"
        },
        {
          "internalType": "address",
          "name": "",
          "type": "address"
        },
        {
          "internalType": "uint256",
          "name": "",
          "type": "uint256"
        }
      ],
      "name": "approvedTransfers",
      "outputs": [
        {
          "internalType": "bool",
          "name": "",
          "type": "bool"
        }
      ],
      "stateMutability": "view",
      "type": "function"
    },
    {
      "inputs": [],
      "name": "beacon",
      "outputs": [
        {
          "internalType": "contract UpgradeableBeacon",
          "name": "",
          "type": "address"
        }
      ],
      "stateMutability": "view",
      "type": "function"
    },
    {
      "inputs": [
        {
          "internalType": "bytes32",
          "name": "salt",
          "type": "bytes32"
        },
        {
          "internalType": "string",
          "name": "brand",
          "type": "string"
        },
        {
          "internalType": "string",
          "name": "model",
          "type": "string"
        },
        {
          "internalType": "string",
          "name": "ref",
          "type": "string"
        }
      ],
      "name": "deployAsset",
      "outputs": [
        {
          "internalType": "address",
          "name": "proxy",
          "type": "address"
        }
      ],
      "stateMutability": "nonpayable",
      "type": "function"
    },
    {
      "inputs": [
        {
          "internalType": "bytes32",
          "name": "salt",
          "type": "bytes32"
        }
      ],
      "name": "getDeploymentAddress",
      "outputs": [
        {
          "internalType": "address",
          "name": "",
          "type": "address"
        }
      ],
      "stateMutability": "view",
      "type": "function"
    },
    {
      "inputs": [
        {
          "internalType": "address",
          "name": "asset",
          "type": "address"
        },
        {
          "internalType": "address",
          "name": "from",
          "type": "address"
        },
        {
          "internalType": "address",
          "name": "to",
          "type": "address"
        },
        {
          "internalType": "uint256",
          "name": "tokenId",
          "type": "uint256"
        }
      ],
      "name": "indexTransfer",
      "outputs": [],
      "stateMutability": "nonpayable",
      "type": "function"
    },
    {
      "inputs": [
        {
          "internalType": "address",
          "name": "owner",
          "type": "address"
        },
        {
          "internalType": "address",
          "name": "_implementation",
          "type": "address"
        }
      ],
      "name": "initialize",
      "outputs": [],
      "stateMutability": "nonpayable",
      "type": "function"
    },
    {
      "inputs": [
        {
          "internalType": "address",
          "name": "",
          "type": "address"
        }
      ],
      "name": "isKettleAsset",
      "outputs": [
        {
          "internalType": "bool",
          "name": "",
          "type": "bool"
        }
      ],
      "stateMutability": "view",
      "type": "function"
    },
    {
      "inputs": [],
      "name": "kettleAssetImplementation",
      "outputs": [
        {
          "internalType": "address",
          "name": "",
          "type": "address"
        }
      ],
      "stateMutability": "view",
      "type": "function"
    },
    {
      "inputs": [
        {
          "internalType": "address",
          "name": "asset",
          "type": "address"
        },
        {
          "internalType": "bool",
          "name": "locked",
          "type": "bool"
        }
      ],
      "name": "lockContract",
      "outputs": [],
      "stateMutability": "nonpayable",
      "type": "function"
    },
    {
      "inputs": [
        {
          "internalType": "address",
          "name": "asset",
          "type": "address"
        },
        {
          "internalType": "uint256",
          "name": "tokenId",
          "type": "uint256"
        },
        {
          "internalType": "bool",
          "name": "locked",
          "type": "bool"
        }
      ],
      "name": "lockToken",
      "outputs": [],
      "stateMutability": "nonpayable",
      "type": "function"
    },
    {
      "inputs": [
        {
          "internalType": "address",
          "name": "",
          "type": "address"
        }
      ],
      "name": "lockedContracts",
      "outputs": [
        {
          "internalType": "bool",
          "name": "",
          "type": "bool"
        }
      ],
      "stateMutability": "view",
      "type": "function"
    },
    {
      "inputs": [
        {
          "internalType": "address",
          "name": "",
          "type": "address"
        },
        {
          "internalType": "uint256",
          "name": "",
          "type": "uint256"
        }
      ],
      "name": "lockedTokens",
      "outputs": [
        {
          "internalType": "bool",
          "name": "",
          "type": "bool"
        }
      ],
      "stateMutability": "view",
      "type": "function"
    },
    {
      "inputs": [
        {
          "internalType": "address",
          "name": "asset",
          "type": "address"
        },
        {
          "internalType": "address",
          "name": "to",
          "type": "address"
        },
        {
          "internalType": "uint256",
          "name": "id",
          "type": "uint256"
        }
      ],
      "name": "mint",
      "outputs": [],
      "stateMutability": "nonpayable",
      "type": "function"
    },
    {
      "inputs": [
        {
          "internalType": "address",
          "name": "",
          "type": "address"
        }
      ],
      "name": "operators",
      "outputs": [
        {
          "internalType": "bool",
          "name": "",
          "type": "bool"
        }
      ],
      "stateMutability": "view",
      "type": "function"
    },
    {
      "inputs": [],
      "name": "owner",
      "outputs": [
        {
          "internalType": "address",
          "name": "",
          "type": "address"
        }
      ],
      "stateMutability": "view",
      "type": "function"
    },
    {
      "inputs": [
        {
          "internalType": "address",
          "name": "asset",
          "type": "address"
        },
        {
          "internalType": "address",
          "name": "from",
          "type": "address"
        },
        {
          "internalType": "address",
          "name": "to",
          "type": "address"
        },
        {
          "internalType": "uint256",
          "name": "tokenId",
          "type": "uint256"
        }
      ],
      "name": "removeApprovedTransfer",
      "outputs": [],
      "stateMutability": "nonpayable",
      "type": "function"
    },
    {
      "inputs": [],
      "name": "renounceOwnership",
      "outputs": [],
      "stateMutability": "nonpayable",
      "type": "function"
    },
    {
      "inputs": [
        {
          "internalType": "address",
          "name": "",
          "type": "address"
        },
        {
          "internalType": "bytes32",
          "name": "",
          "type": "bytes32"
        }
      ],
      "name": "roles",
      "outputs": [
        {
          "internalType": "bool",
          "name": "",
          "type": "bool"
        }
      ],
      "stateMutability": "view",
      "type": "function"
    },
    {
      "inputs": [
        {
          "internalType": "address",
          "name": "asset",
          "type": "address"
        },
        {
          "internalType": "address",
          "name": "from",
          "type": "address"
        },
        {
          "internalType": "address",
          "name": "to",
          "type": "address"
        },
        {
          "internalType": "uint256",
          "name": "tokenId",
          "type": "uint256"
        },
        {
          "internalType": "bool",
          "name": "approved",
          "type": "bool"
        }
      ],
      "name": "setApprovedTransfer",
      "outputs": [],
      "stateMutability": "nonpayable",
      "type": "function"
    },
    {
      "inputs": [
        {
          "internalType": "string",
          "name": "_baseURI",
          "type": "string"
        }
      ],
      "name": "setBaseURI",
      "outputs": [],
      "stateMutability": "nonpayable",
      "type": "function"
    },
    {
      "inputs": [
        {
          "internalType": "address",
          "name": "asset",
          "type": "address"
        },
        {
          "internalType": "string",
          "name": "brand",
          "type": "string"
        },
        {
          "internalType": "string",
          "name": "model",
          "type": "string"
        },
        {
          "internalType": "string",
          "name": "ref",
          "type": "string"
        }
      ],
      "name": "setMetadata",
      "outputs": [],
      "stateMutability": "nonpayable",
      "type": "function"
    },
    {
      "inputs": [
        {
          "internalType": "address",
          "name": "operator",
          "type": "address"
        },
        {
          "internalType": "bool",
          "name": "approved",
          "type": "bool"
        }
      ],
      "name": "setOperator",
      "outputs": [],
      "stateMutability": "nonpayable",
      "type": "function"
    },
    {
      "inputs": [
        {
          "internalType": "bytes32",
          "name": "role",
          "type": "bytes32"
        },
        {
          "internalType": "address",
          "name": "account",
          "type": "address"
        },
        {
          "internalType": "bool",
          "name": "privilege",
          "type": "bool"
        }
      ],
      "name": "setRole",
      "outputs": [],
      "stateMutability": "nonpayable",
      "type": "function"
    },
    {
      "inputs": [
        {
          "internalType": "address",
          "name": "asset",
          "type": "address"
        },
        {
          "internalType": "uint256",
          "name": "tokenId",
          "type": "uint256"
        }
      ],
      "name": "tokenURI",
      "outputs": [
        {
          "internalType": "string",
          "name": "",
          "type": "string"
        }
      ],
      "stateMutability": "view",
      "type": "function"
    },
    {
      "inputs": [
        {
          "internalType": "address",
          "name": "newOwner",
          "type": "address"
        }
      ],
      "name": "transferOwnership",
      "outputs": [],
      "stateMutability": "nonpayable",
      "type": "function"
    },
    {
      "inputs": [
        {
          "internalType": "address",
          "name": "newImplementation",
          "type": "address"
        }
      ],
      "name": "upgradeImplementation",
      "outputs": [],
      "stateMutability": "nonpayable",
      "type": "function"
    }
  ],
  "bytecode": "0x60806040523461001a57604051613766610020823961376690f35b600080fdfe608060405260043610156200001357600080fd5b60003560e01c806305ec452a146200020a57806307df0056146200020457806313e7c9d814620001fe578063337d401014620001f85780633a45b68614620001f2578063485cc95514620001ec5780634d80f96514620001e657806353719b6e14620001e0578063558a729714620001da57806355f804b314620001d457806359659e9014620001ce5780636a95131614620001c8578063715018a614620001c25780637afb591814620001bc57806383f94db714620001b65780638da5cb5b14620001b0578063913874b714620001aa578063967c723914620001a4578063a9929ba1146200019e578063c583fcec1462000198578063c6c3bbe61462000192578063d41d4174146200018c578063d53913931462000186578063d905088c1462000180578063da904111146200017a578063dbddb26a1462000174578063e9dc6375146200016e5763f2fde38b03620002325762000d11565b62000cef565b62000cc1565b62000aee565b62000aa7565b62000a07565b620009e6565b620009b3565b62000957565b6200090c565b620008e1565b62000893565b62000872565b62000855565b62000834565b620007ff565b620007e1565b6200077c565b6200070c565b620006c5565b620006a3565b6200061b565b620004a8565b62000462565b620003e7565b620003af565b62000374565b620002e1565b6001600160a01b031690565b90565b6001600160a01b0381165b036200023257565b600080fd5b9050359062000246826200021f565b565b9060208282031262000232576200021c9162000237565b6200021c9062000210906001600160a01b031682565b6200021c906200025f565b6200021c9062000275565b90620002979062000280565b600052602052604060002090565b6200021c916008021c5b60ff1690565b906200021c9154620002a5565b6200021c90620002d76003916000926200028b565b620002b5565b9052565b3462000232576200031562000302620002fc36600462000248565b620002c2565b6040515b91829182901515815260200190565b0390f35b806200022a565b90503590620002468262000319565b608081830312620002325762000346828262000237565b926200021c6200035a846020850162000237565b936200036a816040860162000237565b9360600162000320565b346200023257620003956200038b3660046200032f565b9291909162001d6d565b604051005b6200021c90620002d76005916000926200028b565b3462000232576200031562000302620003ca36600462000248565b6200039a565b9060208282031262000232576200021c9162000320565b346200023257620003156200040862000402366004620003d0565b6200181b565b604051918291826001600160a01b03909116815260200190565b8015156200022a565b90503590620002468262000422565b919060408382031262000232576200021c9062000458818562000237565b936020016200042b565b34620002325762000395620004793660046200043a565b9062001dcd565b919060408382031262000232576200021c906200049e818562000237565b9360200162000237565b34620002325762000395620004bf36600462000480565b90620012c1565b634e487b7160e01b600052604160045260246000fd5b90601f01601f191681019081106001600160401b03821117620004fe57604052565b620004c6565b90620002466200051360405190565b9283620004dc565b6001600160401b038111620004fe57602090601f01601f19160190565b0190565b90826000939282370152565b90929192620005616200055b826200051b565b62000504565b93818552602085019082840111620002325762000246926200053c565b9080601f8301121562000232578160206200021c9335910162000548565b906080828203126200023257620005b4818362000320565b9260208301356001600160401b038111620002325782620005d79185016200057e565b9260408101356001600160401b038111620002325783620005fa9183016200057e565b9260608201356001600160401b03811162000232576200021c92016200057e565b3462000232576200031562000408620006363660046200059c565b929190916200174e565b919060408382031262000232576200021c906200065e818562000237565b9360200162000320565b6200021c6200021c6200021c9290565b90620002979062000668565b620002d76200021c926200069d6007936000946200028b565b62000678565b3462000232576200031562000302620006be36600462000640565b9062000684565b34620002325762000395620006dc3660046200043a565b9062001ab8565b90602082820312620002325781356001600160401b03811162000232576200021c92016200057e565b3462000232576200039562000723366004620006e3565b62002002565b60009103126200023257565b6200021c916008021c62000210565b906200021c915462000735565b6200021c6000600162000744565b620002dd9062000280565b6020810192916200024691906200075f565b3462000232576200078f36600462000729565b620003156200079d62000751565b604051918291826200076a565b909160608284031262000232576200021c620007c7848462000320565b93620007d7816020860162000237565b936040016200042b565b34620002325762000395620007f8366004620007aa565b9162001a4e565b3462000232576200081236600462000729565b6200039562000db5565b906080828203126200023257620005b4818362000237565b346200023257620003956200084b3660046200081c565b929190916200211c565b346200023257620003956200086c36600462000248565b620019ca565b3462000232576200088536600462000729565b620003156200040862000d45565b34620002325762000395620008aa3660046200032f565b9291909162001c14565b909160608284031262000232576200021c620008d1848462000237565b93620007d7816020860162000320565b34620002325762000395620008f8366004620008b4565b9162001e2f565b6200021c60008062000744565b3462000232576200091f36600462000729565b6200031562000408620008ff565b91926200069d6200021c9462000951620002d794620009516008976000986200028b565b6200028b565b3462000232576200031562000302620009723660046200032f565b929190916200092d565b909160608284031262000232576200021c62000999848462000237565b93620009a9816020860162000237565b9360400162000320565b34620002325762000395620009ca3660046200097c565b9162001d00565b6200021c90620002d76006916000926200028b565b346200023257620003156200030262000a0136600462000248565b620009d1565b34620002325762000a1a36600462000729565b620003157f9f2df0fed2c77648de5860a4cc508cd0818c85b8b8a1ab4ceeef8d981c8956a66040515b9182918290815260200190565b919060a083820312620002325762000a69818462000237565b9262000a79826020830162000237565b926200021c62000a8d846040850162000237565b9362000a9d816060860162000320565b936080016200042b565b3462000232576200039562000abe36600462000a50565b9392909262001b4b565b9062000297565b620002d76200021c9262000ae86004936000946200028b565b62000ac8565b346200023257620003156200030262000b0936600462000640565b9062000acf565b634e487b7160e01b600052600060045260246000fd5b634e487b7160e01b600052602260045260246000fd5b906001600283049216801562000b5f575b602083101462000b5957565b62000b26565b91607f169162000b4d565b8054600093929162000b8a62000b808362000b3c565b8085529360200190565b916001811690811562000be1575060011462000ba557505050565b62000bb99192939450600052602060002090565b916000925b81841062000bcc5750500190565b80548484015260209093019260010162000bbe565b92949550505060ff1916825215156020020190565b906200021c9162000b6a565b906200024662000c209262000c1660405190565b9384809262000bf6565b0383620004dc565b9060001062000c3c576200021c9062000c02565b62000b10565b6200021c6000600262000c28565b60005b83811062000c645750506000910152565b818101518382015260200162000c53565b62000c9a62000ca4602093620005389362000c8e815190565b80835293849260200190565b9586910162000c50565b601f01601f191690565b60208082526200021c9291019062000c75565b34620002325762000cd436600462000729565b6200031562000ce262000c42565b6040519182918262000cae565b3462000232576200031562000ce262000d0a36600462000640565b9062002249565b3462000232576200039562000d2836600462000248565b62000e92565b6200021c9062000210565b6200021c905462000d2e565b6200021c7f9016d09d72d40fdae2fd8ceac6b6234c7706214fd39c1cd1e609a0528c19930062000d39565b62000d7a62000dbf565b6200024662000d9f565b620002106200021c6200021c9290565b6200021c9062000d84565b6200024662000daf600062000d94565b62000ed2565b6200024662000d70565b62000dc962000d45565b339062000dde825b916001600160a01b031690565b0362000de75750565b62000e1a9062000df660405190565b63118cdaa760e01b8152918291600483016001600160a01b03909116815260200190565b0390fd5b620002469062000e2d62000dbf565b62000e39600062000d94565b6001600160a01b0381166001600160a01b0383161462000e5f5750620002469062000ed2565b62000e1a9062000e6e60405190565b631e4fbdf760e01b8152918291600483016001600160a01b03909116815260200190565b620002469062000e1e565b906001600160a01b03905b9181191691161790565b9062000ec66200021c62000ece9262000280565b825462000e9d565b9055565b7f9016d09d72d40fdae2fd8ceac6b6234c7706214fd39c1cd1e609a0528c1993009062000f0b8162000f048462000d39565b9362000eb2565b62000f4262000f3b7f8be0079c531659141344cd1fd0a4f28419497f9722a3daafe3b4186f6b6457e09362000280565b9162000280565b9162000f4d60405190565b600090a3565b6200021c9060401c620002af565b6200021c905462000f53565b6200021c905b6001600160401b031690565b6200021c905462000f6d565b62000f736200021c6200021c9290565b906001600160401b039062000ea8565b62000f736200021c6200021c926001600160401b031690565b9062000fd86200021c62000ece9262000fab565b825462000f9b565b9068ff00000000000000009060401b62000ea8565b90620010086200021c62000ece92151590565b825462000fe0565b620002dd9062000f8b565b60208101929162000246919062001010565b907ff0c57e16840df040f15088dc2f81fe391c3923bec73e23a9662efc9c229c6a0090816200106f62001068620010648362000f61565b1590565b9162000f7f565b936000926200107e8462000f8b565b6001600160401b0387161480620011a4575b600196620010af620010a28962000f8b565b916001600160401b031690565b14908162001175575b155b90816200116b575b506200115957620010f39183620010e886620010de8a62000f8b565b9801978862000fc4565b6200114757620011dd565b620010fd57505050565b620011089162000ff5565b620011427fc7f505b2f371ae2175ee4913f4499e1f2633a7b5936321eed1cdaeb6115181d2916200113860405190565b918291826200101b565b0390a1565b62001153878762000ff5565b620011dd565b60405163f92ee8a960e01b8152600490fd5b15905038620010c2565b9050620010ba620011863062000280565b3b6200119a620011968862000668565b9190565b14919050620010b8565b508262001090565b6040513d6000823e3d90fd5b9060ff9062000ea8565b90620011d56200021c62000ece92151590565b8254620011b8565b90620011f690620011ee83620012e7565b600062000eb2565b62001202600062000d39565b6200120d3062000280565b906200121860405190565b916107308301908382106001600160401b03831117620004fe5783926200125c926107306200300186396001600160a01b0391821681529116602082015260400190565b03906000f0908115620012bb576200127a6200024692600162000eb2565b620012b56200128d60019260046200028b565b7f9f2df0fed2c77648de5860a4cc508cd0818c85b8b8a1ab4ceeef8d981c8956a69062000ac8565b620011c2565b620011ac565b9062000246916200102d565b6200024690620012dc6200130c565b620002469062001301565b6200024690620012cd565b620002469062000e2d6200130c565b6200024690620012f2565b6200131a6200106462001333565b6200132157565b604051631afcd79f60e31b8152600490fd5b6200021c7ff0c57e16840df040f15088dc2f81fe391c3923bec73e23a9662efc9c229c6a0062000f61565b906200021c949392916200137162000dbf565b6200147a565b6001600160a01b0390911681526200021c916040820191602081840391015262000c75565b62000538620013b792602092620013b1815190565b94859290565b9384910162000c50565b620013d2906200021c93926200139c565b906200139c565b15620013e157565b60405162461bcd60e51b815260206004820152602a60248201527f4b6574746c654173736574466163746f72793a204661696c656420746f206465604482015269706c6f792070726f787960b01b6064820152608490fd5b916200146b906200145c6200021c95936060860190868203600088015262000c75565b90848203602086015262000c75565b91604081840391015262000c75565b50939291620015686200154762001554620015286004620014dd63189acdbd60e31b620014cd620014ab3062000280565b6040515b94859360208501908152016001600160a01b03909116815260200190565b60208201810382520382620004dc565b620015356106dc91620014f36020840162000504565b928084526200292560208501396200151662001510600162000d39565b62000280565b60405194859260208401928362001377565b90810382520383620004dc565b604051938492602084019283620013c1565b90810382520382620004dc565b600096620015628862000668565b62001772565b918295620015906200157e620002108362000d94565b6001600160a01b0386161415620013d9565b6200159f620015108562000280565b63c1fd4137813b156200023257620015c1620015ba60405190565b9160e01b90565b8152828180620015d5876004830162000cae565b038183865af18015620012bb576200172d575b506346d75c8c813b15620002325762001604620015ba60405190565b815282818062001618886004830162000cae565b038183865af18015620012bb576200170c575b5063c73e835c90803b156200023257620016549183916200164b60405190565b93849260e01b90565b8252818381620016688c6004830162000cae565b03925af18015620012bb57620016d8575b50506200168e6001620012b58560036200028b565b620016d3620016be7fc48f4fa7c0018c6d5d2f3460a981dcc083422622ebd2b27ff15cd404fd4474b69462000280565b94620016c960405190565b9384938462001439565b0390a2565b81620016fc92903d1062001704575b620016f38183620004dc565b81019062000729565b388062001679565b503d620016e7565b6200172690833d85116200170457620016f38183620004dc565b386200162b565b6200174790833d85116200170457620016f38183620004dc565b38620015e8565b6200021c9392919060006200135e565b908152604081019291620002469160200152565b90929190620017813062000280565b81813110620017f55750815193600094620017a0620011968762000668565b14620017e3578262000210926020620017bf9551920190f59362000d94565b6001600160a01b03831614620017d157565b604051633a0ba96160e11b8152600490fd5b604051631328927760e21b8152600490fd5b3162000e1a6200180460405190565b63392efb2b60e21b8152928392600484016200175e565b6200021c9063189acdbd60e31b906200154762001856620015286004620014dd620018463062000280565b96620014cd88620014af60405190565b6200186a62001863825190565b9160200190565b2090605592600b9291604051926040840152602083015281520160ff81532090565b62000246906200189b62000dbf565b62001914565b15620018a957565b60405162461bcd60e51b815260206004820152603a60248201527f4b6574746c654173736574466163746f72793a206e657720696d706c656d656e60448201527f746174696f6e20697320746865207a65726f20616464726573730000000000006064820152608490fd5b6000906200193c6200192a620002108462000d94565b6001600160a01b0383161415620018a1565b6200194c62001510600162000d39565b91633659cfe692803b156200023257620019759382916200196c60405190565b95869260e01b90565b82526001600160a01b0385166004830152602490829084905af1928315620012bb576200024693620019a9575b5062000eb2565b620019c390823d84116200170457620016f38183620004dc565b38620019a2565b62000246906200188c565b90620002469291620019e662000dbf565b91620019fe81620012b58562000ae88660046200028b565b62001a2a7fed9ca00e2beefe500c0b0c86a682b50f9c084388050155225f2f1c73031d12b69262000280565b92620016d362001a3960405190565b92839283908152901515602082015260400190565b90620002469291620019d5565b90620002469162001a6b62000dbf565b62001a7d82620012b58360056200028b565b620016d362001aad7f67a9140af3a1924dd071fca7a7245c954e029768ad9a3a500e3db4886105f0ed9262000280565b926200030660405190565b90620002469162001a5b565b90620002469493929162001ad762000dbf565b9091929362001afc81620012b5876200069d886200095189620009518a60086200028b565b62001b3762001b3062001b307f4254a7031f333608022dc7f5fa51cd35b8fc4f6e57dc6f41e008ab0f334a7cf29462000280565b9462000280565b9462001b4662001a3960405190565b0390a4565b90620002469493929162001ac4565b6200021c90620002af565b6200021c905462001b5a565b1562001b7957565b60405162461bcd60e51b81526020600482015260006024820152604490fd5b906200024693929162001bb762001bb18260036200028b565b62001b65565b801562001bd0575b62001bca9062001b71565b62001bf1565b5062001bca3362001be862000dd16200021062000d45565b14905062001bbf565b600062001afc81620012b5876200069d886200095189620009518a60086200028b565b906200024693929162001b98565b6200024692919062001c6962001c6362001bb17f9f2df0fed2c77648de5860a4cc508cd0818c85b8b8a1ab4ceeef8d981c8956a662000ae83360046200028b565b62001b71565b62001c8d565b6001600160a01b039091168152604081019291620002469160200152565b6200151062001c9c9162000280565b906340c10f1991803b15620002325762001cce6000809462001cda62001cc160405190565b9788968795869460e01b90565b84526004840162001c6f565b03925af18015620012bb5762001ced5750565b62000246906000620016f38183620004dc565b9062000246929162001c22565b906200024693929162001d2a62001c6362001bb18360036200028b565b62001b4662001d6262001b3062001b307f58185104334934e85baef523df3cf65c6e9d50f111d29564c920a152887c102f9462000280565b9462000a4360405190565b906200024693929162001d0d565b90620002469162001d8b62000dbf565b62001d9d82620012b58360066200028b565b620016d362001aad7f20e971e0ada27855ad53b123623391fc76cc2802802b422fad5011bc88405cf99262000280565b90620002469162001d7b565b9062000246929162001dea62000dbf565b909162001e0381620012b5856200069d8660076200028b565b62001a2a7f09fa95f83aea87324fd2b999ba8d791b7700e7d6e7a043a06dc82b0af2c86dfb9262000280565b9062000246929162001dd9565b620002469062001e4b62000dbf565b62001ff5565b9160001960089290920291821b911b62000ea8565b919062001e7b6200021c62000ece9362000668565b90835462001e51565b620002469160009162001e66565b81811062001e9e575050565b8062001eae600060019362001e84565b0162001e92565b9190601f811162001ec557505050565b62001ed96200024693600052602060002090565b906020601f84018190048301931062001efd575b6020601f90910104019062001e92565b909150819062001eed565b9062001f12815190565b906001600160401b038211620004fe5762001f3a8262001f33855462000b3c565b8562001eb5565b602090601f831160011462001f795762000ece92916000918362001f6d575b5050600019600883021c1916906002021790565b01519050388062001f59565b601f1983169162001f8f85600052602060002090565b9260005b81811062001fd05750916002939185600196941062001fb6575b50505002019055565b01516000196008601f8516021c1916905538808062001fad565b9193602060018192878701518155019501920162001f93565b90620002469162001f08565b6200024690600262001fe9565b620002469062001e3c565b90620002469392916200201f62000dbf565b6200151062002032919493929462000280565b9263c1fd4137843b156200023257620020606000916200206c6200205560405190565b948593849360e01b90565b83526004830162000cae565b038183885af18015620012bb5762002102575b506346d75c8c833b15620002325762002060600091620020a26200205560405190565b038183875af18015620012bb57620020e8575b5063c73e835c90823b15620002325762001cda926200206060008094620020db60405190565b9687958694859360e01b90565b620020fb906000620016f38183620004dc565b38620020b5565b62002115906000620016f38183620004dc565b386200207f565b90620002469392916200200d565b6200021c9081906001600160a01b031681565b620021506001916200021c94936200139c565b602f60f81b815201906200139c565b62001528929162000246916200217460405190565b9485926020840192836200213d565b6200021c905462000b3c565b80546000939291620021a9620021a58362000b3c565b9390565b9160018116908115620021ff5750600114620021c457505050565b620021d89192939450600052602060002090565b6000905b838210620021ea5750500190565b600181602092548486015201910190620021dc565b60ff191683525050811515909102019150565b620021506001916200021c94936200218f565b62001528929162000246916200223a60405190565b94859260208401928362002212565b90620022826200227b620022756200226f620022899562002268606090565b5062000275565b6200212a565b620023c4565b9162002326565b906200215f565b6002620022968162002183565b620022a662001196600062000668565b14620022b857906200021c9162002225565b5090565b90620022cc6200055b836200051b565b918252565b369037565b9062000246620022f1620022ea84620022bc565b936200051b565b601f190160208401620022d1565b634e487b7160e01b600052601260045260246000fd5b811562002320570490565b620022ff565b62002331816200260c565b9062002344600192620005388462000668565b91806200235184620022d6565b936020018401905b62002365575b50505090565b6200239d9060001901926f181899199a1a9b1b9c1cb0b131b232b360811b600a82061a845362002396600a62000668565b9062002315565b9081620023af62001196600062000668565b14620023be5790918162002359565b6200235f565b6200021c90620023e4620023d882620027f5565b62000538600162000668565b9062002499565b634e487b7160e01b600052601160045260246000fd5b818102929181159184041417156200241557565b620023eb565b919082018092116200241557565b634e487b7160e01b600052603260045260246000fd5b9062002449825190565b81101562002458570160200190565b62002429565b801562002415576000190190565b620002af6200021c6200021c9290565b6200021c9062002494620011966200021c9460ff1690565b901c90565b9081600292620024d4620024ce620024bc85620024b68862000668565b62002401565b620024c78762000668565b906200241b565b620022d6565b936000906030620024f0620024e98462000668565b886200243f565b53600f60fb1b620025336200252887620024b66001958695881a620025218d6200251a8962000668565b906200243f565b5362000668565b620024c78362000668565b915b6200257c575b5050620011966200254c9162000668565b036200255757505090565b62000e1a6200256560405190565b63e22e27eb60e01b8152928392600484016200175e565b9092620025898262000668565b84111562002605576f181899199a1a9b1b9c1cb0b131b232b360811b620025b1600f62000668565b821690601082101562002458578392620025d5620025f792620025fe941a60f81b90565b861a620025e3888c6200243f565b53620025f060046200246c565b906200247c565b946200245e565b9162002535565b926200253b565b62002618600062000668565b907a184f03e93ff9f4daa797ed6e38ed64bf6a1f010000000000000000620026408162000668565b821015620027cc575b506d04ee2d6d415b85acef8100000000620026648162000668565b821015620027a3575b50662386f26fc10000620026818162000668565b8210156200277a575b506305f5e1006200269b8162000668565b82101562002751575b50612710620026b38162000668565b82101562002728575b506064620026ca8162000668565b821015620026ff575b50620026e462001196600a62000668565b1015620026ee5790565b6200021c9062000538600162000668565b620027209162002396620027139262000668565b9162000538600262000668565b9038620026d3565b6200274991620023966200273c9262000668565b9162000538600462000668565b9038620026bc565b620027729162002396620027659262000668565b9162000538600862000668565b9038620026a4565b6200279b91620023966200278e9262000668565b9162000538601062000668565b90386200268a565b620027c49162002396620027b79262000668565b9162000538602062000668565b90386200266d565b620027ed9162002396620027e09262000668565b9162000538604062000668565b903862002649565b6000620028af62001196620028a86200280e8462000668565b94620028266200281f60806200246c565b826200247c565b86811162002909575b50620028406200281f60406200246c565b6200284b8662000668565b8111620028ee575b50620028646200281f60206200246c565b6200286f8662000668565b8111620028d3575b50620028886200281f60106200246c565b620028938662000668565b8111620028b8575b50620025f060086200246c565b9262000668565b11620026ee5790565b620028cb91509562000538600262000668565b94386200289b565b620028e691509562000538600462000668565b943862002877565b6200290191509562000538600862000668565b943862002853565b6200291c91509562000538601062000668565b94386200282f56fe60a060405261001561000f610171565b90610193565b6040516101ad61052f82396080518160f001526101ad90f35b634e487b7160e01b600052604160045260246000fd5b90601f01601f191681019081106001600160401b0382111761006557604052565b61002e565b9061007e61007760405190565b9283610044565b565b6001600160a01b031690565b90565b6001600160a01b038116036100a057565b600080fd5b9050519061007e8261008f565b6001600160401b03811161006557602090601f01601f19160190565b60005b8381106100e15750506000910152565b81810151838201526020016100d1565b90929192610106610101826100b2565b61006a565b938185526020850190828401116100a05761007e926100ce565b9080601f830112156100a057815161008c926020016100f1565b9190916040818403126100a05761015183826100a5565b60208201519093906001600160401b0381116100a05761008c9201610120565b61018f6106dc803803806101848161006a565b92833981019061013a565b9091565b9061019e90826101f6565b608052565b61008c90610080906001600160a01b031682565b61008c906101a3565b61008c906101b7565b61008c61008c61008c9290565b906020828203126100a05761008c916100a5565b6040513d6000823e3d90fd5b906102008261034c565b7f1cf3b03a6cf19fa2baba4df148e9dcabedea7f8a5c07840e207e5c089be95d3e61022a836101c0565b9061023460405190565b600090a2805161024b61024760006101c9565b9190565b11156102d657602061026761026261027f946101c0565b6101c0565b635c60da1b9061027660405190565b94859260e01b90565b825260049082905afa80156102d1576102a0926000916102a3575b50610476565b50565b6102c4915060203d81116102ca575b6102bc8183610044565b8101906101d6565b3861029a565b503d6102b2565b6101ea565b505061007e61041e565b6001600160a01b03909116815260200190565b61008c7fa3f0ad74e5423aebfd80d3ef4346578335a9a72aeaee59ff6cb3582b35133d506101c9565b9061032c61008c610348926101c0565b82546001600160a01b0319166001600160a01b03919091161790565b9055565b906000823b61035d610247836101c9565b146103fb5760206102676102628561026261038596978661037f61008c6102f3565b0161031c565b825260049082905afa9182156102d1576000926103db575b506103ac610247833b926101c9565b146103b45750565b6103d7906103c160405190565b634c9c8ce360e01b8152918291600483016102e0565b0390fd5b6103f491925060203d81116102ca576102bc8183610044565b903861039d565b6103d78361040860405190565b631933b43b60e21b8152918291600483016102e0565b3461042c61024760006101c9565b1161043357565b60405163b398979f60e01b8152600490fd5b90610452610101836100b2565b918252565b3d15610471576104663d610445565b903d6000602084013e565b606090565b60008061008c93610485606090565b50805190602001845af4610497610457565b91906104a357506104ff565b81516000906104b4610247836101c9565b1490816104e8575b506104c5575090565b6103d7906104d260405190565b639996b31560e01b8152918291600483016102e0565b90506104f8610247833b926101c9565b14386104bc565b805161050e61024760006101c9565b111561051c57805190602001fd5b604051630a12f52160e11b8152600490fdfe608060405261000c6100e3565b60008091368280378136915af43d6000803e15610028573d6000f35b3d6000fd5b61004190610044906001600160a01b031682565b90565b6001600160a01b031690565b6100419061002d565b61004190610050565b634e487b7160e01b600052604160045260246000fd5b90601f01601f1916810190811067ffffffffffffffff82111761009a57604052565b610062565b6100a881610044565b036100af57565b600080fd5b905051906100c18261009f565b565b906020828203126100af57610041916100b4565b6040513d6000823e3d90fd5b61012f60206101176101127f000000000000000000000000000000000000000000000000000000000000000081565b610059565b635c60da1b9061012660405190565b93849260e01b90565b825260049082905afa9081156101725760009161014a575090565b610041915060203d811161016b575b6101638183610078565b8101906100c3565b503d610159565b6100d756fea2646970667358221220e652fe47bbbec0b7f4aa2237b61221cfba60785f6a4bb3fd6296cefe8299089964736f6c6343000814003360806040523462000031576200001f62000018620000e5565b906200010c565b60405161040f62000321823961040f90f35b600080fd5b634e487b7160e01b600052604160045260246000fd5b90601f01601f191681019081106001600160401b038211176200006e57604052565b62000036565b906200008b6200008360405190565b92836200004c565b565b6001600160a01b031690565b90565b6001600160a01b038116036200003157565b905051906200008b826200009c565b919060408382031262000031576200009990620000db8185620000ae565b93602001620000ae565b620001086200073080380380620000fc8162000074565b928339810190620000bd565b9091565b6200011b6200008b926200014f565b62000294565b6200008d62000099620000999290565b620000999062000121565b6001600160a01b03909116815260200190565b6200015b600062000131565b6001600160a01b0381166001600160a01b038316146200018157506200008b9062000222565b620001a7906200019060405190565b631e4fbdf760e01b8152918291600483016200013c565b0390fd5b62000099906200008d565b620000999054620001ab565b62000099906200008d906001600160a01b031682565b6200009990620001c2565b6200009990620001d8565b9062000202620000996200021e92620001e3565b82546001600160a01b0319166001600160a01b03919091161790565b9055565b6200022e6000620001b6565b906200023c816000620001ee565b620002736200026c7f8be0079c531659141344cd1fd0a4f28419497f9722a3daafe3b4186f6b6457e093620001e3565b91620001e3565b916200027e60405190565b600090a3565b6200009962000099620000999290565b803b620002aa620002a6600062000284565b9190565b14620002fa57620002bd816001620001ee565b620002e97fbc7cd75a20ee27fd9adebab32041f755214dbc6bffa90cc0225b39da2e5c2d3b91620001e3565b90620002f460405190565b600090a2565b620001a7906200030960405190565b63211eb15960e21b8152918291600483016200013c56fe6080604052600436101561001257600080fd5b60003560e01c80633659cfe6146100625780635c60da1b1461005d578063715018a6146100585780638da5cb5b146100535763f2fde38b0361008757610157565b610132565b61011a565b6100db565b6100af565b6001600160a01b031690565b90565b6001600160a01b0381160361008757565b600080fd5b9050359061009982610076565b565b90602082820312610087576100739161008c565b34610087576100c76100c236600461009b565b610335565b604051005b0390f35b600091031261008757565b34610087576100eb3660046100d0565b6100cc6101006001546001600160a01b031690565b604051918291826001600160a01b03909116815260200190565b346100875761012a3660046100d0565b6100c76101a7565b34610087576101423660046100d0565b6100cc6101006000546001600160a01b031690565b34610087576100c761016a36600461009b565b610266565b6101776101af565b610099610195565b6100676100736100739290565b6100739061017f565b6100996101a2600061018c565b6102c5565b61009961016f565b60005433906001600160a01b03168190036101c75750565b6101f8906101d460405190565b63118cdaa760e01b8152918291600483016001600160a01b03909116815260200190565b0390fd5b610099906102086101af565b610212600061018c565b6001600160a01b0381166001600160a01b038316146102355750610099906102c5565b6101f89061024260405190565b631e4fbdf760e01b8152918291600483016001600160a01b03909116815260200190565b610099906101fc565b61007390610067906001600160a01b031682565b6100739061026f565b61007390610283565b906102a56100736102c19261028c565b82546001600160a01b0319166001600160a01b03919091161790565b9055565b6000546001600160a01b0316906102dd816000610295565b61031061030a7f8be0079c531659141344cd1fd0a4f28419497f9722a3daafe3b4186f6b6457e09361028c565b9161028c565b9161031a60405190565b600090a3565b6100999061032c6101af565b6100999061034b565b61009990610320565b6100736100736100739290565b803b61035e61035a600061033e565b9190565b146103a85761036e816001610295565b6103987fbc7cd75a20ee27fd9adebab32041f755214dbc6bffa90cc0225b39da2e5c2d3b9161028c565b906103a260405190565b600090a2565b6101f8906103b560405190565b63211eb15960e21b8152918291600483016001600160a01b0390911681526020019056fea2646970667358221220ae1e8531388d9ebf9a3c5ec9dc31bc408ed6e4f29b4cf93a3243a1f54af65f8464736f6c63430008140033a2646970667358221220ac8e5a822f52803d51527752b61fdaf8f602903b3336198ab71ae1f108dcd49b64736f6c63430008140033",
  "linkReferences": {},
  "deployedLinkReferences": {}
}