{
  "_format": "hh-sol-artifact-1",
  "contractName": "KettleAsset",
  "sourceName": "contracts/KettleAsset.sol",
  "abi": [
    {
      "inputs": [
        {
          "internalType": "address",
          "name": "sender",
          "type": "address"
        },
        {
          "internalType": "uint256",
          "name": "tokenId",
          "type": "uint256"
        },
        {
          "internalType": "address",
          "name": "owner",
          "type": "address"
        }
      ],
      "name": "ERC721IncorrectOwner",
      "type": "error"
    },
    {
      "inputs": [
        {
          "internalType": "address",
          "name": "operator",
          "type": "address"
        },
        {
          "internalType": "uint256",
          "name": "tokenId",
          "type": "uint256"
        }
      ],
      "name": "ERC721InsufficientApproval",
      "type": "error"
    },
    {
      "inputs": [
        {
          "internalType": "address",
          "name": "approver",
          "type": "address"
        }
      ],
      "name": "ERC721InvalidApprover",
      "type": "error"
    },
    {
      "inputs": [
        {
          "internalType": "address",
          "name": "operator",
          "type": "address"
        }
      ],
      "name": "ERC721InvalidOperator",
      "type": "error"
    },
    {
      "inputs": [
        {
          "internalType": "address",
          "name": "owner",
          "type": "address"
        }
      ],
      "name": "ERC721InvalidOwner",
      "type": "error"
    },
    {
      "inputs": [
        {
          "internalType": "address",
          "name": "receiver",
          "type": "address"
        }
      ],
      "name": "ERC721InvalidReceiver",
      "type": "error"
    },
    {
      "inputs": [
        {
          "internalType": "address",
          "name": "sender",
          "type": "address"
        }
      ],
      "name": "ERC721InvalidSender",
      "type": "error"
    },
    {
      "inputs": [
        {
          "internalType": "uint256",
          "name": "tokenId",
          "type": "uint256"
        }
      ],
      "name": "ERC721NonexistentToken",
      "type": "error"
    },
    {
      "inputs": [],
      "name": "InvalidInitialization",
      "type": "error"
    },
    {
      "inputs": [],
      "name": "NotInitializing",
      "type": "error"
    },
    {
      "inputs": [
        {
          "internalType": "address",
          "name": "owner",
          "type": "address"
        }
      ],
      "name": "OwnableInvalidOwner",
      "type": "error"
    },
    {
      "inputs": [
        {
          "internalType": "address",
          "name": "account",
          "type": "address"
        }
      ],
      "name": "OwnableUnauthorizedAccount",
      "type": "error"
    },
    {
      "anonymous": false,
      "inputs": [
        {
          "indexed": true,
          "internalType": "address",
          "name": "owner",
          "type": "address"
        },
        {
          "indexed": true,
          "internalType": "address",
          "name": "approved",
          "type": "address"
        },
        {
          "indexed": true,
          "internalType": "uint256",
          "name": "tokenId",
          "type": "uint256"
        }
      ],
      "name": "Approval",
      "type": "event"
    },
    {
      "anonymous": false,
      "inputs": [
        {
          "indexed": true,
          "internalType": "address",
          "name": "owner",
          "type": "address"
        },
        {
          "indexed": true,
          "internalType": "address",
          "name": "operator",
          "type": "address"
        },
        {
          "indexed": false,
          "internalType": "bool",
          "name": "approved",
          "type": "bool"
        }
      ],
      "name": "ApprovalForAll",
      "type": "event"
    },
    {
      "anonymous": false,
      "inputs": [
        {
          "indexed": false,
          "internalType": "uint64",
          "name": "version",
          "type": "uint64"
        }
      ],
      "name": "Initialized",
      "type": "event"
    },
    {
      "anonymous": false,
      "inputs": [
        {
          "indexed": true,
          "internalType": "address",
          "name": "previousOwner",
          "type": "address"
        },
        {
          "indexed": true,
          "internalType": "address",
          "name": "newOwner",
          "type": "address"
        }
      ],
      "name": "OwnershipTransferred",
      "type": "event"
    },
    {
      "anonymous": false,
      "inputs": [
        {
          "indexed": true,
          "internalType": "address",
          "name": "from",
          "type": "address"
        },
        {
          "indexed": true,
          "internalType": "address",
          "name": "to",
          "type": "address"
        },
        {
          "indexed": true,
          "internalType": "uint256",
          "name": "tokenId",
          "type": "uint256"
        }
      ],
      "name": "Transfer",
      "type": "event"
    },
    {
      "inputs": [
        {
          "internalType": "address",
          "name": "to",
          "type": "address"
        },
        {
          "internalType": "uint256",
          "name": "tokenId",
          "type": "uint256"
        }
      ],
      "name": "approve",
      "outputs": [],
      "stateMutability": "nonpayable",
      "type": "function"
    },
    {
      "inputs": [
        {
          "internalType": "address",
          "name": "owner",
          "type": "address"
        }
      ],
      "name": "balanceOf",
      "outputs": [
        {
          "internalType": "uint256",
          "name": "",
          "type": "uint256"
        }
      ],
      "stateMutability": "view",
      "type": "function"
    },
    {
      "inputs": [],
      "name": "brand",
      "outputs": [
        {
          "internalType": "string",
          "name": "",
          "type": "string"
        }
      ],
      "stateMutability": "view",
      "type": "function"
    },
    {
      "inputs": [
        {
          "internalType": "uint256",
          "name": "tokenId",
          "type": "uint256"
        }
      ],
      "name": "burn",
      "outputs": [],
      "stateMutability": "nonpayable",
      "type": "function"
    },
    {
      "inputs": [],
      "name": "factory",
      "outputs": [
        {
          "internalType": "contract IKettleAssetFactory",
          "name": "",
          "type": "address"
        }
      ],
      "stateMutability": "view",
      "type": "function"
    },
    {
      "inputs": [
        {
          "internalType": "uint256",
          "name": "tokenId",
          "type": "uint256"
        }
      ],
      "name": "getApproved",
      "outputs": [
        {
          "internalType": "address",
          "name": "",
          "type": "address"
        }
      ],
      "stateMutability": "view",
      "type": "function"
    },
    {
      "inputs": [
        {
          "internalType": "address",
          "name": "factoryAddress",
          "type": "address"
        }
      ],
      "name": "initialize",
      "outputs": [],
      "stateMutability": "nonpayable",
      "type": "function"
    },
    {
      "inputs": [
        {
          "internalType": "address",
          "name": "owner",
          "type": "address"
        },
        {
          "internalType": "address",
          "name": "operator",
          "type": "address"
        }
      ],
      "name": "isApprovedForAll",
      "outputs": [
        {
          "internalType": "bool",
          "name": "",
          "type": "bool"
        }
      ],
      "stateMutability": "view",
      "type": "function"
    },
    {
      "inputs": [
        {
          "internalType": "address",
          "name": "to",
          "type": "address"
        },
        {
          "internalType": "uint256",
          "name": "id",
          "type": "uint256"
        }
      ],
      "name": "mint",
      "outputs": [],
      "stateMutability": "nonpayable",
      "type": "function"
    },
    {
      "inputs": [],
      "name": "model",
      "outputs": [
        {
          "internalType": "string",
          "name": "",
          "type": "string"
        }
      ],
      "stateMutability": "view",
      "type": "function"
    },
    {
      "inputs": [],
      "name": "name",
      "outputs": [
        {
          "internalType": "string",
          "name": "",
          "type": "string"
        }
      ],
      "stateMutability": "view",
      "type": "function"
    },
    {
      "inputs": [],
      "name": "owner",
      "outputs": [
        {
          "internalType": "address",
          "name": "",
          "type": "address"
        }
      ],
      "stateMutability": "view",
      "type": "function"
    },
    {
      "inputs": [
        {
          "internalType": "uint256",
          "name": "tokenId",
          "type": "uint256"
        }
      ],
      "name": "ownerOf",
      "outputs": [
        {
          "internalType": "address",
          "name": "",
          "type": "address"
        }
      ],
      "stateMutability": "view",
      "type": "function"
    },
    {
      "inputs": [],
      "name": "ref",
      "outputs": [
        {
          "internalType": "string",
          "name": "",
          "type": "string"
        }
      ],
      "stateMutability": "view",
      "type": "function"
    },
    {
      "inputs": [],
      "name": "renounceOwnership",
      "outputs": [],
      "stateMutability": "nonpayable",
      "type": "function"
    },
    {
      "inputs": [
        {
          "internalType": "uint256",
          "name": "tokenId",
          "type": "uint256"
        }
      ],
      "name": "revokeToken",
      "outputs": [],
      "stateMutability": "nonpayable",
      "type": "function"
    },
    {
      "inputs": [
        {
          "internalType": "address",
          "name": "from",
          "type": "address"
        },
        {
          "internalType": "address",
          "name": "to",
          "type": "address"
        },
        {
          "internalType": "uint256",
          "name": "tokenId",
          "type": "uint256"
        }
      ],
      "name": "safeTransferFrom",
      "outputs": [],
      "stateMutability": "nonpayable",
      "type": "function"
    },
    {
      "inputs": [
        {
          "internalType": "address",
          "name": "from",
          "type": "address"
        },
        {
          "internalType": "address",
          "name": "to",
          "type": "address"
        },
        {
          "internalType": "uint256",
          "name": "tokenId",
          "type": "uint256"
        },
        {
          "internalType": "bytes",
          "name": "data",
          "type": "bytes"
        }
      ],
      "name": "safeTransferFrom",
      "outputs": [],
      "stateMutability": "nonpayable",
      "type": "function"
    },
    {
      "inputs": [
        {
          "internalType": "address",
          "name": "operator",
          "type": "address"
        },
        {
          "internalType": "bool",
          "name": "approved",
          "type": "bool"
        }
      ],
      "name": "setApprovalForAll",
      "outputs": [],
      "stateMutability": "nonpayable",
      "type": "function"
    },
    {
      "inputs": [
        {
          "internalType": "string",
          "name": "_brand",
          "type": "string"
        }
      ],
      "name": "setBrand",
      "outputs": [],
      "stateMutability": "nonpayable",
      "type": "function"
    },
    {
      "inputs": [
        {
          "internalType": "string",
          "name": "_model",
          "type": "string"
        }
      ],
      "name": "setModel",
      "outputs": [],
      "stateMutability": "nonpayable",
      "type": "function"
    },
    {
      "inputs": [
        {
          "internalType": "string",
          "name": "_ref",
          "type": "string"
        }
      ],
      "name": "setRef",
      "outputs": [],
      "stateMutability": "nonpayable",
      "type": "function"
    },
    {
      "inputs": [
        {
          "internalType": "bytes4",
          "name": "interfaceId",
          "type": "bytes4"
        }
      ],
      "name": "supportsInterface",
      "outputs": [
        {
          "internalType": "bool",
          "name": "",
          "type": "bool"
        }
      ],
      "stateMutability": "view",
      "type": "function"
    },
    {
      "inputs": [],
      "name": "symbol",
      "outputs": [
        {
          "internalType": "string",
          "name": "",
          "type": "string"
        }
      ],
      "stateMutability": "view",
      "type": "function"
    },
    {
      "inputs": [
        {
          "internalType": "uint256",
          "name": "tokenId",
          "type": "uint256"
        }
      ],
      "name": "tokenURI",
      "outputs": [
        {
          "internalType": "string",
          "name": "",
          "type": "string"
        }
      ],
      "stateMutability": "view",
      "type": "function"
    },
    {
      "inputs": [
        {
          "internalType": "address",
          "name": "from",
          "type": "address"
        },
        {
          "internalType": "address",
          "name": "to",
          "type": "address"
        },
        {
          "internalType": "uint256",
          "name": "id",
          "type": "uint256"
        }
      ],
      "name": "transferFrom",
      "outputs": [],
      "stateMutability": "nonpayable",
      "type": "function"
    },
    {
      "inputs": [
        {
          "internalType": "address",
          "name": "newOwner",
          "type": "address"
        }
      ],
      "name": "transferOwnership",
      "outputs": [],
      "stateMutability": "nonpayable",
      "type": "function"
    }
  ],
  "bytecode": "0x60806040523461001a576040516121b061002082396121b090f35b600080fdfe6080604052600436101561001257600080fd5b60003560e01c806301ffc9a7146101c257806306fdde03146101bd578063081812fc146101b8578063095ea7b3146101b35780630ad9d052146101ae57806321a78f68146101a957806323b872dd146101a45780632d9fff011461019f57806340c10f191461019a57806342842e0e1461019557806342966c681461019057806346d75c8c1461018b5780636352211e1461018657806370a0823114610181578063715018a61461017c5780637dc9e79b146101775780638da5cb5b1461017257806395d89b411461016d578063a22cb46514610168578063b88d4fde14610163578063c1fd41371461015e578063c45a015514610159578063c4d66de814610154578063c73e835c1461014f578063c87b56dd1461014a578063e985e9c5146101455763f2fde38b036101da57610972565b610956565b610918565b610900565b6108e8565b6108c1565b610840565b610824565b6107bb565b610768565b61074d565b610735565b61071d565b6106f2565b6106c3565b6106ab565b6105e6565b6105cd565b6105b4565b610599565b610574565b610529565b610502565b610380565b61030c565b6102b2565b610209565b6001600160e01b031981165b036101da57565b600080fd5b905035906101ec826101c7565b565b906020828203126101da57610202916101df565b90565b9052565b346101da5761023761022461021f3660046101ee565b610b7c565b6040515b91829182901515815260200190565b0390f35b60009103126101da57565b60005b8381106102595750506000910152565b8181015183820152602001610249565b61028a61029360209361029d9361027e815190565b80835293849260200190565b95869101610246565b601f01601f191690565b0190565b602080825261020292910190610269565b346101da576102c236600461023b565b6102376102cd610c7b565b604051918291826102a1565b806101d3565b905035906101ec826102d9565b906020828203126101da57610202916102df565b6001600160a01b031690565b346101da576102376103276103223660046102ec565b610cba565b604051918291826001600160a01b03909116815260200190565b6001600160a01b0381166101d3565b905035906101ec82610341565b91906040838203126101da57610202906103778185610350565b936020016102df565b346101da5761039961039336600461035d565b90610caf565b604051005b634e487b7160e01b600052600060045260246000fd5b634e487b7160e01b600052602260045260246000fd5b90600160028304921680156103ea575b60208310146103e557565b6103b4565b91607f16916103da565b80546000939291610411610407836103ca565b8085529360200190565b9160018116908115610463575060011461042a57505050565b61043d9192939450600052602060002090565b916000925b81841061044f5750500190565b805484840152602090930192600101610442565b92949550505060ff1916825215156020020190565b90610202916103f4565b634e487b7160e01b600052604160045260246000fd5b90601f01601f1916810190811067ffffffffffffffff8211176104ba57604052565b610482565b906101ec6104d9926104d060405190565b93848092610478565b0383610498565b906000106104f157610202906104bf565b61039e565b610202600060026104e0565b346101da5761051236600461023b565b6102376102cd6104f6565b610202600060036104e0565b346101da5761053936600461023b565b6102376102cd61051d565b90916060828403126101da5761020261055d8484610350565b9361056b8160208601610350565b936040016102df565b346101da57610399610587366004610544565b91611df3565b610202600060016104e0565b346101da576105a936600461023b565b6102376102cd61058d565b346101da576103996105c736600461035d565b906117e4565b346101da576103996105e0366004610544565b91610d55565b346101da576103996105f93660046102ec565b611b84565b906101ec61060b60405190565b9283610498565b67ffffffffffffffff81116104ba57602090601f01601f19160190565b90826000939282370152565b9092919261065061064b82610612565b6105fe565b938185526020850190828401116101da576101ec9261062f565b9080601f830112156101da578160206102029335910161063b565b906020828203126101da57813567ffffffffffffffff81116101da57610202920161066a565b346101da576103996106be366004610685565b6117a4565b346101da576102376103276106d93660046102ec565b610c69565b906020828203126101da5761020291610350565b346101da5761023761070d6107083660046106de565b610bf0565b6040519182918290815260200190565b346101da5761072d36600461023b565b6103996109fe565b346101da576103996107483660046102ec565b611bd9565b346101da5761075d36600461023b565b61023761032761099d565b346101da5761077836600461023b565b6102376102cd610c96565b8015156101d3565b905035906101ec82610783565b91906040838203126101da57610202906107b28185610350565b9360200161078b565b346101da576103996107ce366004610798565b90610ccd565b906080828203126101da576107e98183610350565b926107f78260208501610350565b9261080583604083016102df565b92606082013567ffffffffffffffff81116101da57610202920161066a565b346101da576103996108373660046107d4565b92919091610d65565b346101da57610399610853366004610685565b611784565b610202916008021c6001600160a01b031690565b906102029154610858565b61020260008061086c565b61020290610300906001600160a01b031682565b61020290610882565b61020290610896565b6102059061089f565b6020810192916101ec91906108a8565b346101da576108d136600461023b565b6102376108dc610877565b604051918291826108b1565b346101da576103996108fb3660046106de565b6114fa565b346101da57610399610913366004610685565b6117c4565b346101da576102376102cd61092e3660046102ec565b611c4c565b91906040838203126101da576102029061094d8185610350565b93602001610350565b346101da5761023761022461096c366004610933565b90610ced565b346101da576103996109853660046106de565b610ac9565b61020290610300565b610202905461098a565b6102027f9016d09d72d40fdae2fd8ceac6b6234c7706214fd39c1cd1e609a0528c199300610993565b6109ce610a06565b6101ec6109ec565b6103006102026102029290565b610202906109d6565b6101ec6109f960006109e3565b610b02565b6101ec6109c6565b610a0e61099d565b3390610a22825b916001600160a01b031690565b03610a2a5750565b610a5b90610a3760405190565b63118cdaa760e01b8152918291600483016001600160a01b03909116815260200190565b0390fd5b6101ec90610a6b610a06565b610a7560006109e3565b6001600160a01b0381166001600160a01b03831614610a9857506101ec90610b02565b610a5b90610aa560405190565b631e4fbdf760e01b8152918291600483016001600160a01b03909116815260200190565b6101ec90610a5f565b906001600160a01b03905b9181191691161790565b90610af7610202610afe9261089f565b8254610ad2565b9055565b7f9016d09d72d40fdae2fd8ceac6b6234c7706214fd39c1cd1e609a0528c19930090610b3781610b3184610993565b93610ae7565b610b6a610b647f8be0079c531659141344cd1fd0a4f28419497f9722a3daafe3b4186f6b6457e09361089f565b9161089f565b91610b7460405190565b80805b0390a3565b6380ac58cd60e01b6001600160e01b0319821614908115610bac575b8115610ba2575090565b610202915061125b565b6001600160e01b03198116635b5e139f60e01b149150610b98565b90610bd19061089f565b600052602052604060002090565b6102029081565b6102029054610bdf565b60008051602061215b833981519152610c0960006109e3565b6001600160a01b0381166001600160a01b03841614610c385750610202916003610c339201610bc7565b610be6565b610a5b90610c4560405190565b6322718ad960e21b8152918291600483016001600160a01b03909116815260200190565b61020290610ffe565b610202906104bf565b610202600060008051602061215b8339815191525b01610c72565b610202600160008051602061215b833981519152610c90565b6101ec913391610dc0565b61020290610cc781610ffe565b50610d93565b6101ec919033610f48565b610202905b60ff1690565b6102029054610cd8565b61020291610d27610d2c92610d00600090565b507f80bb2b638cc20bc4d0a60d66940f3ab4a00c1d7b313497ca82fb0b4ab0079305610bc7565b610bc7565b610ce3565b90610d3e61064b83610612565b918252565b6102026000610d31565b610202610d43565b90916101ec92610d63610d4d565b925b906101ec939291610d77838383611df3565b611107565b6102026102026102029290565b90610bd190610d7c565b610dbb61020291610da2600090565b50600460008051602061215b8339815191525b01610d89565b610993565b90916101ec926001925b92909160008051602061215b83398151915291808115610f09575b610e02575b50506101ec92916004610dfd9201610d89565b610ae7565b610e0b84610ffe565b91610e1961030060006109e3565b6001600160a01b038216141580610eed575b80610ed6575b610ea55750610dfd926101ec959492600492610e54575b50925081939450610dea565b610e7e7f8c5be1e5ebec7d5bd14f71427d1e84f3dd0314c0f7b2291e5b200ac8c7c3b9259161089f565b610e878761089f565b90610e9186610d7c565b92610e9b60405190565b600090a438610e48565b610a5b90610eb260405190565b63a9fbf51f60e01b8152918291600483016001600160a01b03909116815260200190565b50610ee8610ee48285610ced565b1590565b610e31565b506001600160a01b0381166001600160a01b0384161415610e2b565b50610f1761030060006109e3565b6001600160a01b0383161415610de5565b9060ff90610add565b90610f41610202610afe92151590565b8254610f28565b60008051602061215b833981519152610f6461030060006109e3565b6001600160a01b03841614610fcd5783610f8884610d27856005610f8d9601610bc7565b610f31565b610b77610fc3610fbd7f17307eab39ab6107e8899845ad3d59bd9653f200f220920489ca2b5937696c319361089f565b9361089f565b9361022860405190565b610a5b83610fda60405190565b630b61174360e31b8152918291600483016001600160a01b03909116815260200190565b6110078161104f565b9061101561030060006109e3565b6001600160a01b03831614611028575090565b610a5b9061103560405190565b637e27328960e01b81529182916004830190815260200190565b610dbb6102029161105e600090565b50600260008051602061215b833981519152610db5565b905051906101ec826101c7565b906020828203126101da5761020291611075565b6001600160a01b03909116815261020293608082019390926110cf91906110c8905b6001600160a01b03166020850152565b6040830152565b6060818403910152610269565b6040513d6000823e3d90fd5b3d15611102576110f73d610d31565b903d6000602084013e565b606090565b909192823b9360009461112061111c87610d7c565b9190565b1161112d575b5050505050565b60209161116d866111456111408861089f565b61089f565b9261117863150b7a02916111563390565b9661116060405190565b998a988997889660e01b90565b865260048601611096565b03925af16000918161122b575b506111f6575061119a565b3880808080611126565b6111a26110e8565b916111b761111c6111b1855190565b92610d7c565b036111ed57610a5b906111c960405190565b633250574960e11b8152918291600483016001600160a01b03909116815260200190565b50805190602001fd5b909150611213630a85bd0160e11b5b916001600160e01b03191690565b0361121e5750611190565b610a5b906111c960405190565b61124d91925060203d8111611254575b6112458183610498565b810190611082565b9038611185565b503d61123b565b61126b6301ffc9a760e01b611205565b1490565b6102029060401c610cdd565b610202905461126f565b610202905b67ffffffffffffffff1690565b6102029054611285565b61128a6102026102029290565b9067ffffffffffffffff90610add565b61128a6102026102029267ffffffffffffffff1690565b906112e5610202610afe926112be565b82546112ae565b9068ff00000000000000009060401b610add565b90611310610202610afe92151590565b82546112ec565b610205906112a1565b6020810192916101ec9190611317565b7ff0c57e16840df040f15088dc2f81fe391c3923bec73e23a9662efc9c229c6a00908190611369611363610ee48461127b565b93611297565b92600091611376836112a1565b67ffffffffffffffff8616148061147b575b6001956113a5611397886112a1565b9167ffffffffffffffff1690565b149081611457575b155b908161144e575b5061143c576113df90826113d6856113cd896112a1565b970196876112d5565b61142d576114ca565b6113e857505050565b6113f191611300565b6114287fc7f505b2f371ae2175ee4913f4499e1f2633a7b5936321eed1cdaeb6115181d29161141f60405190565b91829182611320565b0390a1565b6114378686611300565b6114ca565b60405163f92ee8a960e01b8152600490fd5b159050386113b6565b90506113af6114653061089f565b3b61147261111c87610d7c565b149190506113ad565b5081611388565b61148c6006610d31565b654b6574746c6560d01b602082015290565b610202611482565b6114b06006610d31565b654b4554544c4560d01b602082015290565b6102026114a6565b6114f36101ec916114ea6114dc61149e565b6114e46114c2565b90611599565b61114081611518565b6000610ae7565b6101ec90611330565b6101ec9061150f611536565b6101ec9061152d565b6101ec90611503565b6101ec90610a6b611536565b6101ec90611521565b611541610ee4611559565b61154757565b604051631afcd79f60e31b8152600490fd5b6102027ff0c57e16840df040f15088dc2f81fe391c3923bec73e23a9662efc9c229c6a0061127b565b906101ec9161158f611536565b906101ec91611763565b906101ec91611582565b906101ec916115b0611536565b611737565b9160001960089290920291821b911b610add565b91906115da610202610afe93610d7c565b9083546115b5565b6101ec916000916115c9565b8181106115f9575050565b8061160760006001936115e2565b016115ee565b9190601f811161161c57505050565b61162e6101ec93600052602060002090565b906020601f840181900483019310611650575b6020601f9091010401906115ee565b9091508190611641565b90611663815190565b9067ffffffffffffffff82116104ba576116878261168185546103ca565b8561160d565b602090601f83116001146116c257610afe9291600091836116b7575b5050600019600883021c1916906002021790565b0151905038806116a3565b601f198316916116d785600052602060002090565b9260005b818110611715575091600293918560019694106116fc575b50505002019055565b01516000196008601f8516021c191690553880806116f3565b919360206001819287870151815501950192016116db565b906101ec9161165a565b9060016101ec9261175d61175660008051602061215b83398151915290565b918261172d565b0161172d565b906101ec916115a3565b6101ec90611779610a06565b6101ec90600161172d565b6101ec9061176d565b6101ec90611799610a06565b6101ec90600261172d565b6101ec9061178d565b6101ec906117b9610a06565b6101ec90600361172d565b6101ec906117ad565b906101ec916117da610a06565b906101ec916117ee565b906101ec916117cd565b6101ec916117fa610d4d565b91906101ec929161180b8282611815565b610d7760006109e3565b9061182060006109e3565b916001600160a01b0383166001600160a01b03821614611890576118459183916118be565b6118576001600160a01b038316610a15565b0361185f5750565b610a5b9061186c60405190565b6339e3563760e11b8152918291600483016001600160a01b03909116815260200190565b610a5b836111c960405190565b9060001990610add565b906118b7610202610afe92610d7c565b825461189d565b9061195282610dfd83600260008051602061215b83398151915261193d6118e48461104f565b9960008b866118f2836109e3565b936001600160a01b0385166001600160a01b03821603611a0a575b505050611920826001600160a01b031690565b6001600160a01b038d16036119cc575b506001600160a01b031690565b6001600160a01b0386160361199a5701610d89565b7fddf252ad1be2c89b69c2b068fc378daa952ba7f163c4a11628f55a4df523b3ef916119896111b16119838661089f565b9261089f565b9261199360405190565b600090a490565b6119c76119a76001610d7c565b6119c16119b78860038601610bc7565b9161029d83610be6565b906118a7565b610db5565b6119d890828781610dca565b611a048b6119c16119f66119ec6001610d7c565b9260038801610bc7565b91611a0083610be6565b0390565b38611930565b611a1392611a3c565b8b863861190d565b6001600160a01b0390911681526040810192916101ec9160200152565b0152565b611a4a610ee4848484611a97565b611a5357505050565b611a63610a1561030060006109e3565b03611a7557610a5b8261103560405190565b610a5b611a8160405190565b63177e802f60e01b815292839260048401611a1b565b90611aa561030060006109e3565b6001600160a01b03821614159283611abe575b50505090565b919250906001600160a01b0382166001600160a01b03841614928315611b18575b508215611af1575b5050388080611ab8565b611b10919250611b03610a1591610d93565b926001600160a01b031690565b143880611ae7565b611b259193508290610ced565b9138611adf565b15611b3357565b60405162461bcd60e51b8152602060048201526024808201527f4b6574746c6541737365743a2063616c6c6572206973206e6f7420746865206f6044820152633bb732b960e11b6064820152608490fd5b6101ec90611ba133611b9b610a1561030085610c69565b14611b2c565b611bab60006109e3565b611bbc610a15611b038385816118be565b146110285750565b6101ec90611bd0610a06565b6101ec90611ba1565b6101ec90611bc4565b90929192611bf261064b82610612565b938185526020850190828401116101da576101ec92610246565b9080601f830112156101da57815161020292602001611be2565b906020828203126101da57815167ffffffffffffffff81116101da576102029201611c0c565b6000611c5a61114082610993565b63e9dc637590611c86611c6c3061089f565b92611c91611c7960405190565b9687958694859460e01b90565b845260048401611a1b565b03915afa908115611cc257600091611ca7575090565b610202913d8091833e611cba8183610498565b810190611c26565b6110dc565b905051906101ec82610783565b906020828203126101da5761020291611cc7565b15611cef57565b60405162461bcd60e51b815260206004820152600f60248201526e10d3d395149050d517d313d0d2d151608a1b6044820152606490fd5b15611d2d57565b60405162461bcd60e51b815260206004820152600c60248201526b1513d2d15397d313d0d2d15160a21b6044820152606490fd5b611a386101ec94611d8b6060949897956110b8608086019a60008701906001600160a01b03169052565b6001600160a01b03166040830152565b15611da257565b60405162461bcd60e51b815260206004820152602360248201527f4e4f545f415554484f52495a45445f4f50455241544f525f4f525f5452414e536044820152622322a960e91b6064820152608490fd5b9190611e026111406000610993565b90611e29602063d41d4174611e163061089f565b94611e2060405190565b93849260e01b90565b82526001600160a01b038616600483015260249082905afa908115611cc257611e6191611e5c9160009161209a57501590565b611ce8565b611e826020611e736111406000610993565b6353719b6e90611e2060405190565b82528180611e94898960048401611a1b565b03915afa908115611cc257611eb891611eb39160009161209a57501590565b611d26565b611f026020611eca6111406000610993565b6313e7c9d890611eeb3392611ede60405190565b9586948593849360e01b90565b83526001600160a01b031660048301526024820190565b03915afa908115611cc25760009161207c575b508015611ffa575b611f2690611d9b565b611f318382866120e8565b611f3e6111406000610993565b63913874b790803b156101da57611f5b91600091611e2060405190565b8252818381611f708a898d8c60048601611d61565b03925af18015611cc257611fe4575b50611f8d6111406000610993565b906307df005693823b156101da57600094611fbb8692611fb09461116060405190565b865260048601611d61565b03925af18015611cc257611fcc5750565b6101ec906000611fdc8183610498565b81019061023b565b611ff4906000611fdc8183610498565b38611f7f565b5061201c602061200d6111406000610993565b63c583fcec90611e2060405190565b8252818061203089888c8b60048601611d61565b03915afa8015611cc257611f269160009161204e575b509050611f1d565b61206f915060203d8111612075575b6120678183610498565b810190611cd4565b38612046565b503d61205d565b612094915060203d8111612075576120678183610498565b38611f15565b610ee4915060203d8111612075576120678183610498565b6001600160a01b0390911681526060810193926101ec9290916040916120d9906020830152565b01906001600160a01b03169052565b906120f360006109e3565b6001600160a01b0381166001600160a01b0383161461121e5750612119908333916118be565b6001600160a01b0382166001600160a01b0382160361213757505050565b610a5b9061214460405190565b6364283d7b60e01b8152938493600485016120b256fe80bb2b638cc20bc4d0a60d66940f3ab4a00c1d7b313497ca82fb0b4ab0079300a2646970667358221220ee671170500e022a2cc5e80fe2333b6203d2fd63702864566d9694af3654117c64736f6c63430008140033",
  "linkReferences": {},
  "deployedLinkReferences": {}
}