{
  "_format": "hh-sol-artifact-1",
  "contractName": "KettleAssetFactory",
  "sourceName": "contracts/KettleAssetFactory.sol",
  "abi": [
    {
      "inputs": [],
      "name": "Create2EmptyBytecode",
      "type": "error"
    },
    {
      "inputs": [],
      "name": "Create2FailedDeployment",
      "type": "error"
    },
    {
      "inputs": [
        {
          "internalType": "uint256",
          "name": "balance",
          "type": "uint256"
        },
        {
          "internalType": "uint256",
          "name": "needed",
          "type": "uint256"
        }
      ],
      "name": "Create2InsufficientBalance",
      "type": "error"
    },
    {
      "inputs": [],
      "name": "InvalidInitialization",
      "type": "error"
    },
    {
      "inputs": [],
      "name": "NotInitializing",
      "type": "error"
    },
    {
      "inputs": [
        {
          "internalType": "address",
          "name": "owner",
          "type": "address"
        }
      ],
      "name": "OwnableInvalidOwner",
      "type": "error"
    },
    {
      "inputs": [
        {
          "internalType": "address",
          "name": "account",
          "type": "address"
        }
      ],
      "name": "OwnableUnauthorizedAccount",
      "type": "error"
    },
    {
      "inputs": [
        {
          "internalType": "uint256",
          "name": "value",
          "type": "uint256"
        },
        {
          "internalType": "uint256",
          "name": "length",
          "type": "uint256"
        }
      ],
      "name": "StringsInsufficientHexLength",
      "type": "error"
    },
    {
      "anonymous": false,
      "inputs": [
        {
          "indexed": true,
          "internalType": "address",
          "name": "asset",
          "type": "address"
        },
        {
          "indexed": false,
          "internalType": "bool",
          "name": "locked",
          "type": "bool"
        }
      ],
      "name": "ContractLocked",
      "type": "event"
    },
    {
      "anonymous": false,
      "inputs": [
        {
          "indexed": false,
          "internalType": "uint64",
          "name": "version",
          "type": "uint64"
        }
      ],
      "name": "Initialized",
      "type": "event"
    },
    {
      "anonymous": false,
      "inputs": [
        {
          "indexed": true,
          "internalType": "address",
          "name": "asset",
          "type": "address"
        },
        {
          "indexed": false,
          "internalType": "string",
          "name": "brand",
          "type": "string"
        },
        {
          "indexed": false,
          "internalType": "string",
          "name": "model",
          "type": "string"
        },
        {
          "indexed": false,
          "internalType": "string",
          "name": "ref",
          "type": "string"
        }
      ],
      "name": "KettleAssetDeployed",
      "type": "event"
    },
    {
      "anonymous": false,
      "inputs": [
        {
          "indexed": true,
          "internalType": "address",
          "name": "asset",
          "type": "address"
        },
        {
          "indexed": true,
          "internalType": "address",
          "name": "from",
          "type": "address"
        },
        {
          "indexed": true,
          "internalType": "address",
          "name": "to",
          "type": "address"
        },
        {
          "indexed": false,
          "internalType": "uint256",
          "name": "tokenId",
          "type": "uint256"
        }
      ],
      "name": "KettleAssetTransferred",
      "type": "event"
    },
    {
      "anonymous": false,
      "inputs": [
        {
          "indexed": true,
          "internalType": "address",
          "name": "operator",
          "type": "address"
        },
        {
          "indexed": false,
          "internalType": "bool",
          "name": "approved",
          "type": "bool"
        }
      ],
      "name": "OperatorWhitelisted",
      "type": "event"
    },
    {
      "anonymous": false,
      "inputs": [
        {
          "indexed": true,
          "internalType": "address",
          "name": "previousOwner",
          "type": "address"
        },
        {
          "indexed": true,
          "internalType": "address",
          "name": "newOwner",
          "type": "address"
        }
      ],
      "name": "OwnershipTransferred",
      "type": "event"
    },
    {
      "anonymous": false,
      "inputs": [
        {
          "indexed": true,
          "internalType": "address",
          "name": "account",
          "type": "address"
        },
        {
          "indexed": false,
          "internalType": "bytes32",
          "name": "role",
          "type": "bytes32"
        },
        {
          "indexed": false,
          "internalType": "bool",
          "name": "privilege",
          "type": "bool"
        }
      ],
      "name": "RoleGranted",
      "type": "event"
    },
    {
      "anonymous": false,
      "inputs": [
        {
          "indexed": true,
          "internalType": "address",
          "name": "asset",
          "type": "address"
        },
        {
          "indexed": false,
          "internalType": "uint256",
          "name": "tokenId",
          "type": "uint256"
        },
        {
          "indexed": false,
          "internalType": "bool",
          "name": "locked",
          "type": "bool"
        }
      ],
      "name": "TokenLocked",
      "type": "event"
    },
    {
      "anonymous": false,
      "inputs": [
        {
          "indexed": true,
          "internalType": "address",
          "name": "asset",
          "type": "address"
        },
        {
          "indexed": true,
          "internalType": "address",
          "name": "from",
          "type": "address"
        },
        {
          "indexed": true,
          "internalType": "address",
          "name": "to",
          "type": "address"
        },
        {
          "indexed": false,
          "internalType": "uint256",
          "name": "tokenId",
          "type": "uint256"
        },
        {
          "indexed": false,
          "internalType": "bool",
          "name": "approved",
          "type": "bool"
        }
      ],
      "name": "TransferApproved",
      "type": "event"
    },
    {
      "inputs": [],
      "name": "BASE_URI",
      "outputs": [
        {
          "internalType": "string",
          "name": "",
          "type": "string"
        }
      ],
      "stateMutability": "view",
      "type": "function"
    },
    {
      "inputs": [],
      "name": "MINTER_ROLE",
      "outputs": [
        {
          "internalType": "bytes32",
          "name": "",
          "type": "bytes32"
        }
      ],
      "stateMutability": "view",
      "type": "function"
    },
    {
      "inputs": [
        {
          "internalType": "address",
          "name": "",
          "type": "address"
        },
        {
          "internalType": "address",
          "name": "",
          "type": "address"
        },
        {
          "internalType": "address",
          "name": "",
          "type": "address"
        },
        {
          "internalType": "uint256",
          "name": "",
          "type": "uint256"
        }
      ],
      "name": "approvedTransfers",
      "outputs": [
        {
          "internalType": "bool",
          "name": "",
          "type": "bool"
        }
      ],
      "stateMutability": "view",
      "type": "function"
    },
    {
      "inputs": [],
      "name": "beacon",
      "outputs": [
        {
          "internalType": "contract UpgradeableBeacon",
          "name": "",
          "type": "address"
        }
      ],
      "stateMutability": "view",
      "type": "function"
    },
    {
      "inputs": [
        {
          "internalType": "bytes32",
          "name": "salt",
          "type": "bytes32"
        },
        {
          "internalType": "string",
          "name": "brand",
          "type": "string"
        },
        {
          "internalType": "string",
          "name": "model",
          "type": "string"
        },
        {
          "internalType": "string",
          "name": "ref",
          "type": "string"
        }
      ],
      "name": "deployAsset",
      "outputs": [
        {
          "internalType": "address",
          "name": "proxy",
          "type": "address"
        }
      ],
      "stateMutability": "nonpayable",
      "type": "function"
    },
    {
      "inputs": [
        {
          "internalType": "bytes32",
          "name": "salt",
          "type": "bytes32"
        }
      ],
      "name": "getDeploymentAddress",
      "outputs": [
        {
          "internalType": "address",
          "name": "",
          "type": "address"
        }
      ],
      "stateMutability": "view",
      "type": "function"
    },
    {
      "inputs": [
        {
          "internalType": "address",
          "name": "asset",
          "type": "address"
        },
        {
          "internalType": "address",
          "name": "from",
          "type": "address"
        },
        {
          "internalType": "address",
          "name": "to",
          "type": "address"
        },
        {
          "internalType": "uint256",
          "name": "tokenId",
          "type": "uint256"
        }
      ],
      "name": "indexTransfer",
      "outputs": [],
      "stateMutability": "nonpayable",
      "type": "function"
    },
    {
      "inputs": [
        {
          "internalType": "address",
          "name": "owner",
          "type": "address"
        },
        {
          "internalType": "address",
          "name": "_implementation",
          "type": "address"
        }
      ],
      "name": "initialize",
      "outputs": [],
      "stateMutability": "nonpayable",
      "type": "function"
    },
    {
      "inputs": [
        {
          "internalType": "address",
          "name": "",
          "type": "address"
        }
      ],
      "name": "isKettleAsset",
      "outputs": [
        {
          "internalType": "bool",
          "name": "",
          "type": "bool"
        }
      ],
      "stateMutability": "view",
      "type": "function"
    },
    {
      "inputs": [],
      "name": "kettleAssetImplementation",
      "outputs": [
        {
          "internalType": "address",
          "name": "",
          "type": "address"
        }
      ],
      "stateMutability": "view",
      "type": "function"
    },
    {
      "inputs": [
        {
          "internalType": "address",
          "name": "asset",
          "type": "address"
        },
        {
          "internalType": "bool",
          "name": "locked",
          "type": "bool"
        }
      ],
      "name": "lockContract",
      "outputs": [],
      "stateMutability": "nonpayable",
      "type": "function"
    },
    {
      "inputs": [
        {
          "internalType": "address",
          "name": "asset",
          "type": "address"
        },
        {
          "internalType": "uint256",
          "name": "tokenId",
          "type": "uint256"
        },
        {
          "internalType": "bool",
          "name": "locked",
          "type": "bool"
        }
      ],
      "name": "lockToken",
      "outputs": [],
      "stateMutability": "nonpayable",
      "type": "function"
    },
    {
      "inputs": [
        {
          "internalType": "address",
          "name": "",
          "type": "address"
        }
      ],
      "name": "lockedContracts",
      "outputs": [
        {
          "internalType": "bool",
          "name": "",
          "type": "bool"
        }
      ],
      "stateMutability": "view",
      "type": "function"
    },
    {
      "inputs": [
        {
          "internalType": "address",
          "name": "",
          "type": "address"
        },
        {
          "internalType": "uint256",
          "name": "",
          "type": "uint256"
        }
      ],
      "name": "lockedTokens",
      "outputs": [
        {
          "internalType": "bool",
          "name": "",
          "type": "bool"
        }
      ],
      "stateMutability": "view",
      "type": "function"
    },
    {
      "inputs": [
        {
          "internalType": "address",
          "name": "asset",
          "type": "address"
        },
        {
          "internalType": "address",
          "name": "to",
          "type": "address"
        },
        {
          "internalType": "uint256",
          "name": "id",
          "type": "uint256"
        }
      ],
      "name": "mint",
      "outputs": [],
      "stateMutability": "nonpayable",
      "type": "function"
    },
    {
      "inputs": [
        {
          "internalType": "address",
          "name": "",
          "type": "address"
        }
      ],
      "name": "operators",
      "outputs": [
        {
          "internalType": "bool",
          "name": "",
          "type": "bool"
        }
      ],
      "stateMutability": "view",
      "type": "function"
    },
    {
      "inputs": [],
      "name": "owner",
      "outputs": [
        {
          "internalType": "address",
          "name": "",
          "type": "address"
        }
      ],
      "stateMutability": "view",
      "type": "function"
    },
    {
      "inputs": [
        {
          "internalType": "address",
          "name": "asset",
          "type": "address"
        },
        {
          "internalType": "address",
          "name": "from",
          "type": "address"
        },
        {
          "internalType": "address",
          "name": "to",
          "type": "address"
        },
        {
          "internalType": "uint256",
          "name": "tokenId",
          "type": "uint256"
        }
      ],
      "name": "removeApprovedTransfer",
      "outputs": [],
      "stateMutability": "nonpayable",
      "type": "function"
    },
    {
      "inputs": [],
      "name": "renounceOwnership",
      "outputs": [],
      "stateMutability": "nonpayable",
      "type": "function"
    },
    {
      "inputs": [
        {
          "internalType": "address",
          "name": "asset",
          "type": "address"
        },
        {
          "internalType": "uint256",
          "name": "tokenId",
          "type": "uint256"
        }
      ],
      "name": "revokeToken",
      "outputs": [],
      "stateMutability": "nonpayable",
      "type": "function"
    },
    {
      "inputs": [
        {
          "internalType": "address",
          "name": "",
          "type": "address"
        },
        {
          "internalType": "bytes32",
          "name": "",
          "type": "bytes32"
        }
      ],
      "name": "roles",
      "outputs": [
        {
          "internalType": "bool",
          "name": "",
          "type": "bool"
        }
      ],
      "stateMutability": "view",
      "type": "function"
    },
    {
      "inputs": [
        {
          "internalType": "address",
          "name": "asset",
          "type": "address"
        },
        {
          "internalType": "address",
          "name": "from",
          "type": "address"
        },
        {
          "internalType": "address",
          "name": "to",
          "type": "address"
        },
        {
          "internalType": "uint256",
          "name": "tokenId",
          "type": "uint256"
        },
        {
          "internalType": "bool",
          "name": "approved",
          "type": "bool"
        }
      ],
      "name": "setApprovedTransfer",
      "outputs": [],
      "stateMutability": "nonpayable",
      "type": "function"
    },
    {
      "inputs": [
        {
          "internalType": "string",
          "name": "_baseURI",
          "type": "string"
        }
      ],
      "name": "setBaseURI",
      "outputs": [],
      "stateMutability": "nonpayable",
      "type": "function"
    },
    {
      "inputs": [
        {
          "internalType": "address",
          "name": "asset",
          "type": "address"
        },
        {
          "internalType": "string",
          "name": "brand",
          "type": "string"
        },
        {
          "internalType": "string",
          "name": "model",
          "type": "string"
        },
        {
          "internalType": "string",
          "name": "ref",
          "type": "string"
        }
      ],
      "name": "setMetadata",
      "outputs": [],
      "stateMutability": "nonpayable",
      "type": "function"
    },
    {
      "inputs": [
        {
          "internalType": "address",
          "name": "operator",
          "type": "address"
        },
        {
          "internalType": "bool",
          "name": "approved",
          "type": "bool"
        }
      ],
      "name": "setOperator",
      "outputs": [],
      "stateMutability": "nonpayable",
      "type": "function"
    },
    {
      "inputs": [
        {
          "internalType": "bytes32",
          "name": "role",
          "type": "bytes32"
        },
        {
          "internalType": "address",
          "name": "account",
          "type": "address"
        },
        {
          "internalType": "bool",
          "name": "privilege",
          "type": "bool"
        }
      ],
      "name": "setRole",
      "outputs": [],
      "stateMutability": "nonpayable",
      "type": "function"
    },
    {
      "inputs": [
        {
          "internalType": "address",
          "name": "asset",
          "type": "address"
        },
        {
          "internalType": "uint256",
          "name": "tokenId",
          "type": "uint256"
        }
      ],
      "name": "tokenURI",
      "outputs": [
        {
          "internalType": "string",
          "name": "",
          "type": "string"
        }
      ],
      "stateMutability": "view",
      "type": "function"
    },
    {
      "inputs": [
        {
          "internalType": "address",
          "name": "newOwner",
          "type": "address"
        }
      ],
      "name": "transferOwnership",
      "outputs": [],
      "stateMutability": "nonpayable",
      "type": "function"
    },
    {
      "inputs": [
        {
          "internalType": "address",
          "name": "newImplementation",
          "type": "address"
        }
      ],
      "name": "upgradeImplementation",
      "outputs": [],
      "stateMutability": "nonpayable",
      "type": "function"
    }
  ],
  "bytecode": "0x60806040523461001a576040516139e761002082396139e790f35b600080fdfe608060405260043610156200001357600080fd5b60003560e01c806305ec452a146200021c57806307df0056146200021657806313e7c9d8146200021057806329bd58b4146200020a578063337d401014620002045780633a45b68614620001fe578063485cc95514620001f85780634d80f96514620001f257806353719b6e14620001ec578063558a729714620001e657806355f804b314620001e057806359659e9014620001da5780636a95131614620001d4578063715018a614620001ce5780637afb591814620001c857806383f94db714620001c25780638da5cb5b14620001bc578063913874b714620001b6578063967c723914620001b0578063a9929ba114620001aa578063c583fcec14620001a4578063c6c3bbe6146200019e578063d41d41741462000198578063d53913931462000192578063d905088c146200018c578063da9041111462000186578063dbddb26a1462000180578063e9dc6375146200017a5763f2fde38b03620002445762000d36565b62000d14565b62000ce6565b62000b13565b62000acc565b62000a3d565b62000a1c565b620009e9565b6200098d565b62000942565b62000917565b620008c9565b620008a8565b6200088b565b6200086a565b62000835565b62000817565b620007b2565b62000742565b620006fa565b620006d8565b62000678565b62000500565b620004ba565b6200043f565b6200040a565b620003c1565b62000386565b620002f3565b6001600160a01b031690565b90565b6001600160a01b0381165b036200024457565b600080fd5b90503590620002588262000231565b565b9060208282031262000244576200022e9162000249565b6200022e9062000222906001600160a01b031682565b6200022e9062000271565b6200022e9062000287565b90620002a99062000292565b600052602052604060002090565b6200022e916008021c5b60ff1690565b906200022e9154620002b7565b6200022e90620002e96003916000926200029d565b620002c7565b9052565b34620002445762000327620003146200030e3660046200025a565b620002d4565b6040515b91829182901515815260200190565b0390f35b806200023c565b9050359062000258826200032b565b608081830312620002445762000358828262000249565b926200022e6200036c846020850162000249565b936200037c816040860162000249565b9360600162000332565b346200024457620003a76200039d36600462000341565b9291909162001fda565b604051005b6200022e90620002e96005916000926200029d565b3462000244576200032762000314620003dc3660046200025a565b620003ac565b919060408382031262000244576200022e9062000400818562000249565b9360200162000332565b346200024457620003a762000421366004620003e2565b9062001f2f565b9060208282031262000244576200022e9162000332565b34620002445762000327620004606200045a36600462000428565b620018f0565b604051918291826001600160a01b03909116815260200190565b8015156200023c565b9050359062000258826200047a565b919060408382031262000244576200022e90620004b0818562000249565b9360200162000483565b346200024457620003a7620004d136600462000492565b906200203a565b919060408382031262000244576200022e90620004f6818562000249565b9360200162000249565b346200024457620003a762000517366004620004d8565b90620013f9565b634e487b7160e01b600052604160045260246000fd5b90601f01601f1916810190811067ffffffffffffffff8211176200055757604052565b6200051e565b90620002586200056c60405190565b928362000534565b67ffffffffffffffff81116200055757602090601f01601f19160190565b0190565b90826000939282370152565b90929192620005bb620005b58262000574565b6200055d565b938185526020850190828401116200024457620002589262000596565b9080601f8301121562000244578160206200022e93359101620005a2565b9060808282031262000244576200060e818362000332565b92602083013567ffffffffffffffff811162000244578262000632918501620005d8565b92604081013567ffffffffffffffff811162000244578362000656918301620005d8565b92606082013567ffffffffffffffff811162000244576200022e9201620005d8565b346200024457620003276200046062000693366004620005f6565b92919091620018e0565b6200022e6200022e6200022e9290565b90620002a9906200069d565b620002e96200022e92620006d26007936000946200029d565b620006ad565b3462000244576200032762000314620006f3366004620003e2565b90620006b9565b346200024457620003a76200071136600462000492565b9062001b8d565b906020828203126200024457813567ffffffffffffffff811162000244576200022e9201620005d8565b346200024457620003a76200075936600462000718565b62002270565b60009103126200024457565b6200022e916008021c62000222565b906200022e91546200076b565b6200022e600060016200077a565b620002ef9062000292565b60208101929162000258919062000795565b346200024457620007c53660046200075f565b62000327620007d362000787565b60405191829182620007a0565b909160608284031262000244576200022e620007fd848462000332565b936200080d816020860162000249565b9360400162000483565b346200024457620003a76200082e366004620007e0565b9162001b23565b346200024457620008483660046200075f565b620003a762000dda565b9060808282031262000244576200060e818362000249565b346200024457620003a76200088136600462000852565b929190916200237d565b346200024457620003a7620008a23660046200025a565b62001a9f565b346200024457620008bb3660046200075f565b620003276200046062000d6a565b346200024457620003a7620008e036600462000341565b9291909162001d1f565b909160608284031262000244576200022e62000907848462000249565b936200080d816020860162000332565b346200024457620003a76200092e366004620008ea565b916200209c565b6200022e6000806200077a565b346200024457620009553660046200075f565b620003276200046062000935565b9192620006d26200022e9462000987620002e994620009876008976000986200029d565b6200029d565b3462000244576200032762000314620009a836600462000341565b9291909162000963565b909160608284031262000244576200022e620009cf848462000249565b93620009df816020860162000249565b9360400162000332565b346200024457620003a762000a00366004620009b2565b9162001e84565b6200022e90620002e96006916000926200029d565b346200024457620003276200031462000a373660046200025a565b62000a07565b34620002445762000a503660046200075f565b62000327600080516020620039928339815191526040515b9182918290815260200190565b919060a083820312620002445762000a8e818462000249565b9262000a9e826020830162000249565b926200022e62000ab2846040850162000249565b9362000ac2816060860162000332565b9360800162000483565b346200024457620003a762000ae336600462000a75565b9392909262001c20565b90620002a9565b620002e96200022e9262000b0d6004936000946200029d565b62000aed565b346200024457620003276200031462000b2e366004620003e2565b9062000af4565b634e487b7160e01b600052600060045260246000fd5b634e487b7160e01b600052602260045260246000fd5b906001600283049216801562000b84575b602083101462000b7e57565b62000b4b565b91607f169162000b72565b8054600093929162000baf62000ba58362000b61565b8085529360200190565b916001811690811562000c06575060011462000bca57505050565b62000bde9192939450600052602060002090565b916000925b81841062000bf15750500190565b80548484015260209093019260010162000be3565b92949550505060ff1916825215156020020190565b906200022e9162000b8f565b906200025862000c459262000c3b60405190565b9384809262000c1b565b038362000534565b9060001062000c61576200022e9062000c27565b62000b35565b6200022e6000600262000c4d565b60005b83811062000c895750506000910152565b818101518382015260200162000c78565b62000cbf62000cc9602093620005929362000cb3815190565b80835293849260200190565b9586910162000c75565b601f01601f191690565b60208082526200022e9291019062000c9a565b34620002445762000cf93660046200075f565b6200032762000d0762000c67565b6040519182918262000cd3565b3462000244576200032762000d0762000d2f366004620003e2565b90620024aa565b346200024457620003a762000d4d3660046200025a565b62000eb7565b6200022e9062000222565b6200022e905462000d53565b6200022e7f9016d09d72d40fdae2fd8ceac6b6234c7706214fd39c1cd1e609a0528c19930062000d5e565b62000d9f62000de4565b6200025862000dc4565b620002226200022e6200022e9290565b6200022e9062000da9565b6200025862000dd4600062000db9565b62000ef7565b6200025862000d95565b62000dee62000d6a565b339062000e03825b916001600160a01b031690565b0362000e0c5750565b62000e3f9062000e1b60405190565b63118cdaa760e01b8152918291600483016001600160a01b03909116815260200190565b0390fd5b620002589062000e5262000de4565b62000e5e600062000db9565b6001600160a01b0381166001600160a01b0383161462000e845750620002589062000ef7565b62000e3f9062000e9360405190565b631e4fbdf760e01b8152918291600483016001600160a01b03909116815260200190565b620002589062000e43565b906001600160a01b03905b9181191691161790565b9062000eeb6200022e62000ef39262000292565b825462000ec2565b9055565b7f9016d09d72d40fdae2fd8ceac6b6234c7706214fd39c1cd1e609a0528c1993009062000f308162000f298462000d5e565b9362000ed7565b62000f6762000f607f8be0079c531659141344cd1fd0a4f28419497f9722a3daafe3b4186f6b6457e09362000292565b9162000292565b9162000f7260405190565b600090a3565b6200022e9060401c620002c1565b6200022e905462000f78565b6200022e905b67ffffffffffffffff1690565b6200022e905462000f92565b62000f986200022e6200022e9290565b9067ffffffffffffffff9062000ecd565b62000f986200022e6200022e9267ffffffffffffffff1690565b90620010006200022e62000ef39262000fd2565b825462000fc1565b9068ff00000000000000009060401b62000ecd565b90620010306200022e62000ef392151590565b825462001008565b620002ef9062000fb1565b60208101929162000258919062001038565b907ff0c57e16840df040f15088dc2f81fe391c3923bec73e23a9662efc9c229c6a00908162001097620010906200108c8362000f86565b1590565b9162000fa5565b93600092620010a68462000fb1565b67ffffffffffffffff87161480620011ce575b600196620010d9620010cb8962000fb1565b9167ffffffffffffffff1690565b1490816200119f575b155b908162001195575b5062001183576200111d91836200111286620011088a62000fb1565b9801978862000fec565b620011715762001299565b6200112757505050565b62001132916200101d565b6200116c7fc7f505b2f371ae2175ee4913f4499e1f2633a7b5936321eed1cdaeb6115181d2916200116260405190565b9182918262001043565b0390a1565b6200117d87876200101d565b62001299565b60405163f92ee8a960e01b8152600490fd5b15905038620010ec565b9050620010e4620011b03062000292565b3b620011c4620011c0886200069d565b9190565b14919050620010e2565b5082620010b9565b62000592620011f192602092620011eb815190565b94859290565b9384910162000c75565b6200120c906200022e9392620011d6565b90620011d6565b156200121b57565b60405162461bcd60e51b815260206004820152602b60248201527f4b6574746c654173736574466163746f72793a204661696c656420746f20646560448201526a383637bc903132b0b1b7b760a91b6064820152608490fd5b9060ff9062000ecd565b90620012916200022e62000ef392151590565b825462001274565b620012b56200025892620012ad836200141f565b600062000ed7565b620013c9620013c16200134f6200135c62001330610730620012da602082016200055d565b908082526200326260208301396200133d620012f7600062000d5e565b620013023062000292565b906200130d60405190565b9485926020840192836001600160a01b0391821681529116602082015260400190565b9081038252038362000534565b604051938492602084019283620011fb565b9081038252038262000534565b620013bb620013a962000222620013a27fe3d3e105a0dfec090f72daf0e17d138e0e598e3d36c9aeb7422bd9a3b9179356946000956200139c876200069d565b620014aa565b9362000db9565b6001600160a01b038316141562001213565b62000292565b600162000ed7565b620013f3620013dc60019260046200029d565b600080516020620039928339815191529062000aed565b6200127e565b90620002589162001055565b62000258906200141462001444565b620002589062001439565b620002589062001405565b620002589062000e5262001444565b62000258906200142a565b620014526200108c6200146b565b6200145957565b604051631afcd79f60e31b8152600490fd5b6200022e7ff0c57e16840df040f15088dc2f81fe391c3923bec73e23a9662efc9c229c6a0062000f86565b908152604081019291620002589160200152565b90929190620014b93062000292565b818131106200152d5750815193600094620014d8620011c0876200069d565b146200151b578262000222926020620014f79551920190f59362000db9565b6001600160a01b038316146200150957565b604051633a0ba96160e11b8152600490fd5b604051631328927760e21b8152600490fd5b3162000e3f6200153c60405190565b63392efb2b60e21b81529283926004840162001496565b906200022e949392916200156662000de4565b6200163e565b6001600160a01b0390911681526200022e916040820191602081840391015262000c9a565b156200159957565b60405162461bcd60e51b815260206004820152602a60248201527f4b6574746c654173736574466163746f72793a204661696c656420746f206465604482015269706c6f792070726f787960b01b6064820152608490fd5b6040513d6000823e3d90fd5b916200162f90620016206200022e95936060860190868203600088015262000c9a565b90848203602086015262000c9a565b91604081840391015262000c9a565b50939291620016f46200134f620016e6620013306004620016a163189acdbd60e31b620016916200166f3062000292565b6040515b94859360208501908152016001600160a01b03909116815260200190565b6020820181038252038262000534565b6200133d6106dc91620016b7602084016200055d565b9280845262002b866020850139620016d4620013bb600162000d5e565b6040519485926020840192836200156c565b6000966200139c886200069d565b9182956200171c6200170a620002228362000db9565b6001600160a01b038616141562001591565b6200172b620013bb8562000292565b63c1fd4137813b1562000244576200174d6200174660405190565b9160e01b90565b815282818062001761876004830162000cd3565b038183865af180156200189857620018bf575b506346d75c8c813b156200024457620017906200174660405190565b8152828180620017a4886004830162000cd3565b038183865af1801562001898576200189e575b5063c73e835c90803b156200024457620017e0918391620017d760405190565b93849260e01b90565b8252818381620017f48c6004830162000cd3565b03925af18015620018985762001864575b50506200181a6001620013f38560036200029d565b6200185f6200184a7fc48f4fa7c0018c6d5d2f3460a981dcc083422622ebd2b27ff15cd404fd4474b69462000292565b946200185560405190565b93849384620015fd565b0390a2565b816200188892903d1062001890575b6200187f818362000534565b8101906200075f565b388062001805565b503d62001873565b620015f1565b620018b890833d851162001890576200187f818362000534565b38620017b7565b620018d990833d851162001890576200187f818362000534565b3862001774565b6200022e93929190600062001553565b6200022e9063189acdbd60e31b906200134f6200192b620013306004620016a16200191b3062000292565b9662001691886200167360405190565b6200193f62001938825190565b9160200190565b2090605592600b9291604051926040840152602083015281520160ff81532090565b62000258906200197062000de4565b620019e9565b156200197e57565b60405162461bcd60e51b815260206004820152603a60248201527f4b6574746c654173736574466163746f72793a206e657720696d706c656d656e60448201527f746174696f6e20697320746865207a65726f20616464726573730000000000006064820152608490fd5b60009062001a11620019ff620002228462000db9565b6001600160a01b038316141562001976565b62001a21620013bb600162000d5e565b91633659cfe692803b15620002445762001a4a93829162001a4160405190565b95869260e01b90565b82526001600160a01b0385166004830152602490829084905af19283156200189857620002589362001a7e575b5062000ed7565b62001a9890823d841162001890576200187f818362000534565b3862001a77565b620002589062001961565b9062000258929162001abb62000de4565b9162001ad381620013f38562000b0d8660046200029d565b62001aff7fed9ca00e2beefe500c0b0c86a682b50f9c084388050155225f2f1c73031d12b69262000292565b926200185f62001b0e60405190565b92839283908152901515602082015260400190565b9062000258929162001aaa565b90620002589162001b4062000de4565b62001b5282620013f38360056200029d565b6200185f62001b827f67a9140af3a1924dd071fca7a7245c954e029768ad9a3a500e3db4886105f0ed9262000292565b926200031860405190565b90620002589162001b30565b90620002589493929162001bac62000de4565b9091929362001bd181620013f387620006d2886200098789620009878a60086200029d565b62001c0c62001c0562001c057f4254a7031f333608022dc7f5fa51cd35b8fc4f6e57dc6f41e008ab0f334a7cf29462000292565b9462000292565b9462001c1b62001b0e60405190565b0390a4565b90620002589493929162001b99565b6200022e90620002c1565b6200022e905462001c2f565b1562001c4e57565b60405162461bcd60e51b815260206004820152602760248201527f73656e646572206973206e6f74206f776e6572206f72207265676973746572656044820152661908185cdcd95d60ca1b6064820152608490fd5b906200025893929162001cc262001cbc8260036200029d565b62001c3a565b801562001cdb575b62001cd59062001c46565b62001cfc565b5062001cd53362001cf362000df66200022262000d6a565b14905062001cca565b600062001bd181620013f387620006d2886200098789620009878a60086200029d565b906200025893929162001ca3565b1562001d3557565b60405162461bcd60e51b815260206004820152600c60248201526b696e76616c696420726f6c6560a01b6044820152606490fd5b6200025892919062001da062001d9a62001cbc600080516020620039928339815191525b62000b0d3360046200029d565b62001d2d565b62001dc4565b6001600160a01b039091168152604081019291620002589160200152565b62001dd3620013bb8262000292565b6340c10f1990803b15620002445762001df391600091620017d760405190565b825281838162001e088a8a6004840162001da6565b03925af18015620018985762001e6a575b5062001e26600062000db9565b9062001c1b62001e5f62001c0562001c057f58185104334934e85baef523df3cf65c6e9d50f111d29564c920a152887c102f9462000292565b9462000a6860405190565b62001e7d9060006200187f818362000534565b3862001e19565b9062000258929162001d69565b62000258919062001eb962001d9a62001cbc6000805160206200399283398151915262001d8d565b620013bb62001ec89162000292565b90637dc9e79b90823b15620002445762001f099262001efb6000809462001eee60405190565b9687958694859360e01b90565b835260048301526024820190565b03925af18015620018985762001f1c5750565b620002589060006200187f818362000534565b90620002589162001e91565b1562001f4357565b60405162461bcd60e51b8152602060048201526014602482015273185cdcd95d081b9bdd081c9959da5cdd195c995960621b6044820152606490fd5b906200025893929162001fa262001f9c62001cbc8360036200029d565b62001f3b565b62001c1b62001e5f62001c0562001c057f58185104334934e85baef523df3cf65c6e9d50f111d29564c920a152887c102f9462000292565b906200025893929162001f7f565b90620002589162001ff862000de4565b6200200a82620013f38360066200029d565b6200185f62001b827f20e971e0ada27855ad53b123623391fc76cc2802802b422fad5011bc88405cf99262000292565b90620002589162001fe8565b906200025892916200205762000de4565b90916200207081620013f385620006d28660076200029d565b62001aff7f09fa95f83aea87324fd2b999ba8d791b7700e7d6e7a043a06dc82b0af2c86dfb9262000292565b9062000258929162002046565b6200025890620020b862000de4565b62002263565b9160001960089290920291821b911b62000ecd565b9190620020e86200022e62000ef3936200069d565b908354620020be565b6200025891600091620020d3565b8181106200210b575050565b806200211b6000600193620020f1565b01620020ff565b9190601f81116200213257505050565b620021466200025893600052602060002090565b906020601f8401819004830193106200216a575b6020601f909101040190620020ff565b90915081906200215a565b906200217f815190565b9067ffffffffffffffff82116200055757620021a882620021a1855462000b61565b8562002122565b602090601f8311600114620021e75762000ef3929160009183620021db575b5050600019600883021c1916906002021790565b015190503880620021c7565b601f19831691620021fd85600052602060002090565b9260005b8181106200223e5750916002939185600196941062002224575b50505002019055565b01516000196008601f8516021c191690553880806200221b565b9193602060018192878701518155019501920162002201565b90620002589162002175565b6200025890600262002257565b6200025890620020a9565b90620002589392916200228d62000de4565b620013bb620022a0919493929462000292565b9263c1fd4137843b156200024457620022ce600091620022da620022c360405190565b948593849360e01b90565b83526004830162000cd3565b038183885af18015620018985762002363575b506346d75c8c833b156200024457620022ce60009162002310620022c360405190565b038183875af18015620018985762002349575b5063c73e835c90823b15620002445762001f0992620022ce6000809462001eee60405190565b6200235c9060006200187f818362000534565b3862002323565b620023769060006200187f818362000534565b38620022ed565b90620002589392916200227b565b6200022e9081906001600160a01b031681565b620023b16001916200022e9493620011d6565b602f60f81b81520190620011d6565b6200133092916200025891620023d560405190565b9485926020840192836200239e565b6200022e905462000b61565b805460009392916200240a620024068362000b61565b9390565b91600181169081156200246057506001146200242557505050565b620024399192939450600052602060002090565b6000905b8382106200244b5750500190565b6001816020925484860152019101906200243d565b60ff191683525050811515909102019150565b620023b16001916200022e9493620023f0565b62001330929162000258916200249b60405190565b94859260208401928362002473565b90620024e3620024dc620024d6620024d0620024ea95620024c9606090565b5062000287565b6200238b565b62002625565b9162002587565b90620023c0565b6002620024f781620023e4565b62002507620011c060006200069d565b146200251957906200022e9162002486565b5090565b906200252d620005b58362000574565b918252565b369037565b9062000258620025526200254b846200251d565b9362000574565b601f19016020840162002532565b634e487b7160e01b600052601260045260246000fd5b811562002581570490565b62002560565b62002592816200286d565b90620025a560019262000592846200069d565b9180620025b28462002537565b936020018401905b620025c6575b50505090565b620025fe9060001901926f181899199a1a9b1b9c1cb0b131b232b360811b600a82061a8453620025f7600a6200069d565b9062002576565b908162002610620011c060006200069d565b146200261f57909181620025ba565b620025c0565b6200022e9062002645620026398262002a56565b6200059260016200069d565b90620026fa565b634e487b7160e01b600052601160045260246000fd5b818102929181159184041417156200267657565b6200264c565b919082018092116200267657565b634e487b7160e01b600052603260045260246000fd5b90620026aa825190565b811015620026b9570160200190565b6200268a565b801562002676576000190190565b620002c16200022e6200022e9290565b6200022e90620026f5620011c06200022e9460ff1690565b901c90565b9081600292620027356200272f6200271d8562002717886200069d565b62002662565b62002728876200069d565b906200267c565b62002537565b936000906030620027516200274a846200069d565b88620026a0565b53600f60fb1b620027946200278987620027176001958695881a620027828d6200277b896200069d565b90620026a0565b536200069d565b62002728836200069d565b915b620027dd575b5050620011c0620027ad916200069d565b03620027b857505090565b62000e3f620027c660405190565b63e22e27eb60e01b81529283926004840162001496565b9092620027ea826200069d565b84111562002866576f181899199a1a9b1b9c1cb0b131b232b360811b62002812600f6200069d565b8216906010821015620026b95783926200283662002858926200285f941a60f81b90565b861a62002844888c620026a0565b53620028516004620026cd565b90620026dd565b94620026bf565b9162002796565b926200279c565b6200287960006200069d565b907a184f03e93ff9f4daa797ed6e38ed64bf6a1f010000000000000000620028a1816200069d565b82101562002a2d575b506d04ee2d6d415b85acef8100000000620028c5816200069d565b82101562002a04575b50662386f26fc10000620028e2816200069d565b821015620029db575b506305f5e100620028fc816200069d565b821015620029b2575b5061271062002914816200069d565b82101562002989575b5060646200292b816200069d565b82101562002960575b5062002945620011c0600a6200069d565b10156200294f5790565b6200022e906200059260016200069d565b6200298191620025f762002974926200069d565b916200059260026200069d565b903862002934565b620029aa91620025f76200299d926200069d565b916200059260046200069d565b90386200291d565b620029d391620025f7620029c6926200069d565b916200059260086200069d565b903862002905565b620029fc91620025f7620029ef926200069d565b916200059260106200069d565b9038620028eb565b62002a2591620025f762002a18926200069d565b916200059260206200069d565b9038620028ce565b62002a4e91620025f762002a41926200069d565b916200059260406200069d565b9038620028aa565b600062002b10620011c062002b0962002a6f846200069d565b9462002a8762002a806080620026cd565b82620026dd565b86811162002b6a575b5062002aa162002a806040620026cd565b62002aac866200069d565b811162002b4f575b5062002ac562002a806020620026cd565b62002ad0866200069d565b811162002b34575b5062002ae962002a806010620026cd565b62002af4866200069d565b811162002b19575b50620028516008620026cd565b926200069d565b116200294f5790565b62002b2c9150956200059260026200069d565b943862002afc565b62002b479150956200059260046200069d565b943862002ad8565b62002b629150956200059260086200069d565b943862002ab4565b62002b7d9150956200059260106200069d565b943862002a9056fe60a060405261001561000f610171565b90610193565b6040516101ad61052f82396080518160f001526101ad90f35b634e487b7160e01b600052604160045260246000fd5b90601f01601f191681019081106001600160401b0382111761006557604052565b61002e565b9061007e61007760405190565b9283610044565b565b6001600160a01b031690565b90565b6001600160a01b038116036100a057565b600080fd5b9050519061007e8261008f565b6001600160401b03811161006557602090601f01601f19160190565b60005b8381106100e15750506000910152565b81810151838201526020016100d1565b90929192610106610101826100b2565b61006a565b938185526020850190828401116100a05761007e926100ce565b9080601f830112156100a057815161008c926020016100f1565b9190916040818403126100a05761015183826100a5565b60208201519093906001600160401b0381116100a05761008c9201610120565b61018f6106dc803803806101848161006a565b92833981019061013a565b9091565b9061019e90826101f6565b608052565b61008c90610080906001600160a01b031682565b61008c906101a3565b61008c906101b7565b61008c61008c61008c9290565b906020828203126100a05761008c916100a5565b6040513d6000823e3d90fd5b906102008261034c565b7f1cf3b03a6cf19fa2baba4df148e9dcabedea7f8a5c07840e207e5c089be95d3e61022a836101c0565b9061023460405190565b600090a2805161024b61024760006101c9565b9190565b11156102d657602061026761026261027f946101c0565b6101c0565b635c60da1b9061027660405190565b94859260e01b90565b825260049082905afa80156102d1576102a0926000916102a3575b50610476565b50565b6102c4915060203d81116102ca575b6102bc8183610044565b8101906101d6565b3861029a565b503d6102b2565b6101ea565b505061007e61041e565b6001600160a01b03909116815260200190565b61008c7fa3f0ad74e5423aebfd80d3ef4346578335a9a72aeaee59ff6cb3582b35133d506101c9565b9061032c61008c610348926101c0565b82546001600160a01b0319166001600160a01b03919091161790565b9055565b906000823b61035d610247836101c9565b146103fb5760206102676102628561026261038596978661037f61008c6102f3565b0161031c565b825260049082905afa9182156102d1576000926103db575b506103ac610247833b926101c9565b146103b45750565b6103d7906103c160405190565b634c9c8ce360e01b8152918291600483016102e0565b0390fd5b6103f491925060203d81116102ca576102bc8183610044565b903861039d565b6103d78361040860405190565b631933b43b60e21b8152918291600483016102e0565b3461042c61024760006101c9565b1161043357565b60405163b398979f60e01b8152600490fd5b90610452610101836100b2565b918252565b3d15610471576104663d610445565b903d6000602084013e565b606090565b60008061008c93610485606090565b50805190602001845af4610497610457565b91906104a357506104ff565b81516000906104b4610247836101c9565b1490816104e8575b506104c5575090565b6103d7906104d260405190565b639996b31560e01b8152918291600483016102e0565b90506104f8610247833b926101c9565b14386104bc565b805161050e61024760006101c9565b111561051c57805190602001fd5b604051630a12f52160e11b8152600490fdfe608060405261000c6100e3565b60008091368280378136915af43d6000803e15610028573d6000f35b3d6000fd5b61004190610044906001600160a01b031682565b90565b6001600160a01b031690565b6100419061002d565b61004190610050565b634e487b7160e01b600052604160045260246000fd5b90601f01601f1916810190811067ffffffffffffffff82111761009a57604052565b610062565b6100a881610044565b036100af57565b600080fd5b905051906100c18261009f565b565b906020828203126100af57610041916100b4565b6040513d6000823e3d90fd5b61012f60206101176101127f000000000000000000000000000000000000000000000000000000000000000081565b610059565b635c60da1b9061012660405190565b93849260e01b90565b825260049082905afa9081156101725760009161014a575090565b610041915060203d811161016b575b6101638183610078565b8101906100c3565b503d610159565b6100d756fea2646970667358221220e652fe47bbbec0b7f4aa2237b61221cfba60785f6a4bb3fd6296cefe8299089964736f6c6343000814003360806040523462000031576200001f62000018620000e5565b906200010c565b60405161040f62000321823961040f90f35b600080fd5b634e487b7160e01b600052604160045260246000fd5b90601f01601f191681019081106001600160401b038211176200006e57604052565b62000036565b906200008b6200008360405190565b92836200004c565b565b6001600160a01b031690565b90565b6001600160a01b038116036200003157565b905051906200008b826200009c565b919060408382031262000031576200009990620000db8185620000ae565b93602001620000ae565b620001086200073080380380620000fc8162000074565b928339810190620000bd565b9091565b6200011b6200008b926200014f565b62000294565b6200008d62000099620000999290565b620000999062000121565b6001600160a01b03909116815260200190565b6200015b600062000131565b6001600160a01b0381166001600160a01b038316146200018157506200008b9062000222565b620001a7906200019060405190565b631e4fbdf760e01b8152918291600483016200013c565b0390fd5b62000099906200008d565b620000999054620001ab565b62000099906200008d906001600160a01b031682565b6200009990620001c2565b6200009990620001d8565b9062000202620000996200021e92620001e3565b82546001600160a01b0319166001600160a01b03919091161790565b9055565b6200022e6000620001b6565b906200023c816000620001ee565b620002736200026c7f8be0079c531659141344cd1fd0a4f28419497f9722a3daafe3b4186f6b6457e093620001e3565b91620001e3565b916200027e60405190565b600090a3565b6200009962000099620000999290565b803b620002aa620002a6600062000284565b9190565b14620002fa57620002bd816001620001ee565b620002e97fbc7cd75a20ee27fd9adebab32041f755214dbc6bffa90cc0225b39da2e5c2d3b91620001e3565b90620002f460405190565b600090a2565b620001a7906200030960405190565b63211eb15960e21b8152918291600483016200013c56fe6080604052600436101561001257600080fd5b60003560e01c80633659cfe6146100625780635c60da1b1461005d578063715018a6146100585780638da5cb5b146100535763f2fde38b0361008757610157565b610132565b61011a565b6100db565b6100af565b6001600160a01b031690565b90565b6001600160a01b0381160361008757565b600080fd5b9050359061009982610076565b565b90602082820312610087576100739161008c565b34610087576100c76100c236600461009b565b610335565b604051005b0390f35b600091031261008757565b34610087576100eb3660046100d0565b6100cc6101006001546001600160a01b031690565b604051918291826001600160a01b03909116815260200190565b346100875761012a3660046100d0565b6100c76101a7565b34610087576101423660046100d0565b6100cc6101006000546001600160a01b031690565b34610087576100c761016a36600461009b565b610266565b6101776101af565b610099610195565b6100676100736100739290565b6100739061017f565b6100996101a2600061018c565b6102c5565b61009961016f565b60005433906001600160a01b03168190036101c75750565b6101f8906101d460405190565b63118cdaa760e01b8152918291600483016001600160a01b03909116815260200190565b0390fd5b610099906102086101af565b610212600061018c565b6001600160a01b0381166001600160a01b038316146102355750610099906102c5565b6101f89061024260405190565b631e4fbdf760e01b8152918291600483016001600160a01b03909116815260200190565b610099906101fc565b61007390610067906001600160a01b031682565b6100739061026f565b61007390610283565b906102a56100736102c19261028c565b82546001600160a01b0319166001600160a01b03919091161790565b9055565b6000546001600160a01b0316906102dd816000610295565b61031061030a7f8be0079c531659141344cd1fd0a4f28419497f9722a3daafe3b4186f6b6457e09361028c565b9161028c565b9161031a60405190565b600090a3565b6100999061032c6101af565b6100999061034b565b61009990610320565b6100736100736100739290565b803b61035e61035a600061033e565b9190565b146103a85761036e816001610295565b6103987fbc7cd75a20ee27fd9adebab32041f755214dbc6bffa90cc0225b39da2e5c2d3b9161028c565b906103a260405190565b600090a2565b6101f8906103b560405190565b63211eb15960e21b8152918291600483016001600160a01b0390911681526020019056fea2646970667358221220ae1e8531388d9ebf9a3c5ec9dc31bc408ed6e4f29b4cf93a3243a1f54af65f8464736f6c634300081400339f2df0fed2c77648de5860a4cc508cd0818c85b8b8a1ab4ceeef8d981c8956a6a2646970667358221220345f653cc7f5cafa28358450e28fb4cf106dcc274c0f382dadd5c2a6daa2779b64736f6c63430008140033",
  "linkReferences": {},
  "deployedLinkReferences": {}
}