{
  "_format": "hh-sol-artifact-1",
  "contractName": "KettleAsset",
  "sourceName": "contracts/KettleAsset.sol",
  "abi": [
    {
      "inputs": [
        {
          "internalType": "address",
          "name": "sender",
          "type": "address"
        },
        {
          "internalType": "uint256",
          "name": "tokenId",
          "type": "uint256"
        },
        {
          "internalType": "address",
          "name": "owner",
          "type": "address"
        }
      ],
      "name": "ERC721IncorrectOwner",
      "type": "error"
    },
    {
      "inputs": [
        {
          "internalType": "address",
          "name": "operator",
          "type": "address"
        },
        {
          "internalType": "uint256",
          "name": "tokenId",
          "type": "uint256"
        }
      ],
      "name": "ERC721InsufficientApproval",
      "type": "error"
    },
    {
      "inputs": [
        {
          "internalType": "address",
          "name": "approver",
          "type": "address"
        }
      ],
      "name": "ERC721InvalidApprover",
      "type": "error"
    },
    {
      "inputs": [
        {
          "internalType": "address",
          "name": "operator",
          "type": "address"
        }
      ],
      "name": "ERC721InvalidOperator",
      "type": "error"
    },
    {
      "inputs": [
        {
          "internalType": "address",
          "name": "owner",
          "type": "address"
        }
      ],
      "name": "ERC721InvalidOwner",
      "type": "error"
    },
    {
      "inputs": [
        {
          "internalType": "address",
          "name": "receiver",
          "type": "address"
        }
      ],
      "name": "ERC721InvalidReceiver",
      "type": "error"
    },
    {
      "inputs": [
        {
          "internalType": "address",
          "name": "sender",
          "type": "address"
        }
      ],
      "name": "ERC721InvalidSender",
      "type": "error"
    },
    {
      "inputs": [
        {
          "internalType": "uint256",
          "name": "tokenId",
          "type": "uint256"
        }
      ],
      "name": "ERC721NonexistentToken",
      "type": "error"
    },
    {
      "inputs": [],
      "name": "InvalidInitialization",
      "type": "error"
    },
    {
      "inputs": [],
      "name": "NotInitializing",
      "type": "error"
    },
    {
      "inputs": [
        {
          "internalType": "address",
          "name": "owner",
          "type": "address"
        }
      ],
      "name": "OwnableInvalidOwner",
      "type": "error"
    },
    {
      "inputs": [
        {
          "internalType": "address",
          "name": "account",
          "type": "address"
        }
      ],
      "name": "OwnableUnauthorizedAccount",
      "type": "error"
    },
    {
      "anonymous": false,
      "inputs": [
        {
          "indexed": true,
          "internalType": "address",
          "name": "owner",
          "type": "address"
        },
        {
          "indexed": true,
          "internalType": "address",
          "name": "approved",
          "type": "address"
        },
        {
          "indexed": true,
          "internalType": "uint256",
          "name": "tokenId",
          "type": "uint256"
        }
      ],
      "name": "Approval",
      "type": "event"
    },
    {
      "anonymous": false,
      "inputs": [
        {
          "indexed": true,
          "internalType": "address",
          "name": "owner",
          "type": "address"
        },
        {
          "indexed": true,
          "internalType": "address",
          "name": "operator",
          "type": "address"
        },
        {
          "indexed": false,
          "internalType": "bool",
          "name": "approved",
          "type": "bool"
        }
      ],
      "name": "ApprovalForAll",
      "type": "event"
    },
    {
      "anonymous": false,
      "inputs": [
        {
          "indexed": false,
          "internalType": "uint64",
          "name": "version",
          "type": "uint64"
        }
      ],
      "name": "Initialized",
      "type": "event"
    },
    {
      "anonymous": false,
      "inputs": [
        {
          "indexed": true,
          "internalType": "address",
          "name": "previousOwner",
          "type": "address"
        },
        {
          "indexed": true,
          "internalType": "address",
          "name": "newOwner",
          "type": "address"
        }
      ],
      "name": "OwnershipTransferred",
      "type": "event"
    },
    {
      "anonymous": false,
      "inputs": [
        {
          "indexed": true,
          "internalType": "address",
          "name": "from",
          "type": "address"
        },
        {
          "indexed": true,
          "internalType": "address",
          "name": "to",
          "type": "address"
        },
        {
          "indexed": true,
          "internalType": "uint256",
          "name": "tokenId",
          "type": "uint256"
        }
      ],
      "name": "Transfer",
      "type": "event"
    },
    {
      "inputs": [
        {
          "internalType": "address",
          "name": "to",
          "type": "address"
        },
        {
          "internalType": "uint256",
          "name": "tokenId",
          "type": "uint256"
        }
      ],
      "name": "approve",
      "outputs": [],
      "stateMutability": "nonpayable",
      "type": "function"
    },
    {
      "inputs": [
        {
          "internalType": "address",
          "name": "owner",
          "type": "address"
        }
      ],
      "name": "balanceOf",
      "outputs": [
        {
          "internalType": "uint256",
          "name": "",
          "type": "uint256"
        }
      ],
      "stateMutability": "view",
      "type": "function"
    },
    {
      "inputs": [],
      "name": "brand",
      "outputs": [
        {
          "internalType": "string",
          "name": "",
          "type": "string"
        }
      ],
      "stateMutability": "view",
      "type": "function"
    },
    {
      "inputs": [
        {
          "internalType": "uint256",
          "name": "tokenId",
          "type": "uint256"
        }
      ],
      "name": "burn",
      "outputs": [],
      "stateMutability": "nonpayable",
      "type": "function"
    },
    {
      "inputs": [],
      "name": "factory",
      "outputs": [
        {
          "internalType": "contract IKettleAssetFactory",
          "name": "",
          "type": "address"
        }
      ],
      "stateMutability": "view",
      "type": "function"
    },
    {
      "inputs": [
        {
          "internalType": "uint256",
          "name": "tokenId",
          "type": "uint256"
        }
      ],
      "name": "getApproved",
      "outputs": [
        {
          "internalType": "address",
          "name": "",
          "type": "address"
        }
      ],
      "stateMutability": "view",
      "type": "function"
    },
    {
      "inputs": [
        {
          "internalType": "address",
          "name": "factoryAddress",
          "type": "address"
        }
      ],
      "name": "initialize",
      "outputs": [],
      "stateMutability": "nonpayable",
      "type": "function"
    },
    {
      "inputs": [
        {
          "internalType": "address",
          "name": "owner",
          "type": "address"
        },
        {
          "internalType": "address",
          "name": "operator",
          "type": "address"
        }
      ],
      "name": "isApprovedForAll",
      "outputs": [
        {
          "internalType": "bool",
          "name": "",
          "type": "bool"
        }
      ],
      "stateMutability": "view",
      "type": "function"
    },
    {
      "inputs": [
        {
          "internalType": "address",
          "name": "to",
          "type": "address"
        },
        {
          "internalType": "uint256",
          "name": "id",
          "type": "uint256"
        }
      ],
      "name": "mint",
      "outputs": [],
      "stateMutability": "nonpayable",
      "type": "function"
    },
    {
      "inputs": [],
      "name": "model",
      "outputs": [
        {
          "internalType": "string",
          "name": "",
          "type": "string"
        }
      ],
      "stateMutability": "view",
      "type": "function"
    },
    {
      "inputs": [],
      "name": "name",
      "outputs": [
        {
          "internalType": "string",
          "name": "",
          "type": "string"
        }
      ],
      "stateMutability": "view",
      "type": "function"
    },
    {
      "inputs": [],
      "name": "owner",
      "outputs": [
        {
          "internalType": "address",
          "name": "",
          "type": "address"
        }
      ],
      "stateMutability": "view",
      "type": "function"
    },
    {
      "inputs": [
        {
          "internalType": "uint256",
          "name": "tokenId",
          "type": "uint256"
        }
      ],
      "name": "ownerOf",
      "outputs": [
        {
          "internalType": "address",
          "name": "",
          "type": "address"
        }
      ],
      "stateMutability": "view",
      "type": "function"
    },
    {
      "inputs": [],
      "name": "ref",
      "outputs": [
        {
          "internalType": "string",
          "name": "",
          "type": "string"
        }
      ],
      "stateMutability": "view",
      "type": "function"
    },
    {
      "inputs": [],
      "name": "renounceOwnership",
      "outputs": [],
      "stateMutability": "nonpayable",
      "type": "function"
    },
    {
      "inputs": [
        {
          "internalType": "address",
          "name": "from",
          "type": "address"
        },
        {
          "internalType": "address",
          "name": "to",
          "type": "address"
        },
        {
          "internalType": "uint256",
          "name": "tokenId",
          "type": "uint256"
        }
      ],
      "name": "safeTransferFrom",
      "outputs": [],
      "stateMutability": "nonpayable",
      "type": "function"
    },
    {
      "inputs": [
        {
          "internalType": "address",
          "name": "from",
          "type": "address"
        },
        {
          "internalType": "address",
          "name": "to",
          "type": "address"
        },
        {
          "internalType": "uint256",
          "name": "tokenId",
          "type": "uint256"
        },
        {
          "internalType": "bytes",
          "name": "data",
          "type": "bytes"
        }
      ],
      "name": "safeTransferFrom",
      "outputs": [],
      "stateMutability": "nonpayable",
      "type": "function"
    },
    {
      "inputs": [
        {
          "internalType": "address",
          "name": "operator",
          "type": "address"
        },
        {
          "internalType": "bool",
          "name": "approved",
          "type": "bool"
        }
      ],
      "name": "setApprovalForAll",
      "outputs": [],
      "stateMutability": "nonpayable",
      "type": "function"
    },
    {
      "inputs": [
        {
          "internalType": "string",
          "name": "_brand",
          "type": "string"
        }
      ],
      "name": "setBrand",
      "outputs": [],
      "stateMutability": "nonpayable",
      "type": "function"
    },
    {
      "inputs": [
        {
          "internalType": "string",
          "name": "_model",
          "type": "string"
        }
      ],
      "name": "setModel",
      "outputs": [],
      "stateMutability": "nonpayable",
      "type": "function"
    },
    {
      "inputs": [
        {
          "internalType": "string",
          "name": "_ref",
          "type": "string"
        }
      ],
      "name": "setRef",
      "outputs": [],
      "stateMutability": "nonpayable",
      "type": "function"
    },
    {
      "inputs": [
        {
          "internalType": "bytes4",
          "name": "interfaceId",
          "type": "bytes4"
        }
      ],
      "name": "supportsInterface",
      "outputs": [
        {
          "internalType": "bool",
          "name": "",
          "type": "bool"
        }
      ],
      "stateMutability": "view",
      "type": "function"
    },
    {
      "inputs": [],
      "name": "symbol",
      "outputs": [
        {
          "internalType": "string",
          "name": "",
          "type": "string"
        }
      ],
      "stateMutability": "view",
      "type": "function"
    },
    {
      "inputs": [
        {
          "internalType": "uint256",
          "name": "tokenId",
          "type": "uint256"
        }
      ],
      "name": "tokenURI",
      "outputs": [
        {
          "internalType": "string",
          "name": "",
          "type": "string"
        }
      ],
      "stateMutability": "view",
      "type": "function"
    },
    {
      "inputs": [
        {
          "internalType": "address",
          "name": "from",
          "type": "address"
        },
        {
          "internalType": "address",
          "name": "to",
          "type": "address"
        },
        {
          "internalType": "uint256",
          "name": "id",
          "type": "uint256"
        }
      ],
      "name": "transferFrom",
      "outputs": [],
      "stateMutability": "nonpayable",
      "type": "function"
    },
    {
      "inputs": [
        {
          "internalType": "address",
          "name": "newOwner",
          "type": "address"
        }
      ],
      "name": "transferOwnership",
      "outputs": [],
      "stateMutability": "nonpayable",
      "type": "function"
    }
  ],
  "bytecode": "0x60806040523461001a5760405161216a610020823961216a90f35b600080fdfe6080604052600436101561001257600080fd5b60003560e01c806301ffc9a7146101b257806306fdde03146101ad578063081812fc146101a8578063095ea7b3146101a35780630ad9d0521461019e57806321a78f681461019957806323b872dd146101945780632d9fff011461018f57806340c10f191461018a57806342842e0e1461018557806342966c681461018057806346d75c8c1461017b5780636352211e1461017657806370a0823114610171578063715018a61461016c5780638da5cb5b1461016757806395d89b4114610162578063a22cb4651461015d578063b88d4fde14610158578063c1fd413714610153578063c45a01551461014e578063c4d66de814610149578063c73e835c14610144578063c87b56dd1461013f578063e985e9c51461013a5763f2fde38b036101ca5761094a565b61092e565b6108f0565b6108d8565b6108c0565b610899565b610818565b6107fc565b610793565b610740565b610725565b61070d565b6106e2565b6106b3565b61069b565b6105d6565b6105bd565b6105a4565b610589565b610564565b610519565b6104f2565b610370565b6102fc565b6102a2565b6101f9565b6001600160e01b031981165b036101ca57565b600080fd5b905035906101dc826101b7565b565b906020828203126101ca576101f2916101cf565b90565b9052565b346101ca5761022761021461020f3660046101de565b610b54565b6040515b91829182901515815260200190565b0390f35b60009103126101ca57565b60005b8381106102495750506000910152565b8181015183820152602001610239565b61027a61028360209361028d9361026e815190565b80835293849260200190565b95869101610236565b601f01601f191690565b0190565b60208082526101f292910190610259565b346101ca576102b236600461022b565b6102276102bd610c53565b60405191829182610291565b806101c3565b905035906101dc826102c9565b906020828203126101ca576101f2916102cf565b6001600160a01b031690565b346101ca576102276103176103123660046102dc565b610c92565b604051918291826001600160a01b03909116815260200190565b6001600160a01b0381166101c3565b905035906101dc82610331565b91906040838203126101ca576101f2906103678185610340565b936020016102cf565b346101ca5761038961038336600461034d565b90610c87565b604051005b634e487b7160e01b600052600060045260246000fd5b634e487b7160e01b600052602260045260246000fd5b90600160028304921680156103da575b60208310146103d557565b6103a4565b91607f16916103ca565b805460009392916104016103f7836103ba565b8085529360200190565b9160018116908115610453575060011461041a57505050565b61042d9192939450600052602060002090565b916000925b81841061043f5750500190565b805484840152602090930192600101610432565b92949550505060ff1916825215156020020190565b906101f2916103e4565b634e487b7160e01b600052604160045260246000fd5b90601f01601f1916810190811067ffffffffffffffff8211176104aa57604052565b610472565b906101dc6104c9926104c060405190565b93848092610468565b0383610488565b906000106104e1576101f2906104af565b61038e565b6101f2600060026104d0565b346101ca5761050236600461022b565b6102276102bd6104e6565b6101f2600060036104d0565b346101ca5761052936600461022b565b6102276102bd61050d565b90916060828403126101ca576101f261054d8484610340565b9361055b8160208601610340565b936040016102cf565b346101ca57610389610577366004610534565b91611dad565b6101f2600060016104d0565b346101ca5761059936600461022b565b6102276102bd61057d565b346101ca576103896105b736600461034d565b906117bc565b346101ca576103896105d0366004610534565b91610d2d565b346101ca576103896105e93660046102dc565b611b5c565b906101dc6105fb60405190565b9283610488565b67ffffffffffffffff81116104aa57602090601f01601f19160190565b90826000939282370152565b9092919261064061063b82610602565b6105ee565b938185526020850190828401116101ca576101dc9261061f565b9080601f830112156101ca578160206101f29335910161062b565b906020828203126101ca57813567ffffffffffffffff81116101ca576101f2920161065a565b346101ca576103896106ae366004610675565b61177c565b346101ca576102276103176106c93660046102dc565b610c41565b906020828203126101ca576101f291610340565b346101ca576102276106fd6106f83660046106ce565b610bc8565b6040519182918290815260200190565b346101ca5761071d36600461022b565b6103896109d6565b346101ca5761073536600461022b565b610227610317610975565b346101ca5761075036600461022b565b6102276102bd610c6e565b8015156101c3565b905035906101dc8261075b565b91906040838203126101ca576101f29061078a8185610340565b93602001610763565b346101ca576103896107a6366004610770565b90610ca5565b906080828203126101ca576107c18183610340565b926107cf8260208501610340565b926107dd83604083016102cf565b92606082013567ffffffffffffffff81116101ca576101f2920161065a565b346101ca5761038961080f3660046107ac565b92919091610d3d565b346101ca5761038961082b366004610675565b61175c565b6101f2916008021c6001600160a01b031690565b906101f29154610830565b6101f2600080610844565b6101f2906102f0906001600160a01b031682565b6101f29061085a565b6101f29061086e565b6101f590610877565b6020810192916101dc9190610880565b346101ca576108a936600461022b565b6102276108b461084f565b60405191829182610889565b346101ca576103896108d33660046106ce565b6114d2565b346101ca576103896108eb366004610675565b61179c565b346101ca576102276102bd6109063660046102dc565b611c06565b91906040838203126101ca576101f2906109258185610340565b93602001610340565b346101ca5761022761021461094436600461090b565b90610cc5565b346101ca5761038961095d3660046106ce565b610aa1565b6101f2906102f0565b6101f29054610962565b6101f27f9016d09d72d40fdae2fd8ceac6b6234c7706214fd39c1cd1e609a0528c19930061096b565b6109a66109de565b6101dc6109c4565b6102f06101f26101f29290565b6101f2906109ae565b6101dc6109d160006109bb565b610ada565b6101dc61099e565b6109e6610975565b33906109fa825b916001600160a01b031690565b03610a025750565b610a3390610a0f60405190565b63118cdaa760e01b8152918291600483016001600160a01b03909116815260200190565b0390fd5b6101dc90610a436109de565b610a4d60006109bb565b6001600160a01b0381166001600160a01b03831614610a7057506101dc90610ada565b610a3390610a7d60405190565b631e4fbdf760e01b8152918291600483016001600160a01b03909116815260200190565b6101dc90610a37565b906001600160a01b03905b9181191691161790565b90610acf6101f2610ad692610877565b8254610aaa565b9055565b7f9016d09d72d40fdae2fd8ceac6b6234c7706214fd39c1cd1e609a0528c19930090610b0f81610b098461096b565b93610abf565b610b42610b3c7f8be0079c531659141344cd1fd0a4f28419497f9722a3daafe3b4186f6b6457e093610877565b91610877565b91610b4c60405190565b80805b0390a3565b6380ac58cd60e01b6001600160e01b0319821614908115610b84575b8115610b7a575090565b6101f29150611233565b6001600160e01b03198116635b5e139f60e01b149150610b70565b90610ba990610877565b600052602052604060002090565b6101f29081565b6101f29054610bb7565b600080516020612115833981519152610be160006109bb565b6001600160a01b0381166001600160a01b03841614610c1057506101f2916003610c0b9201610b9f565b610bbe565b610a3390610c1d60405190565b6322718ad960e21b8152918291600483016001600160a01b03909116815260200190565b6101f290610fd6565b6101f2906104af565b6101f260006000805160206121158339815191525b01610c4a565b6101f26001600080516020612115833981519152610c68565b6101dc913391610d98565b6101f290610c9f81610fd6565b50610d6b565b6101dc919033610f20565b6101f2905b60ff1690565b6101f29054610cb0565b6101f291610cff610d0492610cd8600090565b507f80bb2b638cc20bc4d0a60d66940f3ab4a00c1d7b313497ca82fb0b4ab0079305610b9f565b610b9f565b610cbb565b90610d1661063b83610602565b918252565b6101f26000610d09565b6101f2610d1b565b90916101dc92610d3b610d25565b925b906101dc939291610d4f838383611dad565b6110df565b6101f26101f26101f29290565b90610ba990610d54565b610d936101f291610d7a600090565b5060046000805160206121158339815191525b01610d61565b61096b565b90916101dc926001925b92909160008051602061211583398151915291808115610ee1575b610dda575b50506101dc92916004610dd59201610d61565b610abf565b610de384610fd6565b91610df16102f060006109bb565b6001600160a01b038216141580610ec5575b80610eae575b610e7d5750610dd5926101dc959492600492610e2c575b50925081939450610dc2565b610e567f8c5be1e5ebec7d5bd14f71427d1e84f3dd0314c0f7b2291e5b200ac8c7c3b92591610877565b610e5f87610877565b90610e6986610d54565b92610e7360405190565b600090a438610e20565b610a3390610e8a60405190565b63a9fbf51f60e01b8152918291600483016001600160a01b03909116815260200190565b50610ec0610ebc8285610cc5565b1590565b610e09565b506001600160a01b0381166001600160a01b0384161415610e03565b50610eef6102f060006109bb565b6001600160a01b0383161415610dbd565b9060ff90610ab5565b90610f196101f2610ad692151590565b8254610f00565b600080516020612115833981519152610f3c6102f060006109bb565b6001600160a01b03841614610fa55783610f6084610cff856005610f659601610b9f565b610f09565b610b4f610f9b610f957f17307eab39ab6107e8899845ad3d59bd9653f200f220920489ca2b5937696c3193610877565b93610877565b9361021860405190565b610a3383610fb260405190565b630b61174360e31b8152918291600483016001600160a01b03909116815260200190565b610fdf81611027565b90610fed6102f060006109bb565b6001600160a01b03831614611000575090565b610a339061100d60405190565b637e27328960e01b81529182916004830190815260200190565b610d936101f291611036600090565b506002600080516020612115833981519152610d8d565b905051906101dc826101b7565b906020828203126101ca576101f29161104d565b6001600160a01b0390911681526101f293608082019390926110a791906110a0905b6001600160a01b03166020850152565b6040830152565b6060818403910152610259565b6040513d6000823e3d90fd5b3d156110da576110cf3d610d09565b903d6000602084013e565b606090565b909192823b936000946110f86110f487610d54565b9190565b11611105575b5050505050565b6020916111458661111d61111888610877565b610877565b9261115063150b7a029161112e3390565b9661113860405190565b998a988997889660e01b90565b86526004860161106e565b03925af160009181611203575b506111ce5750611172565b38808080806110fe565b61117a6110c0565b9161118f6110f4611189855190565b92610d54565b036111c557610a33906111a160405190565b633250574960e11b8152918291600483016001600160a01b03909116815260200190565b50805190602001fd5b9091506111eb630a85bd0160e11b5b916001600160e01b03191690565b036111f65750611168565b610a33906111a160405190565b61122591925060203d811161122c575b61121d8183610488565b81019061105a565b903861115d565b503d611213565b6112436301ffc9a760e01b6111dd565b1490565b6101f29060401c610cb5565b6101f29054611247565b6101f2905b67ffffffffffffffff1690565b6101f2905461125d565b6112626101f26101f29290565b9067ffffffffffffffff90610ab5565b6112626101f26101f29267ffffffffffffffff1690565b906112bd6101f2610ad692611296565b8254611286565b9068ff00000000000000009060401b610ab5565b906112e86101f2610ad692151590565b82546112c4565b6101f590611279565b6020810192916101dc91906112ef565b7ff0c57e16840df040f15088dc2f81fe391c3923bec73e23a9662efc9c229c6a0090819061134161133b610ebc84611253565b9361126f565b9260009161134e83611279565b67ffffffffffffffff86161480611453575b60019561137d61136f88611279565b9167ffffffffffffffff1690565b14908161142f575b155b9081611426575b50611414576113b790826113ae856113a589611279565b970196876112ad565b611405576114a2565b6113c057505050565b6113c9916112d8565b6114007fc7f505b2f371ae2175ee4913f4499e1f2633a7b5936321eed1cdaeb6115181d2916113f760405190565b918291826112f8565b0390a1565b61140f86866112d8565b6114a2565b60405163f92ee8a960e01b8152600490fd5b1590503861138e565b905061138761143d30610877565b3b61144a6110f487610d54565b14919050611385565b5081611360565b6114646006610d09565b654b6574746c6560d01b602082015290565b6101f261145a565b6114886006610d09565b654b4554544c4560d01b602082015290565b6101f261147e565b6114cb6101dc916114c26114b4611476565b6114bc61149a565b90611571565b611118816114f0565b6000610abf565b6101dc90611308565b6101dc906114e761150e565b6101dc90611505565b6101dc906114db565b6101dc90610a4361150e565b6101dc906114f9565b611519610ebc611531565b61151f57565b604051631afcd79f60e31b8152600490fd5b6101f27ff0c57e16840df040f15088dc2f81fe391c3923bec73e23a9662efc9c229c6a00611253565b906101dc9161156761150e565b906101dc9161173b565b906101dc9161155a565b906101dc9161158861150e565b61170f565b9160001960089290920291821b911b610ab5565b91906115b26101f2610ad693610d54565b90835461158d565b6101dc916000916115a1565b8181106115d1575050565b806115df60006001936115ba565b016115c6565b9190601f81116115f457505050565b6116066101dc93600052602060002090565b906020601f840181900483019310611628575b6020601f9091010401906115c6565b9091508190611619565b9061163b815190565b9067ffffffffffffffff82116104aa5761165f8261165985546103ba565b856115e5565b602090601f831160011461169a57610ad692916000918361168f575b5050600019600883021c1916906002021790565b01519050388061167b565b601f198316916116af85600052602060002090565b9260005b8181106116ed575091600293918560019694106116d4575b50505002019055565b01516000196008601f8516021c191690553880806116cb565b919360206001819287870151815501950192016116b3565b906101dc91611632565b9060016101dc9261173561172e60008051602061211583398151915290565b9182611705565b01611705565b906101dc9161157b565b6101dc906117516109de565b6101dc906001611705565b6101dc90611745565b6101dc906117716109de565b6101dc906002611705565b6101dc90611765565b6101dc906117916109de565b6101dc906003611705565b6101dc90611785565b906101dc916117b26109de565b906101dc916117c6565b906101dc916117a5565b6101dc916117d2610d25565b91906101dc92916117e382826117ed565b610d4f60006109bb565b906117f860006109bb565b916001600160a01b0383166001600160a01b038216146118685761181d918391611896565b61182f6001600160a01b0383166109ed565b036118375750565b610a339061184460405190565b6339e3563760e11b8152918291600483016001600160a01b03909116815260200190565b610a33836111a160405190565b9060001990610ab5565b9061188f6101f2610ad692610d54565b8254611875565b9061192a82610dd58360026000805160206121158339815191526119156118bc84611027565b9960008b866118ca836109bb565b936001600160a01b0385166001600160a01b038216036119e2575b5050506118f8826001600160a01b031690565b6001600160a01b038d16036119a4575b506001600160a01b031690565b6001600160a01b038616036119725701610d61565b7fddf252ad1be2c89b69c2b068fc378daa952ba7f163c4a11628f55a4df523b3ef9161196161118961195b86610877565b92610877565b9261196b60405190565b600090a490565b61199f61197f6001610d54565b61199961198f8860038601610b9f565b9161028d83610bbe565b9061187f565b610d8d565b6119b090828781610da2565b6119dc8b6119996119ce6119c46001610d54565b9260038801610b9f565b916119d883610bbe565b0390565b38611908565b6119eb92611a14565b8b86386118e5565b6001600160a01b0390911681526040810192916101dc9160200152565b0152565b611a22610ebc848484611a6f565b611a2b57505050565b611a3b6109ed6102f060006109bb565b03611a4d57610a338261100d60405190565b610a33611a5960405190565b63177e802f60e01b8152928392600484016119f3565b90611a7d6102f060006109bb565b6001600160a01b03821614159283611a96575b50505090565b919250906001600160a01b0382166001600160a01b03841614928315611af0575b508215611ac9575b5050388080611a90565b611ae8919250611adb6109ed91610d6b565b926001600160a01b031690565b143880611abf565b611afd9193508290610cc5565b9138611ab7565b15611b0b57565b60405162461bcd60e51b8152602060048201526024808201527f4b6574746c6541737365743a2063616c6c6572206973206e6f7420746865206f6044820152633bb732b960e11b6064820152608490fd5b6101dc90611b7933611b736109ed6102f085610c41565b14611b04565b611b8360006109bb565b611b946109ed611adb838581611896565b146110005750565b90929192611bac61063b82610602565b938185526020850190828401116101ca576101dc92610236565b9080601f830112156101ca5781516101f292602001611b9c565b906020828203126101ca57815167ffffffffffffffff81116101ca576101f29201611bc6565b6000611c146111188261096b565b63e9dc637590611c40611c2630610877565b92611c4b611c3360405190565b9687958694859460e01b90565b8452600484016119f3565b03915afa908115611c7c57600091611c61575090565b6101f2913d8091833e611c748183610488565b810190611be0565b6110b4565b905051906101dc8261075b565b906020828203126101ca576101f291611c81565b15611ca957565b60405162461bcd60e51b815260206004820152600f60248201526e10d3d395149050d517d313d0d2d151608a1b6044820152606490fd5b15611ce757565b60405162461bcd60e51b815260206004820152600c60248201526b1513d2d15397d313d0d2d15160a21b6044820152606490fd5b611a106101dc94611d45606094989795611090608086019a60008701906001600160a01b03169052565b6001600160a01b03166040830152565b15611d5c57565b60405162461bcd60e51b815260206004820152602360248201527f4e4f545f415554484f52495a45445f4f50455241544f525f4f525f5452414e536044820152622322a960e91b6064820152608490fd5b9190611dbc611118600061096b565b90611de3602063d41d4174611dd030610877565b94611dda60405190565b93849260e01b90565b82526001600160a01b038616600483015260249082905afa908115611c7c57611e1b91611e169160009161205457501590565b611ca2565b611e3c6020611e2d611118600061096b565b6353719b6e90611dda60405190565b82528180611e4e8989600484016119f3565b03915afa908115611c7c57611e7291611e6d9160009161205457501590565b611ce0565b611ebc6020611e84611118600061096b565b6313e7c9d890611ea53392611e9860405190565b9586948593849360e01b90565b83526001600160a01b031660048301526024820190565b03915afa908115611c7c57600091612036575b508015611fb4575b611ee090611d55565b611eeb8382866120a2565b611ef8611118600061096b565b63913874b790803b156101ca57611f1591600091611dda60405190565b8252818381611f2a8a898d8c60048601611d1b565b03925af18015611c7c57611f9e575b50611f47611118600061096b565b906307df005693823b156101ca57600094611f758692611f6a9461113860405190565b865260048601611d1b565b03925af18015611c7c57611f865750565b6101dc906000611f968183610488565b81019061022b565b611fae906000611f968183610488565b38611f39565b50611fd66020611fc7611118600061096b565b63c583fcec90611dda60405190565b82528180611fea89888c8b60048601611d1b565b03915afa8015611c7c57611ee091600091612008575b509050611ed7565b612029915060203d811161202f575b6120218183610488565b810190611c8e565b38612000565b503d612017565b61204e915060203d811161202f576120218183610488565b38611ecf565b610ebc915060203d811161202f576120218183610488565b6001600160a01b0390911681526060810193926101dc929091604091612093906020830152565b01906001600160a01b03169052565b906120ad60006109bb565b6001600160a01b0381166001600160a01b038316146111f657506120d390833391611896565b6001600160a01b0382166001600160a01b038216036120f157505050565b610a33906120fe60405190565b6364283d7b60e01b81529384936004850161206c56fe80bb2b638cc20bc4d0a60d66940f3ab4a00c1d7b313497ca82fb0b4ab0079300a2646970667358221220046ba1ad7f327887c867a2e26ba296f37eab8e66ef94a479bc552aef2bec427a64736f6c63430008140033",
  "linkReferences": {},
  "deployedLinkReferences": {}
}