{
  "_format": "hh-sol-artifact-1",
  "contractName": "KettleAssetFactory",
  "sourceName": "contracts/KettleAssetFactory.sol",
  "abi": [
    {
      "inputs": [],
      "name": "Create2EmptyBytecode",
      "type": "error"
    },
    {
      "inputs": [],
      "name": "Create2FailedDeployment",
      "type": "error"
    },
    {
      "inputs": [
        {
          "internalType": "uint256",
          "name": "balance",
          "type": "uint256"
        },
        {
          "internalType": "uint256",
          "name": "needed",
          "type": "uint256"
        }
      ],
      "name": "Create2InsufficientBalance",
      "type": "error"
    },
    {
      "inputs": [],
      "name": "InvalidInitialization",
      "type": "error"
    },
    {
      "inputs": [],
      "name": "NotInitializing",
      "type": "error"
    },
    {
      "inputs": [
        {
          "internalType": "address",
          "name": "owner",
          "type": "address"
        }
      ],
      "name": "OwnableInvalidOwner",
      "type": "error"
    },
    {
      "inputs": [
        {
          "internalType": "address",
          "name": "account",
          "type": "address"
        }
      ],
      "name": "OwnableUnauthorizedAccount",
      "type": "error"
    },
    {
      "inputs": [
        {
          "internalType": "uint256",
          "name": "value",
          "type": "uint256"
        },
        {
          "internalType": "uint256",
          "name": "length",
          "type": "uint256"
        }
      ],
      "name": "StringsInsufficientHexLength",
      "type": "error"
    },
    {
      "anonymous": false,
      "inputs": [
        {
          "indexed": true,
          "internalType": "address",
          "name": "asset",
          "type": "address"
        },
        {
          "indexed": false,
          "internalType": "bool",
          "name": "locked",
          "type": "bool"
        }
      ],
      "name": "ContractLocked",
      "type": "event"
    },
    {
      "anonymous": false,
      "inputs": [
        {
          "indexed": false,
          "internalType": "uint64",
          "name": "version",
          "type": "uint64"
        }
      ],
      "name": "Initialized",
      "type": "event"
    },
    {
      "anonymous": false,
      "inputs": [
        {
          "indexed": true,
          "internalType": "address",
          "name": "asset",
          "type": "address"
        },
        {
          "indexed": false,
          "internalType": "string",
          "name": "brand",
          "type": "string"
        },
        {
          "indexed": false,
          "internalType": "string",
          "name": "model",
          "type": "string"
        },
        {
          "indexed": false,
          "internalType": "string",
          "name": "ref",
          "type": "string"
        }
      ],
      "name": "KettleAssetDeployed",
      "type": "event"
    },
    {
      "anonymous": false,
      "inputs": [
        {
          "indexed": true,
          "internalType": "address",
          "name": "asset",
          "type": "address"
        },
        {
          "indexed": true,
          "internalType": "address",
          "name": "from",
          "type": "address"
        },
        {
          "indexed": true,
          "internalType": "address",
          "name": "to",
          "type": "address"
        },
        {
          "indexed": false,
          "internalType": "uint256",
          "name": "tokenId",
          "type": "uint256"
        }
      ],
      "name": "KettleAssetTransferred",
      "type": "event"
    },
    {
      "anonymous": false,
      "inputs": [
        {
          "indexed": true,
          "internalType": "address",
          "name": "operator",
          "type": "address"
        },
        {
          "indexed": false,
          "internalType": "bool",
          "name": "approved",
          "type": "bool"
        }
      ],
      "name": "OperatorWhitelisted",
      "type": "event"
    },
    {
      "anonymous": false,
      "inputs": [
        {
          "indexed": true,
          "internalType": "address",
          "name": "previousOwner",
          "type": "address"
        },
        {
          "indexed": true,
          "internalType": "address",
          "name": "newOwner",
          "type": "address"
        }
      ],
      "name": "OwnershipTransferred",
      "type": "event"
    },
    {
      "anonymous": false,
      "inputs": [
        {
          "indexed": true,
          "internalType": "address",
          "name": "account",
          "type": "address"
        },
        {
          "indexed": false,
          "internalType": "bytes32",
          "name": "role",
          "type": "bytes32"
        },
        {
          "indexed": false,
          "internalType": "bool",
          "name": "privilege",
          "type": "bool"
        }
      ],
      "name": "RoleGranted",
      "type": "event"
    },
    {
      "anonymous": false,
      "inputs": [
        {
          "indexed": true,
          "internalType": "address",
          "name": "asset",
          "type": "address"
        },
        {
          "indexed": false,
          "internalType": "uint256",
          "name": "tokenId",
          "type": "uint256"
        },
        {
          "indexed": false,
          "internalType": "bool",
          "name": "locked",
          "type": "bool"
        }
      ],
      "name": "TokenLocked",
      "type": "event"
    },
    {
      "anonymous": false,
      "inputs": [
        {
          "indexed": true,
          "internalType": "address",
          "name": "asset",
          "type": "address"
        },
        {
          "indexed": true,
          "internalType": "address",
          "name": "from",
          "type": "address"
        },
        {
          "indexed": true,
          "internalType": "address",
          "name": "to",
          "type": "address"
        },
        {
          "indexed": false,
          "internalType": "uint256",
          "name": "tokenId",
          "type": "uint256"
        },
        {
          "indexed": false,
          "internalType": "bool",
          "name": "approved",
          "type": "bool"
        }
      ],
      "name": "TransferApproved",
      "type": "event"
    },
    {
      "inputs": [],
      "name": "BASE_URI",
      "outputs": [
        {
          "internalType": "string",
          "name": "",
          "type": "string"
        }
      ],
      "stateMutability": "view",
      "type": "function"
    },
    {
      "inputs": [],
      "name": "MINTER_ROLE",
      "outputs": [
        {
          "internalType": "bytes32",
          "name": "",
          "type": "bytes32"
        }
      ],
      "stateMutability": "view",
      "type": "function"
    },
    {
      "inputs": [
        {
          "internalType": "address",
          "name": "",
          "type": "address"
        },
        {
          "internalType": "address",
          "name": "",
          "type": "address"
        },
        {
          "internalType": "address",
          "name": "",
          "type": "address"
        },
        {
          "internalType": "uint256",
          "name": "",
          "type": "uint256"
        }
      ],
      "name": "approvedTransfers",
      "outputs": [
        {
          "internalType": "bool",
          "name": "",
          "type": "bool"
        }
      ],
      "stateMutability": "view",
      "type": "function"
    },
    {
      "inputs": [],
      "name": "beacon",
      "outputs": [
        {
          "internalType": "contract UpgradeableBeacon",
          "name": "",
          "type": "address"
        }
      ],
      "stateMutability": "view",
      "type": "function"
    },
    {
      "inputs": [
        {
          "internalType": "bytes32",
          "name": "salt",
          "type": "bytes32"
        },
        {
          "internalType": "string",
          "name": "brand",
          "type": "string"
        },
        {
          "internalType": "string",
          "name": "model",
          "type": "string"
        },
        {
          "internalType": "string",
          "name": "ref",
          "type": "string"
        }
      ],
      "name": "deployAsset",
      "outputs": [
        {
          "internalType": "address",
          "name": "proxy",
          "type": "address"
        }
      ],
      "stateMutability": "nonpayable",
      "type": "function"
    },
    {
      "inputs": [
        {
          "internalType": "bytes32",
          "name": "salt",
          "type": "bytes32"
        }
      ],
      "name": "getDeploymentAddress",
      "outputs": [
        {
          "internalType": "address",
          "name": "",
          "type": "address"
        }
      ],
      "stateMutability": "view",
      "type": "function"
    },
    {
      "inputs": [
        {
          "internalType": "address",
          "name": "asset",
          "type": "address"
        },
        {
          "internalType": "address",
          "name": "from",
          "type": "address"
        },
        {
          "internalType": "address",
          "name": "to",
          "type": "address"
        },
        {
          "internalType": "uint256",
          "name": "tokenId",
          "type": "uint256"
        }
      ],
      "name": "indexTransfer",
      "outputs": [],
      "stateMutability": "nonpayable",
      "type": "function"
    },
    {
      "inputs": [
        {
          "internalType": "address",
          "name": "owner",
          "type": "address"
        },
        {
          "internalType": "address",
          "name": "_implementation",
          "type": "address"
        }
      ],
      "name": "initialize",
      "outputs": [],
      "stateMutability": "nonpayable",
      "type": "function"
    },
    {
      "inputs": [
        {
          "internalType": "address",
          "name": "",
          "type": "address"
        }
      ],
      "name": "isKettleAsset",
      "outputs": [
        {
          "internalType": "bool",
          "name": "",
          "type": "bool"
        }
      ],
      "stateMutability": "view",
      "type": "function"
    },
    {
      "inputs": [],
      "name": "kettleAssetImplementation",
      "outputs": [
        {
          "internalType": "address",
          "name": "",
          "type": "address"
        }
      ],
      "stateMutability": "view",
      "type": "function"
    },
    {
      "inputs": [
        {
          "internalType": "address",
          "name": "asset",
          "type": "address"
        },
        {
          "internalType": "bool",
          "name": "locked",
          "type": "bool"
        }
      ],
      "name": "lockContract",
      "outputs": [],
      "stateMutability": "nonpayable",
      "type": "function"
    },
    {
      "inputs": [
        {
          "internalType": "address",
          "name": "asset",
          "type": "address"
        },
        {
          "internalType": "uint256",
          "name": "tokenId",
          "type": "uint256"
        },
        {
          "internalType": "bool",
          "name": "locked",
          "type": "bool"
        }
      ],
      "name": "lockToken",
      "outputs": [],
      "stateMutability": "nonpayable",
      "type": "function"
    },
    {
      "inputs": [
        {
          "internalType": "address",
          "name": "",
          "type": "address"
        }
      ],
      "name": "lockedContracts",
      "outputs": [
        {
          "internalType": "bool",
          "name": "",
          "type": "bool"
        }
      ],
      "stateMutability": "view",
      "type": "function"
    },
    {
      "inputs": [
        {
          "internalType": "address",
          "name": "",
          "type": "address"
        },
        {
          "internalType": "uint256",
          "name": "",
          "type": "uint256"
        }
      ],
      "name": "lockedTokens",
      "outputs": [
        {
          "internalType": "bool",
          "name": "",
          "type": "bool"
        }
      ],
      "stateMutability": "view",
      "type": "function"
    },
    {
      "inputs": [
        {
          "internalType": "address",
          "name": "asset",
          "type": "address"
        },
        {
          "internalType": "address",
          "name": "to",
          "type": "address"
        },
        {
          "internalType": "uint256",
          "name": "id",
          "type": "uint256"
        }
      ],
      "name": "mint",
      "outputs": [],
      "stateMutability": "nonpayable",
      "type": "function"
    },
    {
      "inputs": [
        {
          "internalType": "address",
          "name": "",
          "type": "address"
        }
      ],
      "name": "operators",
      "outputs": [
        {
          "internalType": "bool",
          "name": "",
          "type": "bool"
        }
      ],
      "stateMutability": "view",
      "type": "function"
    },
    {
      "inputs": [],
      "name": "owner",
      "outputs": [
        {
          "internalType": "address",
          "name": "",
          "type": "address"
        }
      ],
      "stateMutability": "view",
      "type": "function"
    },
    {
      "inputs": [
        {
          "internalType": "address",
          "name": "asset",
          "type": "address"
        },
        {
          "internalType": "address",
          "name": "from",
          "type": "address"
        },
        {
          "internalType": "address",
          "name": "to",
          "type": "address"
        },
        {
          "internalType": "uint256",
          "name": "tokenId",
          "type": "uint256"
        }
      ],
      "name": "removeApprovedTransfer",
      "outputs": [],
      "stateMutability": "nonpayable",
      "type": "function"
    },
    {
      "inputs": [],
      "name": "renounceOwnership",
      "outputs": [],
      "stateMutability": "nonpayable",
      "type": "function"
    },
    {
      "inputs": [
        {
          "internalType": "address",
          "name": "",
          "type": "address"
        },
        {
          "internalType": "bytes32",
          "name": "",
          "type": "bytes32"
        }
      ],
      "name": "roles",
      "outputs": [
        {
          "internalType": "bool",
          "name": "",
          "type": "bool"
        }
      ],
      "stateMutability": "view",
      "type": "function"
    },
    {
      "inputs": [
        {
          "internalType": "address",
          "name": "asset",
          "type": "address"
        },
        {
          "internalType": "address",
          "name": "from",
          "type": "address"
        },
        {
          "internalType": "address",
          "name": "to",
          "type": "address"
        },
        {
          "internalType": "uint256",
          "name": "tokenId",
          "type": "uint256"
        },
        {
          "internalType": "bool",
          "name": "approved",
          "type": "bool"
        }
      ],
      "name": "setApprovedTransfer",
      "outputs": [],
      "stateMutability": "nonpayable",
      "type": "function"
    },
    {
      "inputs": [
        {
          "internalType": "string",
          "name": "_baseURI",
          "type": "string"
        }
      ],
      "name": "setBaseURI",
      "outputs": [],
      "stateMutability": "nonpayable",
      "type": "function"
    },
    {
      "inputs": [
        {
          "internalType": "address",
          "name": "asset",
          "type": "address"
        },
        {
          "internalType": "string",
          "name": "brand",
          "type": "string"
        },
        {
          "internalType": "string",
          "name": "model",
          "type": "string"
        },
        {
          "internalType": "string",
          "name": "ref",
          "type": "string"
        }
      ],
      "name": "setMetadata",
      "outputs": [],
      "stateMutability": "nonpayable",
      "type": "function"
    },
    {
      "inputs": [
        {
          "internalType": "address",
          "name": "operator",
          "type": "address"
        },
        {
          "internalType": "bool",
          "name": "approved",
          "type": "bool"
        }
      ],
      "name": "setOperator",
      "outputs": [],
      "stateMutability": "nonpayable",
      "type": "function"
    },
    {
      "inputs": [
        {
          "internalType": "bytes32",
          "name": "role",
          "type": "bytes32"
        },
        {
          "internalType": "address",
          "name": "account",
          "type": "address"
        },
        {
          "internalType": "bool",
          "name": "privilege",
          "type": "bool"
        }
      ],
      "name": "setRole",
      "outputs": [],
      "stateMutability": "nonpayable",
      "type": "function"
    },
    {
      "inputs": [
        {
          "internalType": "address",
          "name": "asset",
          "type": "address"
        },
        {
          "internalType": "uint256",
          "name": "tokenId",
          "type": "uint256"
        }
      ],
      "name": "tokenURI",
      "outputs": [
        {
          "internalType": "string",
          "name": "",
          "type": "string"
        }
      ],
      "stateMutability": "view",
      "type": "function"
    },
    {
      "inputs": [
        {
          "internalType": "address",
          "name": "newOwner",
          "type": "address"
        }
      ],
      "name": "transferOwnership",
      "outputs": [],
      "stateMutability": "nonpayable",
      "type": "function"
    },
    {
      "inputs": [
        {
          "internalType": "address",
          "name": "newImplementation",
          "type": "address"
        }
      ],
      "name": "upgradeImplementation",
      "outputs": [],
      "stateMutability": "nonpayable",
      "type": "function"
    }
  ],
  "bytecode": "0x60806040523461001a57604051613838610020823961383890f35b600080fdfe608060405260043610156200001357600080fd5b60003560e01c806305ec452a146200020a57806307df0056146200020457806313e7c9d814620001fe578063337d401014620001f85780633a45b68614620001f2578063485cc95514620001ec5780634d80f96514620001e657806353719b6e14620001e0578063558a729714620001da57806355f804b314620001d457806359659e9014620001ce5780636a95131614620001c8578063715018a614620001c25780637afb591814620001bc57806383f94db714620001b65780638da5cb5b14620001b0578063913874b714620001aa578063967c723914620001a4578063a9929ba1146200019e578063c583fcec1462000198578063c6c3bbe61462000192578063d41d4174146200018c578063d53913931462000186578063d905088c1462000180578063da904111146200017a578063dbddb26a1462000174578063e9dc6375146200016e5763f2fde38b03620002325762000d17565b62000cf5565b62000cc7565b62000af4565b62000aad565b62000a0d565b620009ec565b620009b9565b6200095d565b62000912565b620008e7565b62000899565b62000878565b6200085b565b6200083a565b62000805565b620007e7565b62000782565b62000712565b620006ca565b620006a8565b62000620565b620004a8565b62000462565b620003e7565b620003af565b62000374565b620002e1565b6001600160a01b031690565b90565b6001600160a01b0381165b036200023257565b600080fd5b9050359062000246826200021f565b565b9060208282031262000232576200021c9162000237565b6200021c9062000210906001600160a01b031682565b6200021c906200025f565b6200021c9062000275565b90620002979062000280565b600052602052604060002090565b6200021c916008021c5b60ff1690565b906200021c9154620002a5565b6200021c90620002d76003916000926200028b565b620002b5565b9052565b3462000232576200031562000302620002fc36600462000248565b620002c2565b6040515b91829182901515815260200190565b0390f35b806200022a565b90503590620002468262000319565b608081830312620002325762000346828262000237565b926200021c6200035a846020850162000237565b936200036a816040860162000237565b9360600162000320565b346200023257620003956200038b3660046200032f565b9291909162001e34565b604051005b6200021c90620002d76005916000926200028b565b3462000232576200031562000302620003ca36600462000248565b6200039a565b9060208282031262000232576200021c9162000320565b346200023257620003156200040862000402366004620003d0565b620018e2565b604051918291826001600160a01b03909116815260200190565b8015156200022a565b90503590620002468262000422565b919060408382031262000232576200021c9062000458818562000237565b936020016200042b565b34620002325762000395620004793660046200043a565b9062001e94565b919060408382031262000232576200021c906200049e818562000237565b9360200162000237565b34620002325762000395620004bf36600462000480565b90620013eb565b634e487b7160e01b600052604160045260246000fd5b90601f01601f1916810190811067ffffffffffffffff821117620004ff57604052565b620004c6565b90620002466200051460405190565b9283620004dc565b67ffffffffffffffff8111620004ff57602090601f01601f19160190565b0190565b90826000939282370152565b90929192620005636200055d826200051c565b62000505565b93818552602085019082840111620002325762000246926200053e565b9080601f8301121562000232578160206200021c933591016200054a565b906080828203126200023257620005b6818362000320565b92602083013567ffffffffffffffff8111620002325782620005da91850162000580565b92604081013567ffffffffffffffff8111620002325783620005fe91830162000580565b92606082013567ffffffffffffffff811162000232576200021c920162000580565b34620002325762000315620004086200063b3660046200059e565b92919091620018d2565b919060408382031262000232576200021c9062000663818562000237565b9360200162000320565b6200021c6200021c6200021c9290565b9062000297906200066d565b620002d76200021c92620006a26007936000946200028b565b6200067d565b3462000232576200031562000302620006c336600462000645565b9062000689565b34620002325762000395620006e13660046200043a565b9062001b7f565b906020828203126200023257813567ffffffffffffffff811162000232576200021c920162000580565b3462000232576200039562000729366004620006e8565b620020ca565b60009103126200023257565b6200021c916008021c62000210565b906200021c91546200073b565b6200021c600060016200074a565b620002dd9062000280565b60208101929162000246919062000765565b346200023257620007953660046200072f565b62000315620007a362000757565b6040519182918262000770565b909160608284031262000232576200021c620007cd848462000320565b93620007dd816020860162000237565b936040016200042b565b34620002325762000395620007fe366004620007b0565b9162001b15565b346200023257620008183660046200072f565b6200039562000dbb565b906080828203126200023257620005b6818362000237565b346200023257620003956200085136600462000822565b92919091620021e4565b346200023257620003956200087236600462000248565b62001a91565b3462000232576200088b3660046200072f565b620003156200040862000d4b565b34620002325762000395620008b03660046200032f565b9291909162001cdb565b909160608284031262000232576200021c620008d7848462000237565b93620007dd816020860162000320565b34620002325762000395620008fe366004620008ba565b9162001ef6565b6200021c6000806200074a565b346200023257620009253660046200072f565b620003156200040862000905565b9192620006a26200021c9462000957620002d794620009576008976000986200028b565b6200028b565b3462000232576200031562000302620009783660046200032f565b9291909162000933565b909160608284031262000232576200021c6200099f848462000237565b93620009af816020860162000237565b9360400162000320565b34620002325762000395620009d036600462000982565b9162001dc7565b6200021c90620002d76006916000926200028b565b346200023257620003156200030262000a0736600462000248565b620009d7565b34620002325762000a203660046200072f565b620003157f9f2df0fed2c77648de5860a4cc508cd0818c85b8b8a1ab4ceeef8d981c8956a66040515b9182918290815260200190565b919060a083820312620002325762000a6f818462000237565b9262000a7f826020830162000237565b926200021c62000a93846040850162000237565b9362000aa3816060860162000320565b936080016200042b565b3462000232576200039562000ac436600462000a56565b9392909262001c12565b9062000297565b620002d76200021c9262000aee6004936000946200028b565b62000ace565b346200023257620003156200030262000b0f36600462000645565b9062000ad5565b634e487b7160e01b600052600060045260246000fd5b634e487b7160e01b600052602260045260246000fd5b906001600283049216801562000b65575b602083101462000b5f57565b62000b2c565b91607f169162000b53565b8054600093929162000b9062000b868362000b42565b8085529360200190565b916001811690811562000be7575060011462000bab57505050565b62000bbf9192939450600052602060002090565b916000925b81841062000bd25750500190565b80548484015260209093019260010162000bc4565b92949550505060ff1916825215156020020190565b906200021c9162000b70565b906200024662000c269262000c1c60405190565b9384809262000bfc565b0383620004dc565b9060001062000c42576200021c9062000c08565b62000b16565b6200021c6000600262000c2e565b60005b83811062000c6a5750506000910152565b818101518382015260200162000c59565b62000ca062000caa6020936200053a9362000c94815190565b80835293849260200190565b9586910162000c56565b601f01601f191690565b60208082526200021c9291019062000c7b565b34620002325762000cda3660046200072f565b6200031562000ce862000c48565b6040519182918262000cb4565b3462000232576200031562000ce862000d1036600462000645565b9062002311565b3462000232576200039562000d2e36600462000248565b62000e98565b6200021c9062000210565b6200021c905462000d34565b6200021c7f9016d09d72d40fdae2fd8ceac6b6234c7706214fd39c1cd1e609a0528c19930062000d3f565b62000d8062000dc5565b6200024662000da5565b620002106200021c6200021c9290565b6200021c9062000d8a565b6200024662000db5600062000d9a565b62000ed8565b6200024662000d76565b62000dcf62000d4b565b339062000de4825b916001600160a01b031690565b0362000ded5750565b62000e209062000dfc60405190565b63118cdaa760e01b8152918291600483016001600160a01b03909116815260200190565b0390fd5b620002469062000e3362000dc5565b62000e3f600062000d9a565b6001600160a01b0381166001600160a01b0383161462000e655750620002469062000ed8565b62000e209062000e7460405190565b631e4fbdf760e01b8152918291600483016001600160a01b03909116815260200190565b620002469062000e24565b906001600160a01b03905b9181191691161790565b9062000ecc6200021c62000ed49262000280565b825462000ea3565b9055565b7f9016d09d72d40fdae2fd8ceac6b6234c7706214fd39c1cd1e609a0528c1993009062000f118162000f0a8462000d3f565b9362000eb8565b62000f4862000f417f8be0079c531659141344cd1fd0a4f28419497f9722a3daafe3b4186f6b6457e09362000280565b9162000280565b9162000f5360405190565b600090a3565b6200021c9060401c620002af565b6200021c905462000f59565b6200021c905b67ffffffffffffffff1690565b6200021c905462000f73565b62000f796200021c6200021c9290565b9067ffffffffffffffff9062000eae565b62000f796200021c6200021c9267ffffffffffffffff1690565b9062000fe16200021c62000ed49262000fb3565b825462000fa2565b9068ff00000000000000009060401b62000eae565b90620010116200021c62000ed492151590565b825462000fe9565b620002dd9062000f92565b60208101929162000246919062001019565b907ff0c57e16840df040f15088dc2f81fe391c3923bec73e23a9662efc9c229c6a00908162001078620010716200106d8362000f67565b1590565b9162000f86565b93600092620010878462000f92565b67ffffffffffffffff87161480620011af575b600196620010ba620010ac8962000f92565b9167ffffffffffffffff1690565b14908162001180575b155b908162001176575b506200116457620010fe9183620010f386620010e98a62000f92565b9801978862000fcd565b62001152576200127a565b6200110857505050565b620011139162000ffe565b6200114d7fc7f505b2f371ae2175ee4913f4499e1f2633a7b5936321eed1cdaeb6115181d2916200114360405190565b9182918262001024565b0390a1565b6200115e878762000ffe565b6200127a565b60405163f92ee8a960e01b8152600490fd5b15905038620010cd565b9050620010c5620011913062000280565b3b620011a5620011a1886200066d565b9190565b14919050620010c3565b50826200109a565b6200053a620011d292602092620011cc815190565b94859290565b9384910162000c56565b620011ed906200021c9392620011b7565b90620011b7565b15620011fc57565b60405162461bcd60e51b815260206004820152602b60248201527f4b6574746c654173736574466163746f72793a204661696c656420746f20646560448201526a383637bc903132b0b1b7b760a91b6064820152608490fd5b9060ff9062000eae565b90620012726200021c62000ed492151590565b825462001255565b6200129662000246926200128e8362001411565b600062000eb8565b620013aa620013a2620013306200133d62001311610730620012bb6020820162000505565b90808252620030d360208301396200131e620012d8600062000d3f565b620012e33062000280565b90620012ee60405190565b9485926020840192836001600160a01b0391821681529116602082015260400190565b90810382520383620004dc565b604051938492602084019283620011dc565b90810382520382620004dc565b6200139c6200138a62000210620013837fe3d3e105a0dfec090f72daf0e17d138e0e598e3d36c9aeb7422bd9a3b9179356946000956200137d876200066d565b6200149c565b9362000d9a565b6001600160a01b0383161415620011f4565b62000280565b600162000eb8565b620013e5620013bd60019260046200028b565b7f9f2df0fed2c77648de5860a4cc508cd0818c85b8b8a1ab4ceeef8d981c8956a69062000ace565b6200125f565b90620002469162001036565b62000246906200140662001436565b62000246906200142b565b6200024690620013f7565b620002469062000e3362001436565b62000246906200141c565b620014446200106d6200145d565b6200144b57565b604051631afcd79f60e31b8152600490fd5b6200021c7ff0c57e16840df040f15088dc2f81fe391c3923bec73e23a9662efc9c229c6a0062000f67565b908152604081019291620002469160200152565b90929190620014ab3062000280565b818131106200151f5750815193600094620014ca620011a1876200066d565b146200150d578262000210926020620014e99551920190f59362000d9a565b6001600160a01b03831614620014fb57565b604051633a0ba96160e11b8152600490fd5b604051631328927760e21b8152600490fd5b3162000e206200152e60405190565b63392efb2b60e21b81529283926004840162001488565b906200021c949392916200155862000dc5565b62001630565b6001600160a01b0390911681526200021c916040820191602081840391015262000c7b565b156200158b57565b60405162461bcd60e51b815260206004820152602a60248201527f4b6574746c654173736574466163746f72793a204661696c656420746f206465604482015269706c6f792070726f787960b01b6064820152608490fd5b6040513d6000823e3d90fd5b916200162190620016126200021c95936060860190868203600088015262000c7b565b90848203602086015262000c7b565b91604081840391015262000c7b565b50939291620016e662001330620016d86200131160046200169363189acdbd60e31b62001683620016613062000280565b6040515b94859360208501908152016001600160a01b03909116815260200190565b60208201810382520382620004dc565b6200131e6106dc91620016a96020840162000505565b92808452620029f76020850139620016c66200139c600162000d3f565b6040519485926020840192836200155e565b6000966200137d886200066d565b9182956200170e620016fc620002108362000d9a565b6001600160a01b038616141562001583565b6200171d6200139c8562000280565b63c1fd4137813b1562000232576200173f6200173860405190565b9160e01b90565b815282818062001753876004830162000cb4565b038183865af180156200188a57620018b1575b506346d75c8c813b156200023257620017826200173860405190565b815282818062001796886004830162000cb4565b038183865af180156200188a5762001890575b5063c73e835c90803b156200023257620017d2918391620017c960405190565b93849260e01b90565b8252818381620017e68c6004830162000cb4565b03925af180156200188a5762001856575b50506200180c6001620013e58560036200028b565b620018516200183c7fc48f4fa7c0018c6d5d2f3460a981dcc083422622ebd2b27ff15cd404fd4474b69462000280565b946200184760405190565b93849384620015ef565b0390a2565b816200187a92903d1062001882575b620018718183620004dc565b8101906200072f565b3880620017f7565b503d62001865565b620015e3565b620018aa90833d85116200188257620018718183620004dc565b38620017a9565b620018cb90833d85116200188257620018718183620004dc565b3862001766565b6200021c93929190600062001545565b6200021c9063189acdbd60e31b90620013306200191d620013116004620016936200190d3062000280565b9662001683886200166560405190565b620019316200192a825190565b9160200190565b2090605592600b9291604051926040840152602083015281520160ff81532090565b62000246906200196262000dc5565b620019db565b156200197057565b60405162461bcd60e51b815260206004820152603a60248201527f4b6574746c654173736574466163746f72793a206e657720696d706c656d656e60448201527f746174696f6e20697320746865207a65726f20616464726573730000000000006064820152608490fd5b60009062001a03620019f1620002108462000d9a565b6001600160a01b038316141562001968565b62001a136200139c600162000d3f565b91633659cfe692803b15620002325762001a3c93829162001a3360405190565b95869260e01b90565b82526001600160a01b0385166004830152602490829084905af19283156200188a57620002469362001a70575b5062000eb8565b62001a8a90823d84116200188257620018718183620004dc565b3862001a69565b620002469062001953565b9062000246929162001aad62000dc5565b9162001ac581620013e58562000aee8660046200028b565b62001af17fed9ca00e2beefe500c0b0c86a682b50f9c084388050155225f2f1c73031d12b69262000280565b926200185162001b0060405190565b92839283908152901515602082015260400190565b9062000246929162001a9c565b90620002469162001b3262000dc5565b62001b4482620013e58360056200028b565b6200185162001b747f67a9140af3a1924dd071fca7a7245c954e029768ad9a3a500e3db4886105f0ed9262000280565b926200030660405190565b90620002469162001b22565b90620002469493929162001b9e62000dc5565b9091929362001bc381620013e587620006a2886200095789620009578a60086200028b565b62001bfe62001bf762001bf77f4254a7031f333608022dc7f5fa51cd35b8fc4f6e57dc6f41e008ab0f334a7cf29462000280565b9462000280565b9462001c0d62001b0060405190565b0390a4565b90620002469493929162001b8b565b6200021c90620002af565b6200021c905462001c21565b1562001c4057565b60405162461bcd60e51b81526020600482015260006024820152604490fd5b906200024693929162001c7e62001c788260036200028b565b62001c2c565b801562001c97575b62001c919062001c38565b62001cb8565b5062001c913362001caf62000dd76200021062000d4b565b14905062001c86565b600062001bc381620013e587620006a2886200095789620009578a60086200028b565b906200024693929162001c5f565b6200024692919062001d3062001d2a62001c787f9f2df0fed2c77648de5860a4cc508cd0818c85b8b8a1ab4ceeef8d981c8956a662000aee3360046200028b565b62001c38565b62001d54565b6001600160a01b039091168152604081019291620002469160200152565b6200139c62001d639162000280565b906340c10f1991803b15620002325762001d956000809462001da162001d8860405190565b9788968795869460e01b90565b84526004840162001d36565b03925af180156200188a5762001db45750565b62000246906000620018718183620004dc565b9062000246929162001ce9565b906200024693929162001df162001d2a62001c788360036200028b565b62001c0d62001e2962001bf762001bf77f58185104334934e85baef523df3cf65c6e9d50f111d29564c920a152887c102f9462000280565b9462000a4960405190565b906200024693929162001dd4565b90620002469162001e5262000dc5565b62001e6482620013e58360066200028b565b6200185162001b747f20e971e0ada27855ad53b123623391fc76cc2802802b422fad5011bc88405cf99262000280565b90620002469162001e42565b9062000246929162001eb162000dc5565b909162001eca81620013e585620006a28660076200028b565b62001af17f09fa95f83aea87324fd2b999ba8d791b7700e7d6e7a043a06dc82b0af2c86dfb9262000280565b9062000246929162001ea0565b620002469062001f1262000dc5565b620020bd565b9160001960089290920291821b911b62000eae565b919062001f426200021c62000ed4936200066d565b90835462001f18565b620002469160009162001f2d565b81811062001f65575050565b8062001f75600060019362001f4b565b0162001f59565b9190601f811162001f8c57505050565b62001fa06200024693600052602060002090565b906020601f84018190048301931062001fc4575b6020601f90910104019062001f59565b909150819062001fb4565b9062001fd9815190565b9067ffffffffffffffff8211620004ff57620020028262001ffb855462000b42565b8562001f7c565b602090601f8311600114620020415762000ed492916000918362002035575b5050600019600883021c1916906002021790565b01519050388062002021565b601f198316916200205785600052602060002090565b9260005b81811062002098575091600293918560019694106200207e575b50505002019055565b01516000196008601f8516021c1916905538808062002075565b919360206001819287870151815501950192016200205b565b90620002469162001fcf565b62000246906002620020b1565b620002469062001f03565b9062000246939291620020e762000dc5565b6200139c620020fa919493929462000280565b9263c1fd4137843b15620002325762002128600091620021346200211d60405190565b948593849360e01b90565b83526004830162000cb4565b038183885af180156200188a57620021ca575b506346d75c8c833b156200023257620021286000916200216a6200211d60405190565b038183875af180156200188a57620021b0575b5063c73e835c90823b15620002325762001da1926200212860008094620021a360405190565b9687958694859360e01b90565b620021c3906000620018718183620004dc565b386200217d565b620021dd906000620018718183620004dc565b3862002147565b9062000246939291620020d5565b6200021c9081906001600160a01b031681565b620022186001916200021c9493620011b7565b602f60f81b81520190620011b7565b62001311929162000246916200223c60405190565b94859260208401928362002205565b6200021c905462000b42565b80546000939291620022716200226d8362000b42565b9390565b9160018116908115620022c757506001146200228c57505050565b620022a09192939450600052602060002090565b6000905b838210620022b25750500190565b600181602092548486015201910190620022a4565b60ff191683525050811515909102019150565b620022186001916200021c949362002257565b62001311929162000246916200230260405190565b948592602084019283620022da565b906200234a620023436200233d62002337620023519562002330606090565b5062000275565b620021f2565b62002496565b91620023ee565b9062002227565b60026200235e816200224b565b6200236e620011a160006200066d565b146200238057906200021c91620022ed565b5090565b90620023946200055d836200051c565b918252565b369037565b9062000246620023b9620023b28462002384565b936200051c565b601f19016020840162002399565b634e487b7160e01b600052601260045260246000fd5b8115620023e8570490565b620023c7565b620023f981620026de565b906200240c6001926200053a846200066d565b918062002419846200239e565b809462002424600090565b5060200101905b62002437575b50505090565b6200246f9060001901926f181899199a1a9b1b9c1cb0b131b232b360811b600a82061a845362002468600a6200066d565b90620023dd565b908162002481620011a160006200066d565b1462002490579091816200242b565b62002431565b6200021c90620024b6620024aa82620028c7565b6200053a60016200066d565b906200256b565b634e487b7160e01b600052601160045260246000fd5b81810292918115918404141715620024e757565b620024bd565b91908201809211620024e757565b634e487b7160e01b600052603260045260246000fd5b906200251b825190565b8110156200252a570160200190565b620024fb565b8015620024e7576000190190565b620002af6200021c6200021c9290565b6200021c9062002566620011a16200021c9460ff1690565b901c90565b9081600292620025a6620025a06200258e8562002588886200066d565b620024d3565b62002599876200066d565b90620024ed565b6200239e565b936000906030620025c2620025bb846200066d565b8862002511565b53600f60fb1b62002605620025fa87620025886001958695881a620025f38d620025ec896200066d565b9062002511565b536200066d565b62002599836200066d565b915b6200264e575b5050620011a16200261e916200066d565b036200262957505090565b62000e206200263760405190565b63e22e27eb60e01b81529283926004840162001488565b90926200265b826200066d565b841115620026d7576f181899199a1a9b1b9c1cb0b131b232b360811b62002683600f6200066d565b82169060108210156200252a578392620026a7620026c992620026d0941a60f81b90565b861a620026b5888c62002511565b53620026c260046200253e565b906200254e565b9462002530565b9162002607565b926200260d565b620026ea60006200066d565b907a184f03e93ff9f4daa797ed6e38ed64bf6a1f01000000000000000062002712816200066d565b8210156200289e575b506d04ee2d6d415b85acef810000000062002736816200066d565b82101562002875575b50662386f26fc1000062002753816200066d565b8210156200284c575b506305f5e1006200276d816200066d565b82101562002823575b5061271062002785816200066d565b821015620027fa575b5060646200279c816200066d565b821015620027d1575b50620027b6620011a1600a6200066d565b1015620027c05790565b6200021c906200053a60016200066d565b620027f29162002468620027e5926200066d565b916200053a60026200066d565b9038620027a5565b6200281b91620024686200280e926200066d565b916200053a60046200066d565b90386200278e565b62002844916200246862002837926200066d565b916200053a60086200066d565b903862002776565b6200286d916200246862002860926200066d565b916200053a60106200066d565b90386200275c565b62002896916200246862002889926200066d565b916200053a60206200066d565b90386200273f565b620028bf9162002468620028b2926200066d565b916200053a60406200066d565b90386200271b565b600062002981620011a16200297a620028e0846200066d565b94620028f8620028f160806200253e565b826200254e565b868111620029db575b5062002912620028f160406200253e565b6200291d866200066d565b8111620029c0575b5062002936620028f160206200253e565b62002941866200066d565b8111620029a5575b506200295a620028f160106200253e565b62002965866200066d565b81116200298a575b50620026c260086200253e565b926200066d565b11620027c05790565b6200299d9150956200053a60026200066d565b94386200296d565b620029b89150956200053a60046200066d565b943862002949565b620029d39150956200053a60086200066d565b943862002925565b620029ee9150956200053a60106200066d565b94386200290156fe60a060405261001561000f610171565b90610193565b6040516101ad61052f82396080518160f001526101ad90f35b634e487b7160e01b600052604160045260246000fd5b90601f01601f191681019081106001600160401b0382111761006557604052565b61002e565b9061007e61007760405190565b9283610044565b565b6001600160a01b031690565b90565b6001600160a01b038116036100a057565b600080fd5b9050519061007e8261008f565b6001600160401b03811161006557602090601f01601f19160190565b60005b8381106100e15750506000910152565b81810151838201526020016100d1565b90929192610106610101826100b2565b61006a565b938185526020850190828401116100a05761007e926100ce565b9080601f830112156100a057815161008c926020016100f1565b9190916040818403126100a05761015183826100a5565b60208201519093906001600160401b0381116100a05761008c9201610120565b61018f6106dc803803806101848161006a565b92833981019061013a565b9091565b9061019e90826101f6565b608052565b61008c90610080906001600160a01b031682565b61008c906101a3565b61008c906101b7565b61008c61008c61008c9290565b906020828203126100a05761008c916100a5565b6040513d6000823e3d90fd5b906102008261034c565b7f1cf3b03a6cf19fa2baba4df148e9dcabedea7f8a5c07840e207e5c089be95d3e61022a836101c0565b9061023460405190565b600090a2805161024b61024760006101c9565b9190565b11156102d657602061026761026261027f946101c0565b6101c0565b635c60da1b9061027660405190565b94859260e01b90565b825260049082905afa80156102d1576102a0926000916102a3575b50610476565b50565b6102c4915060203d81116102ca575b6102bc8183610044565b8101906101d6565b3861029a565b503d6102b2565b6101ea565b505061007e61041e565b6001600160a01b03909116815260200190565b61008c7fa3f0ad74e5423aebfd80d3ef4346578335a9a72aeaee59ff6cb3582b35133d506101c9565b9061032c61008c610348926101c0565b82546001600160a01b0319166001600160a01b03919091161790565b9055565b906000823b61035d610247836101c9565b146103fb5760206102676102628561026261038596978661037f61008c6102f3565b0161031c565b825260049082905afa9182156102d1576000926103db575b506103ac610247833b926101c9565b146103b45750565b6103d7906103c160405190565b634c9c8ce360e01b8152918291600483016102e0565b0390fd5b6103f491925060203d81116102ca576102bc8183610044565b903861039d565b6103d78361040860405190565b631933b43b60e21b8152918291600483016102e0565b3461042c61024760006101c9565b1161043357565b60405163b398979f60e01b8152600490fd5b90610452610101836100b2565b918252565b3d15610471576104663d610445565b903d6000602084013e565b606090565b60008061008c93610485606090565b50805190602001845af4610497610457565b91906104a357506104ff565b81516000906104b4610247836101c9565b1490816104e8575b506104c5575090565b6103d7906104d260405190565b639996b31560e01b8152918291600483016102e0565b90506104f8610247833b926101c9565b14386104bc565b805161050e61024760006101c9565b111561051c57805190602001fd5b604051630a12f52160e11b8152600490fdfe608060405261000c6100e3565b60008091368280378136915af43d6000803e15610028573d6000f35b3d6000fd5b61004190610044906001600160a01b031682565b90565b6001600160a01b031690565b6100419061002d565b61004190610050565b634e487b7160e01b600052604160045260246000fd5b90601f01601f1916810190811067ffffffffffffffff82111761009a57604052565b610062565b6100a881610044565b036100af57565b600080fd5b905051906100c18261009f565b565b906020828203126100af57610041916100b4565b6040513d6000823e3d90fd5b61012f60206101176101127f000000000000000000000000000000000000000000000000000000000000000081565b610059565b635c60da1b9061012660405190565b93849260e01b90565b825260049082905afa9081156101725760009161014a575090565b610041915060203d811161016b575b6101638183610078565b8101906100c3565b503d610159565b6100d756fea2646970667358221220e652fe47bbbec0b7f4aa2237b61221cfba60785f6a4bb3fd6296cefe8299089964736f6c6343000814003360806040523462000031576200001f62000018620000e5565b906200010c565b60405161040f62000321823961040f90f35b600080fd5b634e487b7160e01b600052604160045260246000fd5b90601f01601f191681019081106001600160401b038211176200006e57604052565b62000036565b906200008b6200008360405190565b92836200004c565b565b6001600160a01b031690565b90565b6001600160a01b038116036200003157565b905051906200008b826200009c565b919060408382031262000031576200009990620000db8185620000ae565b93602001620000ae565b620001086200073080380380620000fc8162000074565b928339810190620000bd565b9091565b6200011b6200008b926200014f565b62000294565b6200008d62000099620000999290565b620000999062000121565b6001600160a01b03909116815260200190565b6200015b600062000131565b6001600160a01b0381166001600160a01b038316146200018157506200008b9062000222565b620001a7906200019060405190565b631e4fbdf760e01b8152918291600483016200013c565b0390fd5b62000099906200008d565b620000999054620001ab565b62000099906200008d906001600160a01b031682565b6200009990620001c2565b6200009990620001d8565b9062000202620000996200021e92620001e3565b82546001600160a01b0319166001600160a01b03919091161790565b9055565b6200022e6000620001b6565b906200023c816000620001ee565b620002736200026c7f8be0079c531659141344cd1fd0a4f28419497f9722a3daafe3b4186f6b6457e093620001e3565b91620001e3565b916200027e60405190565b600090a3565b6200009962000099620000999290565b803b620002aa620002a6600062000284565b9190565b14620002fa57620002bd816001620001ee565b620002e97fbc7cd75a20ee27fd9adebab32041f755214dbc6bffa90cc0225b39da2e5c2d3b91620001e3565b90620002f460405190565b600090a2565b620001a7906200030960405190565b63211eb15960e21b8152918291600483016200013c56fe6080604052600436101561001257600080fd5b60003560e01c80633659cfe6146100625780635c60da1b1461005d578063715018a6146100585780638da5cb5b146100535763f2fde38b0361008757610157565b610132565b61011a565b6100db565b6100af565b6001600160a01b031690565b90565b6001600160a01b0381160361008757565b600080fd5b9050359061009982610076565b565b90602082820312610087576100739161008c565b34610087576100c76100c236600461009b565b610335565b604051005b0390f35b600091031261008757565b34610087576100eb3660046100d0565b6100cc6101006001546001600160a01b031690565b604051918291826001600160a01b03909116815260200190565b346100875761012a3660046100d0565b6100c76101a7565b34610087576101423660046100d0565b6100cc6101006000546001600160a01b031690565b34610087576100c761016a36600461009b565b610266565b6101776101af565b610099610195565b6100676100736100739290565b6100739061017f565b6100996101a2600061018c565b6102c5565b61009961016f565b60005433906001600160a01b03168190036101c75750565b6101f8906101d460405190565b63118cdaa760e01b8152918291600483016001600160a01b03909116815260200190565b0390fd5b610099906102086101af565b610212600061018c565b6001600160a01b0381166001600160a01b038316146102355750610099906102c5565b6101f89061024260405190565b631e4fbdf760e01b8152918291600483016001600160a01b03909116815260200190565b610099906101fc565b61007390610067906001600160a01b031682565b6100739061026f565b61007390610283565b906102a56100736102c19261028c565b82546001600160a01b0319166001600160a01b03919091161790565b9055565b6000546001600160a01b0316906102dd816000610295565b61031061030a7f8be0079c531659141344cd1fd0a4f28419497f9722a3daafe3b4186f6b6457e09361028c565b9161028c565b9161031a60405190565b600090a3565b6100999061032c6101af565b6100999061034b565b61009990610320565b6100736100736100739290565b803b61035e61035a600061033e565b9190565b146103a85761036e816001610295565b6103987fbc7cd75a20ee27fd9adebab32041f755214dbc6bffa90cc0225b39da2e5c2d3b9161028c565b906103a260405190565b600090a2565b6101f8906103b560405190565b63211eb15960e21b8152918291600483016001600160a01b0390911681526020019056fea2646970667358221220ae1e8531388d9ebf9a3c5ec9dc31bc408ed6e4f29b4cf93a3243a1f54af65f8464736f6c63430008140033a2646970667358221220b8c7fcef1a31fe3b0ed9422c4f1103896bc36298524ff2b736a42f397bda3f3c64736f6c63430008140033",
  "linkReferences": {},
  "deployedLinkReferences": {}
}