{
  "contracts/KettleAssetFactory.sol": {
    "KettleAssetFactory": {
      "abi": [
        {
          "inputs": [
            {
              "internalType": "address",
              "name": "owner",
              "type": "address"
            }
          ],
          "stateMutability": "nonpayable",
          "type": "constructor"
        },
        {
          "inputs": [
            {
              "internalType": "address",
              "name": "owner",
              "type": "address"
            }
          ],
          "name": "OwnableInvalidOwner",
          "type": "error"
        },
        {
          "inputs": [
            {
              "internalType": "address",
              "name": "account",
              "type": "address"
            }
          ],
          "name": "OwnableUnauthorizedAccount",
          "type": "error"
        },
        {
          "inputs": [
            {
              "internalType": "uint256",
              "name": "value",
              "type": "uint256"
            },
            {
              "internalType": "uint256",
              "name": "length",
              "type": "uint256"
            }
          ],
          "name": "StringsInsufficientHexLength",
          "type": "error"
        },
        {
          "anonymous": false,
          "inputs": [
            {
              "indexed": true,
              "internalType": "address",
              "name": "asset",
              "type": "address"
            },
            {
              "indexed": false,
              "internalType": "bool",
              "name": "locked",
              "type": "bool"
            }
          ],
          "name": "ContractLocked",
          "type": "event"
        },
        {
          "anonymous": false,
          "inputs": [
            {
              "indexed": true,
              "internalType": "address",
              "name": "asset",
              "type": "address"
            },
            {
              "indexed": false,
              "internalType": "string",
              "name": "brand",
              "type": "string"
            },
            {
              "indexed": false,
              "internalType": "string",
              "name": "model",
              "type": "string"
            },
            {
              "indexed": false,
              "internalType": "string",
              "name": "ref",
              "type": "string"
            }
          ],
          "name": "KettleAssetDeployed",
          "type": "event"
        },
        {
          "anonymous": false,
          "inputs": [
            {
              "indexed": true,
              "internalType": "address",
              "name": "asset",
              "type": "address"
            },
            {
              "indexed": true,
              "internalType": "address",
              "name": "from",
              "type": "address"
            },
            {
              "indexed": true,
              "internalType": "address",
              "name": "to",
              "type": "address"
            },
            {
              "indexed": false,
              "internalType": "uint256",
              "name": "tokenId",
              "type": "uint256"
            }
          ],
          "name": "KettleAssetTransferred",
          "type": "event"
        },
        {
          "anonymous": false,
          "inputs": [
            {
              "indexed": true,
              "internalType": "address",
              "name": "operator",
              "type": "address"
            },
            {
              "indexed": false,
              "internalType": "bool",
              "name": "approved",
              "type": "bool"
            }
          ],
          "name": "OperatorWhitelisted",
          "type": "event"
        },
        {
          "anonymous": false,
          "inputs": [
            {
              "indexed": true,
              "internalType": "address",
              "name": "previousOwner",
              "type": "address"
            },
            {
              "indexed": true,
              "internalType": "address",
              "name": "newOwner",
              "type": "address"
            }
          ],
          "name": "OwnershipTransferred",
          "type": "event"
        },
        {
          "anonymous": false,
          "inputs": [
            {
              "indexed": true,
              "internalType": "address",
              "name": "account",
              "type": "address"
            },
            {
              "indexed": false,
              "internalType": "bytes32",
              "name": "role",
              "type": "bytes32"
            },
            {
              "indexed": false,
              "internalType": "bool",
              "name": "privilege",
              "type": "bool"
            }
          ],
          "name": "RoleGranted",
          "type": "event"
        },
        {
          "anonymous": false,
          "inputs": [
            {
              "indexed": true,
              "internalType": "address",
              "name": "asset",
              "type": "address"
            },
            {
              "indexed": false,
              "internalType": "uint256",
              "name": "tokenId",
              "type": "uint256"
            },
            {
              "indexed": false,
              "internalType": "bool",
              "name": "locked",
              "type": "bool"
            }
          ],
          "name": "TokenLocked",
          "type": "event"
        },
        {
          "anonymous": false,
          "inputs": [
            {
              "indexed": true,
              "internalType": "address",
              "name": "asset",
              "type": "address"
            },
            {
              "indexed": true,
              "internalType": "address",
              "name": "from",
              "type": "address"
            },
            {
              "indexed": true,
              "internalType": "address",
              "name": "to",
              "type": "address"
            },
            {
              "indexed": false,
              "internalType": "uint256",
              "name": "tokenId",
              "type": "uint256"
            },
            {
              "indexed": false,
              "internalType": "bool",
              "name": "approved",
              "type": "bool"
            }
          ],
          "name": "TransferApproved",
          "type": "event"
        },
        {
          "inputs": [],
          "name": "BASE_URI",
          "outputs": [
            {
              "internalType": "string",
              "name": "",
              "type": "string"
            }
          ],
          "stateMutability": "view",
          "type": "function"
        },
        {
          "inputs": [],
          "name": "MINTER_ROLE",
          "outputs": [
            {
              "internalType": "bytes32",
              "name": "",
              "type": "bytes32"
            }
          ],
          "stateMutability": "view",
          "type": "function"
        },
        {
          "inputs": [
            {
              "internalType": "address",
              "name": "",
              "type": "address"
            },
            {
              "internalType": "address",
              "name": "",
              "type": "address"
            },
            {
              "internalType": "address",
              "name": "",
              "type": "address"
            },
            {
              "internalType": "uint256",
              "name": "",
              "type": "uint256"
            }
          ],
          "name": "approvedTransfers",
          "outputs": [
            {
              "internalType": "bool",
              "name": "",
              "type": "bool"
            }
          ],
          "stateMutability": "view",
          "type": "function"
        },
        {
          "inputs": [
            {
              "internalType": "bytes32",
              "name": "salt",
              "type": "bytes32"
            },
            {
              "internalType": "string",
              "name": "brand",
              "type": "string"
            },
            {
              "internalType": "string",
              "name": "model",
              "type": "string"
            },
            {
              "internalType": "string",
              "name": "ref",
              "type": "string"
            }
          ],
          "name": "deployAsset",
          "outputs": [
            {
              "internalType": "contract KettleAsset",
              "name": "asset",
              "type": "address"
            }
          ],
          "stateMutability": "nonpayable",
          "type": "function"
        },
        {
          "inputs": [
            {
              "internalType": "bytes32",
              "name": "salt",
              "type": "bytes32"
            }
          ],
          "name": "getDeploymentAddress",
          "outputs": [
            {
              "internalType": "address",
              "name": "",
              "type": "address"
            }
          ],
          "stateMutability": "view",
          "type": "function"
        },
        {
          "inputs": [
            {
              "internalType": "address",
              "name": "asset",
              "type": "address"
            },
            {
              "internalType": "address",
              "name": "from",
              "type": "address"
            },
            {
              "internalType": "address",
              "name": "to",
              "type": "address"
            },
            {
              "internalType": "uint256",
              "name": "tokenId",
              "type": "uint256"
            }
          ],
          "name": "indexTransfer",
          "outputs": [],
          "stateMutability": "nonpayable",
          "type": "function"
        },
        {
          "inputs": [
            {
              "internalType": "address",
              "name": "",
              "type": "address"
            }
          ],
          "name": "isKettleAsset",
          "outputs": [
            {
              "internalType": "bool",
              "name": "",
              "type": "bool"
            }
          ],
          "stateMutability": "view",
          "type": "function"
        },
        {
          "inputs": [
            {
              "internalType": "address",
              "name": "asset",
              "type": "address"
            },
            {
              "internalType": "bool",
              "name": "locked",
              "type": "bool"
            }
          ],
          "name": "lockContract",
          "outputs": [],
          "stateMutability": "nonpayable",
          "type": "function"
        },
        {
          "inputs": [
            {
              "internalType": "address",
              "name": "asset",
              "type": "address"
            },
            {
              "internalType": "uint256",
              "name": "tokenId",
              "type": "uint256"
            },
            {
              "internalType": "bool",
              "name": "locked",
              "type": "bool"
            }
          ],
          "name": "lockToken",
          "outputs": [],
          "stateMutability": "nonpayable",
          "type": "function"
        },
        {
          "inputs": [
            {
              "internalType": "address",
              "name": "",
              "type": "address"
            }
          ],
          "name": "lockedContracts",
          "outputs": [
            {
              "internalType": "bool",
              "name": "",
              "type": "bool"
            }
          ],
          "stateMutability": "view",
          "type": "function"
        },
        {
          "inputs": [
            {
              "internalType": "address",
              "name": "",
              "type": "address"
            },
            {
              "internalType": "uint256",
              "name": "",
              "type": "uint256"
            }
          ],
          "name": "lockedTokens",
          "outputs": [
            {
              "internalType": "bool",
              "name": "",
              "type": "bool"
            }
          ],
          "stateMutability": "view",
          "type": "function"
        },
        {
          "inputs": [
            {
              "internalType": "address",
              "name": "asset",
              "type": "address"
            },
            {
              "internalType": "address",
              "name": "to",
              "type": "address"
            },
            {
              "internalType": "uint256",
              "name": "id",
              "type": "uint256"
            }
          ],
          "name": "mint",
          "outputs": [],
          "stateMutability": "nonpayable",
          "type": "function"
        },
        {
          "inputs": [
            {
              "internalType": "address",
              "name": "",
              "type": "address"
            }
          ],
          "name": "operators",
          "outputs": [
            {
              "internalType": "bool",
              "name": "",
              "type": "bool"
            }
          ],
          "stateMutability": "view",
          "type": "function"
        },
        {
          "inputs": [],
          "name": "owner",
          "outputs": [
            {
              "internalType": "address",
              "name": "",
              "type": "address"
            }
          ],
          "stateMutability": "view",
          "type": "function"
        },
        {
          "inputs": [
            {
              "internalType": "address",
              "name": "asset",
              "type": "address"
            },
            {
              "internalType": "address",
              "name": "from",
              "type": "address"
            },
            {
              "internalType": "address",
              "name": "to",
              "type": "address"
            },
            {
              "internalType": "uint256",
              "name": "tokenId",
              "type": "uint256"
            }
          ],
          "name": "removeApprovedTransfer",
          "outputs": [],
          "stateMutability": "nonpayable",
          "type": "function"
        },
        {
          "inputs": [],
          "name": "renounceOwnership",
          "outputs": [],
          "stateMutability": "nonpayable",
          "type": "function"
        },
        {
          "inputs": [
            {
              "internalType": "address",
              "name": "",
              "type": "address"
            },
            {
              "internalType": "bytes32",
              "name": "",
              "type": "bytes32"
            }
          ],
          "name": "roles",
          "outputs": [
            {
              "internalType": "bool",
              "name": "",
              "type": "bool"
            }
          ],
          "stateMutability": "view",
          "type": "function"
        },
        {
          "inputs": [
            {
              "internalType": "address",
              "name": "asset",
              "type": "address"
            },
            {
              "internalType": "address",
              "name": "from",
              "type": "address"
            },
            {
              "internalType": "address",
              "name": "to",
              "type": "address"
            },
            {
              "internalType": "uint256",
              "name": "tokenId",
              "type": "uint256"
            },
            {
              "internalType": "bool",
              "name": "approved",
              "type": "bool"
            }
          ],
          "name": "setApprovedTransfer",
          "outputs": [],
          "stateMutability": "nonpayable",
          "type": "function"
        },
        {
          "inputs": [
            {
              "internalType": "string",
              "name": "_baseURI",
              "type": "string"
            }
          ],
          "name": "setBaseURI",
          "outputs": [],
          "stateMutability": "nonpayable",
          "type": "function"
        },
        {
          "inputs": [
            {
              "internalType": "address",
              "name": "asset",
              "type": "address"
            },
            {
              "internalType": "string",
              "name": "brand",
              "type": "string"
            },
            {
              "internalType": "string",
              "name": "model",
              "type": "string"
            },
            {
              "internalType": "string",
              "name": "ref",
              "type": "string"
            }
          ],
          "name": "setMetadata",
          "outputs": [],
          "stateMutability": "nonpayable",
          "type": "function"
        },
        {
          "inputs": [
            {
              "internalType": "address",
              "name": "operator",
              "type": "address"
            },
            {
              "internalType": "bool",
              "name": "approved",
              "type": "bool"
            }
          ],
          "name": "setOperator",
          "outputs": [],
          "stateMutability": "nonpayable",
          "type": "function"
        },
        {
          "inputs": [
            {
              "internalType": "bytes32",
              "name": "role",
              "type": "bytes32"
            },
            {
              "internalType": "address",
              "name": "account",
              "type": "address"
            },
            {
              "internalType": "bool",
              "name": "privilege",
              "type": "bool"
            }
          ],
          "name": "setRole",
          "outputs": [],
          "stateMutability": "nonpayable",
          "type": "function"
        },
        {
          "inputs": [
            {
              "internalType": "address",
              "name": "asset",
              "type": "address"
            },
            {
              "internalType": "uint256",
              "name": "tokenId",
              "type": "uint256"
            }
          ],
          "name": "tokenURI",
          "outputs": [
            {
              "internalType": "string",
              "name": "",
              "type": "string"
            }
          ],
          "stateMutability": "view",
          "type": "function"
        },
        {
          "inputs": [
            {
              "internalType": "address",
              "name": "newOwner",
              "type": "address"
            }
          ],
          "name": "transferOwnership",
          "outputs": [],
          "stateMutability": "nonpayable",
          "type": "function"
        }
      ],
      "evm": {
        "bytecode": {
          "linkReferences": {},
          "object": "60806040523462000030576200001e62000018620000d3565b62000171565b6040516145c2620002f282396145c290f35b600080fd5b634e487b7160e01b600052604160045260246000fd5b90601f01601f191681019081106001600160401b038211176200006d57604052565b62000035565b906200008a6200008260405190565b92836200004b565b565b6001600160a01b031690565b90565b6001600160a01b038116036200003057565b905051906200008a826200009b565b9060208282031262000030576200009891620000ad565b62000098620048b480380380620000ea8162000073565b928339810190620000bc565b62000098906200008c906001600160a01b031682565b6200009890620000f6565b62000098906200010c565b906200012e9062000117565b600052602052604060002090565b906200012e565b9060ff905b9181191691161790565b9062000165620000986200016d92151590565b825462000143565b9055565b6200008a906200018181620001f0565b620001bc62000194600192600362000122565b7f9f2df0fed2c77648de5860a4cc508cd0818c85b8b8a1ab4ceeef8d981c8956a6906200013c565b62000152565b6200008c62000098620000989290565b6200009890620001c2565b6001600160a01b03909116815260200190565b620001fc6000620001d2565b6001600160a01b0381166001600160a01b038316146200022257506200008a906200028f565b62000248906200023160405190565b631e4fbdf760e01b815291829160048301620001dd565b0390fd5b62000098906200008c565b6200009890546200024c565b906001600160a01b039062000148565b9062000287620000986200016d9262000117565b825462000263565b6200029b600062000257565b90620002a981600062000273565b620002e0620002d97f8be0079c531659141344cd1fd0a4f28419497f9722a3daafe3b4186f6b6457e09362000117565b9162000117565b91620002eb60405190565b600090a356fe608060405260043610156200001357600080fd5b60003560e01c806305ec452a14620001c257806307df005614620001bc57806313e7c9d814620001b6578063337d401014620001b05780633a45b68614620001aa5780634d80f96514620001a457806353719b6e146200019e578063558a7297146200019857806355f804b314620001925780636a951316146200018c578063715018a614620001865780637afb591814620001805780638da5cb5b146200017a578063913874b71462000174578063967c7239146200016e578063c583fcec1462000168578063c6c3bbe61462000162578063d41d4174146200015c578063d53913931462000156578063d905088c1462000150578063da904111146200014a578063dbddb26a1462000144578063e9dc6375146200013e5763f2fde38b03620001ea5762000bf6565b62000bd4565b62000ba6565b620009d3565b6200098c565b620008ec565b620008cb565b62000898565b6200083c565b620007f4565b620007a6565b62000785565b62000764565b6200072f565b62000705565b620006b1565b62000669565b62000647565b620005b2565b6200041d565b620003a2565b6200036a565b6200032f565b6200029c565b6001600160a01b031690565b90565b6001600160a01b0381165b03620001ea57565b600080fd5b90503590620001fe82620001d7565b565b90602082820312620001ea57620001d491620001ef565b620001c8620001d4620001d4926001600160a01b031690565b620001d49062000217565b620001d49062000230565b9062000252906200023b565b600052602052604060002090565b620001d4916008021c5b60ff1690565b90620001d4915462000260565b620001d4906200029260029160009262000246565b62000270565b9052565b34620001ea57620002d0620002bd620002b736600462000200565b6200027d565b6040515b91829182901515815260200190565b0390f35b80620001e2565b90503590620001fe82620002d4565b608081830312620001ea57620003018282620001ef565b92620001d4620003158460208501620001ef565b93620003258160408601620001ef565b93606001620002db565b34620001ea576200035062000346366004620002ea565b9291909162001743565b604051005b620001d4906200029260049160009262000246565b34620001ea57620002d0620002bd6200038536600462000200565b62000355565b90602082820312620001ea57620001d491620002db565b34620001ea57620002d0620003c3620003bd3660046200038b565b62001186565b604051918291826001600160a01b03909116815260200190565b801515620001e2565b90503590620001fe82620003dd565b9190604083820312620001ea57620001d490620004138185620001ef565b93602001620003e6565b34620001ea576200035062000434366004620003f5565b90620017a3565b634e487b7160e01b600052604160045260246000fd5b90601f01601f1916810190811067ffffffffffffffff8211176200047457604052565b6200043b565b90620001fe6200048960405190565b928362000451565b67ffffffffffffffff81116200047457602090601f01601f19160190565b0190565b90826000939282370152565b90929192620004d8620004d28262000491565b6200047a565b93818552602085019082840111620001ea57620001fe92620004b3565b9080601f83011215620001ea57816020620001d493359101620004bf565b90608082820312620001ea576200052b8183620002db565b92602083013567ffffffffffffffff8111620001ea57826200054f918501620004f5565b92604081013567ffffffffffffffff8111620001ea578362000573918301620004f5565b92606082013567ffffffffffffffff8111620001ea57620001d49201620004f5565b62000298906200023b565b602081019291620001fe919062000595565b34620001ea57620002d0620005d7620005cd36600462000513565b92919091620010f9565b60405191829182620005a0565b9190604083820312620001ea57620001d490620006028185620001ef565b93602001620002db565b620001d4620001d4620001d49290565b9062000252906200060c565b62000292620001d4926200064160069360009462000246565b6200061c565b34620001ea57620002d0620002bd62000662366004620005e4565b9062000628565b34620001ea576200035062000680366004620003f5565b9062001350565b90602082820312620001ea57813567ffffffffffffffff8111620001ea57620001d49201620004f5565b34620001ea5762000350620006c836600462000687565b620019d9565b9091606082840312620001ea57620001d4620006eb8484620002db565b93620006fb8160208601620001ef565b93604001620003e6565b34620001ea57620003506200071c366004620006ce565b91620012e6565b6000910312620001ea57565b34620001ea576200074236600462000723565b6200035062000c7b565b90608082820312620001ea576200052b8183620001ef565b34620001ea57620003506200077b3660046200074c565b9291909162001af3565b34620001ea576200079836600462000723565b620002d0620003c362000c2a565b34620001ea5762000350620007bd366004620002ea565b92919091620014f8565b9091606082840312620001ea57620001d4620007e48484620001ef565b93620006fb8160208601620002db565b34620001ea57620003506200080b366004620007c7565b9162001805565b919262000641620001d4946200083662000292946200083660079760009862000246565b62000246565b34620001ea57620002d0620002bd62000857366004620002ea565b9291909162000812565b9091606082840312620001ea57620001d46200087e8484620001ef565b936200088e8160208601620001ef565b93604001620002db565b34620001ea5762000350620008af36600462000861565b916200165d565b620001d4906200029260059160009262000246565b34620001ea57620002d0620002bd620008e636600462000200565b620008b6565b34620001ea57620008ff36600462000723565b620002d07f9f2df0fed2c77648de5860a4cc508cd0818c85b8b8a1ab4ceeef8d981c8956a66040515b9182918290815260200190565b919060a083820312620001ea576200094e8184620001ef565b926200095e8260208301620001ef565b92620001d4620009728460408501620001ef565b93620009828160608601620002db565b93608001620003e6565b34620001ea5762000350620009a336600462000935565b93929092620013e3565b9062000252565b62000292620001d492620009cd60039360009462000246565b620009ad565b34620001ea57620002d0620002bd620009ee366004620005e4565b90620009b4565b634e487b7160e01b600052600060045260246000fd5b634e487b7160e01b600052602260045260246000fd5b906001600283049216801562000a44575b602083101462000a3e57565b62000a0b565b91607f169162000a32565b8054600093929162000a6f62000a658362000a21565b8085529360200190565b916001811690811562000ac6575060011462000a8a57505050565b62000a9e9192939450600052602060002090565b916000925b81841062000ab15750500190565b80548484015260209093019260010162000aa3565b92949550505060ff1916825215156020020190565b90620001d49162000a4f565b90620001fe62000b059262000afb60405190565b9384809262000adb565b038362000451565b9060001062000b2157620001d49062000ae7565b620009f5565b620001d46000600162000b0d565b60005b83811062000b495750506000910152565b818101518382015260200162000b38565b62000b7f62000b89602093620004af9362000b73815190565b80835293849260200190565b9586910162000b35565b601f01601f191690565b6020808252620001d49291019062000b5a565b34620001ea5762000bb936600462000723565b620002d062000bc762000b27565b6040519182918262000b93565b34620001ea57620002d062000bc762000bef366004620005e4565b9062001c4f565b34620001ea576200035062000c0d36600462000200565b62000d8a565b620001d490620001c8565b620001d4905462000c13565b620001d4600062000c1e565b62000c4062000c85565b620001fe62000c65565b620001c8620001d4620001d49290565b620001d49062000c4a565b620001fe62000c75600062000c5a565b62000dca565b620001fe62000c36565b62000c8f62000c2a565b339062000ca4825b916001600160a01b031690565b0362000cad5750565b62000cf99062000cbc60405190565b9182917f118cdaa7000000000000000000000000000000000000000000000000000000008352600483016001600160a01b03909116815260200190565b0390fd5b620001fe9062000d0c62000c85565b62000d18600062000c5a565b6001600160a01b0381166001600160a01b0383161462000d3e5750620001fe9062000dca565b62000cf99062000d4d60405190565b9182917f1e4fbdf7000000000000000000000000000000000000000000000000000000008352600483016001600160a01b03909116815260200190565b620001fe9062000cfd565b906001600160a01b03905b9181191691161790565b9062000dbe620001d462000dc6926200023b565b825462000d95565b9055565b62000dd6600062000c1e565b9062000de481600062000daa565b62000e1b62000e147f8be0079c531659141344cd1fd0a4f28419497f9722a3daafe3b4186f6b6457e0936200023b565b916200023b565b9162000e2660405190565b600090a3565b90620001d49493929162000e3f62000c85565b62000ee7565b620004af62000e609260209262000e5a815190565b94859290565b9384910162000b35565b620001d49162000e45565b6040513d6000823e3d90fd5b9060ff9062000da0565b9062000e9e620001d462000dc692151590565b825462000e81565b9162000ed89062000ec9620001d495936060860190868203600088015262000b5a565b90848203602086015262000b5a565b91604081840391015262000b5a565b50909392919062000f43906121fb62000f03602082016200047a565b9080825262002392602083013962000f3d62000f1e60405190565b809262000f3060208301918262000e6a565b9081038252038262000451565b62001109565b9062000f4f826200023b565b9462000f5b866200023b565b63c1fd4137813b15620001ea5762000f7d62000f7660405190565b9160e01b90565b81526000818062000f92866004830162000b93565b038183865af18015620010bf57620010df575b506346d75c8c813b15620001ea5762000fc162000f7660405190565b81526000818062000fd6876004830162000b93565b038183865af18015620010bf57620010c5575b5063c73e835c90803b15620001ea5762001013916000916200100a60405190565b93849260e01b90565b8252818381620010278b6004830162000b93565b03925af18015620010bf576200109c575b506200105260016200104c85600262000246565b62000e8b565b62001097620010827fc48f4fa7c0018c6d5d2f3460a981dcc083422622ebd2b27ff15cd404fd4474b6946200023b565b946200108d60405190565b9384938462000ea6565b0390a2565b620010b8906000620010af818362000451565b81019062000723565b3862001038565b62000e75565b620010d8906000620010af818362000451565b3862000fe9565b620010f2906000620010af818362000451565b3862000fa5565b620001d493929190600062000e2c565b6020815191016000f590813b15620001ea57565b620011336200112d620001d49290565b60f81b90565b7fff000000000000000000000000000000000000000000000000000000000000001690565b62000298906001600160a01b031660601b90565b01809262001158565b01918252565b620001d4906200060c565b6200126762001261620001d4926200119c600090565b506200124d6121fb620011b2602082016200047a565b90808252620023926020830139620011cd62000f1e60405190565b620011d960ff6200111d565b62000f30620011e8306200023b565b92620011fd620011f6825190565b9160200190565b2060405195869460208601948592620011756014620004af94620011756001886200116c60209b9a8c997fff00000000000000000000000000000000000000000000000000000000000000169052565b6200125a620011f6825190565b206200117b565b62000c4a565b62000230565b90620001fe92916200127e62000c85565b9162001296816200104c85620009cd86600362000246565b620012c27fed9ca00e2beefe500c0b0c86a682b50f9c084388050155225f2f1c73031d12b6926200023b565b9262001097620012d160405190565b92839283908152901515602082015260400190565b90620001fe92916200126d565b90620001fe916200130362000c85565b62001315826200104c83600462000246565b62001097620013457f67a9140af3a1924dd071fca7a7245c954e029768ad9a3a500e3db4886105f0ed926200023b565b92620002c160405190565b90620001fe91620012f3565b90620001fe949392916200136f62000c85565b9091929362001394816200104c8762000641886200083689620008368a600762000246565b620013cf620013c8620013c87f4254a7031f333608022dc7f5fa51cd35b8fc4f6e57dc6f41e008ab0f334a7cf2946200023b565b946200023b565b94620013de620012d160405190565b0390a4565b90620001fe949392916200135c565b620001d4906200026a565b620001d49054620013f2565b156200141157565b60405162461bcd60e51b815260206004820152603b60248201527f4b6574746c654173736574466163746f72793a2073656e646572206973206e6f60448201527f74206f776e6572206f72207265676973746572656420617373657400000000006064820152608490fd5b90620001fe9392916200149b6200149582600262000246565b620013fd565b8015620014b4575b620014ae9062001409565b620014d5565b50620014ae33620014cc62000c97620001c862000c2a565b149050620014a3565b600062001394816200104c8762000641886200083689620008368a600762000246565b90620001fe9392916200147c565b156200150e57565b60405162461bcd60e51b815260206004820152602d60248201527f4b6574746c654173736574466163746f72793a2073656e64657220646f65732060448201527f6e6f74206861766520726f6c65000000000000000000000000000000000000006064820152608490fd5b620001fe929190620015c0620015ba620014957f9f2df0fed2c77648de5860a4cc508cd0818c85b8b8a1ab4ceeef8d981c8956a6620009cd33600362000246565b62001506565b620015e4565b6001600160a01b039091168152604081019291620001fe9160200152565b620015f3620015f9916200023b565b6200023b565b906340c10f1991803b15620001ea576200162b60008094620016376200161e60405190565b9788968795869460e01b90565b845260048401620015c6565b03925af18015620010bf576200164a5750565b620001fe906000620010af818362000451565b90620001fe929162001579565b156200167257565b60405162461bcd60e51b815260206004820152602860248201527f4b6574746c654173736574466163746f72793a206173736574206e6f7420726560448201527f67697374657265640000000000000000000000000000000000000000000000006064820152608490fd5b90620001fe93929162001700620016fa6200149583600262000246565b6200166a565b620013de62001738620013c8620013c87f58185104334934e85baef523df3cf65c6e9d50f111d29564c920a152887c102f946200023b565b946200092860405190565b90620001fe939291620016dd565b90620001fe916200176162000c85565b62001773826200104c83600562000246565b62001097620013457f20e971e0ada27855ad53b123623391fc76cc2802802b422fad5011bc88405cf9926200023b565b90620001fe9162001751565b90620001fe9291620017c062000c85565b9091620017d9816200104c856200064186600662000246565b620012c27f09fa95f83aea87324fd2b999ba8d791b7700e7d6e7a043a06dc82b0af2c86dfb926200023b565b90620001fe9291620017af565b620001fe906200182162000c85565b620019cc565b9160001960089290920291821b911b62000da0565b919062001851620001d462000dc6936200060c565b90835462001827565b620001fe916000916200183c565b81811062001874575050565b806200188460006001936200185a565b0162001868565b9190601f81116200189b57505050565b620018af620001fe93600052602060002090565b906020601f840181900483019310620018d3575b6020601f90910104019062001868565b9091508190620018c3565b90620018e8815190565b9067ffffffffffffffff8211620004745762001911826200190a855462000a21565b856200188b565b602090601f8311600114620019505762000dc692916000918362001944575b5050600019600883021c1916906002021790565b01519050388062001930565b601f198316916200196685600052602060002090565b9260005b818110620019a7575091600293918560019694106200198d575b50505002019055565b01516000196008601f8516021c1916905538808062001984565b919360206001819287870151815501950192016200196a565b90620001fe91620018de565b620001fe906001620019c0565b620001fe9062001812565b90620001fe939291620019f662000c85565b620015f362001a0991949392946200023b565b9263c1fd4137843b15620001ea5762001a3760009162001a4362001a2c60405190565b948593849360e01b90565b83526004830162000b93565b038183885af18015620010bf5762001ad9575b506346d75c8c833b15620001ea5762001a3760009162001a7962001a2c60405190565b038183875af18015620010bf5762001abf575b5063c73e835c90823b15620001ea57620016379262001a376000809462001ab260405190565b9687958694859360e01b90565b62001ad2906000620010af818362000451565b3862001a8c565b62001aec906000620010af818362000451565b3862001a56565b90620001fe939291620019e4565b620001d4620001d4620001d4926001600160a01b031690565b62001b2d600191620001d4949362000e45565b7f2f000000000000000000000000000000000000000000000000000000000000008152019062000e45565b62001b7c9291620001fe9162001b6d60405190565b94859260208401928362001b1a565b9081038252038362000451565b620001d4905462000a21565b8054600093929162001baf62001bab8362000a21565b9390565b916001811690811562001c05575060011462001bca57505050565b62001bde9192939450600052602060002090565b6000905b83821062001bf05750500190565b60018160209254848601520191019062001be2565b60ff191683525050811515909102019150565b62001b2d600191620001d4949362001b95565b62001b7c9291620001fe9162001c4060405190565b94859260208401928362001c18565b9062001c8862001c8162001c7b62001c7562001c8f9562001c6e606090565b5062000230565b62001b01565b62001ddb565b9162001d30565b9062001b58565b600162001c9c8162001b89565b62001cb062001cac60006200060c565b9190565b1462001cc25790620001d49162001c2b565b5090565b9062001cd6620004d28362000491565b918252565b369037565b90620001fe62001cfb62001cf48462001cc6565b9362000491565b601f19016020840162001cdb565b634e487b7160e01b600052601260045260246000fd5b811562001d2a570490565b62001d09565b62001d3b8162002079565b9062001d4e600192620004af846200060c565b918062001d5b8462001ce0565b936020018401905b62001d6f575b50505090565b62001db49060001901927f3031323334353637383961626364656600000000000000000000000000000000600a82061a845362001dad600a6200060c565b9062001d1f565b908162001dc662001cac60006200060c565b1462001dd55790918162001d63565b62001d69565b620001d49062001dfb62001def8262002262565b620004af60016200060c565b9062001ec4565b634e487b7160e01b600052601160045260246000fd5b8181029291811591840414171562001e2c57565b62001e02565b9190820180921162001e2c57565b634e487b7160e01b600052603260045260246000fd5b9062001e60825190565b81101562001e6f570160200190565b62001e40565b801562001e2c576000190190565b6200026a620001d4620001d49290565b620001d49062001eab62001cac620001d49460ff1690565b901c90565b908152604081019291620001fe9160200152565b908160029262001eff62001ef962001ee78562001ee1886200060c565b62001e18565b62001ef2876200060c565b9062001e32565b62001ce0565b93600090603062001f1b62001f14846200060c565b8862001e56565b537f780000000000000000000000000000000000000000000000000000000000000062001f7a62001f6f8762001ee16001958695881a62001f688d62001f61896200060c565b9062001e56565b536200060c565b62001ef2836200060c565b915b62001fdc575b505062001cac62001f93916200060c565b0362001f9e57505090565b62000cf962001fac60405190565b9283927fe22e27eb0000000000000000000000000000000000000000000000000000000084526004840162001eb0565b909262001fe9826200060c565b84111562002072577f30313233343536373839616263646566000000000000000000000000000000006200201e600f6200060c565b821690601082101562001e6f5783926200204262002064926200206b941a60f81b90565b861a62002050888c62001e56565b536200205d600462001e83565b9062001e93565b9462001e75565b9162001f7c565b9262001f82565b6200208560006200060c565b907a184f03e93ff9f4daa797ed6e38ed64bf6a1f010000000000000000620020ad816200060c565b82101562002239575b506d04ee2d6d415b85acef8100000000620020d1816200060c565b82101562002210575b50662386f26fc10000620020ee816200060c565b821015620021e7575b506305f5e10062002108816200060c565b821015620021be575b5061271062002120816200060c565b82101562002195575b50606462002137816200060c565b8210156200216c575b506200215162001cac600a6200060c565b10156200215b5790565b620001d490620004af60016200060c565b6200218d9162001dad62002180926200060c565b91620004af60026200060c565b903862002140565b620021b69162001dad620021a9926200060c565b91620004af60046200060c565b903862002129565b620021df9162001dad620021d2926200060c565b91620004af60086200060c565b903862002111565b620022089162001dad620021fb926200060c565b91620004af60106200060c565b9038620020f7565b620022319162001dad62002224926200060c565b91620004af60206200060c565b9038620020da565b6200225a9162001dad6200224d926200060c565b91620004af60406200060c565b9038620020b6565b60006200231c62001cac620023156200227b846200060c565b94620022936200228c608062001e83565b8262001e93565b86811162002376575b50620022ad6200228c604062001e83565b620022b8866200060c565b81116200235b575b50620022d16200228c602062001e83565b620022dc866200060c565b811162002340575b50620022f56200228c601062001e83565b62002300866200060c565b811162002325575b506200205d600862001e83565b926200060c565b116200215b5790565b62002338915095620004af60026200060c565b943862002308565b62002353915095620004af60046200060c565b9438620022e4565b6200236e915095620004af60086200060c565b9438620022c0565b62002389915095620004af60106200060c565b94386200229c56fe6080604052346200002657620000146200017a565b604051611d0c620004ef8239611d0c90f35b600080fd5b634e487b7160e01b600052604160045260246000fd5b90601f01601f191681019081106001600160401b038211176200006357604052565b6200002b565b90620000806200007860405190565b928362000041565b565b6001600160401b0381116200006357602090601f01601f19160190565b90620000b5620000af8362000082565b62000069565b918252565b620000c660066200009f565b654b6574746c6560d01b602082015290565b620000e2620000ba565b90565b620000f160066200009f565b654b4554544c4560d01b602082015290565b620000e2620000e5565b620000e29062000123906001600160a01b031682565b6001600160a01b031690565b620000e2906200010d565b620000e2906200012f565b906001600160a01b03905b9181191691161790565b906200016e620000e262000176926200013a565b825462000145565b9055565b62000080620001a933620001a362000191620000d8565b6200019b62000103565b9083620001ed565b6200013a565b60076200015a565b62000123620000e2620000e29290565b620000e290620001b1565b620001d79062000123565b9052565b602081019291620000809190620001cc565b91620001f99162000257565b620002056000620001c1565b620002108162000123565b6200021b8362000123565b146200022d575062000080906200048c565b62000253906200023c60405190565b631e4fbdf760e01b815291829160048301620001db565b0390fd5b9062000080916200045b565b634e487b7160e01b600052602260045260246000fd5b90600160028304921680156200029c575b60208310146200029657565b62000263565b91607f16916200028a565b9160001960089290920291821b911b62000150565b620000e2620000e2620000e29290565b9190620002e1620000e26200017693620002bc565b908354620002a7565b6200008091600091620002cc565b81811062000304575050565b80620003146000600193620002ea565b01620002f8565b9190601f81116200032b57505050565b6200033f6200008093600052602060002090565b906020601f84018190048301931062000363575b6020601f909101040190620002f8565b909150819062000353565b9062000378815190565b906001600160401b0382116200006357620003a08262000399855462000279565b856200031b565b602090601f8311600114620003df5762000176929160009183620003d3575b5050600019600883021c1916906002021790565b015190503880620003bf565b601f19831691620003f585600052602060002090565b9260005b81811062000436575091600293918560019694106200041c575b50505002019055565b01516000196008601f8516021c1916905538808062000413565b91936020600181928787015181550195019201620003f9565b9062000080916200036e565b906200046d620000809260006200044f565b60016200044f565b620000e29062000123565b620000e2905462000475565b62000498600662000480565b90620004a68160066200015a565b620004dd620004d67f8be0079c531659141344cd1fd0a4f28419497f9722a3daafe3b4186f6b6457e0936200013a565b916200013a565b91620004e860405190565b600090a356fe6080604052600436101561001257600080fd5b60003560e01c806301ffc9a7146101a257806306fdde031461019d578063081812fc14610198578063095ea7b3146101935780630ad9d0521461018e57806321a78f681461018957806323b872dd146101845780632d9fff011461017f57806340c10f191461017a57806342842e0e1461017557806342966c681461017057806346d75c8c1461016b5780636352211e1461016657806370a0823114610161578063715018a61461015c5780638da5cb5b1461015757806395d89b4114610152578063a22cb4651461014d578063b88d4fde14610148578063c1fd413714610143578063c45a01551461013e578063c73e835c14610139578063c87b56dd14610134578063e985e9c51461012f5763f2fde38b036101ba57610a03565b6109e7565b610966565b61094e565b610927565b6108b5565b610899565b6107fc565b6107a9565b610782565b61076a565b61073f565b610710565b6106f8565b610633565b61061a565b610601565b6105e6565b6105c1565b610576565b61054f565b610525565b6104c5565b6103f5565b6101e9565b6001600160e01b031981165b036101ba57565b600080fd5b905035906101cc826101a7565b565b906020828203126101ba576101e2916101bf565b90565b9052565b346101ba576102176102046101ff3660046101ce565b6119f6565b6040515b91829182901515815260200190565b0390f35b60009103126101ba57565b634e487b7160e01b600052600060045260246000fd5b634e487b7160e01b600052602260045260246000fd5b9060016002830492168015610272575b602083101461026d57565b61023c565b91607f1691610262565b8054600093929161029961028f83610252565b8085529360200190565b91600181169081156102eb57506001146102b257505050565b6102c59192939450600052602060002090565b916000925b8184106102d75750500190565b8054848401526020909301926001016102ca565b92949550505060ff1916825215156020020190565b906101e29161027c565b634e487b7160e01b600052604160045260246000fd5b90601f01601f1916810190811067ffffffffffffffff82111761034257604052565b61030a565b906101cc6103619261035860405190565b93848092610300565b0383610320565b90600010610379576101e290610347565b610226565b6101e2600080610368565b60005b83811061039c5750506000910152565b818101518382015260200161038c565b6103cd6103d66020936103e0936103c1815190565b80835293849260200190565b95869101610389565b601f01601f191690565b0190565b60208082526101e2929101906103ac565b346101ba5761040536600461021b565b61021761041061037e565b604051918291826103e4565b806101b3565b905035906101cc8261041c565b906020828203126101ba576101e291610422565b6101e26101e26101e29290565b9061045a90610443565b600052602052604060002090565b6101e2916008021c5b73ffffffffffffffffffffffffffffffffffffffff1690565b906101e29154610468565b6101e2906104a7600491600092610450565b61048a565b6101e590610471565b6020810192916101cc91906104ac565b346101ba576102176104e06104db36600461042f565b610495565b604051918291826104b5565b6101b381610471565b905035906101cc826104ec565b91906040838203126101ba576101e29061051c81856104f5565b93602001610422565b346101ba5761053e610538366004610502565b90611640565b604051005b6101e260006009610368565b346101ba5761055f36600461021b565b610217610410610543565b6101e26000600a610368565b346101ba5761058636600461021b565b61021761041061056a565b90916060828403126101ba576101e26105aa84846104f5565b936105b881602086016104f5565b93604001610422565b346101ba5761053e6105d4366004610591565b9161120e565b6101e260006008610368565b346101ba576105f636600461021b565b6102176104106105da565b346101ba5761053e610614366004610502565b90610df3565b346101ba5761053e61062d366004610591565b916117f1565b346101ba5761053e61064636600461042f565b610e6e565b906101cc61065860405190565b9283610320565b67ffffffffffffffff811161034257602090601f01601f19160190565b90826000939282370152565b9092919261069d6106988261065f565b61064b565b938185526020850190828401116101ba576101cc9261067c565b9080601f830112156101ba578160206101e293359101610688565b906020828203126101ba57813567ffffffffffffffff81116101ba576101e292016106b7565b346101ba5761053e61070b3660046106d2565b610db3565b346101ba576102176104e061072636600461042f565b610e95565b906020828203126101ba576101e2916104f5565b346101ba5761021761075a61075536600461072b565b610ec2565b6040519182918290815260200190565b346101ba5761077a36600461021b565b61053e610a70565b346101ba5761079236600461021b565b6102176104e0610a2e565b6101e260006001610368565b346101ba576107b936600461021b565b61021761041061079d565b8015156101b3565b905035906101cc826107c4565b91906040838203126101ba576101e2906107f381856104f5565b936020016107cc565b346101ba5761053e61080f3660046107d9565b906116f3565b909182601f830112156101ba5781359167ffffffffffffffff83116101ba5760200192600183028401116101ba57565b906080828203126101ba5761085a81836104f5565b9261086882602085016104f5565b926108768360408301610422565b92606082013567ffffffffffffffff81116101ba576108959201610815565b9091565b346101ba5761053e6108ac366004610845565b9392909261190d565b346101ba5761053e6108c83660046106d2565b610d93565b6101e26000600761048a565b6104716101e26101e29273ffffffffffffffffffffffffffffffffffffffff1690565b6101e2906108d9565b6101e2906108fc565b6101e590610905565b6020810192916101cc919061090e565b346101ba5761093736600461021b565b6102176109426108cd565b60405191829182610917565b346101ba5761053e6109613660046106d2565b610dd3565b346101ba5761021761041061097c36600461042f565b610f73565b91906040838203126101ba576101e29061099b81856104f5565b936020016104f5565b9061045a90610905565b6101e2916008021c5b60ff1690565b906101e291546109ae565b6109e26101e2926109dd6005936000946109a4565b6109a4565b6109bd565b346101ba576102176102046109fd366004610981565b906109c8565b346101ba5761053e610a1636600461072b565b610b4f565b6101e290610471565b6101e29054610a1b565b6101e26006610a24565b610a40610a78565b6101cc610a5e565b6104716101e26101e29290565b6101e290610a48565b6101cc610a6b6000610a55565b610b95565b6101cc610a38565b610a80610a2e565b3390610a94610a8e83610471565b91610471565b03610a9c5750565b610ad890610aa960405190565b9182917f118cdaa7000000000000000000000000000000000000000000000000000000008352600483016104b5565b0390fd5b6101cc90610ae8610a78565b610af26000610a55565b610afb81610471565b610b0483610471565b14610b1357506101cc90610b95565b610ad890610b2060405190565b9182917f1e4fbdf7000000000000000000000000000000000000000000000000000000008352600483016104b5565b6101cc90610adc565b9073ffffffffffffffffffffffffffffffffffffffff905b9181191691161790565b90610b8a6101e2610b9192610905565b8254610b58565b9055565b610b9f6006610a24565b90610bab816006610b7a565b610bde610bd87f8be0079c531659141344cd1fd0a4f28419497f9722a3daafe3b4186f6b6457e093610905565b91610905565b91610be860405190565b80805b0390a3565b6101cc90610bfc610a78565b610d88565b9160001960089290920291821b911b610b70565b921b90565b9190610c2b6101e2610b9193610443565b908354610c01565b6101cc91600091610c1a565b818110610c4a575050565b80610c586000600193610c33565b01610c3f565b9190601f8111610c6d57505050565b610c7f6101cc93600052602060002090565b906020601f840181900483019310610ca1575b6020601f909101040190610c3f565b9091508190610c92565b90610cb4815190565b9067ffffffffffffffff821161034257610cd882610cd28554610252565b85610c5e565b602090601f8311600114610d1357610b91929160009183610d08575b5050600019600883021c1916906002021790565b015190503880610cf4565b601f19831691610d2885600052602060002090565b9260005b818110610d6657509160029391856001969410610d4d575b50505002019055565b01516000196008601f8516021c19169055388080610d44565b91936020600181928787015181550195019201610d2c565b906101cc91610cab565b6101cc906008610d7e565b6101cc90610bf0565b6101cc90610da8610a78565b6101cc906009610d7e565b6101cc90610d9c565b6101cc90610dc8610a78565b6101cc90600a610d7e565b6101cc90610dbc565b906101cc91610de9610a78565b906101cc91611b82565b906101cc91610ddc565b15610e0457565b60405162461bcd60e51b8152602060048201526024808201527f4b6574746c6541737365743a2063616c6c6572206973206e6f7420746865206f60448201527f776e6572000000000000000000000000000000000000000000000000000000006064820152608490fd5b6101cc90610e9033610e8a610a8e610e8585610e95565b610471565b14610dfd565b611af0565b610eac6101e291610ea4600090565b506002610450565b610a24565b6101e29081565b6101e29054610eb1565b610ed96101e291610ed1600090565b5060036109a4565b610eb8565b90929192610eee6106988261065f565b938185526020850190828401116101ba576101cc92610389565b9080601f830112156101ba5781516101e292602001610ede565b906020828203126101ba57815167ffffffffffffffff81116101ba576101e29201610f08565b9160206101cc929493610f63604082019660008301906104ac565b0152565b6040513d6000823e3d90fd5b6000610f87610f826007610a24565b610905565b63e9dc637590610fb3610f9930610905565b92610fbe610fa660405190565b9687958694859460e01b90565b845260048401610f48565b03915afa908115610fef57600091610fd4575090565b6101e2913d8091833e610fe78183610320565b810190610f22565b610f67565b15610ffb57565b60405162461bcd60e51b815260206004820152600a60248201527f57524f4e475f46524f4d000000000000000000000000000000000000000000006044820152606490fd5b1561104757565b60405162461bcd60e51b815260206004820152601160248201527f494e56414c49445f524543495049454e540000000000000000000000000000006044820152606490fd5b905051906101cc826107c4565b906020828203126101ba576101e29161108c565b156110b457565b60405162461bcd60e51b815260206004820152600f60248201527f434f4e54524143545f4c4f434b454400000000000000000000000000000000006044820152606490fd5b1561110057565b60405162461bcd60e51b815260206004820152600c60248201527f544f4b454e5f4c4f434b454400000000000000000000000000000000000000006044820152606490fd5b610f636101cc94611171606094989795611167608086019a60008701906104ac565b60208501906104ac565b60408301906104ac565b1561118257565b60405162461bcd60e51b815260206004820152602360248201527f4e4f545f415554484f52495a45445f4f50455241544f525f4f525f5452414e5360448201527f46455200000000000000000000000000000000000000000000000000000000006064820152608490fd5b9060001990610b70565b906112076101e2610b9192610443565b82546111ed565b91906002611234611225610e85610eac8685610450565b61122e86610471565b14610ff4565b600090611256611246610e8584610a55565b61124f85610471565b1415611040565b611263610f826007610a24565b9061128a602063d41d417461127730610905565b9461128160405190565b93849260e01b90565b8252818061129b88600483016104b5565b03915afa908115610fef576112bf916112ba916000916115c557501590565b6110ad565b6112e060206112d1610f826007610a24565b6353719b6e9061128160405190565b825281806112f28b8960048401610f48565b03915afa908115610fef5761131691611311916000916115c557501590565b6110f9565b6113546020611328610f826007610a24565b6313e7c9d890611349339261133c60405190565b9586948593849360e01b90565b8352600483016104b5565b03915afa908115610fef57859187916000916115a7575b508015611517575b906113cf936113846113ca9361117b565b6113c56113b38560036109dd61139a8f836109a4565b6113ad6113a682610eb8565b6000190190565b906111f7565b6113ad6113bf82610eb8565b60010190565b610450565b610b7a565b6113dc610f826007610a24565b63913874b790803b156101ba5786849161140c8388956114188b6113ff60405190565b9889978896879560e01b90565b85528b60048601611145565b03925af18015610fef576114fb575b50611435610f826007610a24565b906307df005690823b156101ba5786926114668580946114718a8a61145960405190565b998a988997889660e01b90565b865260048601611145565b03925af18015610fef576114ce575b50506114be6114b86114b27fddf252ad1be2c89b69c2b068fc378daa952ba7f163c4a11628f55a4df523b3ef95610905565b92610905565b92610443565b926114c860405190565b600090a4565b816114ed92903d106114f4575b6114e58183610320565b81019061021b565b3880611480565b503d6114db565b61151190833d85116114f4576114e58183610320565b38611427565b50509060208761152a610f826007610a24565b61140c63c583fcec61154c8b61153f60405190565b9889968795869560e01b90565b03915afa918215610fef578686926113846113cf956113ca94600091611579575b50929350509350611373565b61159a915060203d81116115a0575b6115928183610320565b810190611099565b3861156d565b503d611588565b6115bf915060203d81116115a0576115928183610320565b3861136b565b6115dd915060203d81116115a0576115928183610320565b1590565b6101e2906109b7565b6101e290546115e1565b156115fb57565b60405162461bcd60e51b815260206004820152600e60248201527f4e4f545f415554484f52495a45440000000000000000000000000000000000006044820152606490fd5b9061164f610eac826002610450565b916116753361165d85610471565b61166682610471565b149081156116b4575b506115f4565b611684816113ca846004610450565b6114be6114b86114b27f8c5be1e5ebec7d5bd14f71427d1e84f3dd0314c0f7b2291e5b200ac8c7c3b92595610905565b6116cd91506116c8906109dd8760056109a4565b6115ea565b3861166f565b9060ff90610b70565b906116ec6101e2610b9192151590565b82546116d3565b3361170c83611707846109dd8560056109a4565b6116dc565b610beb61174261173c7f17307eab39ab6107e8899845ad3d59bd9653f200f220920489ca2b5937696c3193610905565b93610905565b9361020860405190565b905051906101cc826101a7565b906020828203126101ba576101e29161174c565b90916101e29361178c61179392611167608086019660008701906104ac565b6040830152565b60608183039101526000815260200190565b156117ac57565b60405162461bcd60e51b815260206004820152601060248201527f554e534146455f524543495049454e54000000000000000000000000000000006044820152606490fd5b916117fd81838561120e565b6000823b61181161180d83610443565b9190565b14928315611827575b5050506101cc91506117a5565b6020935061183a610f8261184e92610905565b9163150b7a0261185933956113ff60405190565b85526004850161176d565b03925af18015610fef576101cc91600091611893575b5061188a630a85bd0160e11b5b916001600160e01b03191690565b1438808061181a565b6118b4915060203d81116118ba575b6118ac8183610320565b810190611759565b3861186f565b503d6118a2565b91906103d6816118d8816103e09560209181520190565b809561067c565b9093916101e2959361178c61190092611167608086019860008701906104ac565b60608185039101526118c1565b93909261191b83858761120e565b600090843b61192c61180d84610443565b14948515611944575b50505050506101cc91506117a5565b602095509061198661195c610f8261197b9594610905565b9463150b7a0292339761196e60405190565b9a8b998a98899760e01b90565b8752600487016118df565b03925af18015610fef576101cc916000916119b8575b506119ad630a85bd0160e11b61187c565b143880808080611935565b6119d0915060203d81116118ba576118ac8183610320565b3861199c565b6119e96119e36101e29290565b60e01b90565b6001600160e01b03191690565b611a036301ffc9a76119d6565b6001600160e01b0319821614908115611a37575b8115611a21575090565b9050611a3361187c635b5e139f6119d6565b1490565b9050611a466380ac58cd6119d6565b6001600160e01b031982161490611a17565b15611a5f57565b60405162461bcd60e51b815260206004820152600a60248201527f4e4f545f4d494e544544000000000000000000000000000000000000000000006044820152606490fd5b91906008610b70910291610c1573ffffffffffffffffffffffffffffffffffffffff841b90565b9190611adc6101e2610b9193610905565b908354611aa4565b6101cc91600091611acb565b600290611b00610eac8284610450565b91611b526000611b4781611b4286611b1783610a55565b96611b34611b2489610471565b611b2d8c610471565b1415611a58565b6113c561139a8b60036109a4565b611ae4565b611b42846004610450565b6114be6114b86114b27fddf252ad1be2c89b69c2b068fc378daa952ba7f163c4a11628f55a4df523b3ef95610905565b611b8c8282611c7b565b6000813b611b9c61180d83610443565b14918215611bb1575b50506101cc91506117a5565b60209250610f82611bc191610905565b61184e63150b7a02923393611be2611bd883610a55565b976113ff60405190565b03925af18015610fef576101cc91600091611c11575b50611c09630a85bd0160e11b61187c565b143880611ba5565b611c29915060203d81116118ba576118ac8183610320565b38611bf8565b15611c3657565b60405162461bcd60e51b815260206004820152600e60248201527f414c52454144595f4d494e5445440000000000000000000000000000000000006044820152606490fd5b90611c866000610a55565b91611c9c611c9384610471565b61124f83610471565b611b52816113ca846002611cc8611cb6610eac8484610450565b611cc2610a8e8b610471565b14611c2f565b6113c56113b38560036109a456fea2646970667358221220285ce20672abafc408a96b386d34c89a3738a4a7a1f5a15606903f231e61a8de64736f6c63430008140033a26469706673582212201952040b5bb6868ff2198579617b4a6548c09da6d7d9bfcb54df602ce2fcb7c364736f6c63430008140033",
          "opcodes": "PUSH1 0x80 PUSH1 0x40 MSTORE CALLVALUE PUSH3 0x30 JUMPI PUSH3 0x1E PUSH3 0x18 PUSH3 0xD3 JUMP JUMPDEST PUSH3 0x171 JUMP JUMPDEST PUSH1 0x40 MLOAD PUSH2 0x45C2 PUSH3 0x2F2 DUP3 CODECOPY PUSH2 0x45C2 SWAP1 RETURN JUMPDEST PUSH1 0x0 DUP1 REVERT JUMPDEST PUSH4 0x4E487B71 PUSH1 0xE0 SHL PUSH1 0x0 MSTORE PUSH1 0x41 PUSH1 0x4 MSTORE PUSH1 0x24 PUSH1 0x0 REVERT JUMPDEST SWAP1 PUSH1 0x1F ADD PUSH1 0x1F NOT AND DUP2 ADD SWAP1 DUP2 LT PUSH1 0x1 PUSH1 0x1 PUSH1 0x40 SHL SUB DUP3 GT OR PUSH3 0x6D JUMPI PUSH1 0x40 MSTORE JUMP JUMPDEST PUSH3 0x35 JUMP JUMPDEST SWAP1 PUSH3 0x8A PUSH3 0x82 PUSH1 0x40 MLOAD SWAP1 JUMP JUMPDEST SWAP3 DUP4 PUSH3 0x4B JUMP JUMPDEST JUMP JUMPDEST PUSH1 0x1 PUSH1 0x1 PUSH1 0xA0 SHL SUB AND SWAP1 JUMP JUMPDEST SWAP1 JUMP JUMPDEST PUSH1 0x1 PUSH1 0x1 PUSH1 0xA0 SHL SUB DUP2 AND SUB PUSH3 0x30 JUMPI JUMP JUMPDEST SWAP1 POP MLOAD SWAP1 PUSH3 0x8A DUP3 PUSH3 0x9B JUMP JUMPDEST SWAP1 PUSH1 0x20 DUP3 DUP3 SUB SLT PUSH3 0x30 JUMPI PUSH3 0x98 SWAP2 PUSH3 0xAD JUMP JUMPDEST PUSH3 0x98 PUSH3 0x48B4 DUP1 CODESIZE SUB DUP1 PUSH3 0xEA DUP2 PUSH3 0x73 JUMP JUMPDEST SWAP3 DUP4 CODECOPY DUP2 ADD SWAP1 PUSH3 0xBC JUMP JUMPDEST PUSH3 0x98 SWAP1 PUSH3 0x8C SWAP1 PUSH1 0x1 PUSH1 0x1 PUSH1 0xA0 SHL SUB AND DUP3 JUMP JUMPDEST PUSH3 0x98 SWAP1 PUSH3 0xF6 JUMP JUMPDEST PUSH3 0x98 SWAP1 PUSH3 0x10C JUMP JUMPDEST SWAP1 PUSH3 0x12E SWAP1 PUSH3 0x117 JUMP JUMPDEST PUSH1 0x0 MSTORE PUSH1 0x20 MSTORE PUSH1 0x40 PUSH1 0x0 KECCAK256 SWAP1 JUMP JUMPDEST SWAP1 PUSH3 0x12E JUMP JUMPDEST SWAP1 PUSH1 0xFF SWAP1 JUMPDEST SWAP2 DUP2 NOT AND SWAP2 AND OR SWAP1 JUMP JUMPDEST SWAP1 PUSH3 0x165 PUSH3 0x98 PUSH3 0x16D SWAP3 ISZERO ISZERO SWAP1 JUMP JUMPDEST DUP3 SLOAD PUSH3 0x143 JUMP JUMPDEST SWAP1 SSTORE JUMP JUMPDEST PUSH3 0x8A SWAP1 PUSH3 0x181 DUP2 PUSH3 0x1F0 JUMP JUMPDEST PUSH3 0x1BC PUSH3 0x194 PUSH1 0x1 SWAP3 PUSH1 0x3 PUSH3 0x122 JUMP JUMPDEST PUSH32 0x9F2DF0FED2C77648DE5860A4CC508CD0818C85B8B8A1AB4CEEEF8D981C8956A6 SWAP1 PUSH3 0x13C JUMP JUMPDEST PUSH3 0x152 JUMP JUMPDEST PUSH3 0x8C PUSH3 0x98 PUSH3 0x98 SWAP3 SWAP1 JUMP JUMPDEST PUSH3 0x98 SWAP1 PUSH3 0x1C2 JUMP JUMPDEST PUSH1 0x1 PUSH1 0x1 PUSH1 0xA0 SHL SUB SWAP1 SWAP2 AND DUP2 MSTORE PUSH1 0x20 ADD SWAP1 JUMP JUMPDEST PUSH3 0x1FC PUSH1 0x0 PUSH3 0x1D2 JUMP JUMPDEST PUSH1 0x1 PUSH1 0x1 PUSH1 0xA0 SHL SUB DUP2 AND PUSH1 0x1 PUSH1 0x1 PUSH1 0xA0 SHL SUB DUP4 AND EQ PUSH3 0x222 JUMPI POP PUSH3 0x8A SWAP1 PUSH3 0x28F JUMP JUMPDEST PUSH3 0x248 SWAP1 PUSH3 0x231 PUSH1 0x40 MLOAD SWAP1 JUMP JUMPDEST PUSH4 0x1E4FBDF7 PUSH1 0xE0 SHL DUP2 MSTORE SWAP2 DUP3 SWAP2 PUSH1 0x4 DUP4 ADD PUSH3 0x1DD JUMP JUMPDEST SUB SWAP1 REVERT JUMPDEST PUSH3 0x98 SWAP1 PUSH3 0x8C JUMP JUMPDEST PUSH3 0x98 SWAP1 SLOAD PUSH3 0x24C JUMP JUMPDEST SWAP1 PUSH1 0x1 PUSH1 0x1 PUSH1 0xA0 SHL SUB SWAP1 PUSH3 0x148 JUMP JUMPDEST SWAP1 PUSH3 0x287 PUSH3 0x98 PUSH3 0x16D SWAP3 PUSH3 0x117 JUMP JUMPDEST DUP3 SLOAD PUSH3 0x263 JUMP JUMPDEST PUSH3 0x29B PUSH1 0x0 PUSH3 0x257 JUMP JUMPDEST SWAP1 PUSH3 0x2A9 DUP2 PUSH1 0x0 PUSH3 0x273 JUMP JUMPDEST PUSH3 0x2E0 PUSH3 0x2D9 PUSH32 0x8BE0079C531659141344CD1FD0A4F28419497F9722A3DAAFE3B4186F6B6457E0 SWAP4 PUSH3 0x117 JUMP JUMPDEST SWAP2 PUSH3 0x117 JUMP JUMPDEST SWAP2 PUSH3 0x2EB PUSH1 0x40 MLOAD SWAP1 JUMP JUMPDEST PUSH1 0x0 SWAP1 LOG3 JUMP INVALID PUSH1 0x80 PUSH1 0x40 MSTORE PUSH1 0x4 CALLDATASIZE LT ISZERO PUSH3 0x13 JUMPI PUSH1 0x0 DUP1 REVERT JUMPDEST PUSH1 0x0 CALLDATALOAD PUSH1 0xE0 SHR DUP1 PUSH4 0x5EC452A EQ PUSH3 0x1C2 JUMPI DUP1 PUSH4 0x7DF0056 EQ PUSH3 0x1BC JUMPI DUP1 PUSH4 0x13E7C9D8 EQ PUSH3 0x1B6 JUMPI DUP1 PUSH4 0x337D4010 EQ PUSH3 0x1B0 JUMPI DUP1 PUSH4 0x3A45B686 EQ PUSH3 0x1AA JUMPI DUP1 PUSH4 0x4D80F965 EQ PUSH3 0x1A4 JUMPI DUP1 PUSH4 0x53719B6E EQ PUSH3 0x19E JUMPI DUP1 PUSH4 0x558A7297 EQ PUSH3 0x198 JUMPI DUP1 PUSH4 0x55F804B3 EQ PUSH3 0x192 JUMPI DUP1 PUSH4 0x6A951316 EQ PUSH3 0x18C JUMPI DUP1 PUSH4 0x715018A6 EQ PUSH3 0x186 JUMPI DUP1 PUSH4 0x7AFB5918 EQ PUSH3 0x180 JUMPI DUP1 PUSH4 0x8DA5CB5B EQ PUSH3 0x17A JUMPI DUP1 PUSH4 0x913874B7 EQ PUSH3 0x174 JUMPI DUP1 PUSH4 0x967C7239 EQ PUSH3 0x16E JUMPI DUP1 PUSH4 0xC583FCEC EQ PUSH3 0x168 JUMPI DUP1 PUSH4 0xC6C3BBE6 EQ PUSH3 0x162 JUMPI DUP1 PUSH4 0xD41D4174 EQ PUSH3 0x15C JUMPI DUP1 PUSH4 0xD5391393 EQ PUSH3 0x156 JUMPI DUP1 PUSH4 0xD905088C EQ PUSH3 0x150 JUMPI DUP1 PUSH4 0xDA904111 EQ PUSH3 0x14A JUMPI DUP1 PUSH4 0xDBDDB26A EQ PUSH3 0x144 JUMPI DUP1 PUSH4 0xE9DC6375 EQ PUSH3 0x13E JUMPI PUSH4 0xF2FDE38B SUB PUSH3 0x1EA JUMPI PUSH3 0xBF6 JUMP JUMPDEST PUSH3 0xBD4 JUMP JUMPDEST PUSH3 0xBA6 JUMP JUMPDEST PUSH3 0x9D3 JUMP JUMPDEST PUSH3 0x98C JUMP JUMPDEST PUSH3 0x8EC JUMP JUMPDEST PUSH3 0x8CB JUMP JUMPDEST PUSH3 0x898 JUMP JUMPDEST PUSH3 0x83C JUMP JUMPDEST PUSH3 0x7F4 JUMP JUMPDEST PUSH3 0x7A6 JUMP JUMPDEST PUSH3 0x785 JUMP JUMPDEST PUSH3 0x764 JUMP JUMPDEST PUSH3 0x72F JUMP JUMPDEST PUSH3 0x705 JUMP JUMPDEST PUSH3 0x6B1 JUMP JUMPDEST PUSH3 0x669 JUMP JUMPDEST PUSH3 0x647 JUMP JUMPDEST PUSH3 0x5B2 JUMP JUMPDEST PUSH3 0x41D JUMP JUMPDEST PUSH3 0x3A2 JUMP JUMPDEST PUSH3 0x36A JUMP JUMPDEST PUSH3 0x32F JUMP JUMPDEST PUSH3 0x29C JUMP JUMPDEST PUSH1 0x1 PUSH1 0x1 PUSH1 0xA0 SHL SUB AND SWAP1 JUMP JUMPDEST SWAP1 JUMP JUMPDEST PUSH1 0x1 PUSH1 0x1 PUSH1 0xA0 SHL SUB DUP2 AND JUMPDEST SUB PUSH3 0x1EA JUMPI JUMP JUMPDEST PUSH1 0x0 DUP1 REVERT JUMPDEST SWAP1 POP CALLDATALOAD SWAP1 PUSH3 0x1FE DUP3 PUSH3 0x1D7 JUMP JUMPDEST JUMP JUMPDEST SWAP1 PUSH1 0x20 DUP3 DUP3 SUB SLT PUSH3 0x1EA JUMPI PUSH3 0x1D4 SWAP2 PUSH3 0x1EF JUMP JUMPDEST PUSH3 0x1C8 PUSH3 0x1D4 PUSH3 0x1D4 SWAP3 PUSH1 0x1 PUSH1 0x1 PUSH1 0xA0 SHL SUB AND SWAP1 JUMP JUMPDEST PUSH3 0x1D4 SWAP1 PUSH3 0x217 JUMP JUMPDEST PUSH3 0x1D4 SWAP1 PUSH3 0x230 JUMP JUMPDEST SWAP1 PUSH3 0x252 SWAP1 PUSH3 0x23B JUMP JUMPDEST PUSH1 0x0 MSTORE PUSH1 0x20 MSTORE PUSH1 0x40 PUSH1 0x0 KECCAK256 SWAP1 JUMP JUMPDEST PUSH3 0x1D4 SWAP2 PUSH1 0x8 MUL SHR JUMPDEST PUSH1 0xFF AND SWAP1 JUMP JUMPDEST SWAP1 PUSH3 0x1D4 SWAP2 SLOAD PUSH3 0x260 JUMP JUMPDEST PUSH3 0x1D4 SWAP1 PUSH3 0x292 PUSH1 0x2 SWAP2 PUSH1 0x0 SWAP3 PUSH3 0x246 JUMP JUMPDEST PUSH3 0x270 JUMP JUMPDEST SWAP1 MSTORE JUMP JUMPDEST CALLVALUE PUSH3 0x1EA JUMPI PUSH3 0x2D0 PUSH3 0x2BD PUSH3 0x2B7 CALLDATASIZE PUSH1 0x4 PUSH3 0x200 JUMP JUMPDEST PUSH3 0x27D JUMP JUMPDEST PUSH1 0x40 MLOAD JUMPDEST SWAP2 DUP3 SWAP2 DUP3 SWAP1 ISZERO ISZERO DUP2 MSTORE PUSH1 0x20 ADD SWAP1 JUMP JUMPDEST SUB SWAP1 RETURN JUMPDEST DUP1 PUSH3 0x1E2 JUMP JUMPDEST SWAP1 POP CALLDATALOAD SWAP1 PUSH3 0x1FE DUP3 PUSH3 0x2D4 JUMP JUMPDEST PUSH1 0x80 DUP2 DUP4 SUB SLT PUSH3 0x1EA JUMPI PUSH3 0x301 DUP3 DUP3 PUSH3 0x1EF JUMP JUMPDEST SWAP3 PUSH3 0x1D4 PUSH3 0x315 DUP5 PUSH1 0x20 DUP6 ADD PUSH3 0x1EF JUMP JUMPDEST SWAP4 PUSH3 0x325 DUP2 PUSH1 0x40 DUP7 ADD PUSH3 0x1EF JUMP JUMPDEST SWAP4 PUSH1 0x60 ADD PUSH3 0x2DB JUMP JUMPDEST CALLVALUE PUSH3 0x1EA JUMPI PUSH3 0x350 PUSH3 0x346 CALLDATASIZE PUSH1 0x4 PUSH3 0x2EA JUMP JUMPDEST SWAP3 SWAP2 SWAP1 SWAP2 PUSH3 0x1743 JUMP JUMPDEST PUSH1 0x40 MLOAD STOP JUMPDEST PUSH3 0x1D4 SWAP1 PUSH3 0x292 PUSH1 0x4 SWAP2 PUSH1 0x0 SWAP3 PUSH3 0x246 JUMP JUMPDEST CALLVALUE PUSH3 0x1EA JUMPI PUSH3 0x2D0 PUSH3 0x2BD PUSH3 0x385 CALLDATASIZE PUSH1 0x4 PUSH3 0x200 JUMP JUMPDEST PUSH3 0x355 JUMP JUMPDEST SWAP1 PUSH1 0x20 DUP3 DUP3 SUB SLT PUSH3 0x1EA JUMPI PUSH3 0x1D4 SWAP2 PUSH3 0x2DB JUMP JUMPDEST CALLVALUE PUSH3 0x1EA JUMPI PUSH3 0x2D0 PUSH3 0x3C3 PUSH3 0x3BD CALLDATASIZE PUSH1 0x4 PUSH3 0x38B JUMP JUMPDEST PUSH3 0x1186 JUMP JUMPDEST PUSH1 0x40 MLOAD SWAP2 DUP3 SWAP2 DUP3 PUSH1 0x1 PUSH1 0x1 PUSH1 0xA0 SHL SUB SWAP1 SWAP2 AND DUP2 MSTORE PUSH1 0x20 ADD SWAP1 JUMP JUMPDEST DUP1 ISZERO ISZERO PUSH3 0x1E2 JUMP JUMPDEST SWAP1 POP CALLDATALOAD SWAP1 PUSH3 0x1FE DUP3 PUSH3 0x3DD JUMP JUMPDEST SWAP2 SWAP1 PUSH1 0x40 DUP4 DUP3 SUB SLT PUSH3 0x1EA JUMPI PUSH3 0x1D4 SWAP1 PUSH3 0x413 DUP2 DUP6 PUSH3 0x1EF JUMP JUMPDEST SWAP4 PUSH1 0x20 ADD PUSH3 0x3E6 JUMP JUMPDEST CALLVALUE PUSH3 0x1EA JUMPI PUSH3 0x350 PUSH3 0x434 CALLDATASIZE PUSH1 0x4 PUSH3 0x3F5 JUMP JUMPDEST SWAP1 PUSH3 0x17A3 JUMP JUMPDEST PUSH4 0x4E487B71 PUSH1 0xE0 SHL PUSH1 0x0 MSTORE PUSH1 0x41 PUSH1 0x4 MSTORE PUSH1 0x24 PUSH1 0x0 REVERT JUMPDEST SWAP1 PUSH1 0x1F ADD PUSH1 0x1F NOT AND DUP2 ADD SWAP1 DUP2 LT PUSH8 0xFFFFFFFFFFFFFFFF DUP3 GT OR PUSH3 0x474 JUMPI PUSH1 0x40 MSTORE JUMP JUMPDEST PUSH3 0x43B JUMP JUMPDEST SWAP1 PUSH3 0x1FE PUSH3 0x489 PUSH1 0x40 MLOAD SWAP1 JUMP JUMPDEST SWAP3 DUP4 PUSH3 0x451 JUMP JUMPDEST PUSH8 0xFFFFFFFFFFFFFFFF DUP2 GT PUSH3 0x474 JUMPI PUSH1 0x20 SWAP1 PUSH1 0x1F ADD PUSH1 0x1F NOT AND ADD SWAP1 JUMP JUMPDEST ADD SWAP1 JUMP JUMPDEST SWAP1 DUP3 PUSH1 0x0 SWAP4 SWAP3 DUP3 CALLDATACOPY ADD MSTORE JUMP JUMPDEST SWAP1 SWAP3 SWAP2 SWAP3 PUSH3 0x4D8 PUSH3 0x4D2 DUP3 PUSH3 0x491 JUMP JUMPDEST PUSH3 0x47A JUMP JUMPDEST SWAP4 DUP2 DUP6 MSTORE PUSH1 0x20 DUP6 ADD SWAP1 DUP3 DUP5 ADD GT PUSH3 0x1EA JUMPI PUSH3 0x1FE SWAP3 PUSH3 0x4B3 JUMP JUMPDEST SWAP1 DUP1 PUSH1 0x1F DUP4 ADD SLT ISZERO PUSH3 0x1EA JUMPI DUP2 PUSH1 0x20 PUSH3 0x1D4 SWAP4 CALLDATALOAD SWAP2 ADD PUSH3 0x4BF JUMP JUMPDEST SWAP1 PUSH1 0x80 DUP3 DUP3 SUB SLT PUSH3 0x1EA JUMPI PUSH3 0x52B DUP2 DUP4 PUSH3 0x2DB JUMP JUMPDEST SWAP3 PUSH1 0x20 DUP4 ADD CALLDATALOAD PUSH8 0xFFFFFFFFFFFFFFFF DUP2 GT PUSH3 0x1EA JUMPI DUP3 PUSH3 0x54F SWAP2 DUP6 ADD PUSH3 0x4F5 JUMP JUMPDEST SWAP3 PUSH1 0x40 DUP2 ADD CALLDATALOAD PUSH8 0xFFFFFFFFFFFFFFFF DUP2 GT PUSH3 0x1EA JUMPI DUP4 PUSH3 0x573 SWAP2 DUP4 ADD PUSH3 0x4F5 JUMP JUMPDEST SWAP3 PUSH1 0x60 DUP3 ADD CALLDATALOAD PUSH8 0xFFFFFFFFFFFFFFFF DUP2 GT PUSH3 0x1EA JUMPI PUSH3 0x1D4 SWAP3 ADD PUSH3 0x4F5 JUMP JUMPDEST PUSH3 0x298 SWAP1 PUSH3 0x23B JUMP JUMPDEST PUSH1 0x20 DUP2 ADD SWAP3 SWAP2 PUSH3 0x1FE SWAP2 SWAP1 PUSH3 0x595 JUMP JUMPDEST CALLVALUE PUSH3 0x1EA JUMPI PUSH3 0x2D0 PUSH3 0x5D7 PUSH3 0x5CD CALLDATASIZE PUSH1 0x4 PUSH3 0x513 JUMP JUMPDEST SWAP3 SWAP2 SWAP1 SWAP2 PUSH3 0x10F9 JUMP JUMPDEST PUSH1 0x40 MLOAD SWAP2 DUP3 SWAP2 DUP3 PUSH3 0x5A0 JUMP JUMPDEST SWAP2 SWAP1 PUSH1 0x40 DUP4 DUP3 SUB SLT PUSH3 0x1EA JUMPI PUSH3 0x1D4 SWAP1 PUSH3 0x602 DUP2 DUP6 PUSH3 0x1EF JUMP JUMPDEST SWAP4 PUSH1 0x20 ADD PUSH3 0x2DB JUMP JUMPDEST PUSH3 0x1D4 PUSH3 0x1D4 PUSH3 0x1D4 SWAP3 SWAP1 JUMP JUMPDEST SWAP1 PUSH3 0x252 SWAP1 PUSH3 0x60C JUMP JUMPDEST PUSH3 0x292 PUSH3 0x1D4 SWAP3 PUSH3 0x641 PUSH1 0x6 SWAP4 PUSH1 0x0 SWAP5 PUSH3 0x246 JUMP JUMPDEST PUSH3 0x61C JUMP JUMPDEST CALLVALUE PUSH3 0x1EA JUMPI PUSH3 0x2D0 PUSH3 0x2BD PUSH3 0x662 CALLDATASIZE PUSH1 0x4 PUSH3 0x5E4 JUMP JUMPDEST SWAP1 PUSH3 0x628 JUMP JUMPDEST CALLVALUE PUSH3 0x1EA JUMPI PUSH3 0x350 PUSH3 0x680 CALLDATASIZE PUSH1 0x4 PUSH3 0x3F5 JUMP JUMPDEST SWAP1 PUSH3 0x1350 JUMP JUMPDEST SWAP1 PUSH1 0x20 DUP3 DUP3 SUB SLT PUSH3 0x1EA JUMPI DUP2 CALLDATALOAD PUSH8 0xFFFFFFFFFFFFFFFF DUP2 GT PUSH3 0x1EA JUMPI PUSH3 0x1D4 SWAP3 ADD PUSH3 0x4F5 JUMP JUMPDEST CALLVALUE PUSH3 0x1EA JUMPI PUSH3 0x350 PUSH3 0x6C8 CALLDATASIZE PUSH1 0x4 PUSH3 0x687 JUMP JUMPDEST PUSH3 0x19D9 JUMP JUMPDEST SWAP1 SWAP2 PUSH1 0x60 DUP3 DUP5 SUB SLT PUSH3 0x1EA JUMPI PUSH3 0x1D4 PUSH3 0x6EB DUP5 DUP5 PUSH3 0x2DB JUMP JUMPDEST SWAP4 PUSH3 0x6FB DUP2 PUSH1 0x20 DUP7 ADD PUSH3 0x1EF JUMP JUMPDEST SWAP4 PUSH1 0x40 ADD PUSH3 0x3E6 JUMP JUMPDEST CALLVALUE PUSH3 0x1EA JUMPI PUSH3 0x350 PUSH3 0x71C CALLDATASIZE PUSH1 0x4 PUSH3 0x6CE JUMP JUMPDEST SWAP2 PUSH3 0x12E6 JUMP JUMPDEST PUSH1 0x0 SWAP2 SUB SLT PUSH3 0x1EA JUMPI JUMP JUMPDEST CALLVALUE PUSH3 0x1EA JUMPI PUSH3 0x742 CALLDATASIZE PUSH1 0x4 PUSH3 0x723 JUMP JUMPDEST PUSH3 0x350 PUSH3 0xC7B JUMP JUMPDEST SWAP1 PUSH1 0x80 DUP3 DUP3 SUB SLT PUSH3 0x1EA JUMPI PUSH3 0x52B DUP2 DUP4 PUSH3 0x1EF JUMP JUMPDEST CALLVALUE PUSH3 0x1EA JUMPI PUSH3 0x350 PUSH3 0x77B CALLDATASIZE PUSH1 0x4 PUSH3 0x74C JUMP JUMPDEST SWAP3 SWAP2 SWAP1 SWAP2 PUSH3 0x1AF3 JUMP JUMPDEST CALLVALUE PUSH3 0x1EA JUMPI PUSH3 0x798 CALLDATASIZE PUSH1 0x4 PUSH3 0x723 JUMP JUMPDEST PUSH3 0x2D0 PUSH3 0x3C3 PUSH3 0xC2A JUMP JUMPDEST CALLVALUE PUSH3 0x1EA JUMPI PUSH3 0x350 PUSH3 0x7BD CALLDATASIZE PUSH1 0x4 PUSH3 0x2EA JUMP JUMPDEST SWAP3 SWAP2 SWAP1 SWAP2 PUSH3 0x14F8 JUMP JUMPDEST SWAP1 SWAP2 PUSH1 0x60 DUP3 DUP5 SUB SLT PUSH3 0x1EA JUMPI PUSH3 0x1D4 PUSH3 0x7E4 DUP5 DUP5 PUSH3 0x1EF JUMP JUMPDEST SWAP4 PUSH3 0x6FB DUP2 PUSH1 0x20 DUP7 ADD PUSH3 0x2DB JUMP JUMPDEST CALLVALUE PUSH3 0x1EA JUMPI PUSH3 0x350 PUSH3 0x80B CALLDATASIZE PUSH1 0x4 PUSH3 0x7C7 JUMP JUMPDEST SWAP2 PUSH3 0x1805 JUMP JUMPDEST SWAP2 SWAP3 PUSH3 0x641 PUSH3 0x1D4 SWAP5 PUSH3 0x836 PUSH3 0x292 SWAP5 PUSH3 0x836 PUSH1 0x7 SWAP8 PUSH1 0x0 SWAP9 PUSH3 0x246 JUMP JUMPDEST PUSH3 0x246 JUMP JUMPDEST CALLVALUE PUSH3 0x1EA JUMPI PUSH3 0x2D0 PUSH3 0x2BD PUSH3 0x857 CALLDATASIZE PUSH1 0x4 PUSH3 0x2EA JUMP JUMPDEST SWAP3 SWAP2 SWAP1 SWAP2 PUSH3 0x812 JUMP JUMPDEST SWAP1 SWAP2 PUSH1 0x60 DUP3 DUP5 SUB SLT PUSH3 0x1EA JUMPI PUSH3 0x1D4 PUSH3 0x87E DUP5 DUP5 PUSH3 0x1EF JUMP JUMPDEST SWAP4 PUSH3 0x88E DUP2 PUSH1 0x20 DUP7 ADD PUSH3 0x1EF JUMP JUMPDEST SWAP4 PUSH1 0x40 ADD PUSH3 0x2DB JUMP JUMPDEST CALLVALUE PUSH3 0x1EA JUMPI PUSH3 0x350 PUSH3 0x8AF CALLDATASIZE PUSH1 0x4 PUSH3 0x861 JUMP JUMPDEST SWAP2 PUSH3 0x165D JUMP JUMPDEST PUSH3 0x1D4 SWAP1 PUSH3 0x292 PUSH1 0x5 SWAP2 PUSH1 0x0 SWAP3 PUSH3 0x246 JUMP JUMPDEST CALLVALUE PUSH3 0x1EA JUMPI PUSH3 0x2D0 PUSH3 0x2BD PUSH3 0x8E6 CALLDATASIZE PUSH1 0x4 PUSH3 0x200 JUMP JUMPDEST PUSH3 0x8B6 JUMP JUMPDEST CALLVALUE PUSH3 0x1EA JUMPI PUSH3 0x8FF CALLDATASIZE PUSH1 0x4 PUSH3 0x723 JUMP JUMPDEST PUSH3 0x2D0 PUSH32 0x9F2DF0FED2C77648DE5860A4CC508CD0818C85B8B8A1AB4CEEEF8D981C8956A6 PUSH1 0x40 MLOAD JUMPDEST SWAP2 DUP3 SWAP2 DUP3 SWAP1 DUP2 MSTORE PUSH1 0x20 ADD SWAP1 JUMP JUMPDEST SWAP2 SWAP1 PUSH1 0xA0 DUP4 DUP3 SUB SLT PUSH3 0x1EA JUMPI PUSH3 0x94E DUP2 DUP5 PUSH3 0x1EF JUMP JUMPDEST SWAP3 PUSH3 0x95E DUP3 PUSH1 0x20 DUP4 ADD PUSH3 0x1EF JUMP JUMPDEST SWAP3 PUSH3 0x1D4 PUSH3 0x972 DUP5 PUSH1 0x40 DUP6 ADD PUSH3 0x1EF JUMP JUMPDEST SWAP4 PUSH3 0x982 DUP2 PUSH1 0x60 DUP7 ADD PUSH3 0x2DB JUMP JUMPDEST SWAP4 PUSH1 0x80 ADD PUSH3 0x3E6 JUMP JUMPDEST CALLVALUE PUSH3 0x1EA JUMPI PUSH3 0x350 PUSH3 0x9A3 CALLDATASIZE PUSH1 0x4 PUSH3 0x935 JUMP JUMPDEST SWAP4 SWAP3 SWAP1 SWAP3 PUSH3 0x13E3 JUMP JUMPDEST SWAP1 PUSH3 0x252 JUMP JUMPDEST PUSH3 0x292 PUSH3 0x1D4 SWAP3 PUSH3 0x9CD PUSH1 0x3 SWAP4 PUSH1 0x0 SWAP5 PUSH3 0x246 JUMP JUMPDEST PUSH3 0x9AD JUMP JUMPDEST CALLVALUE PUSH3 0x1EA JUMPI PUSH3 0x2D0 PUSH3 0x2BD PUSH3 0x9EE CALLDATASIZE PUSH1 0x4 PUSH3 0x5E4 JUMP JUMPDEST SWAP1 PUSH3 0x9B4 JUMP JUMPDEST PUSH4 0x4E487B71 PUSH1 0xE0 SHL PUSH1 0x0 MSTORE PUSH1 0x0 PUSH1 0x4 MSTORE PUSH1 0x24 PUSH1 0x0 REVERT JUMPDEST PUSH4 0x4E487B71 PUSH1 0xE0 SHL PUSH1 0x0 MSTORE PUSH1 0x22 PUSH1 0x4 MSTORE PUSH1 0x24 PUSH1 0x0 REVERT JUMPDEST SWAP1 PUSH1 0x1 PUSH1 0x2 DUP4 DIV SWAP3 AND DUP1 ISZERO PUSH3 0xA44 JUMPI JUMPDEST PUSH1 0x20 DUP4 LT EQ PUSH3 0xA3E JUMPI JUMP JUMPDEST PUSH3 0xA0B JUMP JUMPDEST SWAP2 PUSH1 0x7F AND SWAP2 PUSH3 0xA32 JUMP JUMPDEST DUP1 SLOAD PUSH1 0x0 SWAP4 SWAP3 SWAP2 PUSH3 0xA6F PUSH3 0xA65 DUP4 PUSH3 0xA21 JUMP JUMPDEST DUP1 DUP6 MSTORE SWAP4 PUSH1 0x20 ADD SWAP1 JUMP JUMPDEST SWAP2 PUSH1 0x1 DUP2 AND SWAP1 DUP2 ISZERO PUSH3 0xAC6 JUMPI POP PUSH1 0x1 EQ PUSH3 0xA8A JUMPI POP POP POP JUMP JUMPDEST PUSH3 0xA9E SWAP2 SWAP3 SWAP4 SWAP5 POP PUSH1 0x0 MSTORE PUSH1 0x20 PUSH1 0x0 KECCAK256 SWAP1 JUMP JUMPDEST SWAP2 PUSH1 0x0 SWAP3 JUMPDEST DUP2 DUP5 LT PUSH3 0xAB1 JUMPI POP POP ADD SWAP1 JUMP JUMPDEST DUP1 SLOAD DUP5 DUP5 ADD MSTORE PUSH1 0x20 SWAP1 SWAP4 ADD SWAP3 PUSH1 0x1 ADD PUSH3 0xAA3 JUMP JUMPDEST SWAP3 SWAP5 SWAP6 POP POP POP PUSH1 0xFF NOT AND DUP3 MSTORE ISZERO ISZERO PUSH1 0x20 MUL ADD SWAP1 JUMP JUMPDEST SWAP1 PUSH3 0x1D4 SWAP2 PUSH3 0xA4F JUMP JUMPDEST SWAP1 PUSH3 0x1FE PUSH3 0xB05 SWAP3 PUSH3 0xAFB PUSH1 0x40 MLOAD SWAP1 JUMP JUMPDEST SWAP4 DUP5 DUP1 SWAP3 PUSH3 0xADB JUMP JUMPDEST SUB DUP4 PUSH3 0x451 JUMP JUMPDEST SWAP1 PUSH1 0x0 LT PUSH3 0xB21 JUMPI PUSH3 0x1D4 SWAP1 PUSH3 0xAE7 JUMP JUMPDEST PUSH3 0x9F5 JUMP JUMPDEST PUSH3 0x1D4 PUSH1 0x0 PUSH1 0x1 PUSH3 0xB0D JUMP JUMPDEST PUSH1 0x0 JUMPDEST DUP4 DUP2 LT PUSH3 0xB49 JUMPI POP POP PUSH1 0x0 SWAP2 ADD MSTORE JUMP JUMPDEST DUP2 DUP2 ADD MLOAD DUP4 DUP3 ADD MSTORE PUSH1 0x20 ADD PUSH3 0xB38 JUMP JUMPDEST PUSH3 0xB7F PUSH3 0xB89 PUSH1 0x20 SWAP4 PUSH3 0x4AF SWAP4 PUSH3 0xB73 DUP2 MLOAD SWAP1 JUMP JUMPDEST DUP1 DUP4 MSTORE SWAP4 DUP5 SWAP3 PUSH1 0x20 ADD SWAP1 JUMP JUMPDEST SWAP6 DUP7 SWAP2 ADD PUSH3 0xB35 JUMP JUMPDEST PUSH1 0x1F ADD PUSH1 0x1F NOT AND SWAP1 JUMP JUMPDEST PUSH1 0x20 DUP1 DUP3 MSTORE PUSH3 0x1D4 SWAP3 SWAP2 ADD SWAP1 PUSH3 0xB5A JUMP JUMPDEST CALLVALUE PUSH3 0x1EA JUMPI PUSH3 0xBB9 CALLDATASIZE PUSH1 0x4 PUSH3 0x723 JUMP JUMPDEST PUSH3 0x2D0 PUSH3 0xBC7 PUSH3 0xB27 JUMP JUMPDEST PUSH1 0x40 MLOAD SWAP2 DUP3 SWAP2 DUP3 PUSH3 0xB93 JUMP JUMPDEST CALLVALUE PUSH3 0x1EA JUMPI PUSH3 0x2D0 PUSH3 0xBC7 PUSH3 0xBEF CALLDATASIZE PUSH1 0x4 PUSH3 0x5E4 JUMP JUMPDEST SWAP1 PUSH3 0x1C4F JUMP JUMPDEST CALLVALUE PUSH3 0x1EA JUMPI PUSH3 0x350 PUSH3 0xC0D CALLDATASIZE PUSH1 0x4 PUSH3 0x200 JUMP JUMPDEST PUSH3 0xD8A JUMP JUMPDEST PUSH3 0x1D4 SWAP1 PUSH3 0x1C8 JUMP JUMPDEST PUSH3 0x1D4 SWAP1 SLOAD PUSH3 0xC13 JUMP JUMPDEST PUSH3 0x1D4 PUSH1 0x0 PUSH3 0xC1E JUMP JUMPDEST PUSH3 0xC40 PUSH3 0xC85 JUMP JUMPDEST PUSH3 0x1FE PUSH3 0xC65 JUMP JUMPDEST PUSH3 0x1C8 PUSH3 0x1D4 PUSH3 0x1D4 SWAP3 SWAP1 JUMP JUMPDEST PUSH3 0x1D4 SWAP1 PUSH3 0xC4A JUMP JUMPDEST PUSH3 0x1FE PUSH3 0xC75 PUSH1 0x0 PUSH3 0xC5A JUMP JUMPDEST PUSH3 0xDCA JUMP JUMPDEST PUSH3 0x1FE PUSH3 0xC36 JUMP JUMPDEST PUSH3 0xC8F PUSH3 0xC2A JUMP JUMPDEST CALLER SWAP1 PUSH3 0xCA4 DUP3 JUMPDEST SWAP2 PUSH1 0x1 PUSH1 0x1 PUSH1 0xA0 SHL SUB AND SWAP1 JUMP JUMPDEST SUB PUSH3 0xCAD JUMPI POP JUMP JUMPDEST PUSH3 0xCF9 SWAP1 PUSH3 0xCBC PUSH1 0x40 MLOAD SWAP1 JUMP JUMPDEST SWAP2 DUP3 SWAP2 PUSH32 0x118CDAA700000000000000000000000000000000000000000000000000000000 DUP4 MSTORE PUSH1 0x4 DUP4 ADD PUSH1 0x1 PUSH1 0x1 PUSH1 0xA0 SHL SUB SWAP1 SWAP2 AND DUP2 MSTORE PUSH1 0x20 ADD SWAP1 JUMP JUMPDEST SUB SWAP1 REVERT JUMPDEST PUSH3 0x1FE SWAP1 PUSH3 0xD0C PUSH3 0xC85 JUMP JUMPDEST PUSH3 0xD18 PUSH1 0x0 PUSH3 0xC5A JUMP JUMPDEST PUSH1 0x1 PUSH1 0x1 PUSH1 0xA0 SHL SUB DUP2 AND PUSH1 0x1 PUSH1 0x1 PUSH1 0xA0 SHL SUB DUP4 AND EQ PUSH3 0xD3E JUMPI POP PUSH3 0x1FE SWAP1 PUSH3 0xDCA JUMP JUMPDEST PUSH3 0xCF9 SWAP1 PUSH3 0xD4D PUSH1 0x40 MLOAD SWAP1 JUMP JUMPDEST SWAP2 DUP3 SWAP2 PUSH32 0x1E4FBDF700000000000000000000000000000000000000000000000000000000 DUP4 MSTORE PUSH1 0x4 DUP4 ADD PUSH1 0x1 PUSH1 0x1 PUSH1 0xA0 SHL SUB SWAP1 SWAP2 AND DUP2 MSTORE PUSH1 0x20 ADD SWAP1 JUMP JUMPDEST PUSH3 0x1FE SWAP1 PUSH3 0xCFD JUMP JUMPDEST SWAP1 PUSH1 0x1 PUSH1 0x1 PUSH1 0xA0 SHL SUB SWAP1 JUMPDEST SWAP2 DUP2 NOT AND SWAP2 AND OR SWAP1 JUMP JUMPDEST SWAP1 PUSH3 0xDBE PUSH3 0x1D4 PUSH3 0xDC6 SWAP3 PUSH3 0x23B JUMP JUMPDEST DUP3 SLOAD PUSH3 0xD95 JUMP JUMPDEST SWAP1 SSTORE JUMP JUMPDEST PUSH3 0xDD6 PUSH1 0x0 PUSH3 0xC1E JUMP JUMPDEST SWAP1 PUSH3 0xDE4 DUP2 PUSH1 0x0 PUSH3 0xDAA JUMP JUMPDEST PUSH3 0xE1B PUSH3 0xE14 PUSH32 0x8BE0079C531659141344CD1FD0A4F28419497F9722A3DAAFE3B4186F6B6457E0 SWAP4 PUSH3 0x23B JUMP JUMPDEST SWAP2 PUSH3 0x23B JUMP JUMPDEST SWAP2 PUSH3 0xE26 PUSH1 0x40 MLOAD SWAP1 JUMP JUMPDEST PUSH1 0x0 SWAP1 LOG3 JUMP JUMPDEST SWAP1 PUSH3 0x1D4 SWAP5 SWAP4 SWAP3 SWAP2 PUSH3 0xE3F PUSH3 0xC85 JUMP JUMPDEST PUSH3 0xEE7 JUMP JUMPDEST PUSH3 0x4AF PUSH3 0xE60 SWAP3 PUSH1 0x20 SWAP3 PUSH3 0xE5A DUP2 MLOAD SWAP1 JUMP JUMPDEST SWAP5 DUP6 SWAP3 SWAP1 JUMP JUMPDEST SWAP4 DUP5 SWAP2 ADD PUSH3 0xB35 JUMP JUMPDEST PUSH3 0x1D4 SWAP2 PUSH3 0xE45 JUMP JUMPDEST PUSH1 0x40 MLOAD RETURNDATASIZE PUSH1 0x0 DUP3 RETURNDATACOPY RETURNDATASIZE SWAP1 REVERT JUMPDEST SWAP1 PUSH1 0xFF SWAP1 PUSH3 0xDA0 JUMP JUMPDEST SWAP1 PUSH3 0xE9E PUSH3 0x1D4 PUSH3 0xDC6 SWAP3 ISZERO ISZERO SWAP1 JUMP JUMPDEST DUP3 SLOAD PUSH3 0xE81 JUMP JUMPDEST SWAP2 PUSH3 0xED8 SWAP1 PUSH3 0xEC9 PUSH3 0x1D4 SWAP6 SWAP4 PUSH1 0x60 DUP7 ADD SWAP1 DUP7 DUP3 SUB PUSH1 0x0 DUP9 ADD MSTORE PUSH3 0xB5A JUMP JUMPDEST SWAP1 DUP5 DUP3 SUB PUSH1 0x20 DUP7 ADD MSTORE PUSH3 0xB5A JUMP JUMPDEST SWAP2 PUSH1 0x40 DUP2 DUP5 SUB SWAP2 ADD MSTORE PUSH3 0xB5A JUMP JUMPDEST POP SWAP1 SWAP4 SWAP3 SWAP2 SWAP1 PUSH3 0xF43 SWAP1 PUSH2 0x21FB PUSH3 0xF03 PUSH1 0x20 DUP3 ADD PUSH3 0x47A JUMP JUMPDEST SWAP1 DUP1 DUP3 MSTORE PUSH3 0x2392 PUSH1 0x20 DUP4 ADD CODECOPY PUSH3 0xF3D PUSH3 0xF1E PUSH1 0x40 MLOAD SWAP1 JUMP JUMPDEST DUP1 SWAP3 PUSH3 0xF30 PUSH1 0x20 DUP4 ADD SWAP2 DUP3 PUSH3 0xE6A JUMP JUMPDEST SWAP1 DUP2 SUB DUP3 MSTORE SUB DUP3 PUSH3 0x451 JUMP JUMPDEST PUSH3 0x1109 JUMP JUMPDEST SWAP1 PUSH3 0xF4F DUP3 PUSH3 0x23B JUMP JUMPDEST SWAP5 PUSH3 0xF5B DUP7 PUSH3 0x23B JUMP JUMPDEST PUSH4 0xC1FD4137 DUP2 EXTCODESIZE ISZERO PUSH3 0x1EA JUMPI PUSH3 0xF7D PUSH3 0xF76 PUSH1 0x40 MLOAD SWAP1 JUMP JUMPDEST SWAP2 PUSH1 0xE0 SHL SWAP1 JUMP JUMPDEST DUP2 MSTORE PUSH1 0x0 DUP2 DUP1 PUSH3 0xF92 DUP7 PUSH1 0x4 DUP4 ADD PUSH3 0xB93 JUMP JUMPDEST SUB DUP2 DUP4 DUP7 GAS CALL DUP1 ISZERO PUSH3 0x10BF JUMPI PUSH3 0x10DF JUMPI JUMPDEST POP PUSH4 0x46D75C8C DUP2 EXTCODESIZE ISZERO PUSH3 0x1EA JUMPI PUSH3 0xFC1 PUSH3 0xF76 PUSH1 0x40 MLOAD SWAP1 JUMP JUMPDEST DUP2 MSTORE PUSH1 0x0 DUP2 DUP1 PUSH3 0xFD6 DUP8 PUSH1 0x4 DUP4 ADD PUSH3 0xB93 JUMP JUMPDEST SUB DUP2 DUP4 DUP7 GAS CALL DUP1 ISZERO PUSH3 0x10BF JUMPI PUSH3 0x10C5 JUMPI JUMPDEST POP PUSH4 0xC73E835C SWAP1 DUP1 EXTCODESIZE ISZERO PUSH3 0x1EA JUMPI PUSH3 0x1013 SWAP2 PUSH1 0x0 SWAP2 PUSH3 0x100A PUSH1 0x40 MLOAD SWAP1 JUMP JUMPDEST SWAP4 DUP5 SWAP3 PUSH1 0xE0 SHL SWAP1 JUMP JUMPDEST DUP3 MSTORE DUP2 DUP4 DUP2 PUSH3 0x1027 DUP12 PUSH1 0x4 DUP4 ADD PUSH3 0xB93 JUMP JUMPDEST SUB SWAP3 GAS CALL DUP1 ISZERO PUSH3 0x10BF JUMPI PUSH3 0x109C JUMPI JUMPDEST POP PUSH3 0x1052 PUSH1 0x1 PUSH3 0x104C DUP6 PUSH1 0x2 PUSH3 0x246 JUMP JUMPDEST PUSH3 0xE8B JUMP JUMPDEST PUSH3 0x1097 PUSH3 0x1082 PUSH32 0xC48F4FA7C0018C6D5D2F3460A981DCC083422622EBD2B27FF15CD404FD4474B6 SWAP5 PUSH3 0x23B JUMP JUMPDEST SWAP5 PUSH3 0x108D PUSH1 0x40 MLOAD SWAP1 JUMP JUMPDEST SWAP4 DUP5 SWAP4 DUP5 PUSH3 0xEA6 JUMP JUMPDEST SUB SWAP1 LOG2 JUMP JUMPDEST PUSH3 0x10B8 SWAP1 PUSH1 0x0 PUSH3 0x10AF DUP2 DUP4 PUSH3 0x451 JUMP JUMPDEST DUP2 ADD SWAP1 PUSH3 0x723 JUMP JUMPDEST CODESIZE PUSH3 0x1038 JUMP JUMPDEST PUSH3 0xE75 JUMP JUMPDEST PUSH3 0x10D8 SWAP1 PUSH1 0x0 PUSH3 0x10AF DUP2 DUP4 PUSH3 0x451 JUMP JUMPDEST CODESIZE PUSH3 0xFE9 JUMP JUMPDEST PUSH3 0x10F2 SWAP1 PUSH1 0x0 PUSH3 0x10AF DUP2 DUP4 PUSH3 0x451 JUMP JUMPDEST CODESIZE PUSH3 0xFA5 JUMP JUMPDEST PUSH3 0x1D4 SWAP4 SWAP3 SWAP2 SWAP1 PUSH1 0x0 PUSH3 0xE2C JUMP JUMPDEST PUSH1 0x20 DUP2 MLOAD SWAP2 ADD PUSH1 0x0 CREATE2 SWAP1 DUP2 EXTCODESIZE ISZERO PUSH3 0x1EA JUMPI JUMP JUMPDEST PUSH3 0x1133 PUSH3 0x112D PUSH3 0x1D4 SWAP3 SWAP1 JUMP JUMPDEST PUSH1 0xF8 SHL SWAP1 JUMP JUMPDEST PUSH32 0xFF00000000000000000000000000000000000000000000000000000000000000 AND SWAP1 JUMP JUMPDEST PUSH3 0x298 SWAP1 PUSH1 0x1 PUSH1 0x1 PUSH1 0xA0 SHL SUB AND PUSH1 0x60 SHL SWAP1 JUMP JUMPDEST ADD DUP1 SWAP3 PUSH3 0x1158 JUMP JUMPDEST ADD SWAP2 DUP3 MSTORE JUMP JUMPDEST PUSH3 0x1D4 SWAP1 PUSH3 0x60C JUMP JUMPDEST PUSH3 0x1267 PUSH3 0x1261 PUSH3 0x1D4 SWAP3 PUSH3 0x119C PUSH1 0x0 SWAP1 JUMP JUMPDEST POP PUSH3 0x124D PUSH2 0x21FB PUSH3 0x11B2 PUSH1 0x20 DUP3 ADD PUSH3 0x47A JUMP JUMPDEST SWAP1 DUP1 DUP3 MSTORE PUSH3 0x2392 PUSH1 0x20 DUP4 ADD CODECOPY PUSH3 0x11CD PUSH3 0xF1E PUSH1 0x40 MLOAD SWAP1 JUMP JUMPDEST PUSH3 0x11D9 PUSH1 0xFF PUSH3 0x111D JUMP JUMPDEST PUSH3 0xF30 PUSH3 0x11E8 ADDRESS PUSH3 0x23B JUMP JUMPDEST SWAP3 PUSH3 0x11FD PUSH3 0x11F6 DUP3 MLOAD SWAP1 JUMP JUMPDEST SWAP2 PUSH1 0x20 ADD SWAP1 JUMP JUMPDEST KECCAK256 PUSH1 0x40 MLOAD SWAP6 DUP7 SWAP5 PUSH1 0x20 DUP7 ADD SWAP5 DUP6 SWAP3 PUSH3 0x1175 PUSH1 0x14 PUSH3 0x4AF SWAP5 PUSH3 0x1175 PUSH1 0x1 DUP9 PUSH3 0x116C PUSH1 0x20 SWAP12 SWAP11 DUP13 SWAP10 PUSH32 0xFF00000000000000000000000000000000000000000000000000000000000000 AND SWAP1 MSTORE JUMP JUMPDEST PUSH3 0x125A PUSH3 0x11F6 DUP3 MLOAD SWAP1 JUMP JUMPDEST KECCAK256 PUSH3 0x117B JUMP JUMPDEST PUSH3 0xC4A JUMP JUMPDEST PUSH3 0x230 JUMP JUMPDEST SWAP1 PUSH3 0x1FE SWAP3 SWAP2 PUSH3 0x127E PUSH3 0xC85 JUMP JUMPDEST SWAP2 PUSH3 0x1296 DUP2 PUSH3 0x104C DUP6 PUSH3 0x9CD DUP7 PUSH1 0x3 PUSH3 0x246 JUMP JUMPDEST PUSH3 0x12C2 PUSH32 0xED9CA00E2BEEFE500C0B0C86A682B50F9C084388050155225F2F1C73031D12B6 SWAP3 PUSH3 0x23B JUMP JUMPDEST SWAP3 PUSH3 0x1097 PUSH3 0x12D1 PUSH1 0x40 MLOAD SWAP1 JUMP JUMPDEST SWAP3 DUP4 SWAP3 DUP4 SWAP1 DUP2 MSTORE SWAP1 ISZERO ISZERO PUSH1 0x20 DUP3 ADD MSTORE PUSH1 0x40 ADD SWAP1 JUMP JUMPDEST SWAP1 PUSH3 0x1FE SWAP3 SWAP2 PUSH3 0x126D JUMP JUMPDEST SWAP1 PUSH3 0x1FE SWAP2 PUSH3 0x1303 PUSH3 0xC85 JUMP JUMPDEST PUSH3 0x1315 DUP3 PUSH3 0x104C DUP4 PUSH1 0x4 PUSH3 0x246 JUMP JUMPDEST PUSH3 0x1097 PUSH3 0x1345 PUSH32 0x67A9140AF3A1924DD071FCA7A7245C954E029768AD9A3A500E3DB4886105F0ED SWAP3 PUSH3 0x23B JUMP JUMPDEST SWAP3 PUSH3 0x2C1 PUSH1 0x40 MLOAD SWAP1 JUMP JUMPDEST SWAP1 PUSH3 0x1FE SWAP2 PUSH3 0x12F3 JUMP JUMPDEST SWAP1 PUSH3 0x1FE SWAP5 SWAP4 SWAP3 SWAP2 PUSH3 0x136F PUSH3 0xC85 JUMP JUMPDEST SWAP1 SWAP2 SWAP3 SWAP4 PUSH3 0x1394 DUP2 PUSH3 0x104C DUP8 PUSH3 0x641 DUP9 PUSH3 0x836 DUP10 PUSH3 0x836 DUP11 PUSH1 0x7 PUSH3 0x246 JUMP JUMPDEST PUSH3 0x13CF PUSH3 0x13C8 PUSH3 0x13C8 PUSH32 0x4254A7031F333608022DC7F5FA51CD35B8FC4F6E57DC6F41E008AB0F334A7CF2 SWAP5 PUSH3 0x23B JUMP JUMPDEST SWAP5 PUSH3 0x23B JUMP JUMPDEST SWAP5 PUSH3 0x13DE PUSH3 0x12D1 PUSH1 0x40 MLOAD SWAP1 JUMP JUMPDEST SUB SWAP1 LOG4 JUMP JUMPDEST SWAP1 PUSH3 0x1FE SWAP5 SWAP4 SWAP3 SWAP2 PUSH3 0x135C JUMP JUMPDEST PUSH3 0x1D4 SWAP1 PUSH3 0x26A JUMP JUMPDEST PUSH3 0x1D4 SWAP1 SLOAD PUSH3 0x13F2 JUMP JUMPDEST ISZERO PUSH3 0x1411 JUMPI JUMP JUMPDEST PUSH1 0x40 MLOAD PUSH3 0x461BCD PUSH1 0xE5 SHL DUP2 MSTORE PUSH1 0x20 PUSH1 0x4 DUP3 ADD MSTORE PUSH1 0x3B PUSH1 0x24 DUP3 ADD MSTORE PUSH32 0x4B6574746C654173736574466163746F72793A2073656E646572206973206E6F PUSH1 0x44 DUP3 ADD MSTORE PUSH32 0x74206F776E6572206F7220726567697374657265642061737365740000000000 PUSH1 0x64 DUP3 ADD MSTORE PUSH1 0x84 SWAP1 REVERT JUMPDEST SWAP1 PUSH3 0x1FE SWAP4 SWAP3 SWAP2 PUSH3 0x149B PUSH3 0x1495 DUP3 PUSH1 0x2 PUSH3 0x246 JUMP JUMPDEST PUSH3 0x13FD JUMP JUMPDEST DUP1 ISZERO PUSH3 0x14B4 JUMPI JUMPDEST PUSH3 0x14AE SWAP1 PUSH3 0x1409 JUMP JUMPDEST PUSH3 0x14D5 JUMP JUMPDEST POP PUSH3 0x14AE CALLER PUSH3 0x14CC PUSH3 0xC97 PUSH3 0x1C8 PUSH3 0xC2A JUMP JUMPDEST EQ SWAP1 POP PUSH3 0x14A3 JUMP JUMPDEST PUSH1 0x0 PUSH3 0x1394 DUP2 PUSH3 0x104C DUP8 PUSH3 0x641 DUP9 PUSH3 0x836 DUP10 PUSH3 0x836 DUP11 PUSH1 0x7 PUSH3 0x246 JUMP JUMPDEST SWAP1 PUSH3 0x1FE SWAP4 SWAP3 SWAP2 PUSH3 0x147C JUMP JUMPDEST ISZERO PUSH3 0x150E JUMPI JUMP JUMPDEST PUSH1 0x40 MLOAD PUSH3 0x461BCD PUSH1 0xE5 SHL DUP2 MSTORE PUSH1 0x20 PUSH1 0x4 DUP3 ADD MSTORE PUSH1 0x2D PUSH1 0x24 DUP3 ADD MSTORE PUSH32 0x4B6574746C654173736574466163746F72793A2073656E64657220646F657320 PUSH1 0x44 DUP3 ADD MSTORE PUSH32 0x6E6F74206861766520726F6C6500000000000000000000000000000000000000 PUSH1 0x64 DUP3 ADD MSTORE PUSH1 0x84 SWAP1 REVERT JUMPDEST PUSH3 0x1FE SWAP3 SWAP2 SWAP1 PUSH3 0x15C0 PUSH3 0x15BA PUSH3 0x1495 PUSH32 0x9F2DF0FED2C77648DE5860A4CC508CD0818C85B8B8A1AB4CEEEF8D981C8956A6 PUSH3 0x9CD CALLER PUSH1 0x3 PUSH3 0x246 JUMP JUMPDEST PUSH3 0x1506 JUMP JUMPDEST PUSH3 0x15E4 JUMP JUMPDEST PUSH1 0x1 PUSH1 0x1 PUSH1 0xA0 SHL SUB SWAP1 SWAP2 AND DUP2 MSTORE PUSH1 0x40 DUP2 ADD SWAP3 SWAP2 PUSH3 0x1FE SWAP2 PUSH1 0x20 ADD MSTORE JUMP JUMPDEST PUSH3 0x15F3 PUSH3 0x15F9 SWAP2 PUSH3 0x23B JUMP JUMPDEST PUSH3 0x23B JUMP JUMPDEST SWAP1 PUSH4 0x40C10F19 SWAP2 DUP1 EXTCODESIZE ISZERO PUSH3 0x1EA JUMPI PUSH3 0x162B PUSH1 0x0 DUP1 SWAP5 PUSH3 0x1637 PUSH3 0x161E PUSH1 0x40 MLOAD SWAP1 JUMP JUMPDEST SWAP8 DUP9 SWAP7 DUP8 SWAP6 DUP7 SWAP5 PUSH1 0xE0 SHL SWAP1 JUMP JUMPDEST DUP5 MSTORE PUSH1 0x4 DUP5 ADD PUSH3 0x15C6 JUMP JUMPDEST SUB SWAP3 GAS CALL DUP1 ISZERO PUSH3 0x10BF JUMPI PUSH3 0x164A JUMPI POP JUMP JUMPDEST PUSH3 0x1FE SWAP1 PUSH1 0x0 PUSH3 0x10AF DUP2 DUP4 PUSH3 0x451 JUMP JUMPDEST SWAP1 PUSH3 0x1FE SWAP3 SWAP2 PUSH3 0x1579 JUMP JUMPDEST ISZERO PUSH3 0x1672 JUMPI JUMP JUMPDEST PUSH1 0x40 MLOAD PUSH3 0x461BCD PUSH1 0xE5 SHL DUP2 MSTORE PUSH1 0x20 PUSH1 0x4 DUP3 ADD MSTORE PUSH1 0x28 PUSH1 0x24 DUP3 ADD MSTORE PUSH32 0x4B6574746C654173736574466163746F72793A206173736574206E6F74207265 PUSH1 0x44 DUP3 ADD MSTORE PUSH32 0x6769737465726564000000000000000000000000000000000000000000000000 PUSH1 0x64 DUP3 ADD MSTORE PUSH1 0x84 SWAP1 REVERT JUMPDEST SWAP1 PUSH3 0x1FE SWAP4 SWAP3 SWAP2 PUSH3 0x1700 PUSH3 0x16FA PUSH3 0x1495 DUP4 PUSH1 0x2 PUSH3 0x246 JUMP JUMPDEST PUSH3 0x166A JUMP JUMPDEST PUSH3 0x13DE PUSH3 0x1738 PUSH3 0x13C8 PUSH3 0x13C8 PUSH32 0x58185104334934E85BAEF523DF3CF65C6E9D50F111D29564C920A152887C102F SWAP5 PUSH3 0x23B JUMP JUMPDEST SWAP5 PUSH3 0x928 PUSH1 0x40 MLOAD SWAP1 JUMP JUMPDEST SWAP1 PUSH3 0x1FE SWAP4 SWAP3 SWAP2 PUSH3 0x16DD JUMP JUMPDEST SWAP1 PUSH3 0x1FE SWAP2 PUSH3 0x1761 PUSH3 0xC85 JUMP JUMPDEST PUSH3 0x1773 DUP3 PUSH3 0x104C DUP4 PUSH1 0x5 PUSH3 0x246 JUMP JUMPDEST PUSH3 0x1097 PUSH3 0x1345 PUSH32 0x20E971E0ADA27855AD53B123623391FC76CC2802802B422FAD5011BC88405CF9 SWAP3 PUSH3 0x23B JUMP JUMPDEST SWAP1 PUSH3 0x1FE SWAP2 PUSH3 0x1751 JUMP JUMPDEST SWAP1 PUSH3 0x1FE SWAP3 SWAP2 PUSH3 0x17C0 PUSH3 0xC85 JUMP JUMPDEST SWAP1 SWAP2 PUSH3 0x17D9 DUP2 PUSH3 0x104C DUP6 PUSH3 0x641 DUP7 PUSH1 0x6 PUSH3 0x246 JUMP JUMPDEST PUSH3 0x12C2 PUSH32 0x9FA95F83AEA87324FD2B999BA8D791B7700E7D6E7A043A06DC82B0AF2C86DFB SWAP3 PUSH3 0x23B JUMP JUMPDEST SWAP1 PUSH3 0x1FE SWAP3 SWAP2 PUSH3 0x17AF JUMP JUMPDEST PUSH3 0x1FE SWAP1 PUSH3 0x1821 PUSH3 0xC85 JUMP JUMPDEST PUSH3 0x19CC JUMP JUMPDEST SWAP2 PUSH1 0x0 NOT PUSH1 0x8 SWAP3 SWAP1 SWAP3 MUL SWAP2 DUP3 SHL SWAP2 SHL PUSH3 0xDA0 JUMP JUMPDEST SWAP2 SWAP1 PUSH3 0x1851 PUSH3 0x1D4 PUSH3 0xDC6 SWAP4 PUSH3 0x60C JUMP JUMPDEST SWAP1 DUP4 SLOAD PUSH3 0x1827 JUMP JUMPDEST PUSH3 0x1FE SWAP2 PUSH1 0x0 SWAP2 PUSH3 0x183C JUMP JUMPDEST DUP2 DUP2 LT PUSH3 0x1874 JUMPI POP POP JUMP JUMPDEST DUP1 PUSH3 0x1884 PUSH1 0x0 PUSH1 0x1 SWAP4 PUSH3 0x185A JUMP JUMPDEST ADD PUSH3 0x1868 JUMP JUMPDEST SWAP2 SWAP1 PUSH1 0x1F DUP2 GT PUSH3 0x189B JUMPI POP POP POP JUMP JUMPDEST PUSH3 0x18AF PUSH3 0x1FE SWAP4 PUSH1 0x0 MSTORE PUSH1 0x20 PUSH1 0x0 KECCAK256 SWAP1 JUMP JUMPDEST SWAP1 PUSH1 0x20 PUSH1 0x1F DUP5 ADD DUP2 SWAP1 DIV DUP4 ADD SWAP4 LT PUSH3 0x18D3 JUMPI JUMPDEST PUSH1 0x20 PUSH1 0x1F SWAP1 SWAP2 ADD DIV ADD SWAP1 PUSH3 0x1868 JUMP JUMPDEST SWAP1 SWAP2 POP DUP2 SWAP1 PUSH3 0x18C3 JUMP JUMPDEST SWAP1 PUSH3 0x18E8 DUP2 MLOAD SWAP1 JUMP JUMPDEST SWAP1 PUSH8 0xFFFFFFFFFFFFFFFF DUP3 GT PUSH3 0x474 JUMPI PUSH3 0x1911 DUP3 PUSH3 0x190A DUP6 SLOAD PUSH3 0xA21 JUMP JUMPDEST DUP6 PUSH3 0x188B JUMP JUMPDEST PUSH1 0x20 SWAP1 PUSH1 0x1F DUP4 GT PUSH1 0x1 EQ PUSH3 0x1950 JUMPI PUSH3 0xDC6 SWAP3 SWAP2 PUSH1 0x0 SWAP2 DUP4 PUSH3 0x1944 JUMPI JUMPDEST POP POP PUSH1 0x0 NOT PUSH1 0x8 DUP4 MUL SHR NOT AND SWAP1 PUSH1 0x2 MUL OR SWAP1 JUMP JUMPDEST ADD MLOAD SWAP1 POP CODESIZE DUP1 PUSH3 0x1930 JUMP JUMPDEST PUSH1 0x1F NOT DUP4 AND SWAP2 PUSH3 0x1966 DUP6 PUSH1 0x0 MSTORE PUSH1 0x20 PUSH1 0x0 KECCAK256 SWAP1 JUMP JUMPDEST SWAP3 PUSH1 0x0 JUMPDEST DUP2 DUP2 LT PUSH3 0x19A7 JUMPI POP SWAP2 PUSH1 0x2 SWAP4 SWAP2 DUP6 PUSH1 0x1 SWAP7 SWAP5 LT PUSH3 0x198D JUMPI JUMPDEST POP POP POP MUL ADD SWAP1 SSTORE JUMP JUMPDEST ADD MLOAD PUSH1 0x0 NOT PUSH1 0x8 PUSH1 0x1F DUP6 AND MUL SHR NOT AND SWAP1 SSTORE CODESIZE DUP1 DUP1 PUSH3 0x1984 JUMP JUMPDEST SWAP2 SWAP4 PUSH1 0x20 PUSH1 0x1 DUP2 SWAP3 DUP8 DUP8 ADD MLOAD DUP2 SSTORE ADD SWAP6 ADD SWAP3 ADD PUSH3 0x196A JUMP JUMPDEST SWAP1 PUSH3 0x1FE SWAP2 PUSH3 0x18DE JUMP JUMPDEST PUSH3 0x1FE SWAP1 PUSH1 0x1 PUSH3 0x19C0 JUMP JUMPDEST PUSH3 0x1FE SWAP1 PUSH3 0x1812 JUMP JUMPDEST SWAP1 PUSH3 0x1FE SWAP4 SWAP3 SWAP2 PUSH3 0x19F6 PUSH3 0xC85 JUMP JUMPDEST PUSH3 0x15F3 PUSH3 0x1A09 SWAP2 SWAP5 SWAP4 SWAP3 SWAP5 PUSH3 0x23B JUMP JUMPDEST SWAP3 PUSH4 0xC1FD4137 DUP5 EXTCODESIZE ISZERO PUSH3 0x1EA JUMPI PUSH3 0x1A37 PUSH1 0x0 SWAP2 PUSH3 0x1A43 PUSH3 0x1A2C PUSH1 0x40 MLOAD SWAP1 JUMP JUMPDEST SWAP5 DUP6 SWAP4 DUP5 SWAP4 PUSH1 0xE0 SHL SWAP1 JUMP JUMPDEST DUP4 MSTORE PUSH1 0x4 DUP4 ADD PUSH3 0xB93 JUMP JUMPDEST SUB DUP2 DUP4 DUP9 GAS CALL DUP1 ISZERO PUSH3 0x10BF JUMPI PUSH3 0x1AD9 JUMPI JUMPDEST POP PUSH4 0x46D75C8C DUP4 EXTCODESIZE ISZERO PUSH3 0x1EA JUMPI PUSH3 0x1A37 PUSH1 0x0 SWAP2 PUSH3 0x1A79 PUSH3 0x1A2C PUSH1 0x40 MLOAD SWAP1 JUMP JUMPDEST SUB DUP2 DUP4 DUP8 GAS CALL DUP1 ISZERO PUSH3 0x10BF JUMPI PUSH3 0x1ABF JUMPI JUMPDEST POP PUSH4 0xC73E835C SWAP1 DUP3 EXTCODESIZE ISZERO PUSH3 0x1EA JUMPI PUSH3 0x1637 SWAP3 PUSH3 0x1A37 PUSH1 0x0 DUP1 SWAP5 PUSH3 0x1AB2 PUSH1 0x40 MLOAD SWAP1 JUMP JUMPDEST SWAP7 DUP8 SWAP6 DUP7 SWAP5 DUP6 SWAP4 PUSH1 0xE0 SHL SWAP1 JUMP JUMPDEST PUSH3 0x1AD2 SWAP1 PUSH1 0x0 PUSH3 0x10AF DUP2 DUP4 PUSH3 0x451 JUMP JUMPDEST CODESIZE PUSH3 0x1A8C JUMP JUMPDEST PUSH3 0x1AEC SWAP1 PUSH1 0x0 PUSH3 0x10AF DUP2 DUP4 PUSH3 0x451 JUMP JUMPDEST CODESIZE PUSH3 0x1A56 JUMP JUMPDEST SWAP1 PUSH3 0x1FE SWAP4 SWAP3 SWAP2 PUSH3 0x19E4 JUMP JUMPDEST PUSH3 0x1D4 PUSH3 0x1D4 PUSH3 0x1D4 SWAP3 PUSH1 0x1 PUSH1 0x1 PUSH1 0xA0 SHL SUB AND SWAP1 JUMP JUMPDEST PUSH3 0x1B2D PUSH1 0x1 SWAP2 PUSH3 0x1D4 SWAP5 SWAP4 PUSH3 0xE45 JUMP JUMPDEST PUSH32 0x2F00000000000000000000000000000000000000000000000000000000000000 DUP2 MSTORE ADD SWAP1 PUSH3 0xE45 JUMP JUMPDEST PUSH3 0x1B7C SWAP3 SWAP2 PUSH3 0x1FE SWAP2 PUSH3 0x1B6D PUSH1 0x40 MLOAD SWAP1 JUMP JUMPDEST SWAP5 DUP6 SWAP3 PUSH1 0x20 DUP5 ADD SWAP3 DUP4 PUSH3 0x1B1A JUMP JUMPDEST SWAP1 DUP2 SUB DUP3 MSTORE SUB DUP4 PUSH3 0x451 JUMP JUMPDEST PUSH3 0x1D4 SWAP1 SLOAD PUSH3 0xA21 JUMP JUMPDEST DUP1 SLOAD PUSH1 0x0 SWAP4 SWAP3 SWAP2 PUSH3 0x1BAF PUSH3 0x1BAB DUP4 PUSH3 0xA21 JUMP JUMPDEST SWAP4 SWAP1 JUMP JUMPDEST SWAP2 PUSH1 0x1 DUP2 AND SWAP1 DUP2 ISZERO PUSH3 0x1C05 JUMPI POP PUSH1 0x1 EQ PUSH3 0x1BCA JUMPI POP POP POP JUMP JUMPDEST PUSH3 0x1BDE SWAP2 SWAP3 SWAP4 SWAP5 POP PUSH1 0x0 MSTORE PUSH1 0x20 PUSH1 0x0 KECCAK256 SWAP1 JUMP JUMPDEST PUSH1 0x0 SWAP1 JUMPDEST DUP4 DUP3 LT PUSH3 0x1BF0 JUMPI POP POP ADD SWAP1 JUMP JUMPDEST PUSH1 0x1 DUP2 PUSH1 0x20 SWAP3 SLOAD DUP5 DUP7 ADD MSTORE ADD SWAP2 ADD SWAP1 PUSH3 0x1BE2 JUMP JUMPDEST PUSH1 0xFF NOT AND DUP4 MSTORE POP POP DUP2 ISZERO ISZERO SWAP1 SWAP2 MUL ADD SWAP2 POP JUMP JUMPDEST PUSH3 0x1B2D PUSH1 0x1 SWAP2 PUSH3 0x1D4 SWAP5 SWAP4 PUSH3 0x1B95 JUMP JUMPDEST PUSH3 0x1B7C SWAP3 SWAP2 PUSH3 0x1FE SWAP2 PUSH3 0x1C40 PUSH1 0x40 MLOAD SWAP1 JUMP JUMPDEST SWAP5 DUP6 SWAP3 PUSH1 0x20 DUP5 ADD SWAP3 DUP4 PUSH3 0x1C18 JUMP JUMPDEST SWAP1 PUSH3 0x1C88 PUSH3 0x1C81 PUSH3 0x1C7B PUSH3 0x1C75 PUSH3 0x1C8F SWAP6 PUSH3 0x1C6E PUSH1 0x60 SWAP1 JUMP JUMPDEST POP PUSH3 0x230 JUMP JUMPDEST PUSH3 0x1B01 JUMP JUMPDEST PUSH3 0x1DDB JUMP JUMPDEST SWAP2 PUSH3 0x1D30 JUMP JUMPDEST SWAP1 PUSH3 0x1B58 JUMP JUMPDEST PUSH1 0x1 PUSH3 0x1C9C DUP2 PUSH3 0x1B89 JUMP JUMPDEST PUSH3 0x1CB0 PUSH3 0x1CAC PUSH1 0x0 PUSH3 0x60C JUMP JUMPDEST SWAP2 SWAP1 JUMP JUMPDEST EQ PUSH3 0x1CC2 JUMPI SWAP1 PUSH3 0x1D4 SWAP2 PUSH3 0x1C2B JUMP JUMPDEST POP SWAP1 JUMP JUMPDEST SWAP1 PUSH3 0x1CD6 PUSH3 0x4D2 DUP4 PUSH3 0x491 JUMP JUMPDEST SWAP2 DUP3 MSTORE JUMP JUMPDEST CALLDATASIZE SWAP1 CALLDATACOPY JUMP JUMPDEST SWAP1 PUSH3 0x1FE PUSH3 0x1CFB PUSH3 0x1CF4 DUP5 PUSH3 0x1CC6 JUMP JUMPDEST SWAP4 PUSH3 0x491 JUMP JUMPDEST PUSH1 0x1F NOT ADD PUSH1 0x20 DUP5 ADD PUSH3 0x1CDB JUMP JUMPDEST PUSH4 0x4E487B71 PUSH1 0xE0 SHL PUSH1 0x0 MSTORE PUSH1 0x12 PUSH1 0x4 MSTORE PUSH1 0x24 PUSH1 0x0 REVERT JUMPDEST DUP2 ISZERO PUSH3 0x1D2A JUMPI DIV SWAP1 JUMP JUMPDEST PUSH3 0x1D09 JUMP JUMPDEST PUSH3 0x1D3B DUP2 PUSH3 0x2079 JUMP JUMPDEST SWAP1 PUSH3 0x1D4E PUSH1 0x1 SWAP3 PUSH3 0x4AF DUP5 PUSH3 0x60C JUMP JUMPDEST SWAP2 DUP1 PUSH3 0x1D5B DUP5 PUSH3 0x1CE0 JUMP JUMPDEST SWAP4 PUSH1 0x20 ADD DUP5 ADD SWAP1 JUMPDEST PUSH3 0x1D6F JUMPI JUMPDEST POP POP POP SWAP1 JUMP JUMPDEST PUSH3 0x1DB4 SWAP1 PUSH1 0x0 NOT ADD SWAP3 PUSH32 0x3031323334353637383961626364656600000000000000000000000000000000 PUSH1 0xA DUP3 MOD BYTE DUP5 MSTORE8 PUSH3 0x1DAD PUSH1 0xA PUSH3 0x60C JUMP JUMPDEST SWAP1 PUSH3 0x1D1F JUMP JUMPDEST SWAP1 DUP2 PUSH3 0x1DC6 PUSH3 0x1CAC PUSH1 0x0 PUSH3 0x60C JUMP JUMPDEST EQ PUSH3 0x1DD5 JUMPI SWAP1 SWAP2 DUP2 PUSH3 0x1D63 JUMP JUMPDEST PUSH3 0x1D69 JUMP JUMPDEST PUSH3 0x1D4 SWAP1 PUSH3 0x1DFB PUSH3 0x1DEF DUP3 PUSH3 0x2262 JUMP JUMPDEST PUSH3 0x4AF PUSH1 0x1 PUSH3 0x60C JUMP JUMPDEST SWAP1 PUSH3 0x1EC4 JUMP JUMPDEST PUSH4 0x4E487B71 PUSH1 0xE0 SHL PUSH1 0x0 MSTORE PUSH1 0x11 PUSH1 0x4 MSTORE PUSH1 0x24 PUSH1 0x0 REVERT JUMPDEST DUP2 DUP2 MUL SWAP3 SWAP2 DUP2 ISZERO SWAP2 DUP5 DIV EQ OR ISZERO PUSH3 0x1E2C JUMPI JUMP JUMPDEST PUSH3 0x1E02 JUMP JUMPDEST SWAP2 SWAP1 DUP3 ADD DUP1 SWAP3 GT PUSH3 0x1E2C JUMPI JUMP JUMPDEST PUSH4 0x4E487B71 PUSH1 0xE0 SHL PUSH1 0x0 MSTORE PUSH1 0x32 PUSH1 0x4 MSTORE PUSH1 0x24 PUSH1 0x0 REVERT JUMPDEST SWAP1 PUSH3 0x1E60 DUP3 MLOAD SWAP1 JUMP JUMPDEST DUP2 LT ISZERO PUSH3 0x1E6F JUMPI ADD PUSH1 0x20 ADD SWAP1 JUMP JUMPDEST PUSH3 0x1E40 JUMP JUMPDEST DUP1 ISZERO PUSH3 0x1E2C JUMPI PUSH1 0x0 NOT ADD SWAP1 JUMP JUMPDEST PUSH3 0x26A PUSH3 0x1D4 PUSH3 0x1D4 SWAP3 SWAP1 JUMP JUMPDEST PUSH3 0x1D4 SWAP1 PUSH3 0x1EAB PUSH3 0x1CAC PUSH3 0x1D4 SWAP5 PUSH1 0xFF AND SWAP1 JUMP JUMPDEST SWAP1 SHR SWAP1 JUMP JUMPDEST SWAP1 DUP2 MSTORE PUSH1 0x40 DUP2 ADD SWAP3 SWAP2 PUSH3 0x1FE SWAP2 PUSH1 0x20 ADD MSTORE JUMP JUMPDEST SWAP1 DUP2 PUSH1 0x2 SWAP3 PUSH3 0x1EFF PUSH3 0x1EF9 PUSH3 0x1EE7 DUP6 PUSH3 0x1EE1 DUP9 PUSH3 0x60C JUMP JUMPDEST PUSH3 0x1E18 JUMP JUMPDEST PUSH3 0x1EF2 DUP8 PUSH3 0x60C JUMP JUMPDEST SWAP1 PUSH3 0x1E32 JUMP JUMPDEST PUSH3 0x1CE0 JUMP JUMPDEST SWAP4 PUSH1 0x0 SWAP1 PUSH1 0x30 PUSH3 0x1F1B PUSH3 0x1F14 DUP5 PUSH3 0x60C JUMP JUMPDEST DUP9 PUSH3 0x1E56 JUMP JUMPDEST MSTORE8 PUSH32 0x7800000000000000000000000000000000000000000000000000000000000000 PUSH3 0x1F7A PUSH3 0x1F6F DUP8 PUSH3 0x1EE1 PUSH1 0x1 SWAP6 DUP7 SWAP6 DUP9 BYTE PUSH3 0x1F68 DUP14 PUSH3 0x1F61 DUP10 PUSH3 0x60C JUMP JUMPDEST SWAP1 PUSH3 0x1E56 JUMP JUMPDEST MSTORE8 PUSH3 0x60C JUMP JUMPDEST PUSH3 0x1EF2 DUP4 PUSH3 0x60C JUMP JUMPDEST SWAP2 JUMPDEST PUSH3 0x1FDC JUMPI JUMPDEST POP POP PUSH3 0x1CAC PUSH3 0x1F93 SWAP2 PUSH3 0x60C JUMP JUMPDEST SUB PUSH3 0x1F9E JUMPI POP POP SWAP1 JUMP JUMPDEST PUSH3 0xCF9 PUSH3 0x1FAC PUSH1 0x40 MLOAD SWAP1 JUMP JUMPDEST SWAP3 DUP4 SWAP3 PUSH32 0xE22E27EB00000000000000000000000000000000000000000000000000000000 DUP5 MSTORE PUSH1 0x4 DUP5 ADD PUSH3 0x1EB0 JUMP JUMPDEST SWAP1 SWAP3 PUSH3 0x1FE9 DUP3 PUSH3 0x60C JUMP JUMPDEST DUP5 GT ISZERO PUSH3 0x2072 JUMPI PUSH32 0x3031323334353637383961626364656600000000000000000000000000000000 PUSH3 0x201E PUSH1 0xF PUSH3 0x60C JUMP JUMPDEST DUP3 AND SWAP1 PUSH1 0x10 DUP3 LT ISZERO PUSH3 0x1E6F JUMPI DUP4 SWAP3 PUSH3 0x2042 PUSH3 0x2064 SWAP3 PUSH3 0x206B SWAP5 BYTE PUSH1 0xF8 SHL SWAP1 JUMP JUMPDEST DUP7 BYTE PUSH3 0x2050 DUP9 DUP13 PUSH3 0x1E56 JUMP JUMPDEST MSTORE8 PUSH3 0x205D PUSH1 0x4 PUSH3 0x1E83 JUMP JUMPDEST SWAP1 PUSH3 0x1E93 JUMP JUMPDEST SWAP5 PUSH3 0x1E75 JUMP JUMPDEST SWAP2 PUSH3 0x1F7C JUMP JUMPDEST SWAP3 PUSH3 0x1F82 JUMP JUMPDEST PUSH3 0x2085 PUSH1 0x0 PUSH3 0x60C JUMP JUMPDEST SWAP1 PUSH27 0x184F03E93FF9F4DAA797ED6E38ED64BF6A1F010000000000000000 PUSH3 0x20AD DUP2 PUSH3 0x60C JUMP JUMPDEST DUP3 LT ISZERO PUSH3 0x2239 JUMPI JUMPDEST POP PUSH14 0x4EE2D6D415B85ACEF8100000000 PUSH3 0x20D1 DUP2 PUSH3 0x60C JUMP JUMPDEST DUP3 LT ISZERO PUSH3 0x2210 JUMPI JUMPDEST POP PUSH7 0x2386F26FC10000 PUSH3 0x20EE DUP2 PUSH3 0x60C JUMP JUMPDEST DUP3 LT ISZERO PUSH3 0x21E7 JUMPI JUMPDEST POP PUSH4 0x5F5E100 PUSH3 0x2108 DUP2 PUSH3 0x60C JUMP JUMPDEST DUP3 LT ISZERO PUSH3 0x21BE JUMPI JUMPDEST POP PUSH2 0x2710 PUSH3 0x2120 DUP2 PUSH3 0x60C JUMP JUMPDEST DUP3 LT ISZERO PUSH3 0x2195 JUMPI JUMPDEST POP PUSH1 0x64 PUSH3 0x2137 DUP2 PUSH3 0x60C JUMP JUMPDEST DUP3 LT ISZERO PUSH3 0x216C JUMPI JUMPDEST POP PUSH3 0x2151 PUSH3 0x1CAC PUSH1 0xA PUSH3 0x60C JUMP JUMPDEST LT ISZERO PUSH3 0x215B JUMPI SWAP1 JUMP JUMPDEST PUSH3 0x1D4 SWAP1 PUSH3 0x4AF PUSH1 0x1 PUSH3 0x60C JUMP JUMPDEST PUSH3 0x218D SWAP2 PUSH3 0x1DAD PUSH3 0x2180 SWAP3 PUSH3 0x60C JUMP JUMPDEST SWAP2 PUSH3 0x4AF PUSH1 0x2 PUSH3 0x60C JUMP JUMPDEST SWAP1 CODESIZE PUSH3 0x2140 JUMP JUMPDEST PUSH3 0x21B6 SWAP2 PUSH3 0x1DAD PUSH3 0x21A9 SWAP3 PUSH3 0x60C JUMP JUMPDEST SWAP2 PUSH3 0x4AF PUSH1 0x4 PUSH3 0x60C JUMP JUMPDEST SWAP1 CODESIZE PUSH3 0x2129 JUMP JUMPDEST PUSH3 0x21DF SWAP2 PUSH3 0x1DAD PUSH3 0x21D2 SWAP3 PUSH3 0x60C JUMP JUMPDEST SWAP2 PUSH3 0x4AF PUSH1 0x8 PUSH3 0x60C JUMP JUMPDEST SWAP1 CODESIZE PUSH3 0x2111 JUMP JUMPDEST PUSH3 0x2208 SWAP2 PUSH3 0x1DAD PUSH3 0x21FB SWAP3 PUSH3 0x60C JUMP JUMPDEST SWAP2 PUSH3 0x4AF PUSH1 0x10 PUSH3 0x60C JUMP JUMPDEST SWAP1 CODESIZE PUSH3 0x20F7 JUMP JUMPDEST PUSH3 0x2231 SWAP2 PUSH3 0x1DAD PUSH3 0x2224 SWAP3 PUSH3 0x60C JUMP JUMPDEST SWAP2 PUSH3 0x4AF PUSH1 0x20 PUSH3 0x60C JUMP JUMPDEST SWAP1 CODESIZE PUSH3 0x20DA JUMP JUMPDEST PUSH3 0x225A SWAP2 PUSH3 0x1DAD PUSH3 0x224D SWAP3 PUSH3 0x60C JUMP JUMPDEST SWAP2 PUSH3 0x4AF PUSH1 0x40 PUSH3 0x60C JUMP JUMPDEST SWAP1 CODESIZE PUSH3 0x20B6 JUMP JUMPDEST PUSH1 0x0 PUSH3 0x231C PUSH3 0x1CAC PUSH3 0x2315 PUSH3 0x227B DUP5 PUSH3 0x60C JUMP JUMPDEST SWAP5 PUSH3 0x2293 PUSH3 0x228C PUSH1 0x80 PUSH3 0x1E83 JUMP JUMPDEST DUP3 PUSH3 0x1E93 JUMP JUMPDEST DUP7 DUP2 GT PUSH3 0x2376 JUMPI JUMPDEST POP PUSH3 0x22AD PUSH3 0x228C PUSH1 0x40 PUSH3 0x1E83 JUMP JUMPDEST PUSH3 0x22B8 DUP7 PUSH3 0x60C JUMP JUMPDEST DUP2 GT PUSH3 0x235B JUMPI JUMPDEST POP PUSH3 0x22D1 PUSH3 0x228C PUSH1 0x20 PUSH3 0x1E83 JUMP JUMPDEST PUSH3 0x22DC DUP7 PUSH3 0x60C JUMP JUMPDEST DUP2 GT PUSH3 0x2340 JUMPI JUMPDEST POP PUSH3 0x22F5 PUSH3 0x228C PUSH1 0x10 PUSH3 0x1E83 JUMP JUMPDEST PUSH3 0x2300 DUP7 PUSH3 0x60C JUMP JUMPDEST DUP2 GT PUSH3 0x2325 JUMPI JUMPDEST POP PUSH3 0x205D PUSH1 0x8 PUSH3 0x1E83 JUMP JUMPDEST SWAP3 PUSH3 0x60C JUMP JUMPDEST GT PUSH3 0x215B JUMPI SWAP1 JUMP JUMPDEST PUSH3 0x2338 SWAP2 POP SWAP6 PUSH3 0x4AF PUSH1 0x2 PUSH3 0x60C JUMP JUMPDEST SWAP5 CODESIZE PUSH3 0x2308 JUMP JUMPDEST PUSH3 0x2353 SWAP2 POP SWAP6 PUSH3 0x4AF PUSH1 0x4 PUSH3 0x60C JUMP JUMPDEST SWAP5 CODESIZE PUSH3 0x22E4 JUMP JUMPDEST PUSH3 0x236E SWAP2 POP SWAP6 PUSH3 0x4AF PUSH1 0x8 PUSH3 0x60C JUMP JUMPDEST SWAP5 CODESIZE PUSH3 0x22C0 JUMP JUMPDEST PUSH3 0x2389 SWAP2 POP SWAP6 PUSH3 0x4AF PUSH1 0x10 PUSH3 0x60C JUMP JUMPDEST SWAP5 CODESIZE PUSH3 0x229C JUMP INVALID PUSH1 0x80 PUSH1 0x40 MSTORE CALLVALUE PUSH3 0x26 JUMPI PUSH3 0x14 PUSH3 0x17A JUMP JUMPDEST PUSH1 0x40 MLOAD PUSH2 0x1D0C PUSH3 0x4EF DUP3 CODECOPY PUSH2 0x1D0C SWAP1 RETURN JUMPDEST PUSH1 0x0 DUP1 REVERT JUMPDEST PUSH4 0x4E487B71 PUSH1 0xE0 SHL PUSH1 0x0 MSTORE PUSH1 0x41 PUSH1 0x4 MSTORE PUSH1 0x24 PUSH1 0x0 REVERT JUMPDEST SWAP1 PUSH1 0x1F ADD PUSH1 0x1F NOT AND DUP2 ADD SWAP1 DUP2 LT PUSH1 0x1 PUSH1 0x1 PUSH1 0x40 SHL SUB DUP3 GT OR PUSH3 0x63 JUMPI PUSH1 0x40 MSTORE JUMP JUMPDEST PUSH3 0x2B JUMP JUMPDEST SWAP1 PUSH3 0x80 PUSH3 0x78 PUSH1 0x40 MLOAD SWAP1 JUMP JUMPDEST SWAP3 DUP4 PUSH3 0x41 JUMP JUMPDEST JUMP JUMPDEST PUSH1 0x1 PUSH1 0x1 PUSH1 0x40 SHL SUB DUP2 GT PUSH3 0x63 JUMPI PUSH1 0x20 SWAP1 PUSH1 0x1F ADD PUSH1 0x1F NOT AND ADD SWAP1 JUMP JUMPDEST SWAP1 PUSH3 0xB5 PUSH3 0xAF DUP4 PUSH3 0x82 JUMP JUMPDEST PUSH3 0x69 JUMP JUMPDEST SWAP2 DUP3 MSTORE JUMP JUMPDEST PUSH3 0xC6 PUSH1 0x6 PUSH3 0x9F JUMP JUMPDEST PUSH6 0x4B6574746C65 PUSH1 0xD0 SHL PUSH1 0x20 DUP3 ADD MSTORE SWAP1 JUMP JUMPDEST PUSH3 0xE2 PUSH3 0xBA JUMP JUMPDEST SWAP1 JUMP JUMPDEST PUSH3 0xF1 PUSH1 0x6 PUSH3 0x9F JUMP JUMPDEST PUSH6 0x4B4554544C45 PUSH1 0xD0 SHL PUSH1 0x20 DUP3 ADD MSTORE SWAP1 JUMP JUMPDEST PUSH3 0xE2 PUSH3 0xE5 JUMP JUMPDEST PUSH3 0xE2 SWAP1 PUSH3 0x123 SWAP1 PUSH1 0x1 PUSH1 0x1 PUSH1 0xA0 SHL SUB AND DUP3 JUMP JUMPDEST PUSH1 0x1 PUSH1 0x1 PUSH1 0xA0 SHL SUB AND SWAP1 JUMP JUMPDEST PUSH3 0xE2 SWAP1 PUSH3 0x10D JUMP JUMPDEST PUSH3 0xE2 SWAP1 PUSH3 0x12F JUMP JUMPDEST SWAP1 PUSH1 0x1 PUSH1 0x1 PUSH1 0xA0 SHL SUB SWAP1 JUMPDEST SWAP2 DUP2 NOT AND SWAP2 AND OR SWAP1 JUMP JUMPDEST SWAP1 PUSH3 0x16E PUSH3 0xE2 PUSH3 0x176 SWAP3 PUSH3 0x13A JUMP JUMPDEST DUP3 SLOAD PUSH3 0x145 JUMP JUMPDEST SWAP1 SSTORE JUMP JUMPDEST PUSH3 0x80 PUSH3 0x1A9 CALLER PUSH3 0x1A3 PUSH3 0x191 PUSH3 0xD8 JUMP JUMPDEST PUSH3 0x19B PUSH3 0x103 JUMP JUMPDEST SWAP1 DUP4 PUSH3 0x1ED JUMP JUMPDEST PUSH3 0x13A JUMP JUMPDEST PUSH1 0x7 PUSH3 0x15A JUMP JUMPDEST PUSH3 0x123 PUSH3 0xE2 PUSH3 0xE2 SWAP3 SWAP1 JUMP JUMPDEST PUSH3 0xE2 SWAP1 PUSH3 0x1B1 JUMP JUMPDEST PUSH3 0x1D7 SWAP1 PUSH3 0x123 JUMP JUMPDEST SWAP1 MSTORE JUMP JUMPDEST PUSH1 0x20 DUP2 ADD SWAP3 SWAP2 PUSH3 0x80 SWAP2 SWAP1 PUSH3 0x1CC JUMP JUMPDEST SWAP2 PUSH3 0x1F9 SWAP2 PUSH3 0x257 JUMP JUMPDEST PUSH3 0x205 PUSH1 0x0 PUSH3 0x1C1 JUMP JUMPDEST PUSH3 0x210 DUP2 PUSH3 0x123 JUMP JUMPDEST PUSH3 0x21B DUP4 PUSH3 0x123 JUMP JUMPDEST EQ PUSH3 0x22D JUMPI POP PUSH3 0x80 SWAP1 PUSH3 0x48C JUMP JUMPDEST PUSH3 0x253 SWAP1 PUSH3 0x23C PUSH1 0x40 MLOAD SWAP1 JUMP JUMPDEST PUSH4 0x1E4FBDF7 PUSH1 0xE0 SHL DUP2 MSTORE SWAP2 DUP3 SWAP2 PUSH1 0x4 DUP4 ADD PUSH3 0x1DB JUMP JUMPDEST SUB SWAP1 REVERT JUMPDEST SWAP1 PUSH3 0x80 SWAP2 PUSH3 0x45B JUMP JUMPDEST PUSH4 0x4E487B71 PUSH1 0xE0 SHL PUSH1 0x0 MSTORE PUSH1 0x22 PUSH1 0x4 MSTORE PUSH1 0x24 PUSH1 0x0 REVERT JUMPDEST SWAP1 PUSH1 0x1 PUSH1 0x2 DUP4 DIV SWAP3 AND DUP1 ISZERO PUSH3 0x29C JUMPI JUMPDEST PUSH1 0x20 DUP4 LT EQ PUSH3 0x296 JUMPI JUMP JUMPDEST PUSH3 0x263 JUMP JUMPDEST SWAP2 PUSH1 0x7F AND SWAP2 PUSH3 0x28A JUMP JUMPDEST SWAP2 PUSH1 0x0 NOT PUSH1 0x8 SWAP3 SWAP1 SWAP3 MUL SWAP2 DUP3 SHL SWAP2 SHL PUSH3 0x150 JUMP JUMPDEST PUSH3 0xE2 PUSH3 0xE2 PUSH3 0xE2 SWAP3 SWAP1 JUMP JUMPDEST SWAP2 SWAP1 PUSH3 0x2E1 PUSH3 0xE2 PUSH3 0x176 SWAP4 PUSH3 0x2BC JUMP JUMPDEST SWAP1 DUP4 SLOAD PUSH3 0x2A7 JUMP JUMPDEST PUSH3 0x80 SWAP2 PUSH1 0x0 SWAP2 PUSH3 0x2CC JUMP JUMPDEST DUP2 DUP2 LT PUSH3 0x304 JUMPI POP POP JUMP JUMPDEST DUP1 PUSH3 0x314 PUSH1 0x0 PUSH1 0x1 SWAP4 PUSH3 0x2EA JUMP JUMPDEST ADD PUSH3 0x2F8 JUMP JUMPDEST SWAP2 SWAP1 PUSH1 0x1F DUP2 GT PUSH3 0x32B JUMPI POP POP POP JUMP JUMPDEST PUSH3 0x33F PUSH3 0x80 SWAP4 PUSH1 0x0 MSTORE PUSH1 0x20 PUSH1 0x0 KECCAK256 SWAP1 JUMP JUMPDEST SWAP1 PUSH1 0x20 PUSH1 0x1F DUP5 ADD DUP2 SWAP1 DIV DUP4 ADD SWAP4 LT PUSH3 0x363 JUMPI JUMPDEST PUSH1 0x20 PUSH1 0x1F SWAP1 SWAP2 ADD DIV ADD SWAP1 PUSH3 0x2F8 JUMP JUMPDEST SWAP1 SWAP2 POP DUP2 SWAP1 PUSH3 0x353 JUMP JUMPDEST SWAP1 PUSH3 0x378 DUP2 MLOAD SWAP1 JUMP JUMPDEST SWAP1 PUSH1 0x1 PUSH1 0x1 PUSH1 0x40 SHL SUB DUP3 GT PUSH3 0x63 JUMPI PUSH3 0x3A0 DUP3 PUSH3 0x399 DUP6 SLOAD PUSH3 0x279 JUMP JUMPDEST DUP6 PUSH3 0x31B JUMP JUMPDEST PUSH1 0x20 SWAP1 PUSH1 0x1F DUP4 GT PUSH1 0x1 EQ PUSH3 0x3DF JUMPI PUSH3 0x176 SWAP3 SWAP2 PUSH1 0x0 SWAP2 DUP4 PUSH3 0x3D3 JUMPI JUMPDEST POP POP PUSH1 0x0 NOT PUSH1 0x8 DUP4 MUL SHR NOT AND SWAP1 PUSH1 0x2 MUL OR SWAP1 JUMP JUMPDEST ADD MLOAD SWAP1 POP CODESIZE DUP1 PUSH3 0x3BF JUMP JUMPDEST PUSH1 0x1F NOT DUP4 AND SWAP2 PUSH3 0x3F5 DUP6 PUSH1 0x0 MSTORE PUSH1 0x20 PUSH1 0x0 KECCAK256 SWAP1 JUMP JUMPDEST SWAP3 PUSH1 0x0 JUMPDEST DUP2 DUP2 LT PUSH3 0x436 JUMPI POP SWAP2 PUSH1 0x2 SWAP4 SWAP2 DUP6 PUSH1 0x1 SWAP7 SWAP5 LT PUSH3 0x41C JUMPI JUMPDEST POP POP POP MUL ADD SWAP1 SSTORE JUMP JUMPDEST ADD MLOAD PUSH1 0x0 NOT PUSH1 0x8 PUSH1 0x1F DUP6 AND MUL SHR NOT AND SWAP1 SSTORE CODESIZE DUP1 DUP1 PUSH3 0x413 JUMP JUMPDEST SWAP2 SWAP4 PUSH1 0x20 PUSH1 0x1 DUP2 SWAP3 DUP8 DUP8 ADD MLOAD DUP2 SSTORE ADD SWAP6 ADD SWAP3 ADD PUSH3 0x3F9 JUMP JUMPDEST SWAP1 PUSH3 0x80 SWAP2 PUSH3 0x36E JUMP JUMPDEST SWAP1 PUSH3 0x46D PUSH3 0x80 SWAP3 PUSH1 0x0 PUSH3 0x44F JUMP JUMPDEST PUSH1 0x1 PUSH3 0x44F JUMP JUMPDEST PUSH3 0xE2 SWAP1 PUSH3 0x123 JUMP JUMPDEST PUSH3 0xE2 SWAP1 SLOAD PUSH3 0x475 JUMP JUMPDEST PUSH3 0x498 PUSH1 0x6 PUSH3 0x480 JUMP JUMPDEST SWAP1 PUSH3 0x4A6 DUP2 PUSH1 0x6 PUSH3 0x15A JUMP JUMPDEST PUSH3 0x4DD PUSH3 0x4D6 PUSH32 0x8BE0079C531659141344CD1FD0A4F28419497F9722A3DAAFE3B4186F6B6457E0 SWAP4 PUSH3 0x13A JUMP JUMPDEST SWAP2 PUSH3 0x13A JUMP JUMPDEST SWAP2 PUSH3 0x4E8 PUSH1 0x40 MLOAD SWAP1 JUMP JUMPDEST PUSH1 0x0 SWAP1 LOG3 JUMP INVALID PUSH1 0x80 PUSH1 0x40 MSTORE PUSH1 0x4 CALLDATASIZE LT ISZERO PUSH2 0x12 JUMPI PUSH1 0x0 DUP1 REVERT JUMPDEST PUSH1 0x0 CALLDATALOAD PUSH1 0xE0 SHR DUP1 PUSH4 0x1FFC9A7 EQ PUSH2 0x1A2 JUMPI DUP1 PUSH4 0x6FDDE03 EQ PUSH2 0x19D JUMPI DUP1 PUSH4 0x81812FC EQ PUSH2 0x198 JUMPI DUP1 PUSH4 0x95EA7B3 EQ PUSH2 0x193 JUMPI DUP1 PUSH4 0xAD9D052 EQ PUSH2 0x18E JUMPI DUP1 PUSH4 0x21A78F68 EQ PUSH2 0x189 JUMPI DUP1 PUSH4 0x23B872DD EQ PUSH2 0x184 JUMPI DUP1 PUSH4 0x2D9FFF01 EQ PUSH2 0x17F JUMPI DUP1 PUSH4 0x40C10F19 EQ PUSH2 0x17A JUMPI DUP1 PUSH4 0x42842E0E EQ PUSH2 0x175 JUMPI DUP1 PUSH4 0x42966C68 EQ PUSH2 0x170 JUMPI DUP1 PUSH4 0x46D75C8C EQ PUSH2 0x16B JUMPI DUP1 PUSH4 0x6352211E EQ PUSH2 0x166 JUMPI DUP1 PUSH4 0x70A08231 EQ PUSH2 0x161 JUMPI DUP1 PUSH4 0x715018A6 EQ PUSH2 0x15C JUMPI DUP1 PUSH4 0x8DA5CB5B EQ PUSH2 0x157 JUMPI DUP1 PUSH4 0x95D89B41 EQ PUSH2 0x152 JUMPI DUP1 PUSH4 0xA22CB465 EQ PUSH2 0x14D JUMPI DUP1 PUSH4 0xB88D4FDE EQ PUSH2 0x148 JUMPI DUP1 PUSH4 0xC1FD4137 EQ PUSH2 0x143 JUMPI DUP1 PUSH4 0xC45A0155 EQ PUSH2 0x13E JUMPI DUP1 PUSH4 0xC73E835C EQ PUSH2 0x139 JUMPI DUP1 PUSH4 0xC87B56DD EQ PUSH2 0x134 JUMPI DUP1 PUSH4 0xE985E9C5 EQ PUSH2 0x12F JUMPI PUSH4 0xF2FDE38B SUB PUSH2 0x1BA JUMPI PUSH2 0xA03 JUMP JUMPDEST PUSH2 0x9E7 JUMP JUMPDEST PUSH2 0x966 JUMP JUMPDEST PUSH2 0x94E JUMP JUMPDEST PUSH2 0x927 JUMP JUMPDEST PUSH2 0x8B5 JUMP JUMPDEST PUSH2 0x899 JUMP JUMPDEST PUSH2 0x7FC JUMP JUMPDEST PUSH2 0x7A9 JUMP JUMPDEST PUSH2 0x782 JUMP JUMPDEST PUSH2 0x76A JUMP JUMPDEST PUSH2 0x73F JUMP JUMPDEST PUSH2 0x710 JUMP JUMPDEST PUSH2 0x6F8 JUMP JUMPDEST PUSH2 0x633 JUMP JUMPDEST PUSH2 0x61A JUMP JUMPDEST PUSH2 0x601 JUMP JUMPDEST PUSH2 0x5E6 JUMP JUMPDEST PUSH2 0x5C1 JUMP JUMPDEST PUSH2 0x576 JUMP JUMPDEST PUSH2 0x54F JUMP JUMPDEST PUSH2 0x525 JUMP JUMPDEST PUSH2 0x4C5 JUMP JUMPDEST PUSH2 0x3F5 JUMP JUMPDEST PUSH2 0x1E9 JUMP JUMPDEST PUSH1 0x1 PUSH1 0x1 PUSH1 0xE0 SHL SUB NOT DUP2 AND JUMPDEST SUB PUSH2 0x1BA JUMPI JUMP JUMPDEST PUSH1 0x0 DUP1 REVERT JUMPDEST SWAP1 POP CALLDATALOAD SWAP1 PUSH2 0x1CC DUP3 PUSH2 0x1A7 JUMP JUMPDEST JUMP JUMPDEST SWAP1 PUSH1 0x20 DUP3 DUP3 SUB SLT PUSH2 0x1BA JUMPI PUSH2 0x1E2 SWAP2 PUSH2 0x1BF JUMP JUMPDEST SWAP1 JUMP JUMPDEST SWAP1 MSTORE JUMP JUMPDEST CALLVALUE PUSH2 0x1BA JUMPI PUSH2 0x217 PUSH2 0x204 PUSH2 0x1FF CALLDATASIZE PUSH1 0x4 PUSH2 0x1CE JUMP JUMPDEST PUSH2 0x19F6 JUMP JUMPDEST PUSH1 0x40 MLOAD JUMPDEST SWAP2 DUP3 SWAP2 DUP3 SWAP1 ISZERO ISZERO DUP2 MSTORE PUSH1 0x20 ADD SWAP1 JUMP JUMPDEST SUB SWAP1 RETURN JUMPDEST PUSH1 0x0 SWAP2 SUB SLT PUSH2 0x1BA JUMPI JUMP JUMPDEST PUSH4 0x4E487B71 PUSH1 0xE0 SHL PUSH1 0x0 MSTORE PUSH1 0x0 PUSH1 0x4 MSTORE PUSH1 0x24 PUSH1 0x0 REVERT JUMPDEST PUSH4 0x4E487B71 PUSH1 0xE0 SHL PUSH1 0x0 MSTORE PUSH1 0x22 PUSH1 0x4 MSTORE PUSH1 0x24 PUSH1 0x0 REVERT JUMPDEST SWAP1 PUSH1 0x1 PUSH1 0x2 DUP4 DIV SWAP3 AND DUP1 ISZERO PUSH2 0x272 JUMPI JUMPDEST PUSH1 0x20 DUP4 LT EQ PUSH2 0x26D JUMPI JUMP JUMPDEST PUSH2 0x23C JUMP JUMPDEST SWAP2 PUSH1 0x7F AND SWAP2 PUSH2 0x262 JUMP JUMPDEST DUP1 SLOAD PUSH1 0x0 SWAP4 SWAP3 SWAP2 PUSH2 0x299 PUSH2 0x28F DUP4 PUSH2 0x252 JUMP JUMPDEST DUP1 DUP6 MSTORE SWAP4 PUSH1 0x20 ADD SWAP1 JUMP JUMPDEST SWAP2 PUSH1 0x1 DUP2 AND SWAP1 DUP2 ISZERO PUSH2 0x2EB JUMPI POP PUSH1 0x1 EQ PUSH2 0x2B2 JUMPI POP POP POP JUMP JUMPDEST PUSH2 0x2C5 SWAP2 SWAP3 SWAP4 SWAP5 POP PUSH1 0x0 MSTORE PUSH1 0x20 PUSH1 0x0 KECCAK256 SWAP1 JUMP JUMPDEST SWAP2 PUSH1 0x0 SWAP3 JUMPDEST DUP2 DUP5 LT PUSH2 0x2D7 JUMPI POP POP ADD SWAP1 JUMP JUMPDEST DUP1 SLOAD DUP5 DUP5 ADD MSTORE PUSH1 0x20 SWAP1 SWAP4 ADD SWAP3 PUSH1 0x1 ADD PUSH2 0x2CA JUMP JUMPDEST SWAP3 SWAP5 SWAP6 POP POP POP PUSH1 0xFF NOT AND DUP3 MSTORE ISZERO ISZERO PUSH1 0x20 MUL ADD SWAP1 JUMP JUMPDEST SWAP1 PUSH2 0x1E2 SWAP2 PUSH2 0x27C JUMP JUMPDEST PUSH4 0x4E487B71 PUSH1 0xE0 SHL PUSH1 0x0 MSTORE PUSH1 0x41 PUSH1 0x4 MSTORE PUSH1 0x24 PUSH1 0x0 REVERT JUMPDEST SWAP1 PUSH1 0x1F ADD PUSH1 0x1F NOT AND DUP2 ADD SWAP1 DUP2 LT PUSH8 0xFFFFFFFFFFFFFFFF DUP3 GT OR PUSH2 0x342 JUMPI PUSH1 0x40 MSTORE JUMP JUMPDEST PUSH2 0x30A JUMP JUMPDEST SWAP1 PUSH2 0x1CC PUSH2 0x361 SWAP3 PUSH2 0x358 PUSH1 0x40 MLOAD SWAP1 JUMP JUMPDEST SWAP4 DUP5 DUP1 SWAP3 PUSH2 0x300 JUMP JUMPDEST SUB DUP4 PUSH2 0x320 JUMP JUMPDEST SWAP1 PUSH1 0x0 LT PUSH2 0x379 JUMPI PUSH2 0x1E2 SWAP1 PUSH2 0x347 JUMP JUMPDEST PUSH2 0x226 JUMP JUMPDEST PUSH2 0x1E2 PUSH1 0x0 DUP1 PUSH2 0x368 JUMP JUMPDEST PUSH1 0x0 JUMPDEST DUP4 DUP2 LT PUSH2 0x39C JUMPI POP POP PUSH1 0x0 SWAP2 ADD MSTORE JUMP JUMPDEST DUP2 DUP2 ADD MLOAD DUP4 DUP3 ADD MSTORE PUSH1 0x20 ADD PUSH2 0x38C JUMP JUMPDEST PUSH2 0x3CD PUSH2 0x3D6 PUSH1 0x20 SWAP4 PUSH2 0x3E0 SWAP4 PUSH2 0x3C1 DUP2 MLOAD SWAP1 JUMP JUMPDEST DUP1 DUP4 MSTORE SWAP4 DUP5 SWAP3 PUSH1 0x20 ADD SWAP1 JUMP JUMPDEST SWAP6 DUP7 SWAP2 ADD PUSH2 0x389 JUMP JUMPDEST PUSH1 0x1F ADD PUSH1 0x1F NOT AND SWAP1 JUMP JUMPDEST ADD SWAP1 JUMP JUMPDEST PUSH1 0x20 DUP1 DUP3 MSTORE PUSH2 0x1E2 SWAP3 SWAP2 ADD SWAP1 PUSH2 0x3AC JUMP JUMPDEST CALLVALUE PUSH2 0x1BA JUMPI PUSH2 0x405 CALLDATASIZE PUSH1 0x4 PUSH2 0x21B JUMP JUMPDEST PUSH2 0x217 PUSH2 0x410 PUSH2 0x37E JUMP JUMPDEST PUSH1 0x40 MLOAD SWAP2 DUP3 SWAP2 DUP3 PUSH2 0x3E4 JUMP JUMPDEST DUP1 PUSH2 0x1B3 JUMP JUMPDEST SWAP1 POP CALLDATALOAD SWAP1 PUSH2 0x1CC DUP3 PUSH2 0x41C JUMP JUMPDEST SWAP1 PUSH1 0x20 DUP3 DUP3 SUB SLT PUSH2 0x1BA JUMPI PUSH2 0x1E2 SWAP2 PUSH2 0x422 JUMP JUMPDEST PUSH2 0x1E2 PUSH2 0x1E2 PUSH2 0x1E2 SWAP3 SWAP1 JUMP JUMPDEST SWAP1 PUSH2 0x45A SWAP1 PUSH2 0x443 JUMP JUMPDEST PUSH1 0x0 MSTORE PUSH1 0x20 MSTORE PUSH1 0x40 PUSH1 0x0 KECCAK256 SWAP1 JUMP JUMPDEST PUSH2 0x1E2 SWAP2 PUSH1 0x8 MUL SHR JUMPDEST PUSH20 0xFFFFFFFFFFFFFFFFFFFFFFFFFFFFFFFFFFFFFFFF AND SWAP1 JUMP JUMPDEST SWAP1 PUSH2 0x1E2 SWAP2 SLOAD PUSH2 0x468 JUMP JUMPDEST PUSH2 0x1E2 SWAP1 PUSH2 0x4A7 PUSH1 0x4 SWAP2 PUSH1 0x0 SWAP3 PUSH2 0x450 JUMP JUMPDEST PUSH2 0x48A JUMP JUMPDEST PUSH2 0x1E5 SWAP1 PUSH2 0x471 JUMP JUMPDEST PUSH1 0x20 DUP2 ADD SWAP3 SWAP2 PUSH2 0x1CC SWAP2 SWAP1 PUSH2 0x4AC JUMP JUMPDEST CALLVALUE PUSH2 0x1BA JUMPI PUSH2 0x217 PUSH2 0x4E0 PUSH2 0x4DB CALLDATASIZE PUSH1 0x4 PUSH2 0x42F JUMP JUMPDEST PUSH2 0x495 JUMP JUMPDEST PUSH1 0x40 MLOAD SWAP2 DUP3 SWAP2 DUP3 PUSH2 0x4B5 JUMP JUMPDEST PUSH2 0x1B3 DUP2 PUSH2 0x471 JUMP JUMPDEST SWAP1 POP CALLDATALOAD SWAP1 PUSH2 0x1CC DUP3 PUSH2 0x4EC JUMP JUMPDEST SWAP2 SWAP1 PUSH1 0x40 DUP4 DUP3 SUB SLT PUSH2 0x1BA JUMPI PUSH2 0x1E2 SWAP1 PUSH2 0x51C DUP2 DUP6 PUSH2 0x4F5 JUMP JUMPDEST SWAP4 PUSH1 0x20 ADD PUSH2 0x422 JUMP JUMPDEST CALLVALUE PUSH2 0x1BA JUMPI PUSH2 0x53E PUSH2 0x538 CALLDATASIZE PUSH1 0x4 PUSH2 0x502 JUMP JUMPDEST SWAP1 PUSH2 0x1640 JUMP JUMPDEST PUSH1 0x40 MLOAD STOP JUMPDEST PUSH2 0x1E2 PUSH1 0x0 PUSH1 0x9 PUSH2 0x368 JUMP JUMPDEST CALLVALUE PUSH2 0x1BA JUMPI PUSH2 0x55F CALLDATASIZE PUSH1 0x4 PUSH2 0x21B JUMP JUMPDEST PUSH2 0x217 PUSH2 0x410 PUSH2 0x543 JUMP JUMPDEST PUSH2 0x1E2 PUSH1 0x0 PUSH1 0xA PUSH2 0x368 JUMP JUMPDEST CALLVALUE PUSH2 0x1BA JUMPI PUSH2 0x586 CALLDATASIZE PUSH1 0x4 PUSH2 0x21B JUMP JUMPDEST PUSH2 0x217 PUSH2 0x410 PUSH2 0x56A JUMP JUMPDEST SWAP1 SWAP2 PUSH1 0x60 DUP3 DUP5 SUB SLT PUSH2 0x1BA JUMPI PUSH2 0x1E2 PUSH2 0x5AA DUP5 DUP5 PUSH2 0x4F5 JUMP JUMPDEST SWAP4 PUSH2 0x5B8 DUP2 PUSH1 0x20 DUP7 ADD PUSH2 0x4F5 JUMP JUMPDEST SWAP4 PUSH1 0x40 ADD PUSH2 0x422 JUMP JUMPDEST CALLVALUE PUSH2 0x1BA JUMPI PUSH2 0x53E PUSH2 0x5D4 CALLDATASIZE PUSH1 0x4 PUSH2 0x591 JUMP JUMPDEST SWAP2 PUSH2 0x120E JUMP JUMPDEST PUSH2 0x1E2 PUSH1 0x0 PUSH1 0x8 PUSH2 0x368 JUMP JUMPDEST CALLVALUE PUSH2 0x1BA JUMPI PUSH2 0x5F6 CALLDATASIZE PUSH1 0x4 PUSH2 0x21B JUMP JUMPDEST PUSH2 0x217 PUSH2 0x410 PUSH2 0x5DA JUMP JUMPDEST CALLVALUE PUSH2 0x1BA JUMPI PUSH2 0x53E PUSH2 0x614 CALLDATASIZE PUSH1 0x4 PUSH2 0x502 JUMP JUMPDEST SWAP1 PUSH2 0xDF3 JUMP JUMPDEST CALLVALUE PUSH2 0x1BA JUMPI PUSH2 0x53E PUSH2 0x62D CALLDATASIZE PUSH1 0x4 PUSH2 0x591 JUMP JUMPDEST SWAP2 PUSH2 0x17F1 JUMP JUMPDEST CALLVALUE PUSH2 0x1BA JUMPI PUSH2 0x53E PUSH2 0x646 CALLDATASIZE PUSH1 0x4 PUSH2 0x42F JUMP JUMPDEST PUSH2 0xE6E JUMP JUMPDEST SWAP1 PUSH2 0x1CC PUSH2 0x658 PUSH1 0x40 MLOAD SWAP1 JUMP JUMPDEST SWAP3 DUP4 PUSH2 0x320 JUMP JUMPDEST PUSH8 0xFFFFFFFFFFFFFFFF DUP2 GT PUSH2 0x342 JUMPI PUSH1 0x20 SWAP1 PUSH1 0x1F ADD PUSH1 0x1F NOT AND ADD SWAP1 JUMP JUMPDEST SWAP1 DUP3 PUSH1 0x0 SWAP4 SWAP3 DUP3 CALLDATACOPY ADD MSTORE JUMP JUMPDEST SWAP1 SWAP3 SWAP2 SWAP3 PUSH2 0x69D PUSH2 0x698 DUP3 PUSH2 0x65F JUMP JUMPDEST PUSH2 0x64B JUMP JUMPDEST SWAP4 DUP2 DUP6 MSTORE PUSH1 0x20 DUP6 ADD SWAP1 DUP3 DUP5 ADD GT PUSH2 0x1BA JUMPI PUSH2 0x1CC SWAP3 PUSH2 0x67C JUMP JUMPDEST SWAP1 DUP1 PUSH1 0x1F DUP4 ADD SLT ISZERO PUSH2 0x1BA JUMPI DUP2 PUSH1 0x20 PUSH2 0x1E2 SWAP4 CALLDATALOAD SWAP2 ADD PUSH2 0x688 JUMP JUMPDEST SWAP1 PUSH1 0x20 DUP3 DUP3 SUB SLT PUSH2 0x1BA JUMPI DUP2 CALLDATALOAD PUSH8 0xFFFFFFFFFFFFFFFF DUP2 GT PUSH2 0x1BA JUMPI PUSH2 0x1E2 SWAP3 ADD PUSH2 0x6B7 JUMP JUMPDEST CALLVALUE PUSH2 0x1BA JUMPI PUSH2 0x53E PUSH2 0x70B CALLDATASIZE PUSH1 0x4 PUSH2 0x6D2 JUMP JUMPDEST PUSH2 0xDB3 JUMP JUMPDEST CALLVALUE PUSH2 0x1BA JUMPI PUSH2 0x217 PUSH2 0x4E0 PUSH2 0x726 CALLDATASIZE PUSH1 0x4 PUSH2 0x42F JUMP JUMPDEST PUSH2 0xE95 JUMP JUMPDEST SWAP1 PUSH1 0x20 DUP3 DUP3 SUB SLT PUSH2 0x1BA JUMPI PUSH2 0x1E2 SWAP2 PUSH2 0x4F5 JUMP JUMPDEST CALLVALUE PUSH2 0x1BA JUMPI PUSH2 0x217 PUSH2 0x75A PUSH2 0x755 CALLDATASIZE PUSH1 0x4 PUSH2 0x72B JUMP JUMPDEST PUSH2 0xEC2 JUMP JUMPDEST PUSH1 0x40 MLOAD SWAP2 DUP3 SWAP2 DUP3 SWAP1 DUP2 MSTORE PUSH1 0x20 ADD SWAP1 JUMP JUMPDEST CALLVALUE PUSH2 0x1BA JUMPI PUSH2 0x77A CALLDATASIZE PUSH1 0x4 PUSH2 0x21B JUMP JUMPDEST PUSH2 0x53E PUSH2 0xA70 JUMP JUMPDEST CALLVALUE PUSH2 0x1BA JUMPI PUSH2 0x792 CALLDATASIZE PUSH1 0x4 PUSH2 0x21B JUMP JUMPDEST PUSH2 0x217 PUSH2 0x4E0 PUSH2 0xA2E JUMP JUMPDEST PUSH2 0x1E2 PUSH1 0x0 PUSH1 0x1 PUSH2 0x368 JUMP JUMPDEST CALLVALUE PUSH2 0x1BA JUMPI PUSH2 0x7B9 CALLDATASIZE PUSH1 0x4 PUSH2 0x21B JUMP JUMPDEST PUSH2 0x217 PUSH2 0x410 PUSH2 0x79D JUMP JUMPDEST DUP1 ISZERO ISZERO PUSH2 0x1B3 JUMP JUMPDEST SWAP1 POP CALLDATALOAD SWAP1 PUSH2 0x1CC DUP3 PUSH2 0x7C4 JUMP JUMPDEST SWAP2 SWAP1 PUSH1 0x40 DUP4 DUP3 SUB SLT PUSH2 0x1BA JUMPI PUSH2 0x1E2 SWAP1 PUSH2 0x7F3 DUP2 DUP6 PUSH2 0x4F5 JUMP JUMPDEST SWAP4 PUSH1 0x20 ADD PUSH2 0x7CC JUMP JUMPDEST CALLVALUE PUSH2 0x1BA JUMPI PUSH2 0x53E PUSH2 0x80F CALLDATASIZE PUSH1 0x4 PUSH2 0x7D9 JUMP JUMPDEST SWAP1 PUSH2 0x16F3 JUMP JUMPDEST SWAP1 SWAP2 DUP3 PUSH1 0x1F DUP4 ADD SLT ISZERO PUSH2 0x1BA JUMPI DUP2 CALLDATALOAD SWAP2 PUSH8 0xFFFFFFFFFFFFFFFF DUP4 GT PUSH2 0x1BA JUMPI PUSH1 0x20 ADD SWAP3 PUSH1 0x1 DUP4 MUL DUP5 ADD GT PUSH2 0x1BA JUMPI JUMP JUMPDEST SWAP1 PUSH1 0x80 DUP3 DUP3 SUB SLT PUSH2 0x1BA JUMPI PUSH2 0x85A DUP2 DUP4 PUSH2 0x4F5 JUMP JUMPDEST SWAP3 PUSH2 0x868 DUP3 PUSH1 0x20 DUP6 ADD PUSH2 0x4F5 JUMP JUMPDEST SWAP3 PUSH2 0x876 DUP4 PUSH1 0x40 DUP4 ADD PUSH2 0x422 JUMP JUMPDEST SWAP3 PUSH1 0x60 DUP3 ADD CALLDATALOAD PUSH8 0xFFFFFFFFFFFFFFFF DUP2 GT PUSH2 0x1BA JUMPI PUSH2 0x895 SWAP3 ADD PUSH2 0x815 JUMP JUMPDEST SWAP1 SWAP2 JUMP JUMPDEST CALLVALUE PUSH2 0x1BA JUMPI PUSH2 0x53E PUSH2 0x8AC CALLDATASIZE PUSH1 0x4 PUSH2 0x845 JUMP JUMPDEST SWAP4 SWAP3 SWAP1 SWAP3 PUSH2 0x190D JUMP JUMPDEST CALLVALUE PUSH2 0x1BA JUMPI PUSH2 0x53E PUSH2 0x8C8 CALLDATASIZE PUSH1 0x4 PUSH2 0x6D2 JUMP JUMPDEST PUSH2 0xD93 JUMP JUMPDEST PUSH2 0x1E2 PUSH1 0x0 PUSH1 0x7 PUSH2 0x48A JUMP JUMPDEST PUSH2 0x471 PUSH2 0x1E2 PUSH2 0x1E2 SWAP3 PUSH20 0xFFFFFFFFFFFFFFFFFFFFFFFFFFFFFFFFFFFFFFFF AND SWAP1 JUMP JUMPDEST PUSH2 0x1E2 SWAP1 PUSH2 0x8D9 JUMP JUMPDEST PUSH2 0x1E2 SWAP1 PUSH2 0x8FC JUMP JUMPDEST PUSH2 0x1E5 SWAP1 PUSH2 0x905 JUMP JUMPDEST PUSH1 0x20 DUP2 ADD SWAP3 SWAP2 PUSH2 0x1CC SWAP2 SWAP1 PUSH2 0x90E JUMP JUMPDEST CALLVALUE PUSH2 0x1BA JUMPI PUSH2 0x937 CALLDATASIZE PUSH1 0x4 PUSH2 0x21B JUMP JUMPDEST PUSH2 0x217 PUSH2 0x942 PUSH2 0x8CD JUMP JUMPDEST PUSH1 0x40 MLOAD SWAP2 DUP3 SWAP2 DUP3 PUSH2 0x917 JUMP JUMPDEST CALLVALUE PUSH2 0x1BA JUMPI PUSH2 0x53E PUSH2 0x961 CALLDATASIZE PUSH1 0x4 PUSH2 0x6D2 JUMP JUMPDEST PUSH2 0xDD3 JUMP JUMPDEST CALLVALUE PUSH2 0x1BA JUMPI PUSH2 0x217 PUSH2 0x410 PUSH2 0x97C CALLDATASIZE PUSH1 0x4 PUSH2 0x42F JUMP JUMPDEST PUSH2 0xF73 JUMP JUMPDEST SWAP2 SWAP1 PUSH1 0x40 DUP4 DUP3 SUB SLT PUSH2 0x1BA JUMPI PUSH2 0x1E2 SWAP1 PUSH2 0x99B DUP2 DUP6 PUSH2 0x4F5 JUMP JUMPDEST SWAP4 PUSH1 0x20 ADD PUSH2 0x4F5 JUMP JUMPDEST SWAP1 PUSH2 0x45A SWAP1 PUSH2 0x905 JUMP JUMPDEST PUSH2 0x1E2 SWAP2 PUSH1 0x8 MUL SHR JUMPDEST PUSH1 0xFF AND SWAP1 JUMP JUMPDEST SWAP1 PUSH2 0x1E2 SWAP2 SLOAD PUSH2 0x9AE JUMP JUMPDEST PUSH2 0x9E2 PUSH2 0x1E2 SWAP3 PUSH2 0x9DD PUSH1 0x5 SWAP4 PUSH1 0x0 SWAP5 PUSH2 0x9A4 JUMP JUMPDEST PUSH2 0x9A4 JUMP JUMPDEST PUSH2 0x9BD JUMP JUMPDEST CALLVALUE PUSH2 0x1BA JUMPI PUSH2 0x217 PUSH2 0x204 PUSH2 0x9FD CALLDATASIZE PUSH1 0x4 PUSH2 0x981 JUMP JUMPDEST SWAP1 PUSH2 0x9C8 JUMP JUMPDEST CALLVALUE PUSH2 0x1BA JUMPI PUSH2 0x53E PUSH2 0xA16 CALLDATASIZE PUSH1 0x4 PUSH2 0x72B JUMP JUMPDEST PUSH2 0xB4F JUMP JUMPDEST PUSH2 0x1E2 SWAP1 PUSH2 0x471 JUMP JUMPDEST PUSH2 0x1E2 SWAP1 SLOAD PUSH2 0xA1B JUMP JUMPDEST PUSH2 0x1E2 PUSH1 0x6 PUSH2 0xA24 JUMP JUMPDEST PUSH2 0xA40 PUSH2 0xA78 JUMP JUMPDEST PUSH2 0x1CC PUSH2 0xA5E JUMP JUMPDEST PUSH2 0x471 PUSH2 0x1E2 PUSH2 0x1E2 SWAP3 SWAP1 JUMP JUMPDEST PUSH2 0x1E2 SWAP1 PUSH2 0xA48 JUMP JUMPDEST PUSH2 0x1CC PUSH2 0xA6B PUSH1 0x0 PUSH2 0xA55 JUMP JUMPDEST PUSH2 0xB95 JUMP JUMPDEST PUSH2 0x1CC PUSH2 0xA38 JUMP JUMPDEST PUSH2 0xA80 PUSH2 0xA2E JUMP JUMPDEST CALLER SWAP1 PUSH2 0xA94 PUSH2 0xA8E DUP4 PUSH2 0x471 JUMP JUMPDEST SWAP2 PUSH2 0x471 JUMP JUMPDEST SUB PUSH2 0xA9C JUMPI POP JUMP JUMPDEST PUSH2 0xAD8 SWAP1 PUSH2 0xAA9 PUSH1 0x40 MLOAD SWAP1 JUMP JUMPDEST SWAP2 DUP3 SWAP2 PUSH32 0x118CDAA700000000000000000000000000000000000000000000000000000000 DUP4 MSTORE PUSH1 0x4 DUP4 ADD PUSH2 0x4B5 JUMP JUMPDEST SUB SWAP1 REVERT JUMPDEST PUSH2 0x1CC SWAP1 PUSH2 0xAE8 PUSH2 0xA78 JUMP JUMPDEST PUSH2 0xAF2 PUSH1 0x0 PUSH2 0xA55 JUMP JUMPDEST PUSH2 0xAFB DUP2 PUSH2 0x471 JUMP JUMPDEST PUSH2 0xB04 DUP4 PUSH2 0x471 JUMP JUMPDEST EQ PUSH2 0xB13 JUMPI POP PUSH2 0x1CC SWAP1 PUSH2 0xB95 JUMP JUMPDEST PUSH2 0xAD8 SWAP1 PUSH2 0xB20 PUSH1 0x40 MLOAD SWAP1 JUMP JUMPDEST SWAP2 DUP3 SWAP2 PUSH32 0x1E4FBDF700000000000000000000000000000000000000000000000000000000 DUP4 MSTORE PUSH1 0x4 DUP4 ADD PUSH2 0x4B5 JUMP JUMPDEST PUSH2 0x1CC SWAP1 PUSH2 0xADC JUMP JUMPDEST SWAP1 PUSH20 0xFFFFFFFFFFFFFFFFFFFFFFFFFFFFFFFFFFFFFFFF SWAP1 JUMPDEST SWAP2 DUP2 NOT AND SWAP2 AND OR SWAP1 JUMP JUMPDEST SWAP1 PUSH2 0xB8A PUSH2 0x1E2 PUSH2 0xB91 SWAP3 PUSH2 0x905 JUMP JUMPDEST DUP3 SLOAD PUSH2 0xB58 JUMP JUMPDEST SWAP1 SSTORE JUMP JUMPDEST PUSH2 0xB9F PUSH1 0x6 PUSH2 0xA24 JUMP JUMPDEST SWAP1 PUSH2 0xBAB DUP2 PUSH1 0x6 PUSH2 0xB7A JUMP JUMPDEST PUSH2 0xBDE PUSH2 0xBD8 PUSH32 0x8BE0079C531659141344CD1FD0A4F28419497F9722A3DAAFE3B4186F6B6457E0 SWAP4 PUSH2 0x905 JUMP JUMPDEST SWAP2 PUSH2 0x905 JUMP JUMPDEST SWAP2 PUSH2 0xBE8 PUSH1 0x40 MLOAD SWAP1 JUMP JUMPDEST DUP1 DUP1 JUMPDEST SUB SWAP1 LOG3 JUMP JUMPDEST PUSH2 0x1CC SWAP1 PUSH2 0xBFC PUSH2 0xA78 JUMP JUMPDEST PUSH2 0xD88 JUMP JUMPDEST SWAP2 PUSH1 0x0 NOT PUSH1 0x8 SWAP3 SWAP1 SWAP3 MUL SWAP2 DUP3 SHL SWAP2 SHL PUSH2 0xB70 JUMP JUMPDEST SWAP3 SHL SWAP1 JUMP JUMPDEST SWAP2 SWAP1 PUSH2 0xC2B PUSH2 0x1E2 PUSH2 0xB91 SWAP4 PUSH2 0x443 JUMP JUMPDEST SWAP1 DUP4 SLOAD PUSH2 0xC01 JUMP JUMPDEST PUSH2 0x1CC SWAP2 PUSH1 0x0 SWAP2 PUSH2 0xC1A JUMP JUMPDEST DUP2 DUP2 LT PUSH2 0xC4A JUMPI POP POP JUMP JUMPDEST DUP1 PUSH2 0xC58 PUSH1 0x0 PUSH1 0x1 SWAP4 PUSH2 0xC33 JUMP JUMPDEST ADD PUSH2 0xC3F JUMP JUMPDEST SWAP2 SWAP1 PUSH1 0x1F DUP2 GT PUSH2 0xC6D JUMPI POP POP POP JUMP JUMPDEST PUSH2 0xC7F PUSH2 0x1CC SWAP4 PUSH1 0x0 MSTORE PUSH1 0x20 PUSH1 0x0 KECCAK256 SWAP1 JUMP JUMPDEST SWAP1 PUSH1 0x20 PUSH1 0x1F DUP5 ADD DUP2 SWAP1 DIV DUP4 ADD SWAP4 LT PUSH2 0xCA1 JUMPI JUMPDEST PUSH1 0x20 PUSH1 0x1F SWAP1 SWAP2 ADD DIV ADD SWAP1 PUSH2 0xC3F JUMP JUMPDEST SWAP1 SWAP2 POP DUP2 SWAP1 PUSH2 0xC92 JUMP JUMPDEST SWAP1 PUSH2 0xCB4 DUP2 MLOAD SWAP1 JUMP JUMPDEST SWAP1 PUSH8 0xFFFFFFFFFFFFFFFF DUP3 GT PUSH2 0x342 JUMPI PUSH2 0xCD8 DUP3 PUSH2 0xCD2 DUP6 SLOAD PUSH2 0x252 JUMP JUMPDEST DUP6 PUSH2 0xC5E JUMP JUMPDEST PUSH1 0x20 SWAP1 PUSH1 0x1F DUP4 GT PUSH1 0x1 EQ PUSH2 0xD13 JUMPI PUSH2 0xB91 SWAP3 SWAP2 PUSH1 0x0 SWAP2 DUP4 PUSH2 0xD08 JUMPI JUMPDEST POP POP PUSH1 0x0 NOT PUSH1 0x8 DUP4 MUL SHR NOT AND SWAP1 PUSH1 0x2 MUL OR SWAP1 JUMP JUMPDEST ADD MLOAD SWAP1 POP CODESIZE DUP1 PUSH2 0xCF4 JUMP JUMPDEST PUSH1 0x1F NOT DUP4 AND SWAP2 PUSH2 0xD28 DUP6 PUSH1 0x0 MSTORE PUSH1 0x20 PUSH1 0x0 KECCAK256 SWAP1 JUMP JUMPDEST SWAP3 PUSH1 0x0 JUMPDEST DUP2 DUP2 LT PUSH2 0xD66 JUMPI POP SWAP2 PUSH1 0x2 SWAP4 SWAP2 DUP6 PUSH1 0x1 SWAP7 SWAP5 LT PUSH2 0xD4D JUMPI JUMPDEST POP POP POP MUL ADD SWAP1 SSTORE JUMP JUMPDEST ADD MLOAD PUSH1 0x0 NOT PUSH1 0x8 PUSH1 0x1F DUP6 AND MUL SHR NOT AND SWAP1 SSTORE CODESIZE DUP1 DUP1 PUSH2 0xD44 JUMP JUMPDEST SWAP2 SWAP4 PUSH1 0x20 PUSH1 0x1 DUP2 SWAP3 DUP8 DUP8 ADD MLOAD DUP2 SSTORE ADD SWAP6 ADD SWAP3 ADD PUSH2 0xD2C JUMP JUMPDEST SWAP1 PUSH2 0x1CC SWAP2 PUSH2 0xCAB JUMP JUMPDEST PUSH2 0x1CC SWAP1 PUSH1 0x8 PUSH2 0xD7E JUMP JUMPDEST PUSH2 0x1CC SWAP1 PUSH2 0xBF0 JUMP JUMPDEST PUSH2 0x1CC SWAP1 PUSH2 0xDA8 PUSH2 0xA78 JUMP JUMPDEST PUSH2 0x1CC SWAP1 PUSH1 0x9 PUSH2 0xD7E JUMP JUMPDEST PUSH2 0x1CC SWAP1 PUSH2 0xD9C JUMP JUMPDEST PUSH2 0x1CC SWAP1 PUSH2 0xDC8 PUSH2 0xA78 JUMP JUMPDEST PUSH2 0x1CC SWAP1 PUSH1 0xA PUSH2 0xD7E JUMP JUMPDEST PUSH2 0x1CC SWAP1 PUSH2 0xDBC JUMP JUMPDEST SWAP1 PUSH2 0x1CC SWAP2 PUSH2 0xDE9 PUSH2 0xA78 JUMP JUMPDEST SWAP1 PUSH2 0x1CC SWAP2 PUSH2 0x1B82 JUMP JUMPDEST SWAP1 PUSH2 0x1CC SWAP2 PUSH2 0xDDC JUMP JUMPDEST ISZERO PUSH2 0xE04 JUMPI JUMP JUMPDEST PUSH1 0x40 MLOAD PUSH3 0x461BCD PUSH1 0xE5 SHL DUP2 MSTORE PUSH1 0x20 PUSH1 0x4 DUP3 ADD MSTORE PUSH1 0x24 DUP1 DUP3 ADD MSTORE PUSH32 0x4B6574746C6541737365743A2063616C6C6572206973206E6F7420746865206F PUSH1 0x44 DUP3 ADD MSTORE PUSH32 0x776E657200000000000000000000000000000000000000000000000000000000 PUSH1 0x64 DUP3 ADD MSTORE PUSH1 0x84 SWAP1 REVERT JUMPDEST PUSH2 0x1CC SWAP1 PUSH2 0xE90 CALLER PUSH2 0xE8A PUSH2 0xA8E PUSH2 0xE85 DUP6 PUSH2 0xE95 JUMP JUMPDEST PUSH2 0x471 JUMP JUMPDEST EQ PUSH2 0xDFD JUMP JUMPDEST PUSH2 0x1AF0 JUMP JUMPDEST PUSH2 0xEAC PUSH2 0x1E2 SWAP2 PUSH2 0xEA4 PUSH1 0x0 SWAP1 JUMP JUMPDEST POP PUSH1 0x2 PUSH2 0x450 JUMP JUMPDEST PUSH2 0xA24 JUMP JUMPDEST PUSH2 0x1E2 SWAP1 DUP2 JUMP JUMPDEST PUSH2 0x1E2 SWAP1 SLOAD PUSH2 0xEB1 JUMP JUMPDEST PUSH2 0xED9 PUSH2 0x1E2 SWAP2 PUSH2 0xED1 PUSH1 0x0 SWAP1 JUMP JUMPDEST POP PUSH1 0x3 PUSH2 0x9A4 JUMP JUMPDEST PUSH2 0xEB8 JUMP JUMPDEST SWAP1 SWAP3 SWAP2 SWAP3 PUSH2 0xEEE PUSH2 0x698 DUP3 PUSH2 0x65F JUMP JUMPDEST SWAP4 DUP2 DUP6 MSTORE PUSH1 0x20 DUP6 ADD SWAP1 DUP3 DUP5 ADD GT PUSH2 0x1BA JUMPI PUSH2 0x1CC SWAP3 PUSH2 0x389 JUMP JUMPDEST SWAP1 DUP1 PUSH1 0x1F DUP4 ADD SLT ISZERO PUSH2 0x1BA JUMPI DUP2 MLOAD PUSH2 0x1E2 SWAP3 PUSH1 0x20 ADD PUSH2 0xEDE JUMP JUMPDEST SWAP1 PUSH1 0x20 DUP3 DUP3 SUB SLT PUSH2 0x1BA JUMPI DUP2 MLOAD PUSH8 0xFFFFFFFFFFFFFFFF DUP2 GT PUSH2 0x1BA JUMPI PUSH2 0x1E2 SWAP3 ADD PUSH2 0xF08 JUMP JUMPDEST SWAP2 PUSH1 0x20 PUSH2 0x1CC SWAP3 SWAP5 SWAP4 PUSH2 0xF63 PUSH1 0x40 DUP3 ADD SWAP7 PUSH1 0x0 DUP4 ADD SWAP1 PUSH2 0x4AC JUMP JUMPDEST ADD MSTORE JUMP JUMPDEST PUSH1 0x40 MLOAD RETURNDATASIZE PUSH1 0x0 DUP3 RETURNDATACOPY RETURNDATASIZE SWAP1 REVERT JUMPDEST PUSH1 0x0 PUSH2 0xF87 PUSH2 0xF82 PUSH1 0x7 PUSH2 0xA24 JUMP JUMPDEST PUSH2 0x905 JUMP JUMPDEST PUSH4 0xE9DC6375 SWAP1 PUSH2 0xFB3 PUSH2 0xF99 ADDRESS PUSH2 0x905 JUMP JUMPDEST SWAP3 PUSH2 0xFBE PUSH2 0xFA6 PUSH1 0x40 MLOAD SWAP1 JUMP JUMPDEST SWAP7 DUP8 SWAP6 DUP7 SWAP5 DUP6 SWAP5 PUSH1 0xE0 SHL SWAP1 JUMP JUMPDEST DUP5 MSTORE PUSH1 0x4 DUP5 ADD PUSH2 0xF48 JUMP JUMPDEST SUB SWAP2 GAS STATICCALL SWAP1 DUP2 ISZERO PUSH2 0xFEF JUMPI PUSH1 0x0 SWAP2 PUSH2 0xFD4 JUMPI POP SWAP1 JUMP JUMPDEST PUSH2 0x1E2 SWAP2 RETURNDATASIZE DUP1 SWAP2 DUP4 RETURNDATACOPY PUSH2 0xFE7 DUP2 DUP4 PUSH2 0x320 JUMP JUMPDEST DUP2 ADD SWAP1 PUSH2 0xF22 JUMP JUMPDEST PUSH2 0xF67 JUMP JUMPDEST ISZERO PUSH2 0xFFB JUMPI JUMP JUMPDEST PUSH1 0x40 MLOAD PUSH3 0x461BCD PUSH1 0xE5 SHL DUP2 MSTORE PUSH1 0x20 PUSH1 0x4 DUP3 ADD MSTORE PUSH1 0xA PUSH1 0x24 DUP3 ADD MSTORE PUSH32 0x57524F4E475F46524F4D00000000000000000000000000000000000000000000 PUSH1 0x44 DUP3 ADD MSTORE PUSH1 0x64 SWAP1 REVERT JUMPDEST ISZERO PUSH2 0x1047 JUMPI JUMP JUMPDEST PUSH1 0x40 MLOAD PUSH3 0x461BCD PUSH1 0xE5 SHL DUP2 MSTORE PUSH1 0x20 PUSH1 0x4 DUP3 ADD MSTORE PUSH1 0x11 PUSH1 0x24 DUP3 ADD MSTORE PUSH32 0x494E56414C49445F524543495049454E54000000000000000000000000000000 PUSH1 0x44 DUP3 ADD MSTORE PUSH1 0x64 SWAP1 REVERT JUMPDEST SWAP1 POP MLOAD SWAP1 PUSH2 0x1CC DUP3 PUSH2 0x7C4 JUMP JUMPDEST SWAP1 PUSH1 0x20 DUP3 DUP3 SUB SLT PUSH2 0x1BA JUMPI PUSH2 0x1E2 SWAP2 PUSH2 0x108C JUMP JUMPDEST ISZERO PUSH2 0x10B4 JUMPI JUMP JUMPDEST PUSH1 0x40 MLOAD PUSH3 0x461BCD PUSH1 0xE5 SHL DUP2 MSTORE PUSH1 0x20 PUSH1 0x4 DUP3 ADD MSTORE PUSH1 0xF PUSH1 0x24 DUP3 ADD MSTORE PUSH32 0x434F4E54524143545F4C4F434B45440000000000000000000000000000000000 PUSH1 0x44 DUP3 ADD MSTORE PUSH1 0x64 SWAP1 REVERT JUMPDEST ISZERO PUSH2 0x1100 JUMPI JUMP JUMPDEST PUSH1 0x40 MLOAD PUSH3 0x461BCD PUSH1 0xE5 SHL DUP2 MSTORE PUSH1 0x20 PUSH1 0x4 DUP3 ADD MSTORE PUSH1 0xC PUSH1 0x24 DUP3 ADD MSTORE PUSH32 0x544F4B454E5F4C4F434B45440000000000000000000000000000000000000000 PUSH1 0x44 DUP3 ADD MSTORE PUSH1 0x64 SWAP1 REVERT JUMPDEST PUSH2 0xF63 PUSH2 0x1CC SWAP5 PUSH2 0x1171 PUSH1 0x60 SWAP5 SWAP9 SWAP8 SWAP6 PUSH2 0x1167 PUSH1 0x80 DUP7 ADD SWAP11 PUSH1 0x0 DUP8 ADD SWAP1 PUSH2 0x4AC JUMP JUMPDEST PUSH1 0x20 DUP6 ADD SWAP1 PUSH2 0x4AC JUMP JUMPDEST PUSH1 0x40 DUP4 ADD SWAP1 PUSH2 0x4AC JUMP JUMPDEST ISZERO PUSH2 0x1182 JUMPI JUMP JUMPDEST PUSH1 0x40 MLOAD PUSH3 0x461BCD PUSH1 0xE5 SHL DUP2 MSTORE PUSH1 0x20 PUSH1 0x4 DUP3 ADD MSTORE PUSH1 0x23 PUSH1 0x24 DUP3 ADD MSTORE PUSH32 0x4E4F545F415554484F52495A45445F4F50455241544F525F4F525F5452414E53 PUSH1 0x44 DUP3 ADD MSTORE PUSH32 0x4645520000000000000000000000000000000000000000000000000000000000 PUSH1 0x64 DUP3 ADD MSTORE PUSH1 0x84 SWAP1 REVERT JUMPDEST SWAP1 PUSH1 0x0 NOT SWAP1 PUSH2 0xB70 JUMP JUMPDEST SWAP1 PUSH2 0x1207 PUSH2 0x1E2 PUSH2 0xB91 SWAP3 PUSH2 0x443 JUMP JUMPDEST DUP3 SLOAD PUSH2 0x11ED JUMP JUMPDEST SWAP2 SWAP1 PUSH1 0x2 PUSH2 0x1234 PUSH2 0x1225 PUSH2 0xE85 PUSH2 0xEAC DUP7 DUP6 PUSH2 0x450 JUMP JUMPDEST PUSH2 0x122E DUP7 PUSH2 0x471 JUMP JUMPDEST EQ PUSH2 0xFF4 JUMP JUMPDEST PUSH1 0x0 SWAP1 PUSH2 0x1256 PUSH2 0x1246 PUSH2 0xE85 DUP5 PUSH2 0xA55 JUMP JUMPDEST PUSH2 0x124F DUP6 PUSH2 0x471 JUMP JUMPDEST EQ ISZERO PUSH2 0x1040 JUMP JUMPDEST PUSH2 0x1263 PUSH2 0xF82 PUSH1 0x7 PUSH2 0xA24 JUMP JUMPDEST SWAP1 PUSH2 0x128A PUSH1 0x20 PUSH4 0xD41D4174 PUSH2 0x1277 ADDRESS PUSH2 0x905 JUMP JUMPDEST SWAP5 PUSH2 0x1281 PUSH1 0x40 MLOAD SWAP1 JUMP JUMPDEST SWAP4 DUP5 SWAP3 PUSH1 0xE0 SHL SWAP1 JUMP JUMPDEST DUP3 MSTORE DUP2 DUP1 PUSH2 0x129B DUP9 PUSH1 0x4 DUP4 ADD PUSH2 0x4B5 JUMP JUMPDEST SUB SWAP2 GAS STATICCALL SWAP1 DUP2 ISZERO PUSH2 0xFEF JUMPI PUSH2 0x12BF SWAP2 PUSH2 0x12BA SWAP2 PUSH1 0x0 SWAP2 PUSH2 0x15C5 JUMPI POP ISZERO SWAP1 JUMP JUMPDEST PUSH2 0x10AD JUMP JUMPDEST PUSH2 0x12E0 PUSH1 0x20 PUSH2 0x12D1 PUSH2 0xF82 PUSH1 0x7 PUSH2 0xA24 JUMP JUMPDEST PUSH4 0x53719B6E SWAP1 PUSH2 0x1281 PUSH1 0x40 MLOAD SWAP1 JUMP JUMPDEST DUP3 MSTORE DUP2 DUP1 PUSH2 0x12F2 DUP12 DUP10 PUSH1 0x4 DUP5 ADD PUSH2 0xF48 JUMP JUMPDEST SUB SWAP2 GAS STATICCALL SWAP1 DUP2 ISZERO PUSH2 0xFEF JUMPI PUSH2 0x1316 SWAP2 PUSH2 0x1311 SWAP2 PUSH1 0x0 SWAP2 PUSH2 0x15C5 JUMPI POP ISZERO SWAP1 JUMP JUMPDEST PUSH2 0x10F9 JUMP JUMPDEST PUSH2 0x1354 PUSH1 0x20 PUSH2 0x1328 PUSH2 0xF82 PUSH1 0x7 PUSH2 0xA24 JUMP JUMPDEST PUSH4 0x13E7C9D8 SWAP1 PUSH2 0x1349 CALLER SWAP3 PUSH2 0x133C PUSH1 0x40 MLOAD SWAP1 JUMP JUMPDEST SWAP6 DUP7 SWAP5 DUP6 SWAP4 DUP5 SWAP4 PUSH1 0xE0 SHL SWAP1 JUMP JUMPDEST DUP4 MSTORE PUSH1 0x4 DUP4 ADD PUSH2 0x4B5 JUMP JUMPDEST SUB SWAP2 GAS STATICCALL SWAP1 DUP2 ISZERO PUSH2 0xFEF JUMPI DUP6 SWAP2 DUP8 SWAP2 PUSH1 0x0 SWAP2 PUSH2 0x15A7 JUMPI JUMPDEST POP DUP1 ISZERO PUSH2 0x1517 JUMPI JUMPDEST SWAP1 PUSH2 0x13CF SWAP4 PUSH2 0x1384 PUSH2 0x13CA SWAP4 PUSH2 0x117B JUMP JUMPDEST PUSH2 0x13C5 PUSH2 0x13B3 DUP6 PUSH1 0x3 PUSH2 0x9DD PUSH2 0x139A DUP16 DUP4 PUSH2 0x9A4 JUMP JUMPDEST PUSH2 0x13AD PUSH2 0x13A6 DUP3 PUSH2 0xEB8 JUMP JUMPDEST PUSH1 0x0 NOT ADD SWAP1 JUMP JUMPDEST SWAP1 PUSH2 0x11F7 JUMP JUMPDEST PUSH2 0x13AD PUSH2 0x13BF DUP3 PUSH2 0xEB8 JUMP JUMPDEST PUSH1 0x1 ADD SWAP1 JUMP JUMPDEST PUSH2 0x450 JUMP JUMPDEST PUSH2 0xB7A JUMP JUMPDEST PUSH2 0x13DC PUSH2 0xF82 PUSH1 0x7 PUSH2 0xA24 JUMP JUMPDEST PUSH4 0x913874B7 SWAP1 DUP1 EXTCODESIZE ISZERO PUSH2 0x1BA JUMPI DUP7 DUP5 SWAP2 PUSH2 0x140C DUP4 DUP9 SWAP6 PUSH2 0x1418 DUP12 PUSH2 0x13FF PUSH1 0x40 MLOAD SWAP1 JUMP JUMPDEST SWAP9 DUP10 SWAP8 DUP9 SWAP7 DUP8 SWAP6 PUSH1 0xE0 SHL SWAP1 JUMP JUMPDEST DUP6 MSTORE DUP12 PUSH1 0x4 DUP7 ADD PUSH2 0x1145 JUMP JUMPDEST SUB SWAP3 GAS CALL DUP1 ISZERO PUSH2 0xFEF JUMPI PUSH2 0x14FB JUMPI JUMPDEST POP PUSH2 0x1435 PUSH2 0xF82 PUSH1 0x7 PUSH2 0xA24 JUMP JUMPDEST SWAP1 PUSH4 0x7DF0056 SWAP1 DUP3 EXTCODESIZE ISZERO PUSH2 0x1BA JUMPI DUP7 SWAP3 PUSH2 0x1466 DUP6 DUP1 SWAP5 PUSH2 0x1471 DUP11 DUP11 PUSH2 0x1459 PUSH1 0x40 MLOAD SWAP1 JUMP JUMPDEST SWAP10 DUP11 SWAP9 DUP10 SWAP8 DUP9 SWAP7 PUSH1 0xE0 SHL SWAP1 JUMP JUMPDEST DUP7 MSTORE PUSH1 0x4 DUP7 ADD PUSH2 0x1145 JUMP JUMPDEST SUB SWAP3 GAS CALL DUP1 ISZERO PUSH2 0xFEF JUMPI PUSH2 0x14CE JUMPI JUMPDEST POP POP PUSH2 0x14BE PUSH2 0x14B8 PUSH2 0x14B2 PUSH32 0xDDF252AD1BE2C89B69C2B068FC378DAA952BA7F163C4A11628F55A4DF523B3EF SWAP6 PUSH2 0x905 JUMP JUMPDEST SWAP3 PUSH2 0x905 JUMP JUMPDEST SWAP3 PUSH2 0x443 JUMP JUMPDEST SWAP3 PUSH2 0x14C8 PUSH1 0x40 MLOAD SWAP1 JUMP JUMPDEST PUSH1 0x0 SWAP1 LOG4 JUMP JUMPDEST DUP2 PUSH2 0x14ED SWAP3 SWAP1 RETURNDATASIZE LT PUSH2 0x14F4 JUMPI JUMPDEST PUSH2 0x14E5 DUP2 DUP4 PUSH2 0x320 JUMP JUMPDEST DUP2 ADD SWAP1 PUSH2 0x21B JUMP JUMPDEST CODESIZE DUP1 PUSH2 0x1480 JUMP JUMPDEST POP RETURNDATASIZE PUSH2 0x14DB JUMP JUMPDEST PUSH2 0x1511 SWAP1 DUP4 RETURNDATASIZE DUP6 GT PUSH2 0x14F4 JUMPI PUSH2 0x14E5 DUP2 DUP4 PUSH2 0x320 JUMP JUMPDEST CODESIZE PUSH2 0x1427 JUMP JUMPDEST POP POP SWAP1 PUSH1 0x20 DUP8 PUSH2 0x152A PUSH2 0xF82 PUSH1 0x7 PUSH2 0xA24 JUMP JUMPDEST PUSH2 0x140C PUSH4 0xC583FCEC PUSH2 0x154C DUP12 PUSH2 0x153F PUSH1 0x40 MLOAD SWAP1 JUMP JUMPDEST SWAP9 DUP10 SWAP7 DUP8 SWAP6 DUP7 SWAP6 PUSH1 0xE0 SHL SWAP1 JUMP JUMPDEST SUB SWAP2 GAS STATICCALL SWAP2 DUP3 ISZERO PUSH2 0xFEF JUMPI DUP7 DUP7 SWAP3 PUSH2 0x1384 PUSH2 0x13CF SWAP6 PUSH2 0x13CA SWAP5 PUSH1 0x0 SWAP2 PUSH2 0x1579 JUMPI JUMPDEST POP SWAP3 SWAP4 POP POP SWAP4 POP PUSH2 0x1373 JUMP JUMPDEST PUSH2 0x159A SWAP2 POP PUSH1 0x20 RETURNDATASIZE DUP2 GT PUSH2 0x15A0 JUMPI JUMPDEST PUSH2 0x1592 DUP2 DUP4 PUSH2 0x320 JUMP JUMPDEST DUP2 ADD SWAP1 PUSH2 0x1099 JUMP JUMPDEST CODESIZE PUSH2 0x156D JUMP JUMPDEST POP RETURNDATASIZE PUSH2 0x1588 JUMP JUMPDEST PUSH2 0x15BF SWAP2 POP PUSH1 0x20 RETURNDATASIZE DUP2 GT PUSH2 0x15A0 JUMPI PUSH2 0x1592 DUP2 DUP4 PUSH2 0x320 JUMP JUMPDEST CODESIZE PUSH2 0x136B JUMP JUMPDEST PUSH2 0x15DD SWAP2 POP PUSH1 0x20 RETURNDATASIZE DUP2 GT PUSH2 0x15A0 JUMPI PUSH2 0x1592 DUP2 DUP4 PUSH2 0x320 JUMP JUMPDEST ISZERO SWAP1 JUMP JUMPDEST PUSH2 0x1E2 SWAP1 PUSH2 0x9B7 JUMP JUMPDEST PUSH2 0x1E2 SWAP1 SLOAD PUSH2 0x15E1 JUMP JUMPDEST ISZERO PUSH2 0x15FB JUMPI JUMP JUMPDEST PUSH1 0x40 MLOAD PUSH3 0x461BCD PUSH1 0xE5 SHL DUP2 MSTORE PUSH1 0x20 PUSH1 0x4 DUP3 ADD MSTORE PUSH1 0xE PUSH1 0x24 DUP3 ADD MSTORE PUSH32 0x4E4F545F415554484F52495A4544000000000000000000000000000000000000 PUSH1 0x44 DUP3 ADD MSTORE PUSH1 0x64 SWAP1 REVERT JUMPDEST SWAP1 PUSH2 0x164F PUSH2 0xEAC DUP3 PUSH1 0x2 PUSH2 0x450 JUMP JUMPDEST SWAP2 PUSH2 0x1675 CALLER PUSH2 0x165D DUP6 PUSH2 0x471 JUMP JUMPDEST PUSH2 0x1666 DUP3 PUSH2 0x471 JUMP JUMPDEST EQ SWAP1 DUP2 ISZERO PUSH2 0x16B4 JUMPI JUMPDEST POP PUSH2 0x15F4 JUMP JUMPDEST PUSH2 0x1684 DUP2 PUSH2 0x13CA DUP5 PUSH1 0x4 PUSH2 0x450 JUMP JUMPDEST PUSH2 0x14BE PUSH2 0x14B8 PUSH2 0x14B2 PUSH32 0x8C5BE1E5EBEC7D5BD14F71427D1E84F3DD0314C0F7B2291E5B200AC8C7C3B925 SWAP6 PUSH2 0x905 JUMP JUMPDEST PUSH2 0x16CD SWAP2 POP PUSH2 0x16C8 SWAP1 PUSH2 0x9DD DUP8 PUSH1 0x5 PUSH2 0x9A4 JUMP JUMPDEST PUSH2 0x15EA JUMP JUMPDEST CODESIZE PUSH2 0x166F JUMP JUMPDEST SWAP1 PUSH1 0xFF SWAP1 PUSH2 0xB70 JUMP JUMPDEST SWAP1 PUSH2 0x16EC PUSH2 0x1E2 PUSH2 0xB91 SWAP3 ISZERO ISZERO SWAP1 JUMP JUMPDEST DUP3 SLOAD PUSH2 0x16D3 JUMP JUMPDEST CALLER PUSH2 0x170C DUP4 PUSH2 0x1707 DUP5 PUSH2 0x9DD DUP6 PUSH1 0x5 PUSH2 0x9A4 JUMP JUMPDEST PUSH2 0x16DC JUMP JUMPDEST PUSH2 0xBEB PUSH2 0x1742 PUSH2 0x173C PUSH32 0x17307EAB39AB6107E8899845AD3D59BD9653F200F220920489CA2B5937696C31 SWAP4 PUSH2 0x905 JUMP JUMPDEST SWAP4 PUSH2 0x905 JUMP JUMPDEST SWAP4 PUSH2 0x208 PUSH1 0x40 MLOAD SWAP1 JUMP JUMPDEST SWAP1 POP MLOAD SWAP1 PUSH2 0x1CC DUP3 PUSH2 0x1A7 JUMP JUMPDEST SWAP1 PUSH1 0x20 DUP3 DUP3 SUB SLT PUSH2 0x1BA JUMPI PUSH2 0x1E2 SWAP2 PUSH2 0x174C JUMP JUMPDEST SWAP1 SWAP2 PUSH2 0x1E2 SWAP4 PUSH2 0x178C PUSH2 0x1793 SWAP3 PUSH2 0x1167 PUSH1 0x80 DUP7 ADD SWAP7 PUSH1 0x0 DUP8 ADD SWAP1 PUSH2 0x4AC JUMP JUMPDEST PUSH1 0x40 DUP4 ADD MSTORE JUMP JUMPDEST PUSH1 0x60 DUP2 DUP4 SUB SWAP2 ADD MSTORE PUSH1 0x0 DUP2 MSTORE PUSH1 0x20 ADD SWAP1 JUMP JUMPDEST ISZERO PUSH2 0x17AC JUMPI JUMP JUMPDEST PUSH1 0x40 MLOAD PUSH3 0x461BCD PUSH1 0xE5 SHL DUP2 MSTORE PUSH1 0x20 PUSH1 0x4 DUP3 ADD MSTORE PUSH1 0x10 PUSH1 0x24 DUP3 ADD MSTORE PUSH32 0x554E534146455F524543495049454E5400000000000000000000000000000000 PUSH1 0x44 DUP3 ADD MSTORE PUSH1 0x64 SWAP1 REVERT JUMPDEST SWAP2 PUSH2 0x17FD DUP2 DUP4 DUP6 PUSH2 0x120E JUMP JUMPDEST PUSH1 0x0 DUP3 EXTCODESIZE PUSH2 0x1811 PUSH2 0x180D DUP4 PUSH2 0x443 JUMP JUMPDEST SWAP2 SWAP1 JUMP JUMPDEST EQ SWAP3 DUP4 ISZERO PUSH2 0x1827 JUMPI JUMPDEST POP POP POP PUSH2 0x1CC SWAP2 POP PUSH2 0x17A5 JUMP JUMPDEST PUSH1 0x20 SWAP4 POP PUSH2 0x183A PUSH2 0xF82 PUSH2 0x184E SWAP3 PUSH2 0x905 JUMP JUMPDEST SWAP2 PUSH4 0x150B7A02 PUSH2 0x1859 CALLER SWAP6 PUSH2 0x13FF PUSH1 0x40 MLOAD SWAP1 JUMP JUMPDEST DUP6 MSTORE PUSH1 0x4 DUP6 ADD PUSH2 0x176D JUMP JUMPDEST SUB SWAP3 GAS CALL DUP1 ISZERO PUSH2 0xFEF JUMPI PUSH2 0x1CC SWAP2 PUSH1 0x0 SWAP2 PUSH2 0x1893 JUMPI JUMPDEST POP PUSH2 0x188A PUSH4 0xA85BD01 PUSH1 0xE1 SHL JUMPDEST SWAP2 PUSH1 0x1 PUSH1 0x1 PUSH1 0xE0 SHL SUB NOT AND SWAP1 JUMP JUMPDEST EQ CODESIZE DUP1 DUP1 PUSH2 0x181A JUMP JUMPDEST PUSH2 0x18B4 SWAP2 POP PUSH1 0x20 RETURNDATASIZE DUP2 GT PUSH2 0x18BA JUMPI JUMPDEST PUSH2 0x18AC DUP2 DUP4 PUSH2 0x320 JUMP JUMPDEST DUP2 ADD SWAP1 PUSH2 0x1759 JUMP JUMPDEST CODESIZE PUSH2 0x186F JUMP JUMPDEST POP RETURNDATASIZE PUSH2 0x18A2 JUMP JUMPDEST SWAP2 SWAP1 PUSH2 0x3D6 DUP2 PUSH2 0x18D8 DUP2 PUSH2 0x3E0 SWAP6 PUSH1 0x20 SWAP2 DUP2 MSTORE ADD SWAP1 JUMP JUMPDEST DUP1 SWAP6 PUSH2 0x67C JUMP JUMPDEST SWAP1 SWAP4 SWAP2 PUSH2 0x1E2 SWAP6 SWAP4 PUSH2 0x178C PUSH2 0x1900 SWAP3 PUSH2 0x1167 PUSH1 0x80 DUP7 ADD SWAP9 PUSH1 0x0 DUP8 ADD SWAP1 PUSH2 0x4AC JUMP JUMPDEST PUSH1 0x60 DUP2 DUP6 SUB SWAP2 ADD MSTORE PUSH2 0x18C1 JUMP JUMPDEST SWAP4 SWAP1 SWAP3 PUSH2 0x191B DUP4 DUP6 DUP8 PUSH2 0x120E JUMP JUMPDEST PUSH1 0x0 SWAP1 DUP5 EXTCODESIZE PUSH2 0x192C PUSH2 0x180D DUP5 PUSH2 0x443 JUMP JUMPDEST EQ SWAP5 DUP6 ISZERO PUSH2 0x1944 JUMPI JUMPDEST POP POP POP POP POP PUSH2 0x1CC SWAP2 POP PUSH2 0x17A5 JUMP JUMPDEST PUSH1 0x20 SWAP6 POP SWAP1 PUSH2 0x1986 PUSH2 0x195C PUSH2 0xF82 PUSH2 0x197B SWAP6 SWAP5 PUSH2 0x905 JUMP JUMPDEST SWAP5 PUSH4 0x150B7A02 SWAP3 CALLER SWAP8 PUSH2 0x196E PUSH1 0x40 MLOAD SWAP1 JUMP JUMPDEST SWAP11 DUP12 SWAP10 DUP11 SWAP9 DUP10 SWAP8 PUSH1 0xE0 SHL SWAP1 JUMP JUMPDEST DUP8 MSTORE PUSH1 0x4 DUP8 ADD PUSH2 0x18DF JUMP JUMPDEST SUB SWAP3 GAS CALL DUP1 ISZERO PUSH2 0xFEF JUMPI PUSH2 0x1CC SWAP2 PUSH1 0x0 SWAP2 PUSH2 0x19B8 JUMPI JUMPDEST POP PUSH2 0x19AD PUSH4 0xA85BD01 PUSH1 0xE1 SHL PUSH2 0x187C JUMP JUMPDEST EQ CODESIZE DUP1 DUP1 DUP1 DUP1 PUSH2 0x1935 JUMP JUMPDEST PUSH2 0x19D0 SWAP2 POP PUSH1 0x20 RETURNDATASIZE DUP2 GT PUSH2 0x18BA JUMPI PUSH2 0x18AC DUP2 DUP4 PUSH2 0x320 JUMP JUMPDEST CODESIZE PUSH2 0x199C JUMP JUMPDEST PUSH2 0x19E9 PUSH2 0x19E3 PUSH2 0x1E2 SWAP3 SWAP1 JUMP JUMPDEST PUSH1 0xE0 SHL SWAP1 JUMP JUMPDEST PUSH1 0x1 PUSH1 0x1 PUSH1 0xE0 SHL SUB NOT AND SWAP1 JUMP JUMPDEST PUSH2 0x1A03 PUSH4 0x1FFC9A7 PUSH2 0x19D6 JUMP JUMPDEST PUSH1 0x1 PUSH1 0x1 PUSH1 0xE0 SHL SUB NOT DUP3 AND EQ SWAP1 DUP2 ISZERO PUSH2 0x1A37 JUMPI JUMPDEST DUP2 ISZERO PUSH2 0x1A21 JUMPI POP SWAP1 JUMP JUMPDEST SWAP1 POP PUSH2 0x1A33 PUSH2 0x187C PUSH4 0x5B5E139F PUSH2 0x19D6 JUMP JUMPDEST EQ SWAP1 JUMP JUMPDEST SWAP1 POP PUSH2 0x1A46 PUSH4 0x80AC58CD PUSH2 0x19D6 JUMP JUMPDEST PUSH1 0x1 PUSH1 0x1 PUSH1 0xE0 SHL SUB NOT DUP3 AND EQ SWAP1 PUSH2 0x1A17 JUMP JUMPDEST ISZERO PUSH2 0x1A5F JUMPI JUMP JUMPDEST PUSH1 0x40 MLOAD PUSH3 0x461BCD PUSH1 0xE5 SHL DUP2 MSTORE PUSH1 0x20 PUSH1 0x4 DUP3 ADD MSTORE PUSH1 0xA PUSH1 0x24 DUP3 ADD MSTORE PUSH32 0x4E4F545F4D494E54454400000000000000000000000000000000000000000000 PUSH1 0x44 DUP3 ADD MSTORE PUSH1 0x64 SWAP1 REVERT JUMPDEST SWAP2 SWAP1 PUSH1 0x8 PUSH2 0xB70 SWAP2 MUL SWAP2 PUSH2 0xC15 PUSH20 0xFFFFFFFFFFFFFFFFFFFFFFFFFFFFFFFFFFFFFFFF DUP5 SHL SWAP1 JUMP JUMPDEST SWAP2 SWAP1 PUSH2 0x1ADC PUSH2 0x1E2 PUSH2 0xB91 SWAP4 PUSH2 0x905 JUMP JUMPDEST SWAP1 DUP4 SLOAD PUSH2 0x1AA4 JUMP JUMPDEST PUSH2 0x1CC SWAP2 PUSH1 0x0 SWAP2 PUSH2 0x1ACB JUMP JUMPDEST PUSH1 0x2 SWAP1 PUSH2 0x1B00 PUSH2 0xEAC DUP3 DUP5 PUSH2 0x450 JUMP JUMPDEST SWAP2 PUSH2 0x1B52 PUSH1 0x0 PUSH2 0x1B47 DUP2 PUSH2 0x1B42 DUP7 PUSH2 0x1B17 DUP4 PUSH2 0xA55 JUMP JUMPDEST SWAP7 PUSH2 0x1B34 PUSH2 0x1B24 DUP10 PUSH2 0x471 JUMP JUMPDEST PUSH2 0x1B2D DUP13 PUSH2 0x471 JUMP JUMPDEST EQ ISZERO PUSH2 0x1A58 JUMP JUMPDEST PUSH2 0x13C5 PUSH2 0x139A DUP12 PUSH1 0x3 PUSH2 0x9A4 JUMP JUMPDEST PUSH2 0x1AE4 JUMP JUMPDEST PUSH2 0x1B42 DUP5 PUSH1 0x4 PUSH2 0x450 JUMP JUMPDEST PUSH2 0x14BE PUSH2 0x14B8 PUSH2 0x14B2 PUSH32 0xDDF252AD1BE2C89B69C2B068FC378DAA952BA7F163C4A11628F55A4DF523B3EF SWAP6 PUSH2 0x905 JUMP JUMPDEST PUSH2 0x1B8C DUP3 DUP3 PUSH2 0x1C7B JUMP JUMPDEST PUSH1 0x0 DUP2 EXTCODESIZE PUSH2 0x1B9C PUSH2 0x180D DUP4 PUSH2 0x443 JUMP JUMPDEST EQ SWAP2 DUP3 ISZERO PUSH2 0x1BB1 JUMPI JUMPDEST POP POP PUSH2 0x1CC SWAP2 POP PUSH2 0x17A5 JUMP JUMPDEST PUSH1 0x20 SWAP3 POP PUSH2 0xF82 PUSH2 0x1BC1 SWAP2 PUSH2 0x905 JUMP JUMPDEST PUSH2 0x184E PUSH4 0x150B7A02 SWAP3 CALLER SWAP4 PUSH2 0x1BE2 PUSH2 0x1BD8 DUP4 PUSH2 0xA55 JUMP JUMPDEST SWAP8 PUSH2 0x13FF PUSH1 0x40 MLOAD SWAP1 JUMP JUMPDEST SUB SWAP3 GAS CALL DUP1 ISZERO PUSH2 0xFEF JUMPI PUSH2 0x1CC SWAP2 PUSH1 0x0 SWAP2 PUSH2 0x1C11 JUMPI JUMPDEST POP PUSH2 0x1C09 PUSH4 0xA85BD01 PUSH1 0xE1 SHL PUSH2 0x187C JUMP JUMPDEST EQ CODESIZE DUP1 PUSH2 0x1BA5 JUMP JUMPDEST PUSH2 0x1C29 SWAP2 POP PUSH1 0x20 RETURNDATASIZE DUP2 GT PUSH2 0x18BA JUMPI PUSH2 0x18AC DUP2 DUP4 PUSH2 0x320 JUMP JUMPDEST CODESIZE PUSH2 0x1BF8 JUMP JUMPDEST ISZERO PUSH2 0x1C36 JUMPI JUMP JUMPDEST PUSH1 0x40 MLOAD PUSH3 0x461BCD PUSH1 0xE5 SHL DUP2 MSTORE PUSH1 0x20 PUSH1 0x4 DUP3 ADD MSTORE PUSH1 0xE PUSH1 0x24 DUP3 ADD MSTORE PUSH32 0x414C52454144595F4D494E544544000000000000000000000000000000000000 PUSH1 0x44 DUP3 ADD MSTORE PUSH1 0x64 SWAP1 REVERT JUMPDEST SWAP1 PUSH2 0x1C86 PUSH1 0x0 PUSH2 0xA55 JUMP JUMPDEST SWAP2 PUSH2 0x1C9C PUSH2 0x1C93 DUP5 PUSH2 0x471 JUMP JUMPDEST PUSH2 0x124F DUP4 PUSH2 0x471 JUMP JUMPDEST PUSH2 0x1B52 DUP2 PUSH2 0x13CA DUP5 PUSH1 0x2 PUSH2 0x1CC8 PUSH2 0x1CB6 PUSH2 0xEAC DUP5 DUP5 PUSH2 0x450 JUMP JUMPDEST PUSH2 0x1CC2 PUSH2 0xA8E DUP12 PUSH2 0x471 JUMP JUMPDEST EQ PUSH2 0x1C2F JUMP JUMPDEST PUSH2 0x13C5 PUSH2 0x13B3 DUP6 PUSH1 0x3 PUSH2 0x9A4 JUMP INVALID LOG2 PUSH5 0x6970667358 0x22 SLT KECCAK256 0x28 0x5C 0xE2 MOD PUSH19 0xABAFC408A96B386D34C89A3738A4A7A1F5A156 MOD SWAP1 EXTCODEHASH 0x23 0x1E PUSH2 0xA8DE PUSH5 0x736F6C6343 STOP ADDMOD EQ STOP CALLER LOG2 PUSH5 0x6970667358 0x22 SLT KECCAK256 NOT MSTORE DIV SIGNEXTEND JUMPDEST 0xB6 DUP7 DUP16 CALLCODE NOT DUP6 PUSH26 0x617B4A6548C09DA6D7D9BFCB54DF602CE2FCB7C364736F6C6343 STOP ADDMOD EQ STOP CALLER "
        },
        "methodIdentifiers": {
          "BASE_URI()": "dbddb26a",
          "MINTER_ROLE()": "d5391393",
          "approvedTransfers(address,address,address,uint256)": "c583fcec",
          "deployAsset(bytes32,string,string,string)": "4d80f965",
          "getDeploymentAddress(bytes32)": "337d4010",
          "indexTransfer(address,address,address,uint256)": "07df0056",
          "isKettleAsset(address)": "05ec452a",
          "lockContract(address,bool)": "3a45b686",
          "lockToken(address,uint256,bool)": "967c7239",
          "lockedContracts(address)": "d41d4174",
          "lockedTokens(address,uint256)": "53719b6e",
          "mint(address,address,uint256)": "c6c3bbe6",
          "operators(address)": "13e7c9d8",
          "owner()": "8da5cb5b",
          "removeApprovedTransfer(address,address,address,uint256)": "913874b7",
          "renounceOwnership()": "715018a6",
          "roles(address,bytes32)": "da904111",
          "setApprovedTransfer(address,address,address,uint256,bool)": "d905088c",
          "setBaseURI(string)": "55f804b3",
          "setMetadata(address,string,string,string)": "7afb5918",
          "setOperator(address,bool)": "558a7297",
          "setRole(bytes32,address,bool)": "6a951316",
          "tokenURI(address,uint256)": "e9dc6375",
          "transferOwnership(address)": "f2fde38b"
        }
      }
    }
  }
}