{
  "contracts/KettleAsset.sol": {
    "KettleAsset": {
      "abi": [
        {
          "inputs": [],
          "stateMutability": "nonpayable",
          "type": "constructor"
        },
        {
          "inputs": [
            {
              "internalType": "address",
              "name": "owner",
              "type": "address"
            }
          ],
          "name": "OwnableInvalidOwner",
          "type": "error"
        },
        {
          "inputs": [
            {
              "internalType": "address",
              "name": "account",
              "type": "address"
            }
          ],
          "name": "OwnableUnauthorizedAccount",
          "type": "error"
        },
        {
          "anonymous": false,
          "inputs": [
            {
              "indexed": true,
              "internalType": "address",
              "name": "owner",
              "type": "address"
            },
            {
              "indexed": true,
              "internalType": "address",
              "name": "spender",
              "type": "address"
            },
            {
              "indexed": true,
              "internalType": "uint256",
              "name": "id",
              "type": "uint256"
            }
          ],
          "name": "Approval",
          "type": "event"
        },
        {
          "anonymous": false,
          "inputs": [
            {
              "indexed": true,
              "internalType": "address",
              "name": "owner",
              "type": "address"
            },
            {
              "indexed": true,
              "internalType": "address",
              "name": "operator",
              "type": "address"
            },
            {
              "indexed": false,
              "internalType": "bool",
              "name": "approved",
              "type": "bool"
            }
          ],
          "name": "ApprovalForAll",
          "type": "event"
        },
        {
          "anonymous": false,
          "inputs": [
            {
              "indexed": true,
              "internalType": "address",
              "name": "previousOwner",
              "type": "address"
            },
            {
              "indexed": true,
              "internalType": "address",
              "name": "newOwner",
              "type": "address"
            }
          ],
          "name": "OwnershipTransferred",
          "type": "event"
        },
        {
          "anonymous": false,
          "inputs": [
            {
              "indexed": true,
              "internalType": "address",
              "name": "from",
              "type": "address"
            },
            {
              "indexed": true,
              "internalType": "address",
              "name": "to",
              "type": "address"
            },
            {
              "indexed": true,
              "internalType": "uint256",
              "name": "id",
              "type": "uint256"
            }
          ],
          "name": "Transfer",
          "type": "event"
        },
        {
          "inputs": [
            {
              "internalType": "address",
              "name": "spender",
              "type": "address"
            },
            {
              "internalType": "uint256",
              "name": "id",
              "type": "uint256"
            }
          ],
          "name": "approve",
          "outputs": [],
          "stateMutability": "nonpayable",
          "type": "function"
        },
        {
          "inputs": [
            {
              "internalType": "address",
              "name": "owner",
              "type": "address"
            }
          ],
          "name": "balanceOf",
          "outputs": [
            {
              "internalType": "uint256",
              "name": "balance",
              "type": "uint256"
            }
          ],
          "stateMutability": "view",
          "type": "function"
        },
        {
          "inputs": [],
          "name": "brand",
          "outputs": [
            {
              "internalType": "string",
              "name": "",
              "type": "string"
            }
          ],
          "stateMutability": "view",
          "type": "function"
        },
        {
          "inputs": [
            {
              "internalType": "uint256",
              "name": "tokenId",
              "type": "uint256"
            }
          ],
          "name": "burn",
          "outputs": [],
          "stateMutability": "nonpayable",
          "type": "function"
        },
        {
          "inputs": [],
          "name": "factory",
          "outputs": [
            {
              "internalType": "contract IKettleAssetFactory",
              "name": "",
              "type": "address"
            }
          ],
          "stateMutability": "view",
          "type": "function"
        },
        {
          "inputs": [
            {
              "internalType": "uint256",
              "name": "",
              "type": "uint256"
            }
          ],
          "name": "getApproved",
          "outputs": [
            {
              "internalType": "address",
              "name": "",
              "type": "address"
            }
          ],
          "stateMutability": "view",
          "type": "function"
        },
        {
          "inputs": [
            {
              "internalType": "address",
              "name": "",
              "type": "address"
            },
            {
              "internalType": "address",
              "name": "",
              "type": "address"
            }
          ],
          "name": "isApprovedForAll",
          "outputs": [
            {
              "internalType": "bool",
              "name": "",
              "type": "bool"
            }
          ],
          "stateMutability": "view",
          "type": "function"
        },
        {
          "inputs": [
            {
              "internalType": "address",
              "name": "to",
              "type": "address"
            },
            {
              "internalType": "uint256",
              "name": "id",
              "type": "uint256"
            }
          ],
          "name": "mint",
          "outputs": [],
          "stateMutability": "nonpayable",
          "type": "function"
        },
        {
          "inputs": [],
          "name": "model",
          "outputs": [
            {
              "internalType": "string",
              "name": "",
              "type": "string"
            }
          ],
          "stateMutability": "view",
          "type": "function"
        },
        {
          "inputs": [],
          "name": "name",
          "outputs": [
            {
              "internalType": "string",
              "name": "",
              "type": "string"
            }
          ],
          "stateMutability": "view",
          "type": "function"
        },
        {
          "inputs": [],
          "name": "owner",
          "outputs": [
            {
              "internalType": "address",
              "name": "",
              "type": "address"
            }
          ],
          "stateMutability": "view",
          "type": "function"
        },
        {
          "inputs": [
            {
              "internalType": "uint256",
              "name": "id",
              "type": "uint256"
            }
          ],
          "name": "ownerOf",
          "outputs": [
            {
              "internalType": "address",
              "name": "owner",
              "type": "address"
            }
          ],
          "stateMutability": "view",
          "type": "function"
        },
        {
          "inputs": [],
          "name": "ref",
          "outputs": [
            {
              "internalType": "string",
              "name": "",
              "type": "string"
            }
          ],
          "stateMutability": "view",
          "type": "function"
        },
        {
          "inputs": [],
          "name": "renounceOwnership",
          "outputs": [],
          "stateMutability": "nonpayable",
          "type": "function"
        },
        {
          "inputs": [
            {
              "internalType": "address",
              "name": "from",
              "type": "address"
            },
            {
              "internalType": "address",
              "name": "to",
              "type": "address"
            },
            {
              "internalType": "uint256",
              "name": "id",
              "type": "uint256"
            }
          ],
          "name": "safeTransferFrom",
          "outputs": [],
          "stateMutability": "nonpayable",
          "type": "function"
        },
        {
          "inputs": [
            {
              "internalType": "address",
              "name": "from",
              "type": "address"
            },
            {
              "internalType": "address",
              "name": "to",
              "type": "address"
            },
            {
              "internalType": "uint256",
              "name": "id",
              "type": "uint256"
            },
            {
              "internalType": "bytes",
              "name": "data",
              "type": "bytes"
            }
          ],
          "name": "safeTransferFrom",
          "outputs": [],
          "stateMutability": "nonpayable",
          "type": "function"
        },
        {
          "inputs": [
            {
              "internalType": "address",
              "name": "operator",
              "type": "address"
            },
            {
              "internalType": "bool",
              "name": "approved",
              "type": "bool"
            }
          ],
          "name": "setApprovalForAll",
          "outputs": [],
          "stateMutability": "nonpayable",
          "type": "function"
        },
        {
          "inputs": [
            {
              "internalType": "string",
              "name": "_brand",
              "type": "string"
            }
          ],
          "name": "setBrand",
          "outputs": [],
          "stateMutability": "nonpayable",
          "type": "function"
        },
        {
          "inputs": [
            {
              "internalType": "string",
              "name": "_model",
              "type": "string"
            }
          ],
          "name": "setModel",
          "outputs": [],
          "stateMutability": "nonpayable",
          "type": "function"
        },
        {
          "inputs": [
            {
              "internalType": "string",
              "name": "_ref",
              "type": "string"
            }
          ],
          "name": "setRef",
          "outputs": [],
          "stateMutability": "nonpayable",
          "type": "function"
        },
        {
          "inputs": [
            {
              "internalType": "bytes4",
              "name": "interfaceId",
              "type": "bytes4"
            }
          ],
          "name": "supportsInterface",
          "outputs": [
            {
              "internalType": "bool",
              "name": "",
              "type": "bool"
            }
          ],
          "stateMutability": "view",
          "type": "function"
        },
        {
          "inputs": [],
          "name": "symbol",
          "outputs": [
            {
              "internalType": "string",
              "name": "",
              "type": "string"
            }
          ],
          "stateMutability": "view",
          "type": "function"
        },
        {
          "inputs": [
            {
              "internalType": "uint256",
              "name": "tokenId",
              "type": "uint256"
            }
          ],
          "name": "tokenURI",
          "outputs": [
            {
              "internalType": "string",
              "name": "",
              "type": "string"
            }
          ],
          "stateMutability": "view",
          "type": "function"
        },
        {
          "inputs": [
            {
              "internalType": "address",
              "name": "from",
              "type": "address"
            },
            {
              "internalType": "address",
              "name": "to",
              "type": "address"
            },
            {
              "internalType": "uint256",
              "name": "id",
              "type": "uint256"
            }
          ],
          "name": "transferFrom",
          "outputs": [],
          "stateMutability": "nonpayable",
          "type": "function"
        },
        {
          "inputs": [
            {
              "internalType": "address",
              "name": "newOwner",
              "type": "address"
            }
          ],
          "name": "transferOwnership",
          "outputs": [],
          "stateMutability": "nonpayable",
          "type": "function"
        }
      ],
      "evm": {
        "bytecode": {
          "linkReferences": {},
          "object": "6080604052346200002657620000146200017a565b604051611d0c620004ef8239611d0c90f35b600080fd5b634e487b7160e01b600052604160045260246000fd5b90601f01601f191681019081106001600160401b038211176200006357604052565b6200002b565b90620000806200007860405190565b928362000041565b565b6001600160401b0381116200006357602090601f01601f19160190565b90620000b5620000af8362000082565b62000069565b918252565b620000c660066200009f565b654b6574746c6560d01b602082015290565b620000e2620000ba565b90565b620000f160066200009f565b654b4554544c4560d01b602082015290565b620000e2620000e5565b620000e29062000123906001600160a01b031682565b6001600160a01b031690565b620000e2906200010d565b620000e2906200012f565b906001600160a01b03905b9181191691161790565b906200016e620000e262000176926200013a565b825462000145565b9055565b62000080620001a933620001a362000191620000d8565b6200019b62000103565b9083620001ed565b6200013a565b60076200015a565b62000123620000e2620000e29290565b620000e290620001b1565b620001d79062000123565b9052565b602081019291620000809190620001cc565b91620001f99162000257565b620002056000620001c1565b620002108162000123565b6200021b8362000123565b146200022d575062000080906200048c565b62000253906200023c60405190565b631e4fbdf760e01b815291829160048301620001db565b0390fd5b9062000080916200045b565b634e487b7160e01b600052602260045260246000fd5b90600160028304921680156200029c575b60208310146200029657565b62000263565b91607f16916200028a565b9160001960089290920291821b911b62000150565b620000e2620000e2620000e29290565b9190620002e1620000e26200017693620002bc565b908354620002a7565b6200008091600091620002cc565b81811062000304575050565b80620003146000600193620002ea565b01620002f8565b9190601f81116200032b57505050565b6200033f6200008093600052602060002090565b906020601f84018190048301931062000363575b6020601f909101040190620002f8565b909150819062000353565b9062000378815190565b906001600160401b0382116200006357620003a08262000399855462000279565b856200031b565b602090601f8311600114620003df5762000176929160009183620003d3575b5050600019600883021c1916906002021790565b015190503880620003bf565b601f19831691620003f585600052602060002090565b9260005b81811062000436575091600293918560019694106200041c575b50505002019055565b01516000196008601f8516021c1916905538808062000413565b91936020600181928787015181550195019201620003f9565b9062000080916200036e565b906200046d620000809260006200044f565b60016200044f565b620000e29062000123565b620000e2905462000475565b62000498600662000480565b90620004a68160066200015a565b620004dd620004d67f8be0079c531659141344cd1fd0a4f28419497f9722a3daafe3b4186f6b6457e0936200013a565b916200013a565b91620004e860405190565b600090a356fe6080604052600436101561001257600080fd5b60003560e01c806301ffc9a7146101a257806306fdde031461019d578063081812fc14610198578063095ea7b3146101935780630ad9d0521461018e57806321a78f681461018957806323b872dd146101845780632d9fff011461017f57806340c10f191461017a57806342842e0e1461017557806342966c681461017057806346d75c8c1461016b5780636352211e1461016657806370a0823114610161578063715018a61461015c5780638da5cb5b1461015757806395d89b4114610152578063a22cb4651461014d578063b88d4fde14610148578063c1fd413714610143578063c45a01551461013e578063c73e835c14610139578063c87b56dd14610134578063e985e9c51461012f5763f2fde38b036101ba57610a03565b6109e7565b610966565b61094e565b610927565b6108b5565b610899565b6107fc565b6107a9565b610782565b61076a565b61073f565b610710565b6106f8565b610633565b61061a565b610601565b6105e6565b6105c1565b610576565b61054f565b610525565b6104c5565b6103f5565b6101e9565b6001600160e01b031981165b036101ba57565b600080fd5b905035906101cc826101a7565b565b906020828203126101ba576101e2916101bf565b90565b9052565b346101ba576102176102046101ff3660046101ce565b6119f6565b6040515b91829182901515815260200190565b0390f35b60009103126101ba57565b634e487b7160e01b600052600060045260246000fd5b634e487b7160e01b600052602260045260246000fd5b9060016002830492168015610272575b602083101461026d57565b61023c565b91607f1691610262565b8054600093929161029961028f83610252565b8085529360200190565b91600181169081156102eb57506001146102b257505050565b6102c59192939450600052602060002090565b916000925b8184106102d75750500190565b8054848401526020909301926001016102ca565b92949550505060ff1916825215156020020190565b906101e29161027c565b634e487b7160e01b600052604160045260246000fd5b90601f01601f1916810190811067ffffffffffffffff82111761034257604052565b61030a565b906101cc6103619261035860405190565b93848092610300565b0383610320565b90600010610379576101e290610347565b610226565b6101e2600080610368565b60005b83811061039c5750506000910152565b818101518382015260200161038c565b6103cd6103d66020936103e0936103c1815190565b80835293849260200190565b95869101610389565b601f01601f191690565b0190565b60208082526101e2929101906103ac565b346101ba5761040536600461021b565b61021761041061037e565b604051918291826103e4565b806101b3565b905035906101cc8261041c565b906020828203126101ba576101e291610422565b6101e26101e26101e29290565b9061045a90610443565b600052602052604060002090565b6101e2916008021c5b73ffffffffffffffffffffffffffffffffffffffff1690565b906101e29154610468565b6101e2906104a7600491600092610450565b61048a565b6101e590610471565b6020810192916101cc91906104ac565b346101ba576102176104e06104db36600461042f565b610495565b604051918291826104b5565b6101b381610471565b905035906101cc826104ec565b91906040838203126101ba576101e29061051c81856104f5565b93602001610422565b346101ba5761053e610538366004610502565b90611640565b604051005b6101e260006009610368565b346101ba5761055f36600461021b565b610217610410610543565b6101e26000600a610368565b346101ba5761058636600461021b565b61021761041061056a565b90916060828403126101ba576101e26105aa84846104f5565b936105b881602086016104f5565b93604001610422565b346101ba5761053e6105d4366004610591565b9161120e565b6101e260006008610368565b346101ba576105f636600461021b565b6102176104106105da565b346101ba5761053e610614366004610502565b90610df3565b346101ba5761053e61062d366004610591565b916117f1565b346101ba5761053e61064636600461042f565b610e6e565b906101cc61065860405190565b9283610320565b67ffffffffffffffff811161034257602090601f01601f19160190565b90826000939282370152565b9092919261069d6106988261065f565b61064b565b938185526020850190828401116101ba576101cc9261067c565b9080601f830112156101ba578160206101e293359101610688565b906020828203126101ba57813567ffffffffffffffff81116101ba576101e292016106b7565b346101ba5761053e61070b3660046106d2565b610db3565b346101ba576102176104e061072636600461042f565b610e95565b906020828203126101ba576101e2916104f5565b346101ba5761021761075a61075536600461072b565b610ec2565b6040519182918290815260200190565b346101ba5761077a36600461021b565b61053e610a70565b346101ba5761079236600461021b565b6102176104e0610a2e565b6101e260006001610368565b346101ba576107b936600461021b565b61021761041061079d565b8015156101b3565b905035906101cc826107c4565b91906040838203126101ba576101e2906107f381856104f5565b936020016107cc565b346101ba5761053e61080f3660046107d9565b906116f3565b909182601f830112156101ba5781359167ffffffffffffffff83116101ba5760200192600183028401116101ba57565b906080828203126101ba5761085a81836104f5565b9261086882602085016104f5565b926108768360408301610422565b92606082013567ffffffffffffffff81116101ba576108959201610815565b9091565b346101ba5761053e6108ac366004610845565b9392909261190d565b346101ba5761053e6108c83660046106d2565b610d93565b6101e26000600761048a565b6104716101e26101e29273ffffffffffffffffffffffffffffffffffffffff1690565b6101e2906108d9565b6101e2906108fc565b6101e590610905565b6020810192916101cc919061090e565b346101ba5761093736600461021b565b6102176109426108cd565b60405191829182610917565b346101ba5761053e6109613660046106d2565b610dd3565b346101ba5761021761041061097c36600461042f565b610f73565b91906040838203126101ba576101e29061099b81856104f5565b936020016104f5565b9061045a90610905565b6101e2916008021c5b60ff1690565b906101e291546109ae565b6109e26101e2926109dd6005936000946109a4565b6109a4565b6109bd565b346101ba576102176102046109fd366004610981565b906109c8565b346101ba5761053e610a1636600461072b565b610b4f565b6101e290610471565b6101e29054610a1b565b6101e26006610a24565b610a40610a78565b6101cc610a5e565b6104716101e26101e29290565b6101e290610a48565b6101cc610a6b6000610a55565b610b95565b6101cc610a38565b610a80610a2e565b3390610a94610a8e83610471565b91610471565b03610a9c5750565b610ad890610aa960405190565b9182917f118cdaa7000000000000000000000000000000000000000000000000000000008352600483016104b5565b0390fd5b6101cc90610ae8610a78565b610af26000610a55565b610afb81610471565b610b0483610471565b14610b1357506101cc90610b95565b610ad890610b2060405190565b9182917f1e4fbdf7000000000000000000000000000000000000000000000000000000008352600483016104b5565b6101cc90610adc565b9073ffffffffffffffffffffffffffffffffffffffff905b9181191691161790565b90610b8a6101e2610b9192610905565b8254610b58565b9055565b610b9f6006610a24565b90610bab816006610b7a565b610bde610bd87f8be0079c531659141344cd1fd0a4f28419497f9722a3daafe3b4186f6b6457e093610905565b91610905565b91610be860405190565b80805b0390a3565b6101cc90610bfc610a78565b610d88565b9160001960089290920291821b911b610b70565b921b90565b9190610c2b6101e2610b9193610443565b908354610c01565b6101cc91600091610c1a565b818110610c4a575050565b80610c586000600193610c33565b01610c3f565b9190601f8111610c6d57505050565b610c7f6101cc93600052602060002090565b906020601f840181900483019310610ca1575b6020601f909101040190610c3f565b9091508190610c92565b90610cb4815190565b9067ffffffffffffffff821161034257610cd882610cd28554610252565b85610c5e565b602090601f8311600114610d1357610b91929160009183610d08575b5050600019600883021c1916906002021790565b015190503880610cf4565b601f19831691610d2885600052602060002090565b9260005b818110610d6657509160029391856001969410610d4d575b50505002019055565b01516000196008601f8516021c19169055388080610d44565b91936020600181928787015181550195019201610d2c565b906101cc91610cab565b6101cc906008610d7e565b6101cc90610bf0565b6101cc90610da8610a78565b6101cc906009610d7e565b6101cc90610d9c565b6101cc90610dc8610a78565b6101cc90600a610d7e565b6101cc90610dbc565b906101cc91610de9610a78565b906101cc91611b82565b906101cc91610ddc565b15610e0457565b60405162461bcd60e51b8152602060048201526024808201527f4b6574746c6541737365743a2063616c6c6572206973206e6f7420746865206f60448201527f776e6572000000000000000000000000000000000000000000000000000000006064820152608490fd5b6101cc90610e9033610e8a610a8e610e8585610e95565b610471565b14610dfd565b611af0565b610eac6101e291610ea4600090565b506002610450565b610a24565b6101e29081565b6101e29054610eb1565b610ed96101e291610ed1600090565b5060036109a4565b610eb8565b90929192610eee6106988261065f565b938185526020850190828401116101ba576101cc92610389565b9080601f830112156101ba5781516101e292602001610ede565b906020828203126101ba57815167ffffffffffffffff81116101ba576101e29201610f08565b9160206101cc929493610f63604082019660008301906104ac565b0152565b6040513d6000823e3d90fd5b6000610f87610f826007610a24565b610905565b63e9dc637590610fb3610f9930610905565b92610fbe610fa660405190565b9687958694859460e01b90565b845260048401610f48565b03915afa908115610fef57600091610fd4575090565b6101e2913d8091833e610fe78183610320565b810190610f22565b610f67565b15610ffb57565b60405162461bcd60e51b815260206004820152600a60248201527f57524f4e475f46524f4d000000000000000000000000000000000000000000006044820152606490fd5b1561104757565b60405162461bcd60e51b815260206004820152601160248201527f494e56414c49445f524543495049454e540000000000000000000000000000006044820152606490fd5b905051906101cc826107c4565b906020828203126101ba576101e29161108c565b156110b457565b60405162461bcd60e51b815260206004820152600f60248201527f434f4e54524143545f4c4f434b454400000000000000000000000000000000006044820152606490fd5b1561110057565b60405162461bcd60e51b815260206004820152600c60248201527f544f4b454e5f4c4f434b454400000000000000000000000000000000000000006044820152606490fd5b610f636101cc94611171606094989795611167608086019a60008701906104ac565b60208501906104ac565b60408301906104ac565b1561118257565b60405162461bcd60e51b815260206004820152602360248201527f4e4f545f415554484f52495a45445f4f50455241544f525f4f525f5452414e5360448201527f46455200000000000000000000000000000000000000000000000000000000006064820152608490fd5b9060001990610b70565b906112076101e2610b9192610443565b82546111ed565b91906002611234611225610e85610eac8685610450565b61122e86610471565b14610ff4565b600090611256611246610e8584610a55565b61124f85610471565b1415611040565b611263610f826007610a24565b9061128a602063d41d417461127730610905565b9461128160405190565b93849260e01b90565b8252818061129b88600483016104b5565b03915afa908115610fef576112bf916112ba916000916115c557501590565b6110ad565b6112e060206112d1610f826007610a24565b6353719b6e9061128160405190565b825281806112f28b8960048401610f48565b03915afa908115610fef5761131691611311916000916115c557501590565b6110f9565b6113546020611328610f826007610a24565b6313e7c9d890611349339261133c60405190565b9586948593849360e01b90565b8352600483016104b5565b03915afa908115610fef57859187916000916115a7575b508015611517575b906113cf936113846113ca9361117b565b6113c56113b38560036109dd61139a8f836109a4565b6113ad6113a682610eb8565b6000190190565b906111f7565b6113ad6113bf82610eb8565b60010190565b610450565b610b7a565b6113dc610f826007610a24565b63913874b790803b156101ba5786849161140c8388956114188b6113ff60405190565b9889978896879560e01b90565b85528b60048601611145565b03925af18015610fef576114fb575b50611435610f826007610a24565b906307df005690823b156101ba5786926114668580946114718a8a61145960405190565b998a988997889660e01b90565b865260048601611145565b03925af18015610fef576114ce575b50506114be6114b86114b27fddf252ad1be2c89b69c2b068fc378daa952ba7f163c4a11628f55a4df523b3ef95610905565b92610905565b92610443565b926114c860405190565b600090a4565b816114ed92903d106114f4575b6114e58183610320565b81019061021b565b3880611480565b503d6114db565b61151190833d85116114f4576114e58183610320565b38611427565b50509060208761152a610f826007610a24565b61140c63c583fcec61154c8b61153f60405190565b9889968795869560e01b90565b03915afa918215610fef578686926113846113cf956113ca94600091611579575b50929350509350611373565b61159a915060203d81116115a0575b6115928183610320565b810190611099565b3861156d565b503d611588565b6115bf915060203d81116115a0576115928183610320565b3861136b565b6115dd915060203d81116115a0576115928183610320565b1590565b6101e2906109b7565b6101e290546115e1565b156115fb57565b60405162461bcd60e51b815260206004820152600e60248201527f4e4f545f415554484f52495a45440000000000000000000000000000000000006044820152606490fd5b9061164f610eac826002610450565b916116753361165d85610471565b61166682610471565b149081156116b4575b506115f4565b611684816113ca846004610450565b6114be6114b86114b27f8c5be1e5ebec7d5bd14f71427d1e84f3dd0314c0f7b2291e5b200ac8c7c3b92595610905565b6116cd91506116c8906109dd8760056109a4565b6115ea565b3861166f565b9060ff90610b70565b906116ec6101e2610b9192151590565b82546116d3565b3361170c83611707846109dd8560056109a4565b6116dc565b610beb61174261173c7f17307eab39ab6107e8899845ad3d59bd9653f200f220920489ca2b5937696c3193610905565b93610905565b9361020860405190565b905051906101cc826101a7565b906020828203126101ba576101e29161174c565b90916101e29361178c61179392611167608086019660008701906104ac565b6040830152565b60608183039101526000815260200190565b156117ac57565b60405162461bcd60e51b815260206004820152601060248201527f554e534146455f524543495049454e54000000000000000000000000000000006044820152606490fd5b916117fd81838561120e565b6000823b61181161180d83610443565b9190565b14928315611827575b5050506101cc91506117a5565b6020935061183a610f8261184e92610905565b9163150b7a0261185933956113ff60405190565b85526004850161176d565b03925af18015610fef576101cc91600091611893575b5061188a630a85bd0160e11b5b916001600160e01b03191690565b1438808061181a565b6118b4915060203d81116118ba575b6118ac8183610320565b810190611759565b3861186f565b503d6118a2565b91906103d6816118d8816103e09560209181520190565b809561067c565b9093916101e2959361178c61190092611167608086019860008701906104ac565b60608185039101526118c1565b93909261191b83858761120e565b600090843b61192c61180d84610443565b14948515611944575b50505050506101cc91506117a5565b602095509061198661195c610f8261197b9594610905565b9463150b7a0292339761196e60405190565b9a8b998a98899760e01b90565b8752600487016118df565b03925af18015610fef576101cc916000916119b8575b506119ad630a85bd0160e11b61187c565b143880808080611935565b6119d0915060203d81116118ba576118ac8183610320565b3861199c565b6119e96119e36101e29290565b60e01b90565b6001600160e01b03191690565b611a036301ffc9a76119d6565b6001600160e01b0319821614908115611a37575b8115611a21575090565b9050611a3361187c635b5e139f6119d6565b1490565b9050611a466380ac58cd6119d6565b6001600160e01b031982161490611a17565b15611a5f57565b60405162461bcd60e51b815260206004820152600a60248201527f4e4f545f4d494e544544000000000000000000000000000000000000000000006044820152606490fd5b91906008610b70910291610c1573ffffffffffffffffffffffffffffffffffffffff841b90565b9190611adc6101e2610b9193610905565b908354611aa4565b6101cc91600091611acb565b600290611b00610eac8284610450565b91611b526000611b4781611b4286611b1783610a55565b96611b34611b2489610471565b611b2d8c610471565b1415611a58565b6113c561139a8b60036109a4565b611ae4565b611b42846004610450565b6114be6114b86114b27fddf252ad1be2c89b69c2b068fc378daa952ba7f163c4a11628f55a4df523b3ef95610905565b611b8c8282611c7b565b6000813b611b9c61180d83610443565b14918215611bb1575b50506101cc91506117a5565b60209250610f82611bc191610905565b61184e63150b7a02923393611be2611bd883610a55565b976113ff60405190565b03925af18015610fef576101cc91600091611c11575b50611c09630a85bd0160e11b61187c565b143880611ba5565b611c29915060203d81116118ba576118ac8183610320565b38611bf8565b15611c3657565b60405162461bcd60e51b815260206004820152600e60248201527f414c52454144595f4d494e5445440000000000000000000000000000000000006044820152606490fd5b90611c866000610a55565b91611c9c611c9384610471565b61124f83610471565b611b52816113ca846002611cc8611cb6610eac8484610450565b611cc2610a8e8b610471565b14611c2f565b6113c56113b38560036109a456fea2646970667358221220285ce20672abafc408a96b386d34c89a3738a4a7a1f5a15606903f231e61a8de64736f6c63430008140033",
          "opcodes": "PUSH1 0x80 PUSH1 0x40 MSTORE CALLVALUE PUSH3 0x26 JUMPI PUSH3 0x14 PUSH3 0x17A JUMP JUMPDEST PUSH1 0x40 MLOAD PUSH2 0x1D0C PUSH3 0x4EF DUP3 CODECOPY PUSH2 0x1D0C SWAP1 RETURN JUMPDEST PUSH1 0x0 DUP1 REVERT JUMPDEST PUSH4 0x4E487B71 PUSH1 0xE0 SHL PUSH1 0x0 MSTORE PUSH1 0x41 PUSH1 0x4 MSTORE PUSH1 0x24 PUSH1 0x0 REVERT JUMPDEST SWAP1 PUSH1 0x1F ADD PUSH1 0x1F NOT AND DUP2 ADD SWAP1 DUP2 LT PUSH1 0x1 PUSH1 0x1 PUSH1 0x40 SHL SUB DUP3 GT OR PUSH3 0x63 JUMPI PUSH1 0x40 MSTORE JUMP JUMPDEST PUSH3 0x2B JUMP JUMPDEST SWAP1 PUSH3 0x80 PUSH3 0x78 PUSH1 0x40 MLOAD SWAP1 JUMP JUMPDEST SWAP3 DUP4 PUSH3 0x41 JUMP JUMPDEST JUMP JUMPDEST PUSH1 0x1 PUSH1 0x1 PUSH1 0x40 SHL SUB DUP2 GT PUSH3 0x63 JUMPI PUSH1 0x20 SWAP1 PUSH1 0x1F ADD PUSH1 0x1F NOT AND ADD SWAP1 JUMP JUMPDEST SWAP1 PUSH3 0xB5 PUSH3 0xAF DUP4 PUSH3 0x82 JUMP JUMPDEST PUSH3 0x69 JUMP JUMPDEST SWAP2 DUP3 MSTORE JUMP JUMPDEST PUSH3 0xC6 PUSH1 0x6 PUSH3 0x9F JUMP JUMPDEST PUSH6 0x4B6574746C65 PUSH1 0xD0 SHL PUSH1 0x20 DUP3 ADD MSTORE SWAP1 JUMP JUMPDEST PUSH3 0xE2 PUSH3 0xBA JUMP JUMPDEST SWAP1 JUMP JUMPDEST PUSH3 0xF1 PUSH1 0x6 PUSH3 0x9F JUMP JUMPDEST PUSH6 0x4B4554544C45 PUSH1 0xD0 SHL PUSH1 0x20 DUP3 ADD MSTORE SWAP1 JUMP JUMPDEST PUSH3 0xE2 PUSH3 0xE5 JUMP JUMPDEST PUSH3 0xE2 SWAP1 PUSH3 0x123 SWAP1 PUSH1 0x1 PUSH1 0x1 PUSH1 0xA0 SHL SUB AND DUP3 JUMP JUMPDEST PUSH1 0x1 PUSH1 0x1 PUSH1 0xA0 SHL SUB AND SWAP1 JUMP JUMPDEST PUSH3 0xE2 SWAP1 PUSH3 0x10D JUMP JUMPDEST PUSH3 0xE2 SWAP1 PUSH3 0x12F JUMP JUMPDEST SWAP1 PUSH1 0x1 PUSH1 0x1 PUSH1 0xA0 SHL SUB SWAP1 JUMPDEST SWAP2 DUP2 NOT AND SWAP2 AND OR SWAP1 JUMP JUMPDEST SWAP1 PUSH3 0x16E PUSH3 0xE2 PUSH3 0x176 SWAP3 PUSH3 0x13A JUMP JUMPDEST DUP3 SLOAD PUSH3 0x145 JUMP JUMPDEST SWAP1 SSTORE JUMP JUMPDEST PUSH3 0x80 PUSH3 0x1A9 CALLER PUSH3 0x1A3 PUSH3 0x191 PUSH3 0xD8 JUMP JUMPDEST PUSH3 0x19B PUSH3 0x103 JUMP JUMPDEST SWAP1 DUP4 PUSH3 0x1ED JUMP JUMPDEST PUSH3 0x13A JUMP JUMPDEST PUSH1 0x7 PUSH3 0x15A JUMP JUMPDEST PUSH3 0x123 PUSH3 0xE2 PUSH3 0xE2 SWAP3 SWAP1 JUMP JUMPDEST PUSH3 0xE2 SWAP1 PUSH3 0x1B1 JUMP JUMPDEST PUSH3 0x1D7 SWAP1 PUSH3 0x123 JUMP JUMPDEST SWAP1 MSTORE JUMP JUMPDEST PUSH1 0x20 DUP2 ADD SWAP3 SWAP2 PUSH3 0x80 SWAP2 SWAP1 PUSH3 0x1CC JUMP JUMPDEST SWAP2 PUSH3 0x1F9 SWAP2 PUSH3 0x257 JUMP JUMPDEST PUSH3 0x205 PUSH1 0x0 PUSH3 0x1C1 JUMP JUMPDEST PUSH3 0x210 DUP2 PUSH3 0x123 JUMP JUMPDEST PUSH3 0x21B DUP4 PUSH3 0x123 JUMP JUMPDEST EQ PUSH3 0x22D JUMPI POP PUSH3 0x80 SWAP1 PUSH3 0x48C JUMP JUMPDEST PUSH3 0x253 SWAP1 PUSH3 0x23C PUSH1 0x40 MLOAD SWAP1 JUMP JUMPDEST PUSH4 0x1E4FBDF7 PUSH1 0xE0 SHL DUP2 MSTORE SWAP2 DUP3 SWAP2 PUSH1 0x4 DUP4 ADD PUSH3 0x1DB JUMP JUMPDEST SUB SWAP1 REVERT JUMPDEST SWAP1 PUSH3 0x80 SWAP2 PUSH3 0x45B JUMP JUMPDEST PUSH4 0x4E487B71 PUSH1 0xE0 SHL PUSH1 0x0 MSTORE PUSH1 0x22 PUSH1 0x4 MSTORE PUSH1 0x24 PUSH1 0x0 REVERT JUMPDEST SWAP1 PUSH1 0x1 PUSH1 0x2 DUP4 DIV SWAP3 AND DUP1 ISZERO PUSH3 0x29C JUMPI JUMPDEST PUSH1 0x20 DUP4 LT EQ PUSH3 0x296 JUMPI JUMP JUMPDEST PUSH3 0x263 JUMP JUMPDEST SWAP2 PUSH1 0x7F AND SWAP2 PUSH3 0x28A JUMP JUMPDEST SWAP2 PUSH1 0x0 NOT PUSH1 0x8 SWAP3 SWAP1 SWAP3 MUL SWAP2 DUP3 SHL SWAP2 SHL PUSH3 0x150 JUMP JUMPDEST PUSH3 0xE2 PUSH3 0xE2 PUSH3 0xE2 SWAP3 SWAP1 JUMP JUMPDEST SWAP2 SWAP1 PUSH3 0x2E1 PUSH3 0xE2 PUSH3 0x176 SWAP4 PUSH3 0x2BC JUMP JUMPDEST SWAP1 DUP4 SLOAD PUSH3 0x2A7 JUMP JUMPDEST PUSH3 0x80 SWAP2 PUSH1 0x0 SWAP2 PUSH3 0x2CC JUMP JUMPDEST DUP2 DUP2 LT PUSH3 0x304 JUMPI POP POP JUMP JUMPDEST DUP1 PUSH3 0x314 PUSH1 0x0 PUSH1 0x1 SWAP4 PUSH3 0x2EA JUMP JUMPDEST ADD PUSH3 0x2F8 JUMP JUMPDEST SWAP2 SWAP1 PUSH1 0x1F DUP2 GT PUSH3 0x32B JUMPI POP POP POP JUMP JUMPDEST PUSH3 0x33F PUSH3 0x80 SWAP4 PUSH1 0x0 MSTORE PUSH1 0x20 PUSH1 0x0 KECCAK256 SWAP1 JUMP JUMPDEST SWAP1 PUSH1 0x20 PUSH1 0x1F DUP5 ADD DUP2 SWAP1 DIV DUP4 ADD SWAP4 LT PUSH3 0x363 JUMPI JUMPDEST PUSH1 0x20 PUSH1 0x1F SWAP1 SWAP2 ADD DIV ADD SWAP1 PUSH3 0x2F8 JUMP JUMPDEST SWAP1 SWAP2 POP DUP2 SWAP1 PUSH3 0x353 JUMP JUMPDEST SWAP1 PUSH3 0x378 DUP2 MLOAD SWAP1 JUMP JUMPDEST SWAP1 PUSH1 0x1 PUSH1 0x1 PUSH1 0x40 SHL SUB DUP3 GT PUSH3 0x63 JUMPI PUSH3 0x3A0 DUP3 PUSH3 0x399 DUP6 SLOAD PUSH3 0x279 JUMP JUMPDEST DUP6 PUSH3 0x31B JUMP JUMPDEST PUSH1 0x20 SWAP1 PUSH1 0x1F DUP4 GT PUSH1 0x1 EQ PUSH3 0x3DF JUMPI PUSH3 0x176 SWAP3 SWAP2 PUSH1 0x0 SWAP2 DUP4 PUSH3 0x3D3 JUMPI JUMPDEST POP POP PUSH1 0x0 NOT PUSH1 0x8 DUP4 MUL SHR NOT AND SWAP1 PUSH1 0x2 MUL OR SWAP1 JUMP JUMPDEST ADD MLOAD SWAP1 POP CODESIZE DUP1 PUSH3 0x3BF JUMP JUMPDEST PUSH1 0x1F NOT DUP4 AND SWAP2 PUSH3 0x3F5 DUP6 PUSH1 0x0 MSTORE PUSH1 0x20 PUSH1 0x0 KECCAK256 SWAP1 JUMP JUMPDEST SWAP3 PUSH1 0x0 JUMPDEST DUP2 DUP2 LT PUSH3 0x436 JUMPI POP SWAP2 PUSH1 0x2 SWAP4 SWAP2 DUP6 PUSH1 0x1 SWAP7 SWAP5 LT PUSH3 0x41C JUMPI JUMPDEST POP POP POP MUL ADD SWAP1 SSTORE JUMP JUMPDEST ADD MLOAD PUSH1 0x0 NOT PUSH1 0x8 PUSH1 0x1F DUP6 AND MUL SHR NOT AND SWAP1 SSTORE CODESIZE DUP1 DUP1 PUSH3 0x413 JUMP JUMPDEST SWAP2 SWAP4 PUSH1 0x20 PUSH1 0x1 DUP2 SWAP3 DUP8 DUP8 ADD MLOAD DUP2 SSTORE ADD SWAP6 ADD SWAP3 ADD PUSH3 0x3F9 JUMP JUMPDEST SWAP1 PUSH3 0x80 SWAP2 PUSH3 0x36E JUMP JUMPDEST SWAP1 PUSH3 0x46D PUSH3 0x80 SWAP3 PUSH1 0x0 PUSH3 0x44F JUMP JUMPDEST PUSH1 0x1 PUSH3 0x44F JUMP JUMPDEST PUSH3 0xE2 SWAP1 PUSH3 0x123 JUMP JUMPDEST PUSH3 0xE2 SWAP1 SLOAD PUSH3 0x475 JUMP JUMPDEST PUSH3 0x498 PUSH1 0x6 PUSH3 0x480 JUMP JUMPDEST SWAP1 PUSH3 0x4A6 DUP2 PUSH1 0x6 PUSH3 0x15A JUMP JUMPDEST PUSH3 0x4DD PUSH3 0x4D6 PUSH32 0x8BE0079C531659141344CD1FD0A4F28419497F9722A3DAAFE3B4186F6B6457E0 SWAP4 PUSH3 0x13A JUMP JUMPDEST SWAP2 PUSH3 0x13A JUMP JUMPDEST SWAP2 PUSH3 0x4E8 PUSH1 0x40 MLOAD SWAP1 JUMP JUMPDEST PUSH1 0x0 SWAP1 LOG3 JUMP INVALID PUSH1 0x80 PUSH1 0x40 MSTORE PUSH1 0x4 CALLDATASIZE LT ISZERO PUSH2 0x12 JUMPI PUSH1 0x0 DUP1 REVERT JUMPDEST PUSH1 0x0 CALLDATALOAD PUSH1 0xE0 SHR DUP1 PUSH4 0x1FFC9A7 EQ PUSH2 0x1A2 JUMPI DUP1 PUSH4 0x6FDDE03 EQ PUSH2 0x19D JUMPI DUP1 PUSH4 0x81812FC EQ PUSH2 0x198 JUMPI DUP1 PUSH4 0x95EA7B3 EQ PUSH2 0x193 JUMPI DUP1 PUSH4 0xAD9D052 EQ PUSH2 0x18E JUMPI DUP1 PUSH4 0x21A78F68 EQ PUSH2 0x189 JUMPI DUP1 PUSH4 0x23B872DD EQ PUSH2 0x184 JUMPI DUP1 PUSH4 0x2D9FFF01 EQ PUSH2 0x17F JUMPI DUP1 PUSH4 0x40C10F19 EQ PUSH2 0x17A JUMPI DUP1 PUSH4 0x42842E0E EQ PUSH2 0x175 JUMPI DUP1 PUSH4 0x42966C68 EQ PUSH2 0x170 JUMPI DUP1 PUSH4 0x46D75C8C EQ PUSH2 0x16B JUMPI DUP1 PUSH4 0x6352211E EQ PUSH2 0x166 JUMPI DUP1 PUSH4 0x70A08231 EQ PUSH2 0x161 JUMPI DUP1 PUSH4 0x715018A6 EQ PUSH2 0x15C JUMPI DUP1 PUSH4 0x8DA5CB5B EQ PUSH2 0x157 JUMPI DUP1 PUSH4 0x95D89B41 EQ PUSH2 0x152 JUMPI DUP1 PUSH4 0xA22CB465 EQ PUSH2 0x14D JUMPI DUP1 PUSH4 0xB88D4FDE EQ PUSH2 0x148 JUMPI DUP1 PUSH4 0xC1FD4137 EQ PUSH2 0x143 JUMPI DUP1 PUSH4 0xC45A0155 EQ PUSH2 0x13E JUMPI DUP1 PUSH4 0xC73E835C EQ PUSH2 0x139 JUMPI DUP1 PUSH4 0xC87B56DD EQ PUSH2 0x134 JUMPI DUP1 PUSH4 0xE985E9C5 EQ PUSH2 0x12F JUMPI PUSH4 0xF2FDE38B SUB PUSH2 0x1BA JUMPI PUSH2 0xA03 JUMP JUMPDEST PUSH2 0x9E7 JUMP JUMPDEST PUSH2 0x966 JUMP JUMPDEST PUSH2 0x94E JUMP JUMPDEST PUSH2 0x927 JUMP JUMPDEST PUSH2 0x8B5 JUMP JUMPDEST PUSH2 0x899 JUMP JUMPDEST PUSH2 0x7FC JUMP JUMPDEST PUSH2 0x7A9 JUMP JUMPDEST PUSH2 0x782 JUMP JUMPDEST PUSH2 0x76A JUMP JUMPDEST PUSH2 0x73F JUMP JUMPDEST PUSH2 0x710 JUMP JUMPDEST PUSH2 0x6F8 JUMP JUMPDEST PUSH2 0x633 JUMP JUMPDEST PUSH2 0x61A JUMP JUMPDEST PUSH2 0x601 JUMP JUMPDEST PUSH2 0x5E6 JUMP JUMPDEST PUSH2 0x5C1 JUMP JUMPDEST PUSH2 0x576 JUMP JUMPDEST PUSH2 0x54F JUMP JUMPDEST PUSH2 0x525 JUMP JUMPDEST PUSH2 0x4C5 JUMP JUMPDEST PUSH2 0x3F5 JUMP JUMPDEST PUSH2 0x1E9 JUMP JUMPDEST PUSH1 0x1 PUSH1 0x1 PUSH1 0xE0 SHL SUB NOT DUP2 AND JUMPDEST SUB PUSH2 0x1BA JUMPI JUMP JUMPDEST PUSH1 0x0 DUP1 REVERT JUMPDEST SWAP1 POP CALLDATALOAD SWAP1 PUSH2 0x1CC DUP3 PUSH2 0x1A7 JUMP JUMPDEST JUMP JUMPDEST SWAP1 PUSH1 0x20 DUP3 DUP3 SUB SLT PUSH2 0x1BA JUMPI PUSH2 0x1E2 SWAP2 PUSH2 0x1BF JUMP JUMPDEST SWAP1 JUMP JUMPDEST SWAP1 MSTORE JUMP JUMPDEST CALLVALUE PUSH2 0x1BA JUMPI PUSH2 0x217 PUSH2 0x204 PUSH2 0x1FF CALLDATASIZE PUSH1 0x4 PUSH2 0x1CE JUMP JUMPDEST PUSH2 0x19F6 JUMP JUMPDEST PUSH1 0x40 MLOAD JUMPDEST SWAP2 DUP3 SWAP2 DUP3 SWAP1 ISZERO ISZERO DUP2 MSTORE PUSH1 0x20 ADD SWAP1 JUMP JUMPDEST SUB SWAP1 RETURN JUMPDEST PUSH1 0x0 SWAP2 SUB SLT PUSH2 0x1BA JUMPI JUMP JUMPDEST PUSH4 0x4E487B71 PUSH1 0xE0 SHL PUSH1 0x0 MSTORE PUSH1 0x0 PUSH1 0x4 MSTORE PUSH1 0x24 PUSH1 0x0 REVERT JUMPDEST PUSH4 0x4E487B71 PUSH1 0xE0 SHL PUSH1 0x0 MSTORE PUSH1 0x22 PUSH1 0x4 MSTORE PUSH1 0x24 PUSH1 0x0 REVERT JUMPDEST SWAP1 PUSH1 0x1 PUSH1 0x2 DUP4 DIV SWAP3 AND DUP1 ISZERO PUSH2 0x272 JUMPI JUMPDEST PUSH1 0x20 DUP4 LT EQ PUSH2 0x26D JUMPI JUMP JUMPDEST PUSH2 0x23C JUMP JUMPDEST SWAP2 PUSH1 0x7F AND SWAP2 PUSH2 0x262 JUMP JUMPDEST DUP1 SLOAD PUSH1 0x0 SWAP4 SWAP3 SWAP2 PUSH2 0x299 PUSH2 0x28F DUP4 PUSH2 0x252 JUMP JUMPDEST DUP1 DUP6 MSTORE SWAP4 PUSH1 0x20 ADD SWAP1 JUMP JUMPDEST SWAP2 PUSH1 0x1 DUP2 AND SWAP1 DUP2 ISZERO PUSH2 0x2EB JUMPI POP PUSH1 0x1 EQ PUSH2 0x2B2 JUMPI POP POP POP JUMP JUMPDEST PUSH2 0x2C5 SWAP2 SWAP3 SWAP4 SWAP5 POP PUSH1 0x0 MSTORE PUSH1 0x20 PUSH1 0x0 KECCAK256 SWAP1 JUMP JUMPDEST SWAP2 PUSH1 0x0 SWAP3 JUMPDEST DUP2 DUP5 LT PUSH2 0x2D7 JUMPI POP POP ADD SWAP1 JUMP JUMPDEST DUP1 SLOAD DUP5 DUP5 ADD MSTORE PUSH1 0x20 SWAP1 SWAP4 ADD SWAP3 PUSH1 0x1 ADD PUSH2 0x2CA JUMP JUMPDEST SWAP3 SWAP5 SWAP6 POP POP POP PUSH1 0xFF NOT AND DUP3 MSTORE ISZERO ISZERO PUSH1 0x20 MUL ADD SWAP1 JUMP JUMPDEST SWAP1 PUSH2 0x1E2 SWAP2 PUSH2 0x27C JUMP JUMPDEST PUSH4 0x4E487B71 PUSH1 0xE0 SHL PUSH1 0x0 MSTORE PUSH1 0x41 PUSH1 0x4 MSTORE PUSH1 0x24 PUSH1 0x0 REVERT JUMPDEST SWAP1 PUSH1 0x1F ADD PUSH1 0x1F NOT AND DUP2 ADD SWAP1 DUP2 LT PUSH8 0xFFFFFFFFFFFFFFFF DUP3 GT OR PUSH2 0x342 JUMPI PUSH1 0x40 MSTORE JUMP JUMPDEST PUSH2 0x30A JUMP JUMPDEST SWAP1 PUSH2 0x1CC PUSH2 0x361 SWAP3 PUSH2 0x358 PUSH1 0x40 MLOAD SWAP1 JUMP JUMPDEST SWAP4 DUP5 DUP1 SWAP3 PUSH2 0x300 JUMP JUMPDEST SUB DUP4 PUSH2 0x320 JUMP JUMPDEST SWAP1 PUSH1 0x0 LT PUSH2 0x379 JUMPI PUSH2 0x1E2 SWAP1 PUSH2 0x347 JUMP JUMPDEST PUSH2 0x226 JUMP JUMPDEST PUSH2 0x1E2 PUSH1 0x0 DUP1 PUSH2 0x368 JUMP JUMPDEST PUSH1 0x0 JUMPDEST DUP4 DUP2 LT PUSH2 0x39C JUMPI POP POP PUSH1 0x0 SWAP2 ADD MSTORE JUMP JUMPDEST DUP2 DUP2 ADD MLOAD DUP4 DUP3 ADD MSTORE PUSH1 0x20 ADD PUSH2 0x38C JUMP JUMPDEST PUSH2 0x3CD PUSH2 0x3D6 PUSH1 0x20 SWAP4 PUSH2 0x3E0 SWAP4 PUSH2 0x3C1 DUP2 MLOAD SWAP1 JUMP JUMPDEST DUP1 DUP4 MSTORE SWAP4 DUP5 SWAP3 PUSH1 0x20 ADD SWAP1 JUMP JUMPDEST SWAP6 DUP7 SWAP2 ADD PUSH2 0x389 JUMP JUMPDEST PUSH1 0x1F ADD PUSH1 0x1F NOT AND SWAP1 JUMP JUMPDEST ADD SWAP1 JUMP JUMPDEST PUSH1 0x20 DUP1 DUP3 MSTORE PUSH2 0x1E2 SWAP3 SWAP2 ADD SWAP1 PUSH2 0x3AC JUMP JUMPDEST CALLVALUE PUSH2 0x1BA JUMPI PUSH2 0x405 CALLDATASIZE PUSH1 0x4 PUSH2 0x21B JUMP JUMPDEST PUSH2 0x217 PUSH2 0x410 PUSH2 0x37E JUMP JUMPDEST PUSH1 0x40 MLOAD SWAP2 DUP3 SWAP2 DUP3 PUSH2 0x3E4 JUMP JUMPDEST DUP1 PUSH2 0x1B3 JUMP JUMPDEST SWAP1 POP CALLDATALOAD SWAP1 PUSH2 0x1CC DUP3 PUSH2 0x41C JUMP JUMPDEST SWAP1 PUSH1 0x20 DUP3 DUP3 SUB SLT PUSH2 0x1BA JUMPI PUSH2 0x1E2 SWAP2 PUSH2 0x422 JUMP JUMPDEST PUSH2 0x1E2 PUSH2 0x1E2 PUSH2 0x1E2 SWAP3 SWAP1 JUMP JUMPDEST SWAP1 PUSH2 0x45A SWAP1 PUSH2 0x443 JUMP JUMPDEST PUSH1 0x0 MSTORE PUSH1 0x20 MSTORE PUSH1 0x40 PUSH1 0x0 KECCAK256 SWAP1 JUMP JUMPDEST PUSH2 0x1E2 SWAP2 PUSH1 0x8 MUL SHR JUMPDEST PUSH20 0xFFFFFFFFFFFFFFFFFFFFFFFFFFFFFFFFFFFFFFFF AND SWAP1 JUMP JUMPDEST SWAP1 PUSH2 0x1E2 SWAP2 SLOAD PUSH2 0x468 JUMP JUMPDEST PUSH2 0x1E2 SWAP1 PUSH2 0x4A7 PUSH1 0x4 SWAP2 PUSH1 0x0 SWAP3 PUSH2 0x450 JUMP JUMPDEST PUSH2 0x48A JUMP JUMPDEST PUSH2 0x1E5 SWAP1 PUSH2 0x471 JUMP JUMPDEST PUSH1 0x20 DUP2 ADD SWAP3 SWAP2 PUSH2 0x1CC SWAP2 SWAP1 PUSH2 0x4AC JUMP JUMPDEST CALLVALUE PUSH2 0x1BA JUMPI PUSH2 0x217 PUSH2 0x4E0 PUSH2 0x4DB CALLDATASIZE PUSH1 0x4 PUSH2 0x42F JUMP JUMPDEST PUSH2 0x495 JUMP JUMPDEST PUSH1 0x40 MLOAD SWAP2 DUP3 SWAP2 DUP3 PUSH2 0x4B5 JUMP JUMPDEST PUSH2 0x1B3 DUP2 PUSH2 0x471 JUMP JUMPDEST SWAP1 POP CALLDATALOAD SWAP1 PUSH2 0x1CC DUP3 PUSH2 0x4EC JUMP JUMPDEST SWAP2 SWAP1 PUSH1 0x40 DUP4 DUP3 SUB SLT PUSH2 0x1BA JUMPI PUSH2 0x1E2 SWAP1 PUSH2 0x51C DUP2 DUP6 PUSH2 0x4F5 JUMP JUMPDEST SWAP4 PUSH1 0x20 ADD PUSH2 0x422 JUMP JUMPDEST CALLVALUE PUSH2 0x1BA JUMPI PUSH2 0x53E PUSH2 0x538 CALLDATASIZE PUSH1 0x4 PUSH2 0x502 JUMP JUMPDEST SWAP1 PUSH2 0x1640 JUMP JUMPDEST PUSH1 0x40 MLOAD STOP JUMPDEST PUSH2 0x1E2 PUSH1 0x0 PUSH1 0x9 PUSH2 0x368 JUMP JUMPDEST CALLVALUE PUSH2 0x1BA JUMPI PUSH2 0x55F CALLDATASIZE PUSH1 0x4 PUSH2 0x21B JUMP JUMPDEST PUSH2 0x217 PUSH2 0x410 PUSH2 0x543 JUMP JUMPDEST PUSH2 0x1E2 PUSH1 0x0 PUSH1 0xA PUSH2 0x368 JUMP JUMPDEST CALLVALUE PUSH2 0x1BA JUMPI PUSH2 0x586 CALLDATASIZE PUSH1 0x4 PUSH2 0x21B JUMP JUMPDEST PUSH2 0x217 PUSH2 0x410 PUSH2 0x56A JUMP JUMPDEST SWAP1 SWAP2 PUSH1 0x60 DUP3 DUP5 SUB SLT PUSH2 0x1BA JUMPI PUSH2 0x1E2 PUSH2 0x5AA DUP5 DUP5 PUSH2 0x4F5 JUMP JUMPDEST SWAP4 PUSH2 0x5B8 DUP2 PUSH1 0x20 DUP7 ADD PUSH2 0x4F5 JUMP JUMPDEST SWAP4 PUSH1 0x40 ADD PUSH2 0x422 JUMP JUMPDEST CALLVALUE PUSH2 0x1BA JUMPI PUSH2 0x53E PUSH2 0x5D4 CALLDATASIZE PUSH1 0x4 PUSH2 0x591 JUMP JUMPDEST SWAP2 PUSH2 0x120E JUMP JUMPDEST PUSH2 0x1E2 PUSH1 0x0 PUSH1 0x8 PUSH2 0x368 JUMP JUMPDEST CALLVALUE PUSH2 0x1BA JUMPI PUSH2 0x5F6 CALLDATASIZE PUSH1 0x4 PUSH2 0x21B JUMP JUMPDEST PUSH2 0x217 PUSH2 0x410 PUSH2 0x5DA JUMP JUMPDEST CALLVALUE PUSH2 0x1BA JUMPI PUSH2 0x53E PUSH2 0x614 CALLDATASIZE PUSH1 0x4 PUSH2 0x502 JUMP JUMPDEST SWAP1 PUSH2 0xDF3 JUMP JUMPDEST CALLVALUE PUSH2 0x1BA JUMPI PUSH2 0x53E PUSH2 0x62D CALLDATASIZE PUSH1 0x4 PUSH2 0x591 JUMP JUMPDEST SWAP2 PUSH2 0x17F1 JUMP JUMPDEST CALLVALUE PUSH2 0x1BA JUMPI PUSH2 0x53E PUSH2 0x646 CALLDATASIZE PUSH1 0x4 PUSH2 0x42F JUMP JUMPDEST PUSH2 0xE6E JUMP JUMPDEST SWAP1 PUSH2 0x1CC PUSH2 0x658 PUSH1 0x40 MLOAD SWAP1 JUMP JUMPDEST SWAP3 DUP4 PUSH2 0x320 JUMP JUMPDEST PUSH8 0xFFFFFFFFFFFFFFFF DUP2 GT PUSH2 0x342 JUMPI PUSH1 0x20 SWAP1 PUSH1 0x1F ADD PUSH1 0x1F NOT AND ADD SWAP1 JUMP JUMPDEST SWAP1 DUP3 PUSH1 0x0 SWAP4 SWAP3 DUP3 CALLDATACOPY ADD MSTORE JUMP JUMPDEST SWAP1 SWAP3 SWAP2 SWAP3 PUSH2 0x69D PUSH2 0x698 DUP3 PUSH2 0x65F JUMP JUMPDEST PUSH2 0x64B JUMP JUMPDEST SWAP4 DUP2 DUP6 MSTORE PUSH1 0x20 DUP6 ADD SWAP1 DUP3 DUP5 ADD GT PUSH2 0x1BA JUMPI PUSH2 0x1CC SWAP3 PUSH2 0x67C JUMP JUMPDEST SWAP1 DUP1 PUSH1 0x1F DUP4 ADD SLT ISZERO PUSH2 0x1BA JUMPI DUP2 PUSH1 0x20 PUSH2 0x1E2 SWAP4 CALLDATALOAD SWAP2 ADD PUSH2 0x688 JUMP JUMPDEST SWAP1 PUSH1 0x20 DUP3 DUP3 SUB SLT PUSH2 0x1BA JUMPI DUP2 CALLDATALOAD PUSH8 0xFFFFFFFFFFFFFFFF DUP2 GT PUSH2 0x1BA JUMPI PUSH2 0x1E2 SWAP3 ADD PUSH2 0x6B7 JUMP JUMPDEST CALLVALUE PUSH2 0x1BA JUMPI PUSH2 0x53E PUSH2 0x70B CALLDATASIZE PUSH1 0x4 PUSH2 0x6D2 JUMP JUMPDEST PUSH2 0xDB3 JUMP JUMPDEST CALLVALUE PUSH2 0x1BA JUMPI PUSH2 0x217 PUSH2 0x4E0 PUSH2 0x726 CALLDATASIZE PUSH1 0x4 PUSH2 0x42F JUMP JUMPDEST PUSH2 0xE95 JUMP JUMPDEST SWAP1 PUSH1 0x20 DUP3 DUP3 SUB SLT PUSH2 0x1BA JUMPI PUSH2 0x1E2 SWAP2 PUSH2 0x4F5 JUMP JUMPDEST CALLVALUE PUSH2 0x1BA JUMPI PUSH2 0x217 PUSH2 0x75A PUSH2 0x755 CALLDATASIZE PUSH1 0x4 PUSH2 0x72B JUMP JUMPDEST PUSH2 0xEC2 JUMP JUMPDEST PUSH1 0x40 MLOAD SWAP2 DUP3 SWAP2 DUP3 SWAP1 DUP2 MSTORE PUSH1 0x20 ADD SWAP1 JUMP JUMPDEST CALLVALUE PUSH2 0x1BA JUMPI PUSH2 0x77A CALLDATASIZE PUSH1 0x4 PUSH2 0x21B JUMP JUMPDEST PUSH2 0x53E PUSH2 0xA70 JUMP JUMPDEST CALLVALUE PUSH2 0x1BA JUMPI PUSH2 0x792 CALLDATASIZE PUSH1 0x4 PUSH2 0x21B JUMP JUMPDEST PUSH2 0x217 PUSH2 0x4E0 PUSH2 0xA2E JUMP JUMPDEST PUSH2 0x1E2 PUSH1 0x0 PUSH1 0x1 PUSH2 0x368 JUMP JUMPDEST CALLVALUE PUSH2 0x1BA JUMPI PUSH2 0x7B9 CALLDATASIZE PUSH1 0x4 PUSH2 0x21B JUMP JUMPDEST PUSH2 0x217 PUSH2 0x410 PUSH2 0x79D JUMP JUMPDEST DUP1 ISZERO ISZERO PUSH2 0x1B3 JUMP JUMPDEST SWAP1 POP CALLDATALOAD SWAP1 PUSH2 0x1CC DUP3 PUSH2 0x7C4 JUMP JUMPDEST SWAP2 SWAP1 PUSH1 0x40 DUP4 DUP3 SUB SLT PUSH2 0x1BA JUMPI PUSH2 0x1E2 SWAP1 PUSH2 0x7F3 DUP2 DUP6 PUSH2 0x4F5 JUMP JUMPDEST SWAP4 PUSH1 0x20 ADD PUSH2 0x7CC JUMP JUMPDEST CALLVALUE PUSH2 0x1BA JUMPI PUSH2 0x53E PUSH2 0x80F CALLDATASIZE PUSH1 0x4 PUSH2 0x7D9 JUMP JUMPDEST SWAP1 PUSH2 0x16F3 JUMP JUMPDEST SWAP1 SWAP2 DUP3 PUSH1 0x1F DUP4 ADD SLT ISZERO PUSH2 0x1BA JUMPI DUP2 CALLDATALOAD SWAP2 PUSH8 0xFFFFFFFFFFFFFFFF DUP4 GT PUSH2 0x1BA JUMPI PUSH1 0x20 ADD SWAP3 PUSH1 0x1 DUP4 MUL DUP5 ADD GT PUSH2 0x1BA JUMPI JUMP JUMPDEST SWAP1 PUSH1 0x80 DUP3 DUP3 SUB SLT PUSH2 0x1BA JUMPI PUSH2 0x85A DUP2 DUP4 PUSH2 0x4F5 JUMP JUMPDEST SWAP3 PUSH2 0x868 DUP3 PUSH1 0x20 DUP6 ADD PUSH2 0x4F5 JUMP JUMPDEST SWAP3 PUSH2 0x876 DUP4 PUSH1 0x40 DUP4 ADD PUSH2 0x422 JUMP JUMPDEST SWAP3 PUSH1 0x60 DUP3 ADD CALLDATALOAD PUSH8 0xFFFFFFFFFFFFFFFF DUP2 GT PUSH2 0x1BA JUMPI PUSH2 0x895 SWAP3 ADD PUSH2 0x815 JUMP JUMPDEST SWAP1 SWAP2 JUMP JUMPDEST CALLVALUE PUSH2 0x1BA JUMPI PUSH2 0x53E PUSH2 0x8AC CALLDATASIZE PUSH1 0x4 PUSH2 0x845 JUMP JUMPDEST SWAP4 SWAP3 SWAP1 SWAP3 PUSH2 0x190D JUMP JUMPDEST CALLVALUE PUSH2 0x1BA JUMPI PUSH2 0x53E PUSH2 0x8C8 CALLDATASIZE PUSH1 0x4 PUSH2 0x6D2 JUMP JUMPDEST PUSH2 0xD93 JUMP JUMPDEST PUSH2 0x1E2 PUSH1 0x0 PUSH1 0x7 PUSH2 0x48A JUMP JUMPDEST PUSH2 0x471 PUSH2 0x1E2 PUSH2 0x1E2 SWAP3 PUSH20 0xFFFFFFFFFFFFFFFFFFFFFFFFFFFFFFFFFFFFFFFF AND SWAP1 JUMP JUMPDEST PUSH2 0x1E2 SWAP1 PUSH2 0x8D9 JUMP JUMPDEST PUSH2 0x1E2 SWAP1 PUSH2 0x8FC JUMP JUMPDEST PUSH2 0x1E5 SWAP1 PUSH2 0x905 JUMP JUMPDEST PUSH1 0x20 DUP2 ADD SWAP3 SWAP2 PUSH2 0x1CC SWAP2 SWAP1 PUSH2 0x90E JUMP JUMPDEST CALLVALUE PUSH2 0x1BA JUMPI PUSH2 0x937 CALLDATASIZE PUSH1 0x4 PUSH2 0x21B JUMP JUMPDEST PUSH2 0x217 PUSH2 0x942 PUSH2 0x8CD JUMP JUMPDEST PUSH1 0x40 MLOAD SWAP2 DUP3 SWAP2 DUP3 PUSH2 0x917 JUMP JUMPDEST CALLVALUE PUSH2 0x1BA JUMPI PUSH2 0x53E PUSH2 0x961 CALLDATASIZE PUSH1 0x4 PUSH2 0x6D2 JUMP JUMPDEST PUSH2 0xDD3 JUMP JUMPDEST CALLVALUE PUSH2 0x1BA JUMPI PUSH2 0x217 PUSH2 0x410 PUSH2 0x97C CALLDATASIZE PUSH1 0x4 PUSH2 0x42F JUMP JUMPDEST PUSH2 0xF73 JUMP JUMPDEST SWAP2 SWAP1 PUSH1 0x40 DUP4 DUP3 SUB SLT PUSH2 0x1BA JUMPI PUSH2 0x1E2 SWAP1 PUSH2 0x99B DUP2 DUP6 PUSH2 0x4F5 JUMP JUMPDEST SWAP4 PUSH1 0x20 ADD PUSH2 0x4F5 JUMP JUMPDEST SWAP1 PUSH2 0x45A SWAP1 PUSH2 0x905 JUMP JUMPDEST PUSH2 0x1E2 SWAP2 PUSH1 0x8 MUL SHR JUMPDEST PUSH1 0xFF AND SWAP1 JUMP JUMPDEST SWAP1 PUSH2 0x1E2 SWAP2 SLOAD PUSH2 0x9AE JUMP JUMPDEST PUSH2 0x9E2 PUSH2 0x1E2 SWAP3 PUSH2 0x9DD PUSH1 0x5 SWAP4 PUSH1 0x0 SWAP5 PUSH2 0x9A4 JUMP JUMPDEST PUSH2 0x9A4 JUMP JUMPDEST PUSH2 0x9BD JUMP JUMPDEST CALLVALUE PUSH2 0x1BA JUMPI PUSH2 0x217 PUSH2 0x204 PUSH2 0x9FD CALLDATASIZE PUSH1 0x4 PUSH2 0x981 JUMP JUMPDEST SWAP1 PUSH2 0x9C8 JUMP JUMPDEST CALLVALUE PUSH2 0x1BA JUMPI PUSH2 0x53E PUSH2 0xA16 CALLDATASIZE PUSH1 0x4 PUSH2 0x72B JUMP JUMPDEST PUSH2 0xB4F JUMP JUMPDEST PUSH2 0x1E2 SWAP1 PUSH2 0x471 JUMP JUMPDEST PUSH2 0x1E2 SWAP1 SLOAD PUSH2 0xA1B JUMP JUMPDEST PUSH2 0x1E2 PUSH1 0x6 PUSH2 0xA24 JUMP JUMPDEST PUSH2 0xA40 PUSH2 0xA78 JUMP JUMPDEST PUSH2 0x1CC PUSH2 0xA5E JUMP JUMPDEST PUSH2 0x471 PUSH2 0x1E2 PUSH2 0x1E2 SWAP3 SWAP1 JUMP JUMPDEST PUSH2 0x1E2 SWAP1 PUSH2 0xA48 JUMP JUMPDEST PUSH2 0x1CC PUSH2 0xA6B PUSH1 0x0 PUSH2 0xA55 JUMP JUMPDEST PUSH2 0xB95 JUMP JUMPDEST PUSH2 0x1CC PUSH2 0xA38 JUMP JUMPDEST PUSH2 0xA80 PUSH2 0xA2E JUMP JUMPDEST CALLER SWAP1 PUSH2 0xA94 PUSH2 0xA8E DUP4 PUSH2 0x471 JUMP JUMPDEST SWAP2 PUSH2 0x471 JUMP JUMPDEST SUB PUSH2 0xA9C JUMPI POP JUMP JUMPDEST PUSH2 0xAD8 SWAP1 PUSH2 0xAA9 PUSH1 0x40 MLOAD SWAP1 JUMP JUMPDEST SWAP2 DUP3 SWAP2 PUSH32 0x118CDAA700000000000000000000000000000000000000000000000000000000 DUP4 MSTORE PUSH1 0x4 DUP4 ADD PUSH2 0x4B5 JUMP JUMPDEST SUB SWAP1 REVERT JUMPDEST PUSH2 0x1CC SWAP1 PUSH2 0xAE8 PUSH2 0xA78 JUMP JUMPDEST PUSH2 0xAF2 PUSH1 0x0 PUSH2 0xA55 JUMP JUMPDEST PUSH2 0xAFB DUP2 PUSH2 0x471 JUMP JUMPDEST PUSH2 0xB04 DUP4 PUSH2 0x471 JUMP JUMPDEST EQ PUSH2 0xB13 JUMPI POP PUSH2 0x1CC SWAP1 PUSH2 0xB95 JUMP JUMPDEST PUSH2 0xAD8 SWAP1 PUSH2 0xB20 PUSH1 0x40 MLOAD SWAP1 JUMP JUMPDEST SWAP2 DUP3 SWAP2 PUSH32 0x1E4FBDF700000000000000000000000000000000000000000000000000000000 DUP4 MSTORE PUSH1 0x4 DUP4 ADD PUSH2 0x4B5 JUMP JUMPDEST PUSH2 0x1CC SWAP1 PUSH2 0xADC JUMP JUMPDEST SWAP1 PUSH20 0xFFFFFFFFFFFFFFFFFFFFFFFFFFFFFFFFFFFFFFFF SWAP1 JUMPDEST SWAP2 DUP2 NOT AND SWAP2 AND OR SWAP1 JUMP JUMPDEST SWAP1 PUSH2 0xB8A PUSH2 0x1E2 PUSH2 0xB91 SWAP3 PUSH2 0x905 JUMP JUMPDEST DUP3 SLOAD PUSH2 0xB58 JUMP JUMPDEST SWAP1 SSTORE JUMP JUMPDEST PUSH2 0xB9F PUSH1 0x6 PUSH2 0xA24 JUMP JUMPDEST SWAP1 PUSH2 0xBAB DUP2 PUSH1 0x6 PUSH2 0xB7A JUMP JUMPDEST PUSH2 0xBDE PUSH2 0xBD8 PUSH32 0x8BE0079C531659141344CD1FD0A4F28419497F9722A3DAAFE3B4186F6B6457E0 SWAP4 PUSH2 0x905 JUMP JUMPDEST SWAP2 PUSH2 0x905 JUMP JUMPDEST SWAP2 PUSH2 0xBE8 PUSH1 0x40 MLOAD SWAP1 JUMP JUMPDEST DUP1 DUP1 JUMPDEST SUB SWAP1 LOG3 JUMP JUMPDEST PUSH2 0x1CC SWAP1 PUSH2 0xBFC PUSH2 0xA78 JUMP JUMPDEST PUSH2 0xD88 JUMP JUMPDEST SWAP2 PUSH1 0x0 NOT PUSH1 0x8 SWAP3 SWAP1 SWAP3 MUL SWAP2 DUP3 SHL SWAP2 SHL PUSH2 0xB70 JUMP JUMPDEST SWAP3 SHL SWAP1 JUMP JUMPDEST SWAP2 SWAP1 PUSH2 0xC2B PUSH2 0x1E2 PUSH2 0xB91 SWAP4 PUSH2 0x443 JUMP JUMPDEST SWAP1 DUP4 SLOAD PUSH2 0xC01 JUMP JUMPDEST PUSH2 0x1CC SWAP2 PUSH1 0x0 SWAP2 PUSH2 0xC1A JUMP JUMPDEST DUP2 DUP2 LT PUSH2 0xC4A JUMPI POP POP JUMP JUMPDEST DUP1 PUSH2 0xC58 PUSH1 0x0 PUSH1 0x1 SWAP4 PUSH2 0xC33 JUMP JUMPDEST ADD PUSH2 0xC3F JUMP JUMPDEST SWAP2 SWAP1 PUSH1 0x1F DUP2 GT PUSH2 0xC6D JUMPI POP POP POP JUMP JUMPDEST PUSH2 0xC7F PUSH2 0x1CC SWAP4 PUSH1 0x0 MSTORE PUSH1 0x20 PUSH1 0x0 KECCAK256 SWAP1 JUMP JUMPDEST SWAP1 PUSH1 0x20 PUSH1 0x1F DUP5 ADD DUP2 SWAP1 DIV DUP4 ADD SWAP4 LT PUSH2 0xCA1 JUMPI JUMPDEST PUSH1 0x20 PUSH1 0x1F SWAP1 SWAP2 ADD DIV ADD SWAP1 PUSH2 0xC3F JUMP JUMPDEST SWAP1 SWAP2 POP DUP2 SWAP1 PUSH2 0xC92 JUMP JUMPDEST SWAP1 PUSH2 0xCB4 DUP2 MLOAD SWAP1 JUMP JUMPDEST SWAP1 PUSH8 0xFFFFFFFFFFFFFFFF DUP3 GT PUSH2 0x342 JUMPI PUSH2 0xCD8 DUP3 PUSH2 0xCD2 DUP6 SLOAD PUSH2 0x252 JUMP JUMPDEST DUP6 PUSH2 0xC5E JUMP JUMPDEST PUSH1 0x20 SWAP1 PUSH1 0x1F DUP4 GT PUSH1 0x1 EQ PUSH2 0xD13 JUMPI PUSH2 0xB91 SWAP3 SWAP2 PUSH1 0x0 SWAP2 DUP4 PUSH2 0xD08 JUMPI JUMPDEST POP POP PUSH1 0x0 NOT PUSH1 0x8 DUP4 MUL SHR NOT AND SWAP1 PUSH1 0x2 MUL OR SWAP1 JUMP JUMPDEST ADD MLOAD SWAP1 POP CODESIZE DUP1 PUSH2 0xCF4 JUMP JUMPDEST PUSH1 0x1F NOT DUP4 AND SWAP2 PUSH2 0xD28 DUP6 PUSH1 0x0 MSTORE PUSH1 0x20 PUSH1 0x0 KECCAK256 SWAP1 JUMP JUMPDEST SWAP3 PUSH1 0x0 JUMPDEST DUP2 DUP2 LT PUSH2 0xD66 JUMPI POP SWAP2 PUSH1 0x2 SWAP4 SWAP2 DUP6 PUSH1 0x1 SWAP7 SWAP5 LT PUSH2 0xD4D JUMPI JUMPDEST POP POP POP MUL ADD SWAP1 SSTORE JUMP JUMPDEST ADD MLOAD PUSH1 0x0 NOT PUSH1 0x8 PUSH1 0x1F DUP6 AND MUL SHR NOT AND SWAP1 SSTORE CODESIZE DUP1 DUP1 PUSH2 0xD44 JUMP JUMPDEST SWAP2 SWAP4 PUSH1 0x20 PUSH1 0x1 DUP2 SWAP3 DUP8 DUP8 ADD MLOAD DUP2 SSTORE ADD SWAP6 ADD SWAP3 ADD PUSH2 0xD2C JUMP JUMPDEST SWAP1 PUSH2 0x1CC SWAP2 PUSH2 0xCAB JUMP JUMPDEST PUSH2 0x1CC SWAP1 PUSH1 0x8 PUSH2 0xD7E JUMP JUMPDEST PUSH2 0x1CC SWAP1 PUSH2 0xBF0 JUMP JUMPDEST PUSH2 0x1CC SWAP1 PUSH2 0xDA8 PUSH2 0xA78 JUMP JUMPDEST PUSH2 0x1CC SWAP1 PUSH1 0x9 PUSH2 0xD7E JUMP JUMPDEST PUSH2 0x1CC SWAP1 PUSH2 0xD9C JUMP JUMPDEST PUSH2 0x1CC SWAP1 PUSH2 0xDC8 PUSH2 0xA78 JUMP JUMPDEST PUSH2 0x1CC SWAP1 PUSH1 0xA PUSH2 0xD7E JUMP JUMPDEST PUSH2 0x1CC SWAP1 PUSH2 0xDBC JUMP JUMPDEST SWAP1 PUSH2 0x1CC SWAP2 PUSH2 0xDE9 PUSH2 0xA78 JUMP JUMPDEST SWAP1 PUSH2 0x1CC SWAP2 PUSH2 0x1B82 JUMP JUMPDEST SWAP1 PUSH2 0x1CC SWAP2 PUSH2 0xDDC JUMP JUMPDEST ISZERO PUSH2 0xE04 JUMPI JUMP JUMPDEST PUSH1 0x40 MLOAD PUSH3 0x461BCD PUSH1 0xE5 SHL DUP2 MSTORE PUSH1 0x20 PUSH1 0x4 DUP3 ADD MSTORE PUSH1 0x24 DUP1 DUP3 ADD MSTORE PUSH32 0x4B6574746C6541737365743A2063616C6C6572206973206E6F7420746865206F PUSH1 0x44 DUP3 ADD MSTORE PUSH32 0x776E657200000000000000000000000000000000000000000000000000000000 PUSH1 0x64 DUP3 ADD MSTORE PUSH1 0x84 SWAP1 REVERT JUMPDEST PUSH2 0x1CC SWAP1 PUSH2 0xE90 CALLER PUSH2 0xE8A PUSH2 0xA8E PUSH2 0xE85 DUP6 PUSH2 0xE95 JUMP JUMPDEST PUSH2 0x471 JUMP JUMPDEST EQ PUSH2 0xDFD JUMP JUMPDEST PUSH2 0x1AF0 JUMP JUMPDEST PUSH2 0xEAC PUSH2 0x1E2 SWAP2 PUSH2 0xEA4 PUSH1 0x0 SWAP1 JUMP JUMPDEST POP PUSH1 0x2 PUSH2 0x450 JUMP JUMPDEST PUSH2 0xA24 JUMP JUMPDEST PUSH2 0x1E2 SWAP1 DUP2 JUMP JUMPDEST PUSH2 0x1E2 SWAP1 SLOAD PUSH2 0xEB1 JUMP JUMPDEST PUSH2 0xED9 PUSH2 0x1E2 SWAP2 PUSH2 0xED1 PUSH1 0x0 SWAP1 JUMP JUMPDEST POP PUSH1 0x3 PUSH2 0x9A4 JUMP JUMPDEST PUSH2 0xEB8 JUMP JUMPDEST SWAP1 SWAP3 SWAP2 SWAP3 PUSH2 0xEEE PUSH2 0x698 DUP3 PUSH2 0x65F JUMP JUMPDEST SWAP4 DUP2 DUP6 MSTORE PUSH1 0x20 DUP6 ADD SWAP1 DUP3 DUP5 ADD GT PUSH2 0x1BA JUMPI PUSH2 0x1CC SWAP3 PUSH2 0x389 JUMP JUMPDEST SWAP1 DUP1 PUSH1 0x1F DUP4 ADD SLT ISZERO PUSH2 0x1BA JUMPI DUP2 MLOAD PUSH2 0x1E2 SWAP3 PUSH1 0x20 ADD PUSH2 0xEDE JUMP JUMPDEST SWAP1 PUSH1 0x20 DUP3 DUP3 SUB SLT PUSH2 0x1BA JUMPI DUP2 MLOAD PUSH8 0xFFFFFFFFFFFFFFFF DUP2 GT PUSH2 0x1BA JUMPI PUSH2 0x1E2 SWAP3 ADD PUSH2 0xF08 JUMP JUMPDEST SWAP2 PUSH1 0x20 PUSH2 0x1CC SWAP3 SWAP5 SWAP4 PUSH2 0xF63 PUSH1 0x40 DUP3 ADD SWAP7 PUSH1 0x0 DUP4 ADD SWAP1 PUSH2 0x4AC JUMP JUMPDEST ADD MSTORE JUMP JUMPDEST PUSH1 0x40 MLOAD RETURNDATASIZE PUSH1 0x0 DUP3 RETURNDATACOPY RETURNDATASIZE SWAP1 REVERT JUMPDEST PUSH1 0x0 PUSH2 0xF87 PUSH2 0xF82 PUSH1 0x7 PUSH2 0xA24 JUMP JUMPDEST PUSH2 0x905 JUMP JUMPDEST PUSH4 0xE9DC6375 SWAP1 PUSH2 0xFB3 PUSH2 0xF99 ADDRESS PUSH2 0x905 JUMP JUMPDEST SWAP3 PUSH2 0xFBE PUSH2 0xFA6 PUSH1 0x40 MLOAD SWAP1 JUMP JUMPDEST SWAP7 DUP8 SWAP6 DUP7 SWAP5 DUP6 SWAP5 PUSH1 0xE0 SHL SWAP1 JUMP JUMPDEST DUP5 MSTORE PUSH1 0x4 DUP5 ADD PUSH2 0xF48 JUMP JUMPDEST SUB SWAP2 GAS STATICCALL SWAP1 DUP2 ISZERO PUSH2 0xFEF JUMPI PUSH1 0x0 SWAP2 PUSH2 0xFD4 JUMPI POP SWAP1 JUMP JUMPDEST PUSH2 0x1E2 SWAP2 RETURNDATASIZE DUP1 SWAP2 DUP4 RETURNDATACOPY PUSH2 0xFE7 DUP2 DUP4 PUSH2 0x320 JUMP JUMPDEST DUP2 ADD SWAP1 PUSH2 0xF22 JUMP JUMPDEST PUSH2 0xF67 JUMP JUMPDEST ISZERO PUSH2 0xFFB JUMPI JUMP JUMPDEST PUSH1 0x40 MLOAD PUSH3 0x461BCD PUSH1 0xE5 SHL DUP2 MSTORE PUSH1 0x20 PUSH1 0x4 DUP3 ADD MSTORE PUSH1 0xA PUSH1 0x24 DUP3 ADD MSTORE PUSH32 0x57524F4E475F46524F4D00000000000000000000000000000000000000000000 PUSH1 0x44 DUP3 ADD MSTORE PUSH1 0x64 SWAP1 REVERT JUMPDEST ISZERO PUSH2 0x1047 JUMPI JUMP JUMPDEST PUSH1 0x40 MLOAD PUSH3 0x461BCD PUSH1 0xE5 SHL DUP2 MSTORE PUSH1 0x20 PUSH1 0x4 DUP3 ADD MSTORE PUSH1 0x11 PUSH1 0x24 DUP3 ADD MSTORE PUSH32 0x494E56414C49445F524543495049454E54000000000000000000000000000000 PUSH1 0x44 DUP3 ADD MSTORE PUSH1 0x64 SWAP1 REVERT JUMPDEST SWAP1 POP MLOAD SWAP1 PUSH2 0x1CC DUP3 PUSH2 0x7C4 JUMP JUMPDEST SWAP1 PUSH1 0x20 DUP3 DUP3 SUB SLT PUSH2 0x1BA JUMPI PUSH2 0x1E2 SWAP2 PUSH2 0x108C JUMP JUMPDEST ISZERO PUSH2 0x10B4 JUMPI JUMP JUMPDEST PUSH1 0x40 MLOAD PUSH3 0x461BCD PUSH1 0xE5 SHL DUP2 MSTORE PUSH1 0x20 PUSH1 0x4 DUP3 ADD MSTORE PUSH1 0xF PUSH1 0x24 DUP3 ADD MSTORE PUSH32 0x434F4E54524143545F4C4F434B45440000000000000000000000000000000000 PUSH1 0x44 DUP3 ADD MSTORE PUSH1 0x64 SWAP1 REVERT JUMPDEST ISZERO PUSH2 0x1100 JUMPI JUMP JUMPDEST PUSH1 0x40 MLOAD PUSH3 0x461BCD PUSH1 0xE5 SHL DUP2 MSTORE PUSH1 0x20 PUSH1 0x4 DUP3 ADD MSTORE PUSH1 0xC PUSH1 0x24 DUP3 ADD MSTORE PUSH32 0x544F4B454E5F4C4F434B45440000000000000000000000000000000000000000 PUSH1 0x44 DUP3 ADD MSTORE PUSH1 0x64 SWAP1 REVERT JUMPDEST PUSH2 0xF63 PUSH2 0x1CC SWAP5 PUSH2 0x1171 PUSH1 0x60 SWAP5 SWAP9 SWAP8 SWAP6 PUSH2 0x1167 PUSH1 0x80 DUP7 ADD SWAP11 PUSH1 0x0 DUP8 ADD SWAP1 PUSH2 0x4AC JUMP JUMPDEST PUSH1 0x20 DUP6 ADD SWAP1 PUSH2 0x4AC JUMP JUMPDEST PUSH1 0x40 DUP4 ADD SWAP1 PUSH2 0x4AC JUMP JUMPDEST ISZERO PUSH2 0x1182 JUMPI JUMP JUMPDEST PUSH1 0x40 MLOAD PUSH3 0x461BCD PUSH1 0xE5 SHL DUP2 MSTORE PUSH1 0x20 PUSH1 0x4 DUP3 ADD MSTORE PUSH1 0x23 PUSH1 0x24 DUP3 ADD MSTORE PUSH32 0x4E4F545F415554484F52495A45445F4F50455241544F525F4F525F5452414E53 PUSH1 0x44 DUP3 ADD MSTORE PUSH32 0x4645520000000000000000000000000000000000000000000000000000000000 PUSH1 0x64 DUP3 ADD MSTORE PUSH1 0x84 SWAP1 REVERT JUMPDEST SWAP1 PUSH1 0x0 NOT SWAP1 PUSH2 0xB70 JUMP JUMPDEST SWAP1 PUSH2 0x1207 PUSH2 0x1E2 PUSH2 0xB91 SWAP3 PUSH2 0x443 JUMP JUMPDEST DUP3 SLOAD PUSH2 0x11ED JUMP JUMPDEST SWAP2 SWAP1 PUSH1 0x2 PUSH2 0x1234 PUSH2 0x1225 PUSH2 0xE85 PUSH2 0xEAC DUP7 DUP6 PUSH2 0x450 JUMP JUMPDEST PUSH2 0x122E DUP7 PUSH2 0x471 JUMP JUMPDEST EQ PUSH2 0xFF4 JUMP JUMPDEST PUSH1 0x0 SWAP1 PUSH2 0x1256 PUSH2 0x1246 PUSH2 0xE85 DUP5 PUSH2 0xA55 JUMP JUMPDEST PUSH2 0x124F DUP6 PUSH2 0x471 JUMP JUMPDEST EQ ISZERO PUSH2 0x1040 JUMP JUMPDEST PUSH2 0x1263 PUSH2 0xF82 PUSH1 0x7 PUSH2 0xA24 JUMP JUMPDEST SWAP1 PUSH2 0x128A PUSH1 0x20 PUSH4 0xD41D4174 PUSH2 0x1277 ADDRESS PUSH2 0x905 JUMP JUMPDEST SWAP5 PUSH2 0x1281 PUSH1 0x40 MLOAD SWAP1 JUMP JUMPDEST SWAP4 DUP5 SWAP3 PUSH1 0xE0 SHL SWAP1 JUMP JUMPDEST DUP3 MSTORE DUP2 DUP1 PUSH2 0x129B DUP9 PUSH1 0x4 DUP4 ADD PUSH2 0x4B5 JUMP JUMPDEST SUB SWAP2 GAS STATICCALL SWAP1 DUP2 ISZERO PUSH2 0xFEF JUMPI PUSH2 0x12BF SWAP2 PUSH2 0x12BA SWAP2 PUSH1 0x0 SWAP2 PUSH2 0x15C5 JUMPI POP ISZERO SWAP1 JUMP JUMPDEST PUSH2 0x10AD JUMP JUMPDEST PUSH2 0x12E0 PUSH1 0x20 PUSH2 0x12D1 PUSH2 0xF82 PUSH1 0x7 PUSH2 0xA24 JUMP JUMPDEST PUSH4 0x53719B6E SWAP1 PUSH2 0x1281 PUSH1 0x40 MLOAD SWAP1 JUMP JUMPDEST DUP3 MSTORE DUP2 DUP1 PUSH2 0x12F2 DUP12 DUP10 PUSH1 0x4 DUP5 ADD PUSH2 0xF48 JUMP JUMPDEST SUB SWAP2 GAS STATICCALL SWAP1 DUP2 ISZERO PUSH2 0xFEF JUMPI PUSH2 0x1316 SWAP2 PUSH2 0x1311 SWAP2 PUSH1 0x0 SWAP2 PUSH2 0x15C5 JUMPI POP ISZERO SWAP1 JUMP JUMPDEST PUSH2 0x10F9 JUMP JUMPDEST PUSH2 0x1354 PUSH1 0x20 PUSH2 0x1328 PUSH2 0xF82 PUSH1 0x7 PUSH2 0xA24 JUMP JUMPDEST PUSH4 0x13E7C9D8 SWAP1 PUSH2 0x1349 CALLER SWAP3 PUSH2 0x133C PUSH1 0x40 MLOAD SWAP1 JUMP JUMPDEST SWAP6 DUP7 SWAP5 DUP6 SWAP4 DUP5 SWAP4 PUSH1 0xE0 SHL SWAP1 JUMP JUMPDEST DUP4 MSTORE PUSH1 0x4 DUP4 ADD PUSH2 0x4B5 JUMP JUMPDEST SUB SWAP2 GAS STATICCALL SWAP1 DUP2 ISZERO PUSH2 0xFEF JUMPI DUP6 SWAP2 DUP8 SWAP2 PUSH1 0x0 SWAP2 PUSH2 0x15A7 JUMPI JUMPDEST POP DUP1 ISZERO PUSH2 0x1517 JUMPI JUMPDEST SWAP1 PUSH2 0x13CF SWAP4 PUSH2 0x1384 PUSH2 0x13CA SWAP4 PUSH2 0x117B JUMP JUMPDEST PUSH2 0x13C5 PUSH2 0x13B3 DUP6 PUSH1 0x3 PUSH2 0x9DD PUSH2 0x139A DUP16 DUP4 PUSH2 0x9A4 JUMP JUMPDEST PUSH2 0x13AD PUSH2 0x13A6 DUP3 PUSH2 0xEB8 JUMP JUMPDEST PUSH1 0x0 NOT ADD SWAP1 JUMP JUMPDEST SWAP1 PUSH2 0x11F7 JUMP JUMPDEST PUSH2 0x13AD PUSH2 0x13BF DUP3 PUSH2 0xEB8 JUMP JUMPDEST PUSH1 0x1 ADD SWAP1 JUMP JUMPDEST PUSH2 0x450 JUMP JUMPDEST PUSH2 0xB7A JUMP JUMPDEST PUSH2 0x13DC PUSH2 0xF82 PUSH1 0x7 PUSH2 0xA24 JUMP JUMPDEST PUSH4 0x913874B7 SWAP1 DUP1 EXTCODESIZE ISZERO PUSH2 0x1BA JUMPI DUP7 DUP5 SWAP2 PUSH2 0x140C DUP4 DUP9 SWAP6 PUSH2 0x1418 DUP12 PUSH2 0x13FF PUSH1 0x40 MLOAD SWAP1 JUMP JUMPDEST SWAP9 DUP10 SWAP8 DUP9 SWAP7 DUP8 SWAP6 PUSH1 0xE0 SHL SWAP1 JUMP JUMPDEST DUP6 MSTORE DUP12 PUSH1 0x4 DUP7 ADD PUSH2 0x1145 JUMP JUMPDEST SUB SWAP3 GAS CALL DUP1 ISZERO PUSH2 0xFEF JUMPI PUSH2 0x14FB JUMPI JUMPDEST POP PUSH2 0x1435 PUSH2 0xF82 PUSH1 0x7 PUSH2 0xA24 JUMP JUMPDEST SWAP1 PUSH4 0x7DF0056 SWAP1 DUP3 EXTCODESIZE ISZERO PUSH2 0x1BA JUMPI DUP7 SWAP3 PUSH2 0x1466 DUP6 DUP1 SWAP5 PUSH2 0x1471 DUP11 DUP11 PUSH2 0x1459 PUSH1 0x40 MLOAD SWAP1 JUMP JUMPDEST SWAP10 DUP11 SWAP9 DUP10 SWAP8 DUP9 SWAP7 PUSH1 0xE0 SHL SWAP1 JUMP JUMPDEST DUP7 MSTORE PUSH1 0x4 DUP7 ADD PUSH2 0x1145 JUMP JUMPDEST SUB SWAP3 GAS CALL DUP1 ISZERO PUSH2 0xFEF JUMPI PUSH2 0x14CE JUMPI JUMPDEST POP POP PUSH2 0x14BE PUSH2 0x14B8 PUSH2 0x14B2 PUSH32 0xDDF252AD1BE2C89B69C2B068FC378DAA952BA7F163C4A11628F55A4DF523B3EF SWAP6 PUSH2 0x905 JUMP JUMPDEST SWAP3 PUSH2 0x905 JUMP JUMPDEST SWAP3 PUSH2 0x443 JUMP JUMPDEST SWAP3 PUSH2 0x14C8 PUSH1 0x40 MLOAD SWAP1 JUMP JUMPDEST PUSH1 0x0 SWAP1 LOG4 JUMP JUMPDEST DUP2 PUSH2 0x14ED SWAP3 SWAP1 RETURNDATASIZE LT PUSH2 0x14F4 JUMPI JUMPDEST PUSH2 0x14E5 DUP2 DUP4 PUSH2 0x320 JUMP JUMPDEST DUP2 ADD SWAP1 PUSH2 0x21B JUMP JUMPDEST CODESIZE DUP1 PUSH2 0x1480 JUMP JUMPDEST POP RETURNDATASIZE PUSH2 0x14DB JUMP JUMPDEST PUSH2 0x1511 SWAP1 DUP4 RETURNDATASIZE DUP6 GT PUSH2 0x14F4 JUMPI PUSH2 0x14E5 DUP2 DUP4 PUSH2 0x320 JUMP JUMPDEST CODESIZE PUSH2 0x1427 JUMP JUMPDEST POP POP SWAP1 PUSH1 0x20 DUP8 PUSH2 0x152A PUSH2 0xF82 PUSH1 0x7 PUSH2 0xA24 JUMP JUMPDEST PUSH2 0x140C PUSH4 0xC583FCEC PUSH2 0x154C DUP12 PUSH2 0x153F PUSH1 0x40 MLOAD SWAP1 JUMP JUMPDEST SWAP9 DUP10 SWAP7 DUP8 SWAP6 DUP7 SWAP6 PUSH1 0xE0 SHL SWAP1 JUMP JUMPDEST SUB SWAP2 GAS STATICCALL SWAP2 DUP3 ISZERO PUSH2 0xFEF JUMPI DUP7 DUP7 SWAP3 PUSH2 0x1384 PUSH2 0x13CF SWAP6 PUSH2 0x13CA SWAP5 PUSH1 0x0 SWAP2 PUSH2 0x1579 JUMPI JUMPDEST POP SWAP3 SWAP4 POP POP SWAP4 POP PUSH2 0x1373 JUMP JUMPDEST PUSH2 0x159A SWAP2 POP PUSH1 0x20 RETURNDATASIZE DUP2 GT PUSH2 0x15A0 JUMPI JUMPDEST PUSH2 0x1592 DUP2 DUP4 PUSH2 0x320 JUMP JUMPDEST DUP2 ADD SWAP1 PUSH2 0x1099 JUMP JUMPDEST CODESIZE PUSH2 0x156D JUMP JUMPDEST POP RETURNDATASIZE PUSH2 0x1588 JUMP JUMPDEST PUSH2 0x15BF SWAP2 POP PUSH1 0x20 RETURNDATASIZE DUP2 GT PUSH2 0x15A0 JUMPI PUSH2 0x1592 DUP2 DUP4 PUSH2 0x320 JUMP JUMPDEST CODESIZE PUSH2 0x136B JUMP JUMPDEST PUSH2 0x15DD SWAP2 POP PUSH1 0x20 RETURNDATASIZE DUP2 GT PUSH2 0x15A0 JUMPI PUSH2 0x1592 DUP2 DUP4 PUSH2 0x320 JUMP JUMPDEST ISZERO SWAP1 JUMP JUMPDEST PUSH2 0x1E2 SWAP1 PUSH2 0x9B7 JUMP JUMPDEST PUSH2 0x1E2 SWAP1 SLOAD PUSH2 0x15E1 JUMP JUMPDEST ISZERO PUSH2 0x15FB JUMPI JUMP JUMPDEST PUSH1 0x40 MLOAD PUSH3 0x461BCD PUSH1 0xE5 SHL DUP2 MSTORE PUSH1 0x20 PUSH1 0x4 DUP3 ADD MSTORE PUSH1 0xE PUSH1 0x24 DUP3 ADD MSTORE PUSH32 0x4E4F545F415554484F52495A4544000000000000000000000000000000000000 PUSH1 0x44 DUP3 ADD MSTORE PUSH1 0x64 SWAP1 REVERT JUMPDEST SWAP1 PUSH2 0x164F PUSH2 0xEAC DUP3 PUSH1 0x2 PUSH2 0x450 JUMP JUMPDEST SWAP2 PUSH2 0x1675 CALLER PUSH2 0x165D DUP6 PUSH2 0x471 JUMP JUMPDEST PUSH2 0x1666 DUP3 PUSH2 0x471 JUMP JUMPDEST EQ SWAP1 DUP2 ISZERO PUSH2 0x16B4 JUMPI JUMPDEST POP PUSH2 0x15F4 JUMP JUMPDEST PUSH2 0x1684 DUP2 PUSH2 0x13CA DUP5 PUSH1 0x4 PUSH2 0x450 JUMP JUMPDEST PUSH2 0x14BE PUSH2 0x14B8 PUSH2 0x14B2 PUSH32 0x8C5BE1E5EBEC7D5BD14F71427D1E84F3DD0314C0F7B2291E5B200AC8C7C3B925 SWAP6 PUSH2 0x905 JUMP JUMPDEST PUSH2 0x16CD SWAP2 POP PUSH2 0x16C8 SWAP1 PUSH2 0x9DD DUP8 PUSH1 0x5 PUSH2 0x9A4 JUMP JUMPDEST PUSH2 0x15EA JUMP JUMPDEST CODESIZE PUSH2 0x166F JUMP JUMPDEST SWAP1 PUSH1 0xFF SWAP1 PUSH2 0xB70 JUMP JUMPDEST SWAP1 PUSH2 0x16EC PUSH2 0x1E2 PUSH2 0xB91 SWAP3 ISZERO ISZERO SWAP1 JUMP JUMPDEST DUP3 SLOAD PUSH2 0x16D3 JUMP JUMPDEST CALLER PUSH2 0x170C DUP4 PUSH2 0x1707 DUP5 PUSH2 0x9DD DUP6 PUSH1 0x5 PUSH2 0x9A4 JUMP JUMPDEST PUSH2 0x16DC JUMP JUMPDEST PUSH2 0xBEB PUSH2 0x1742 PUSH2 0x173C PUSH32 0x17307EAB39AB6107E8899845AD3D59BD9653F200F220920489CA2B5937696C31 SWAP4 PUSH2 0x905 JUMP JUMPDEST SWAP4 PUSH2 0x905 JUMP JUMPDEST SWAP4 PUSH2 0x208 PUSH1 0x40 MLOAD SWAP1 JUMP JUMPDEST SWAP1 POP MLOAD SWAP1 PUSH2 0x1CC DUP3 PUSH2 0x1A7 JUMP JUMPDEST SWAP1 PUSH1 0x20 DUP3 DUP3 SUB SLT PUSH2 0x1BA JUMPI PUSH2 0x1E2 SWAP2 PUSH2 0x174C JUMP JUMPDEST SWAP1 SWAP2 PUSH2 0x1E2 SWAP4 PUSH2 0x178C PUSH2 0x1793 SWAP3 PUSH2 0x1167 PUSH1 0x80 DUP7 ADD SWAP7 PUSH1 0x0 DUP8 ADD SWAP1 PUSH2 0x4AC JUMP JUMPDEST PUSH1 0x40 DUP4 ADD MSTORE JUMP JUMPDEST PUSH1 0x60 DUP2 DUP4 SUB SWAP2 ADD MSTORE PUSH1 0x0 DUP2 MSTORE PUSH1 0x20 ADD SWAP1 JUMP JUMPDEST ISZERO PUSH2 0x17AC JUMPI JUMP JUMPDEST PUSH1 0x40 MLOAD PUSH3 0x461BCD PUSH1 0xE5 SHL DUP2 MSTORE PUSH1 0x20 PUSH1 0x4 DUP3 ADD MSTORE PUSH1 0x10 PUSH1 0x24 DUP3 ADD MSTORE PUSH32 0x554E534146455F524543495049454E5400000000000000000000000000000000 PUSH1 0x44 DUP3 ADD MSTORE PUSH1 0x64 SWAP1 REVERT JUMPDEST SWAP2 PUSH2 0x17FD DUP2 DUP4 DUP6 PUSH2 0x120E JUMP JUMPDEST PUSH1 0x0 DUP3 EXTCODESIZE PUSH2 0x1811 PUSH2 0x180D DUP4 PUSH2 0x443 JUMP JUMPDEST SWAP2 SWAP1 JUMP JUMPDEST EQ SWAP3 DUP4 ISZERO PUSH2 0x1827 JUMPI JUMPDEST POP POP POP PUSH2 0x1CC SWAP2 POP PUSH2 0x17A5 JUMP JUMPDEST PUSH1 0x20 SWAP4 POP PUSH2 0x183A PUSH2 0xF82 PUSH2 0x184E SWAP3 PUSH2 0x905 JUMP JUMPDEST SWAP2 PUSH4 0x150B7A02 PUSH2 0x1859 CALLER SWAP6 PUSH2 0x13FF PUSH1 0x40 MLOAD SWAP1 JUMP JUMPDEST DUP6 MSTORE PUSH1 0x4 DUP6 ADD PUSH2 0x176D JUMP JUMPDEST SUB SWAP3 GAS CALL DUP1 ISZERO PUSH2 0xFEF JUMPI PUSH2 0x1CC SWAP2 PUSH1 0x0 SWAP2 PUSH2 0x1893 JUMPI JUMPDEST POP PUSH2 0x188A PUSH4 0xA85BD01 PUSH1 0xE1 SHL JUMPDEST SWAP2 PUSH1 0x1 PUSH1 0x1 PUSH1 0xE0 SHL SUB NOT AND SWAP1 JUMP JUMPDEST EQ CODESIZE DUP1 DUP1 PUSH2 0x181A JUMP JUMPDEST PUSH2 0x18B4 SWAP2 POP PUSH1 0x20 RETURNDATASIZE DUP2 GT PUSH2 0x18BA JUMPI JUMPDEST PUSH2 0x18AC DUP2 DUP4 PUSH2 0x320 JUMP JUMPDEST DUP2 ADD SWAP1 PUSH2 0x1759 JUMP JUMPDEST CODESIZE PUSH2 0x186F JUMP JUMPDEST POP RETURNDATASIZE PUSH2 0x18A2 JUMP JUMPDEST SWAP2 SWAP1 PUSH2 0x3D6 DUP2 PUSH2 0x18D8 DUP2 PUSH2 0x3E0 SWAP6 PUSH1 0x20 SWAP2 DUP2 MSTORE ADD SWAP1 JUMP JUMPDEST DUP1 SWAP6 PUSH2 0x67C JUMP JUMPDEST SWAP1 SWAP4 SWAP2 PUSH2 0x1E2 SWAP6 SWAP4 PUSH2 0x178C PUSH2 0x1900 SWAP3 PUSH2 0x1167 PUSH1 0x80 DUP7 ADD SWAP9 PUSH1 0x0 DUP8 ADD SWAP1 PUSH2 0x4AC JUMP JUMPDEST PUSH1 0x60 DUP2 DUP6 SUB SWAP2 ADD MSTORE PUSH2 0x18C1 JUMP JUMPDEST SWAP4 SWAP1 SWAP3 PUSH2 0x191B DUP4 DUP6 DUP8 PUSH2 0x120E JUMP JUMPDEST PUSH1 0x0 SWAP1 DUP5 EXTCODESIZE PUSH2 0x192C PUSH2 0x180D DUP5 PUSH2 0x443 JUMP JUMPDEST EQ SWAP5 DUP6 ISZERO PUSH2 0x1944 JUMPI JUMPDEST POP POP POP POP POP PUSH2 0x1CC SWAP2 POP PUSH2 0x17A5 JUMP JUMPDEST PUSH1 0x20 SWAP6 POP SWAP1 PUSH2 0x1986 PUSH2 0x195C PUSH2 0xF82 PUSH2 0x197B SWAP6 SWAP5 PUSH2 0x905 JUMP JUMPDEST SWAP5 PUSH4 0x150B7A02 SWAP3 CALLER SWAP8 PUSH2 0x196E PUSH1 0x40 MLOAD SWAP1 JUMP JUMPDEST SWAP11 DUP12 SWAP10 DUP11 SWAP9 DUP10 SWAP8 PUSH1 0xE0 SHL SWAP1 JUMP JUMPDEST DUP8 MSTORE PUSH1 0x4 DUP8 ADD PUSH2 0x18DF JUMP JUMPDEST SUB SWAP3 GAS CALL DUP1 ISZERO PUSH2 0xFEF JUMPI PUSH2 0x1CC SWAP2 PUSH1 0x0 SWAP2 PUSH2 0x19B8 JUMPI JUMPDEST POP PUSH2 0x19AD PUSH4 0xA85BD01 PUSH1 0xE1 SHL PUSH2 0x187C JUMP JUMPDEST EQ CODESIZE DUP1 DUP1 DUP1 DUP1 PUSH2 0x1935 JUMP JUMPDEST PUSH2 0x19D0 SWAP2 POP PUSH1 0x20 RETURNDATASIZE DUP2 GT PUSH2 0x18BA JUMPI PUSH2 0x18AC DUP2 DUP4 PUSH2 0x320 JUMP JUMPDEST CODESIZE PUSH2 0x199C JUMP JUMPDEST PUSH2 0x19E9 PUSH2 0x19E3 PUSH2 0x1E2 SWAP3 SWAP1 JUMP JUMPDEST PUSH1 0xE0 SHL SWAP1 JUMP JUMPDEST PUSH1 0x1 PUSH1 0x1 PUSH1 0xE0 SHL SUB NOT AND SWAP1 JUMP JUMPDEST PUSH2 0x1A03 PUSH4 0x1FFC9A7 PUSH2 0x19D6 JUMP JUMPDEST PUSH1 0x1 PUSH1 0x1 PUSH1 0xE0 SHL SUB NOT DUP3 AND EQ SWAP1 DUP2 ISZERO PUSH2 0x1A37 JUMPI JUMPDEST DUP2 ISZERO PUSH2 0x1A21 JUMPI POP SWAP1 JUMP JUMPDEST SWAP1 POP PUSH2 0x1A33 PUSH2 0x187C PUSH4 0x5B5E139F PUSH2 0x19D6 JUMP JUMPDEST EQ SWAP1 JUMP JUMPDEST SWAP1 POP PUSH2 0x1A46 PUSH4 0x80AC58CD PUSH2 0x19D6 JUMP JUMPDEST PUSH1 0x1 PUSH1 0x1 PUSH1 0xE0 SHL SUB NOT DUP3 AND EQ SWAP1 PUSH2 0x1A17 JUMP JUMPDEST ISZERO PUSH2 0x1A5F JUMPI JUMP JUMPDEST PUSH1 0x40 MLOAD PUSH3 0x461BCD PUSH1 0xE5 SHL DUP2 MSTORE PUSH1 0x20 PUSH1 0x4 DUP3 ADD MSTORE PUSH1 0xA PUSH1 0x24 DUP3 ADD MSTORE PUSH32 0x4E4F545F4D494E54454400000000000000000000000000000000000000000000 PUSH1 0x44 DUP3 ADD MSTORE PUSH1 0x64 SWAP1 REVERT JUMPDEST SWAP2 SWAP1 PUSH1 0x8 PUSH2 0xB70 SWAP2 MUL SWAP2 PUSH2 0xC15 PUSH20 0xFFFFFFFFFFFFFFFFFFFFFFFFFFFFFFFFFFFFFFFF DUP5 SHL SWAP1 JUMP JUMPDEST SWAP2 SWAP1 PUSH2 0x1ADC PUSH2 0x1E2 PUSH2 0xB91 SWAP4 PUSH2 0x905 JUMP JUMPDEST SWAP1 DUP4 SLOAD PUSH2 0x1AA4 JUMP JUMPDEST PUSH2 0x1CC SWAP2 PUSH1 0x0 SWAP2 PUSH2 0x1ACB JUMP JUMPDEST PUSH1 0x2 SWAP1 PUSH2 0x1B00 PUSH2 0xEAC DUP3 DUP5 PUSH2 0x450 JUMP JUMPDEST SWAP2 PUSH2 0x1B52 PUSH1 0x0 PUSH2 0x1B47 DUP2 PUSH2 0x1B42 DUP7 PUSH2 0x1B17 DUP4 PUSH2 0xA55 JUMP JUMPDEST SWAP7 PUSH2 0x1B34 PUSH2 0x1B24 DUP10 PUSH2 0x471 JUMP JUMPDEST PUSH2 0x1B2D DUP13 PUSH2 0x471 JUMP JUMPDEST EQ ISZERO PUSH2 0x1A58 JUMP JUMPDEST PUSH2 0x13C5 PUSH2 0x139A DUP12 PUSH1 0x3 PUSH2 0x9A4 JUMP JUMPDEST PUSH2 0x1AE4 JUMP JUMPDEST PUSH2 0x1B42 DUP5 PUSH1 0x4 PUSH2 0x450 JUMP JUMPDEST PUSH2 0x14BE PUSH2 0x14B8 PUSH2 0x14B2 PUSH32 0xDDF252AD1BE2C89B69C2B068FC378DAA952BA7F163C4A11628F55A4DF523B3EF SWAP6 PUSH2 0x905 JUMP JUMPDEST PUSH2 0x1B8C DUP3 DUP3 PUSH2 0x1C7B JUMP JUMPDEST PUSH1 0x0 DUP2 EXTCODESIZE PUSH2 0x1B9C PUSH2 0x180D DUP4 PUSH2 0x443 JUMP JUMPDEST EQ SWAP2 DUP3 ISZERO PUSH2 0x1BB1 JUMPI JUMPDEST POP POP PUSH2 0x1CC SWAP2 POP PUSH2 0x17A5 JUMP JUMPDEST PUSH1 0x20 SWAP3 POP PUSH2 0xF82 PUSH2 0x1BC1 SWAP2 PUSH2 0x905 JUMP JUMPDEST PUSH2 0x184E PUSH4 0x150B7A02 SWAP3 CALLER SWAP4 PUSH2 0x1BE2 PUSH2 0x1BD8 DUP4 PUSH2 0xA55 JUMP JUMPDEST SWAP8 PUSH2 0x13FF PUSH1 0x40 MLOAD SWAP1 JUMP JUMPDEST SUB SWAP3 GAS CALL DUP1 ISZERO PUSH2 0xFEF JUMPI PUSH2 0x1CC SWAP2 PUSH1 0x0 SWAP2 PUSH2 0x1C11 JUMPI JUMPDEST POP PUSH2 0x1C09 PUSH4 0xA85BD01 PUSH1 0xE1 SHL PUSH2 0x187C JUMP JUMPDEST EQ CODESIZE DUP1 PUSH2 0x1BA5 JUMP JUMPDEST PUSH2 0x1C29 SWAP2 POP PUSH1 0x20 RETURNDATASIZE DUP2 GT PUSH2 0x18BA JUMPI PUSH2 0x18AC DUP2 DUP4 PUSH2 0x320 JUMP JUMPDEST CODESIZE PUSH2 0x1BF8 JUMP JUMPDEST ISZERO PUSH2 0x1C36 JUMPI JUMP JUMPDEST PUSH1 0x40 MLOAD PUSH3 0x461BCD PUSH1 0xE5 SHL DUP2 MSTORE PUSH1 0x20 PUSH1 0x4 DUP3 ADD MSTORE PUSH1 0xE PUSH1 0x24 DUP3 ADD MSTORE PUSH32 0x414C52454144595F4D494E544544000000000000000000000000000000000000 PUSH1 0x44 DUP3 ADD MSTORE PUSH1 0x64 SWAP1 REVERT JUMPDEST SWAP1 PUSH2 0x1C86 PUSH1 0x0 PUSH2 0xA55 JUMP JUMPDEST SWAP2 PUSH2 0x1C9C PUSH2 0x1C93 DUP5 PUSH2 0x471 JUMP JUMPDEST PUSH2 0x124F DUP4 PUSH2 0x471 JUMP JUMPDEST PUSH2 0x1B52 DUP2 PUSH2 0x13CA DUP5 PUSH1 0x2 PUSH2 0x1CC8 PUSH2 0x1CB6 PUSH2 0xEAC DUP5 DUP5 PUSH2 0x450 JUMP JUMPDEST PUSH2 0x1CC2 PUSH2 0xA8E DUP12 PUSH2 0x471 JUMP JUMPDEST EQ PUSH2 0x1C2F JUMP JUMPDEST PUSH2 0x13C5 PUSH2 0x13B3 DUP6 PUSH1 0x3 PUSH2 0x9A4 JUMP INVALID LOG2 PUSH5 0x6970667358 0x22 SLT KECCAK256 0x28 0x5C 0xE2 MOD PUSH19 0xABAFC408A96B386D34C89A3738A4A7A1F5A156 MOD SWAP1 EXTCODEHASH 0x23 0x1E PUSH2 0xA8DE PUSH5 0x736F6C6343 STOP ADDMOD EQ STOP CALLER "
        },
        "methodIdentifiers": {
          "approve(address,uint256)": "095ea7b3",
          "balanceOf(address)": "70a08231",
          "brand()": "2d9fff01",
          "burn(uint256)": "42966c68",
          "factory()": "c45a0155",
          "getApproved(uint256)": "081812fc",
          "isApprovedForAll(address,address)": "e985e9c5",
          "mint(address,uint256)": "40c10f19",
          "model()": "0ad9d052",
          "name()": "06fdde03",
          "owner()": "8da5cb5b",
          "ownerOf(uint256)": "6352211e",
          "ref()": "21a78f68",
          "renounceOwnership()": "715018a6",
          "safeTransferFrom(address,address,uint256)": "42842e0e",
          "safeTransferFrom(address,address,uint256,bytes)": "b88d4fde",
          "setApprovalForAll(address,bool)": "a22cb465",
          "setBrand(string)": "c1fd4137",
          "setModel(string)": "46d75c8c",
          "setRef(string)": "c73e835c",
          "supportsInterface(bytes4)": "01ffc9a7",
          "symbol()": "95d89b41",
          "tokenURI(uint256)": "c87b56dd",
          "transferFrom(address,address,uint256)": "23b872dd",
          "transferOwnership(address)": "f2fde38b"
        }
      }
    }
  }
}